{
	"KAMIL SIR/PROJECT01/BUY-SELL/contracts/coinstar.sol": {
		"coinstar": {
			"abi": [
				{
					"anonymous": false,
					"inputs": [
						{
							"indexed": true,
							"internalType": "address",
							"name": "previousOwner",
							"type": "address"
						},
						{
							"indexed": true,
							"internalType": "address",
							"name": "newOwner",
							"type": "address"
						}
					],
					"name": "OwnershipTransferred",
					"type": "event"
				},
				{
					"anonymous": false,
					"inputs": [
						{
							"indexed": true,
							"internalType": "address",
							"name": "buyer",
							"type": "address"
						},
						{
							"indexed": false,
							"internalType": "uint256",
							"name": "price",
							"type": "uint256"
						}
					],
					"name": "Purchase",
					"type": "event"
				},
				{
					"inputs": [],
					"name": "InvestorId",
					"outputs": [
						{
							"internalType": "uint256",
							"name": "",
							"type": "uint256"
						}
					],
					"stateMutability": "view",
					"type": "function"
				},
				{
					"inputs": [],
					"name": "MyToken",
					"outputs": [
						{
							"internalType": "contract Token",
							"name": "",
							"type": "address"
						}
					],
					"stateMutability": "view",
					"type": "function"
				},
				{
					"inputs": [
						{
							"internalType": "uint256",
							"name": "token",
							"type": "uint256"
						}
					],
					"name": "buy",
					"outputs": [],
					"stateMutability": "payable",
					"type": "function"
				},
				{
					"inputs": [],
					"name": "buyPrice",
					"outputs": [
						{
							"internalType": "uint256",
							"name": "",
							"type": "uint256"
						}
					],
					"stateMutability": "view",
					"type": "function"
				},
				{
					"inputs": [
						{
							"internalType": "address",
							"name": "user",
							"type": "address"
						}
					],
					"name": "getID",
					"outputs": [
						{
							"internalType": "uint256[]",
							"name": "",
							"type": "uint256[]"
						}
					],
					"stateMutability": "view",
					"type": "function"
				},
				{
					"inputs": [],
					"name": "getRate",
					"outputs": [
						{
							"internalType": "uint256",
							"name": "",
							"type": "uint256"
						}
					],
					"stateMutability": "view",
					"type": "function"
				},
				{
					"inputs": [
						{
							"internalType": "contract Token",
							"name": "_myToken",
							"type": "address"
						}
					],
					"name": "initialize",
					"outputs": [],
					"stateMutability": "nonpayable",
					"type": "function"
				},
				{
					"inputs": [
						{
							"internalType": "uint256",
							"name": "",
							"type": "uint256"
						}
					],
					"name": "investorAmount",
					"outputs": [
						{
							"internalType": "uint256",
							"name": "",
							"type": "uint256"
						}
					],
					"stateMutability": "view",
					"type": "function"
				},
				{
					"inputs": [],
					"name": "owner",
					"outputs": [
						{
							"internalType": "address",
							"name": "",
							"type": "address"
						}
					],
					"stateMutability": "view",
					"type": "function"
				},
				{
					"inputs": [],
					"name": "price",
					"outputs": [
						{
							"internalType": "uint256",
							"name": "",
							"type": "uint256"
						}
					],
					"stateMutability": "view",
					"type": "function"
				},
				{
					"inputs": [],
					"name": "renounceOwnership",
					"outputs": [],
					"stateMutability": "nonpayable",
					"type": "function"
				},
				{
					"inputs": [
						{
							"internalType": "uint256",
							"name": "amount",
							"type": "uint256"
						},
						{
							"internalType": "uint256",
							"name": "id",
							"type": "uint256"
						}
					],
					"name": "sell",
					"outputs": [],
					"stateMutability": "nonpayable",
					"type": "function"
				},
				{
					"inputs": [],
					"name": "sellPrice",
					"outputs": [
						{
							"internalType": "uint256",
							"name": "",
							"type": "uint256"
						}
					],
					"stateMutability": "view",
					"type": "function"
				},
				{
					"inputs": [],
					"name": "seller",
					"outputs": [
						{
							"internalType": "address",
							"name": "",
							"type": "address"
						}
					],
					"stateMutability": "view",
					"type": "function"
				},
				{
					"inputs": [
						{
							"internalType": "uint256",
							"name": "newSellPrice",
							"type": "uint256"
						},
						{
							"internalType": "uint256",
							"name": "newBuyPrice",
							"type": "uint256"
						}
					],
					"name": "setPrices",
					"outputs": [],
					"stateMutability": "nonpayable",
					"type": "function"
				},
				{
					"inputs": [],
					"name": "tokenPrice",
					"outputs": [
						{
							"internalType": "uint256",
							"name": "",
							"type": "uint256"
						}
					],
					"stateMutability": "view",
					"type": "function"
				},
				{
					"inputs": [
						{
							"internalType": "address",
							"name": "newOwner",
							"type": "address"
						}
					],
					"name": "transferOwnership",
					"outputs": [],
					"stateMutability": "nonpayable",
					"type": "function"
				}
			],
			"devdoc": {
				"kind": "dev",
				"methods": {
					"owner()": {
						"details": "Returns the address of the current owner."
					},
					"renounceOwnership()": {
						"details": "Leaves the contract without owner. It will not be possible to call `onlyOwner` functions anymore. Can only be called by the current owner. NOTE: Renouncing ownership will leave the contract without an owner, thereby removing any functionality that is only available to the owner."
					},
					"transferOwnership(address)": {
						"details": "Transfers ownership of the contract to a new account (`newOwner`). Can only be called by the current owner."
					}
				},
				"version": 1
			},
			"evm": {
				"assembly": "    /* \"KAMIL SIR/PROJECT01/BUY-SELL/contracts/coinstar.sol\":84:1967  contract coinstar is Ownable {... */\n  mstore(0x40, 0x80)\n    /* \"KAMIL SIR/PROJECT01/BUY-SELL/contracts/coinstar.sol\":184:208  0.0000000000000001 ether */\n  0x64\n    /* \"KAMIL SIR/PROJECT01/BUY-SELL/contracts/coinstar.sol\":156:208  uint256 public tokenPrice = 0.0000000000000001 ether */\n  0x01\n  sstore\n    /* \"KAMIL SIR/PROJECT01/BUY-SELL/contracts/coinstar.sol\":84:1967  contract coinstar is Ownable {... */\n  callvalue\n  dup1\n  iszero\n  tag_1\n  jumpi\n  0x00\n  dup1\n  revert\ntag_1:\n  pop\n    /* \"KAMIL SIR/PROJECT01/BUY-SELL/contracts/utils/Ownable.sol\":983:1015  _transferOwnership(_msgSender()) */\n  tag_4\n    /* \"KAMIL SIR/PROJECT01/BUY-SELL/contracts/utils/Ownable.sol\":1002:1014  _msgSender() */\n  tag_5\n    /* \"KAMIL SIR/PROJECT01/BUY-SELL/contracts/utils/Ownable.sol\":1002:1012  _msgSender */\n  shl(0x20, tag_6)\n    /* \"KAMIL SIR/PROJECT01/BUY-SELL/contracts/utils/Ownable.sol\":1002:1014  _msgSender() */\n  0x20\n  shr\n  jump\t// in\ntag_5:\n    /* \"KAMIL SIR/PROJECT01/BUY-SELL/contracts/utils/Ownable.sol\":983:1001  _transferOwnership */\n  shl(0x20, tag_7)\n    /* \"KAMIL SIR/PROJECT01/BUY-SELL/contracts/utils/Ownable.sol\":983:1015  _transferOwnership(_msgSender()) */\n  0x20\n  shr\n  jump\t// in\ntag_4:\n    /* \"KAMIL SIR/PROJECT01/BUY-SELL/contracts/coinstar.sol\":84:1967  contract coinstar is Ownable {... */\n  jump(tag_8)\n    /* \"KAMIL SIR/PROJECT01/BUY-SELL/contracts/utils/Context.sol\":657:755  function _msgSender() internal view virtual returns (address) {... */\ntag_6:\n    /* \"KAMIL SIR/PROJECT01/BUY-SELL/contracts/utils/Context.sol\":710:717  address */\n  0x00\n    /* \"KAMIL SIR/PROJECT01/BUY-SELL/contracts/utils/Context.sol\":737:747  msg.sender */\n  caller\n    /* \"KAMIL SIR/PROJECT01/BUY-SELL/contracts/utils/Context.sol\":730:747  return msg.sender */\n  swap1\n  pop\n    /* \"KAMIL SIR/PROJECT01/BUY-SELL/contracts/utils/Context.sol\":657:755  function _msgSender() internal view virtual returns (address) {... */\n  swap1\n  jump\t// out\n    /* \"KAMIL SIR/PROJECT01/BUY-SELL/contracts/utils/Ownable.sol\":2566:2757  function _transferOwnership(address newOwner) internal virtual {... */\ntag_7:\n    /* \"KAMIL SIR/PROJECT01/BUY-SELL/contracts/utils/Ownable.sol\":2640:2656  address oldOwner */\n  0x00\n    /* \"KAMIL SIR/PROJECT01/BUY-SELL/contracts/utils/Ownable.sol\":2659:2665  _owner */\n  dup1\n  0x00\n  swap1\n  sload\n  swap1\n  0x0100\n  exp\n  swap1\n  div\n  0xffffffffffffffffffffffffffffffffffffffff\n  and\n    /* \"KAMIL SIR/PROJECT01/BUY-SELL/contracts/utils/Ownable.sol\":2640:2665  address oldOwner = _owner */\n  swap1\n  pop\n    /* \"KAMIL SIR/PROJECT01/BUY-SELL/contracts/utils/Ownable.sol\":2685:2693  newOwner */\n  dup2\n    /* \"KAMIL SIR/PROJECT01/BUY-SELL/contracts/utils/Ownable.sol\":2676:2682  _owner */\n  0x00\n  dup1\n    /* \"KAMIL SIR/PROJECT01/BUY-SELL/contracts/utils/Ownable.sol\":2676:2693  _owner = newOwner */\n  0x0100\n  exp\n  dup2\n  sload\n  dup2\n  0xffffffffffffffffffffffffffffffffffffffff\n  mul\n  not\n  and\n  swap1\n  dup4\n  0xffffffffffffffffffffffffffffffffffffffff\n  and\n  mul\n  or\n  swap1\n  sstore\n  pop\n    /* \"KAMIL SIR/PROJECT01/BUY-SELL/contracts/utils/Ownable.sol\":2740:2748  newOwner */\n  dup2\n    /* \"KAMIL SIR/PROJECT01/BUY-SELL/contracts/utils/Ownable.sol\":2709:2749  OwnershipTransferred(oldOwner, newOwner) */\n  0xffffffffffffffffffffffffffffffffffffffff\n  and\n    /* \"KAMIL SIR/PROJECT01/BUY-SELL/contracts/utils/Ownable.sol\":2730:2738  oldOwner */\n  dup2\n    /* \"KAMIL SIR/PROJECT01/BUY-SELL/contracts/utils/Ownable.sol\":2709:2749  OwnershipTransferred(oldOwner, newOwner) */\n  0xffffffffffffffffffffffffffffffffffffffff\n  and\n  0x8be0079c531659141344cd1fd0a4f28419497f9722a3daafe3b4186f6b6457e0\n  mload(0x40)\n  mload(0x40)\n  dup1\n  swap2\n  sub\n  swap1\n  log3\n    /* \"KAMIL SIR/PROJECT01/BUY-SELL/contracts/utils/Ownable.sol\":2629:2757  {... */\n  pop\n    /* \"KAMIL SIR/PROJECT01/BUY-SELL/contracts/utils/Ownable.sol\":2566:2757  function _transferOwnership(address newOwner) internal virtual {... */\n  pop\n  jump\t// out\n    /* \"KAMIL SIR/PROJECT01/BUY-SELL/contracts/coinstar.sol\":84:1967  contract coinstar is Ownable {... */\ntag_8:\n  dataSize(sub_0)\n  dup1\n  dataOffset(sub_0)\n  0x00\n  codecopy\n  0x00\n  return\nstop\n\nsub_0: assembly {\n        /* \"KAMIL SIR/PROJECT01/BUY-SELL/contracts/coinstar.sol\":84:1967  contract coinstar is Ownable {... */\n      mstore(0x40, 0x80)\n      jumpi(tag_1, lt(calldatasize, 0x04))\n      shr(0xe0, calldataload(0x00))\n      dup1\n      0x8620410b\n      gt\n      tag_19\n      jumpi\n      dup1\n      0xc4d66de8\n      gt\n      tag_20\n      jumpi\n      dup1\n      0xc4d66de8\n      eq\n      tag_14\n      jumpi\n      dup1\n      0xd79875eb\n      eq\n      tag_15\n      jumpi\n      dup1\n      0xd96a094a\n      eq\n      tag_16\n      jumpi\n      dup1\n      0xf2fde38b\n      eq\n      tag_17\n      jumpi\n      dup1\n      0xf9adf3ec\n      eq\n      tag_18\n      jumpi\n      jump(tag_1)\n    tag_20:\n      dup1\n      0x8620410b\n      eq\n      tag_10\n      jumpi\n      dup1\n      0x8da5cb5b\n      eq\n      tag_11\n      jumpi\n      dup1\n      0x99f826a5\n      eq\n      tag_12\n      jumpi\n      dup1\n      0xa035b1fe\n      eq\n      tag_13\n      jumpi\n      jump(tag_1)\n    tag_19:\n      dup1\n      0x4b750334\n      gt\n      tag_21\n      jumpi\n      dup1\n      0x4b750334\n      eq\n      tag_6\n      jumpi\n      dup1\n      0x679aefce\n      eq\n      tag_7\n      jumpi\n      dup1\n      0x715018a6\n      eq\n      tag_8\n      jumpi\n      dup1\n      0x7ff9b596\n      eq\n      tag_9\n      jumpi\n      jump(tag_1)\n    tag_21:\n      dup1\n      0x048cc082\n      eq\n      tag_2\n      jumpi\n      dup1\n      0x05fefda7\n      eq\n      tag_3\n      jumpi\n      dup1\n      0x08551a53\n      eq\n      tag_4\n      jumpi\n      dup1\n      0x089327de\n      eq\n      tag_5\n      jumpi\n    tag_1:\n      0x00\n      dup1\n      revert\n        /* \"KAMIL SIR/PROJECT01/BUY-SELL/contracts/coinstar.sol\":460:485  uint256 public InvestorId */\n    tag_2:\n      callvalue\n      dup1\n      iszero\n      tag_22\n      jumpi\n      0x00\n      dup1\n      revert\n    tag_22:\n      pop\n      tag_23\n      tag_24\n      jump\t// in\n    tag_23:\n      mload(0x40)\n      tag_25\n      swap2\n      swap1\n      tag_26\n      jump\t// in\n    tag_25:\n      mload(0x40)\n      dup1\n      swap2\n      sub\n      swap1\n      return\n        /* \"KAMIL SIR/PROJECT01/BUY-SELL/contracts/coinstar.sol\":936:1114  function setPrices(uint256 newSellPrice, uint256 newBuyPrice)... */\n    tag_3:\n      callvalue\n      dup1\n      iszero\n      tag_27\n      jumpi\n      0x00\n      dup1\n      revert\n    tag_27:\n      pop\n      tag_28\n      0x04\n      dup1\n      calldatasize\n      sub\n      dup2\n      add\n      swap1\n      tag_29\n      swap2\n      swap1\n      tag_30\n      jump\t// in\n    tag_29:\n      tag_31\n      jump\t// in\n    tag_28:\n      stop\n        /* \"KAMIL SIR/PROJECT01/BUY-SELL/contracts/coinstar.sol\":599:620  address public seller */\n    tag_4:\n      callvalue\n      dup1\n      iszero\n      tag_32\n      jumpi\n      0x00\n      dup1\n      revert\n    tag_32:\n      pop\n      tag_33\n      tag_34\n      jump\t// in\n    tag_33:\n      mload(0x40)\n      tag_35\n      swap2\n      swap1\n      tag_36\n      jump\t// in\n    tag_35:\n      mload(0x40)\n      dup1\n      swap2\n      sub\n      swap1\n      return\n        /* \"KAMIL SIR/PROJECT01/BUY-SELL/contracts/coinstar.sol\":215:235  Token public MyToken */\n    tag_5:\n      callvalue\n      dup1\n      iszero\n      tag_37\n      jumpi\n      0x00\n      dup1\n      revert\n    tag_37:\n      pop\n      tag_38\n      tag_39\n      jump\t// in\n    tag_38:\n      mload(0x40)\n      tag_40\n      swap2\n      swap1\n      tag_41\n      jump\t// in\n    tag_40:\n      mload(0x40)\n      dup1\n      swap2\n      sub\n      swap1\n      return\n        /* \"KAMIL SIR/PROJECT01/BUY-SELL/contracts/coinstar.sol\":289:313  uint256 public sellPrice */\n    tag_6:\n      callvalue\n      dup1\n      iszero\n      tag_42\n      jumpi\n      0x00\n      dup1\n      revert\n    tag_42:\n      pop\n      tag_43\n      tag_44\n      jump\t// in\n    tag_43:\n      mload(0x40)\n      tag_45\n      swap2\n      swap1\n      tag_26\n      jump\t// in\n    tag_45:\n      mload(0x40)\n      dup1\n      swap2\n      sub\n      swap1\n      return\n        /* \"KAMIL SIR/PROJECT01/BUY-SELL/contracts/coinstar.sol\":843:928  function getRate() public view returns (uint256) {... */\n    tag_7:\n      callvalue\n      dup1\n      iszero\n      tag_46\n      jumpi\n      0x00\n      dup1\n      revert\n    tag_46:\n      pop\n      tag_47\n      tag_48\n      jump\t// in\n    tag_47:\n      mload(0x40)\n      tag_49\n      swap2\n      swap1\n      tag_26\n      jump\t// in\n    tag_49:\n      mload(0x40)\n      dup1\n      swap2\n      sub\n      swap1\n      return\n        /* \"KAMIL SIR/PROJECT01/BUY-SELL/contracts/utils/Ownable.sol\":1910:2013  function renounceOwnership() public virtual onlyOwner {... */\n    tag_8:\n      callvalue\n      dup1\n      iszero\n      tag_50\n      jumpi\n      0x00\n      dup1\n      revert\n    tag_50:\n      pop\n      tag_51\n      tag_52\n      jump\t// in\n    tag_51:\n      stop\n        /* \"KAMIL SIR/PROJECT01/BUY-SELL/contracts/coinstar.sol\":156:208  uint256 public tokenPrice = 0.0000000000000001 ether */\n    tag_9:\n      callvalue\n      dup1\n      iszero\n      tag_53\n      jumpi\n      0x00\n      dup1\n      revert\n    tag_53:\n      pop\n      tag_54\n      tag_55\n      jump\t// in\n    tag_54:\n      mload(0x40)\n      tag_56\n      swap2\n      swap1\n      tag_26\n      jump\t// in\n    tag_56:\n      mload(0x40)\n      dup1\n      swap2\n      sub\n      swap1\n      return\n        /* \"KAMIL SIR/PROJECT01/BUY-SELL/contracts/coinstar.sol\":320:343  uint256 public buyPrice */\n    tag_10:\n      callvalue\n      dup1\n      iszero\n      tag_57\n      jumpi\n      0x00\n      dup1\n      revert\n    tag_57:\n      pop\n      tag_58\n      tag_59\n      jump\t// in\n    tag_58:\n      mload(0x40)\n      tag_60\n      swap2\n      swap1\n      tag_26\n      jump\t// in\n    tag_60:\n      mload(0x40)\n      dup1\n      swap2\n      sub\n      swap1\n      return\n        /* \"KAMIL SIR/PROJECT01/BUY-SELL/contracts/utils/Ownable.sol\":1262:1349  function owner() public view virtual returns (address) {... */\n    tag_11:\n      callvalue\n      dup1\n      iszero\n      tag_61\n      jumpi\n      0x00\n      dup1\n      revert\n    tag_61:\n      pop\n      tag_62\n      tag_63\n      jump\t// in\n    tag_62:\n      mload(0x40)\n      tag_64\n      swap2\n      swap1\n      tag_36\n      jump\t// in\n    tag_64:\n      mload(0x40)\n      dup1\n      swap2\n      sub\n      swap1\n      return\n        /* \"KAMIL SIR/PROJECT01/BUY-SELL/contracts/coinstar.sol\":720:835  function getID(address user) public view returns (uint256[] memory) {... */\n    tag_12:\n      callvalue\n      dup1\n      iszero\n      tag_65\n      jumpi\n      0x00\n      dup1\n      revert\n    tag_65:\n      pop\n      tag_66\n      0x04\n      dup1\n      calldatasize\n      sub\n      dup2\n      add\n      swap1\n      tag_67\n      swap2\n      swap1\n      tag_68\n      jump\t// in\n    tag_67:\n      tag_69\n      jump\t// in\n    tag_66:\n      mload(0x40)\n      tag_70\n      swap2\n      swap1\n      tag_71\n      jump\t// in\n    tag_70:\n      mload(0x40)\n      dup1\n      swap2\n      sub\n      swap1\n      return\n        /* \"KAMIL SIR/PROJECT01/BUY-SELL/contracts/coinstar.sol\":627:647  uint256 public price */\n    tag_13:\n      callvalue\n      dup1\n      iszero\n      tag_72\n      jumpi\n      0x00\n      dup1\n      revert\n    tag_72:\n      pop\n      tag_73\n      tag_74\n      jump\t// in\n    tag_73:\n      mload(0x40)\n      tag_75\n      swap2\n      swap1\n      tag_26\n      jump\t// in\n    tag_75:\n      mload(0x40)\n      dup1\n      swap2\n      sub\n      swap1\n      return\n        /* \"KAMIL SIR/PROJECT01/BUY-SELL/contracts/coinstar.sol\":494:591  function initialize(Token _myToken) public onlyOwner {... */\n    tag_14:\n      callvalue\n      dup1\n      iszero\n      tag_76\n      jumpi\n      0x00\n      dup1\n      revert\n    tag_76:\n      pop\n      tag_77\n      0x04\n      dup1\n      calldatasize\n      sub\n      dup2\n      add\n      swap1\n      tag_78\n      swap2\n      swap1\n      tag_79\n      jump\t// in\n    tag_78:\n      tag_80\n      jump\t// in\n    tag_77:\n      stop\n        /* \"KAMIL SIR/PROJECT01/BUY-SELL/contracts/coinstar.sol\":1533:1964  function sell(uint256 amount, uint256 id) public {... */\n    tag_15:\n      callvalue\n      dup1\n      iszero\n      tag_81\n      jumpi\n      0x00\n      dup1\n      revert\n    tag_81:\n      pop\n      tag_82\n      0x04\n      dup1\n      calldatasize\n      sub\n      dup2\n      add\n      swap1\n      tag_83\n      swap2\n      swap1\n      tag_30\n      jump\t// in\n    tag_83:\n      tag_84\n      jump\t// in\n    tag_82:\n      stop\n        /* \"KAMIL SIR/PROJECT01/BUY-SELL/contracts/coinstar.sol\":1122:1525  function buy(uint256 token) public payable {... */\n    tag_16:\n      tag_85\n      0x04\n      dup1\n      calldatasize\n      sub\n      dup2\n      add\n      swap1\n      tag_86\n      swap2\n      swap1\n      tag_87\n      jump\t// in\n    tag_86:\n      tag_88\n      jump\t// in\n    tag_85:\n      stop\n        /* \"KAMIL SIR/PROJECT01/BUY-SELL/contracts/utils/Ownable.sol\":2168:2406  function transferOwnership(address newOwner) public virtual onlyOwner {... */\n    tag_17:\n      callvalue\n      dup1\n      iszero\n      tag_89\n      jumpi\n      0x00\n      dup1\n      revert\n    tag_89:\n      pop\n      tag_90\n      0x04\n      dup1\n      calldatasize\n      sub\n      dup2\n      add\n      swap1\n      tag_91\n      swap2\n      swap1\n      tag_68\n      jump\t// in\n    tag_91:\n      tag_92\n      jump\t// in\n    tag_90:\n      stop\n        /* \"KAMIL SIR/PROJECT01/BUY-SELL/contracts/coinstar.sol\":404:453  mapping(uint256 => uint256) public investorAmount */\n    tag_18:\n      callvalue\n      dup1\n      iszero\n      tag_93\n      jumpi\n      0x00\n      dup1\n      revert\n    tag_93:\n      pop\n      tag_94\n      0x04\n      dup1\n      calldatasize\n      sub\n      dup2\n      add\n      swap1\n      tag_95\n      swap2\n      swap1\n      tag_87\n      jump\t// in\n    tag_95:\n      tag_96\n      jump\t// in\n    tag_94:\n      mload(0x40)\n      tag_97\n      swap2\n      swap1\n      tag_26\n      jump\t// in\n    tag_97:\n      mload(0x40)\n      dup1\n      swap2\n      sub\n      swap1\n      return\n        /* \"KAMIL SIR/PROJECT01/BUY-SELL/contracts/coinstar.sol\":460:485  uint256 public InvestorId */\n    tag_24:\n      sload(0x08)\n      dup2\n      jump\t// out\n        /* \"KAMIL SIR/PROJECT01/BUY-SELL/contracts/coinstar.sol\":936:1114  function setPrices(uint256 newSellPrice, uint256 newBuyPrice)... */\n    tag_31:\n        /* \"KAMIL SIR/PROJECT01/BUY-SELL/contracts/utils/Ownable.sol\":1148:1161  _checkOwner() */\n      tag_99\n        /* \"KAMIL SIR/PROJECT01/BUY-SELL/contracts/utils/Ownable.sol\":1148:1159  _checkOwner */\n      tag_100\n        /* \"KAMIL SIR/PROJECT01/BUY-SELL/contracts/utils/Ownable.sol\":1148:1161  _checkOwner() */\n      jump\t// in\n    tag_99:\n        /* \"KAMIL SIR/PROJECT01/BUY-SELL/contracts/coinstar.sol\":1061:1073  newSellPrice */\n      dup2\n        /* \"KAMIL SIR/PROJECT01/BUY-SELL/contracts/coinstar.sol\":1049:1058  sellPrice */\n      0x04\n        /* \"KAMIL SIR/PROJECT01/BUY-SELL/contracts/coinstar.sol\":1049:1073  sellPrice = newSellPrice */\n      dup2\n      swap1\n      sstore\n      pop\n        /* \"KAMIL SIR/PROJECT01/BUY-SELL/contracts/coinstar.sol\":1095:1106  newBuyPrice */\n      dup1\n        /* \"KAMIL SIR/PROJECT01/BUY-SELL/contracts/coinstar.sol\":1084:1092  buyPrice */\n      0x05\n        /* \"KAMIL SIR/PROJECT01/BUY-SELL/contracts/coinstar.sol\":1084:1106  buyPrice = newBuyPrice */\n      dup2\n      swap1\n      sstore\n      pop\n        /* \"KAMIL SIR/PROJECT01/BUY-SELL/contracts/coinstar.sol\":936:1114  function setPrices(uint256 newSellPrice, uint256 newBuyPrice)... */\n      pop\n      pop\n      jump\t// out\n        /* \"KAMIL SIR/PROJECT01/BUY-SELL/contracts/coinstar.sol\":599:620  address public seller */\n    tag_34:\n      0x09\n      0x00\n      swap1\n      sload\n      swap1\n      0x0100\n      exp\n      swap1\n      div\n      0xffffffffffffffffffffffffffffffffffffffff\n      and\n      dup2\n      jump\t// out\n        /* \"KAMIL SIR/PROJECT01/BUY-SELL/contracts/coinstar.sol\":215:235  Token public MyToken */\n    tag_39:\n      0x02\n      0x00\n      swap1\n      sload\n      swap1\n      0x0100\n      exp\n      swap1\n      div\n      0xffffffffffffffffffffffffffffffffffffffff\n      and\n      dup2\n      jump\t// out\n        /* \"KAMIL SIR/PROJECT01/BUY-SELL/contracts/coinstar.sol\":289:313  uint256 public sellPrice */\n    tag_44:\n      sload(0x04)\n      dup2\n      jump\t// out\n        /* \"KAMIL SIR/PROJECT01/BUY-SELL/contracts/coinstar.sol\":843:928  function getRate() public view returns (uint256) {... */\n    tag_48:\n        /* \"KAMIL SIR/PROJECT01/BUY-SELL/contracts/coinstar.sol\":883:890  uint256 */\n      0x00\n        /* \"KAMIL SIR/PROJECT01/BUY-SELL/contracts/coinstar.sol\":910:920  tokenPrice */\n      sload(0x01)\n        /* \"KAMIL SIR/PROJECT01/BUY-SELL/contracts/coinstar.sol\":903:920  return tokenPrice */\n      swap1\n      pop\n        /* \"KAMIL SIR/PROJECT01/BUY-SELL/contracts/coinstar.sol\":843:928  function getRate() public view returns (uint256) {... */\n      swap1\n      jump\t// out\n        /* \"KAMIL SIR/PROJECT01/BUY-SELL/contracts/utils/Ownable.sol\":1910:2013  function renounceOwnership() public virtual onlyOwner {... */\n    tag_52:\n        /* \"KAMIL SIR/PROJECT01/BUY-SELL/contracts/utils/Ownable.sol\":1148:1161  _checkOwner() */\n      tag_104\n        /* \"KAMIL SIR/PROJECT01/BUY-SELL/contracts/utils/Ownable.sol\":1148:1159  _checkOwner */\n      tag_100\n        /* \"KAMIL SIR/PROJECT01/BUY-SELL/contracts/utils/Ownable.sol\":1148:1161  _checkOwner() */\n      jump\t// in\n    tag_104:\n        /* \"KAMIL SIR/PROJECT01/BUY-SELL/contracts/utils/Ownable.sol\":1975:2005  _transferOwnership(address(0)) */\n      tag_106\n        /* \"KAMIL SIR/PROJECT01/BUY-SELL/contracts/utils/Ownable.sol\":2002:2003  0 */\n      0x00\n        /* \"KAMIL SIR/PROJECT01/BUY-SELL/contracts/utils/Ownable.sol\":1975:1993  _transferOwnership */\n      tag_107\n        /* \"KAMIL SIR/PROJECT01/BUY-SELL/contracts/utils/Ownable.sol\":1975:2005  _transferOwnership(address(0)) */\n      jump\t// in\n    tag_106:\n        /* \"KAMIL SIR/PROJECT01/BUY-SELL/contracts/utils/Ownable.sol\":1910:2013  function renounceOwnership() public virtual onlyOwner {... */\n      jump\t// out\n        /* \"KAMIL SIR/PROJECT01/BUY-SELL/contracts/coinstar.sol\":156:208  uint256 public tokenPrice = 0.0000000000000001 ether */\n    tag_55:\n      sload(0x01)\n      dup2\n      jump\t// out\n        /* \"KAMIL SIR/PROJECT01/BUY-SELL/contracts/coinstar.sol\":320:343  uint256 public buyPrice */\n    tag_59:\n      sload(0x05)\n      dup2\n      jump\t// out\n        /* \"KAMIL SIR/PROJECT01/BUY-SELL/contracts/utils/Ownable.sol\":1262:1349  function owner() public view virtual returns (address) {... */\n    tag_63:\n        /* \"KAMIL SIR/PROJECT01/BUY-SELL/contracts/utils/Ownable.sol\":1308:1315  address */\n      0x00\n        /* \"KAMIL SIR/PROJECT01/BUY-SELL/contracts/utils/Ownable.sol\":1335:1341  _owner */\n      dup1\n      0x00\n      swap1\n      sload\n      swap1\n      0x0100\n      exp\n      swap1\n      div\n      0xffffffffffffffffffffffffffffffffffffffff\n      and\n        /* \"KAMIL SIR/PROJECT01/BUY-SELL/contracts/utils/Ownable.sol\":1328:1341  return _owner */\n      swap1\n      pop\n        /* \"KAMIL SIR/PROJECT01/BUY-SELL/contracts/utils/Ownable.sol\":1262:1349  function owner() public view virtual returns (address) {... */\n      swap1\n      jump\t// out\n        /* \"KAMIL SIR/PROJECT01/BUY-SELL/contracts/coinstar.sol\":720:835  function getID(address user) public view returns (uint256[] memory) {... */\n    tag_69:\n        /* \"KAMIL SIR/PROJECT01/BUY-SELL/contracts/coinstar.sol\":770:786  uint256[] memory */\n      0x60\n        /* \"KAMIL SIR/PROJECT01/BUY-SELL/contracts/coinstar.sol\":806:821  InvestorAddress */\n      0x06\n        /* \"KAMIL SIR/PROJECT01/BUY-SELL/contracts/coinstar.sol\":806:827  InvestorAddress[user] */\n      0x00\n        /* \"KAMIL SIR/PROJECT01/BUY-SELL/contracts/coinstar.sol\":822:826  user */\n      dup4\n        /* \"KAMIL SIR/PROJECT01/BUY-SELL/contracts/coinstar.sol\":806:827  InvestorAddress[user] */\n      0xffffffffffffffffffffffffffffffffffffffff\n      and\n      0xffffffffffffffffffffffffffffffffffffffff\n      and\n      dup2\n      mstore\n      0x20\n      add\n      swap1\n      dup2\n      mstore\n      0x20\n      add\n      0x00\n      keccak256\n        /* \"KAMIL SIR/PROJECT01/BUY-SELL/contracts/coinstar.sol\":799:827  return InvestorAddress[user] */\n      dup1\n      sload\n      dup1\n      0x20\n      mul\n      0x20\n      add\n      mload(0x40)\n      swap1\n      dup2\n      add\n      0x40\n      mstore\n      dup1\n      swap3\n      swap2\n      swap1\n      dup2\n      dup2\n      mstore\n      0x20\n      add\n      dup3\n      dup1\n      sload\n      dup1\n      iszero\n      tag_110\n      jumpi\n      0x20\n      mul\n      dup3\n      add\n      swap2\n      swap1\n      0x00\n      mstore\n      keccak256(0x00, 0x20)\n      swap1\n    tag_111:\n      dup2\n      sload\n      dup2\n      mstore\n      0x20\n      add\n      swap1\n      0x01\n      add\n      swap1\n      dup1\n      dup4\n      gt\n      tag_111\n      jumpi\n    tag_110:\n      pop\n      pop\n      pop\n      pop\n      pop\n      swap1\n      pop\n        /* \"KAMIL SIR/PROJECT01/BUY-SELL/contracts/coinstar.sol\":720:835  function getID(address user) public view returns (uint256[] memory) {... */\n      swap2\n      swap1\n      pop\n      jump\t// out\n        /* \"KAMIL SIR/PROJECT01/BUY-SELL/contracts/coinstar.sol\":627:647  uint256 public price */\n    tag_74:\n      sload(0x0a)\n      dup2\n      jump\t// out\n        /* \"KAMIL SIR/PROJECT01/BUY-SELL/contracts/coinstar.sol\":494:591  function initialize(Token _myToken) public onlyOwner {... */\n    tag_80:\n        /* \"KAMIL SIR/PROJECT01/BUY-SELL/contracts/utils/Ownable.sol\":1148:1161  _checkOwner() */\n      tag_113\n        /* \"KAMIL SIR/PROJECT01/BUY-SELL/contracts/utils/Ownable.sol\":1148:1159  _checkOwner */\n      tag_100\n        /* \"KAMIL SIR/PROJECT01/BUY-SELL/contracts/utils/Ownable.sol\":1148:1161  _checkOwner() */\n      jump\t// in\n    tag_113:\n        /* \"KAMIL SIR/PROJECT01/BUY-SELL/contracts/coinstar.sol\":574:582  _myToken */\n      dup1\n        /* \"KAMIL SIR/PROJECT01/BUY-SELL/contracts/coinstar.sol\":558:565  MyToken */\n      0x02\n      0x00\n        /* \"KAMIL SIR/PROJECT01/BUY-SELL/contracts/coinstar.sol\":558:583  MyToken = Token(_myToken) */\n      0x0100\n      exp\n      dup2\n      sload\n      dup2\n      0xffffffffffffffffffffffffffffffffffffffff\n      mul\n      not\n      and\n      swap1\n      dup4\n      0xffffffffffffffffffffffffffffffffffffffff\n      and\n      mul\n      or\n      swap1\n      sstore\n      pop\n        /* \"KAMIL SIR/PROJECT01/BUY-SELL/contracts/coinstar.sol\":494:591  function initialize(Token _myToken) public onlyOwner {... */\n      pop\n      jump\t// out\n        /* \"KAMIL SIR/PROJECT01/BUY-SELL/contracts/coinstar.sol\":1533:1964  function sell(uint256 amount, uint256 id) public {... */\n    tag_84:\n        /* \"KAMIL SIR/PROJECT01/BUY-SELL/contracts/coinstar.sol\":1623:1624  1 */\n      0x01\n        /* \"KAMIL SIR/PROJECT01/BUY-SELL/contracts/coinstar.sol\":1601:1615  investorAmount */\n      0x07\n        /* \"KAMIL SIR/PROJECT01/BUY-SELL/contracts/coinstar.sol\":1601:1619  investorAmount[id] */\n      0x00\n        /* \"KAMIL SIR/PROJECT01/BUY-SELL/contracts/coinstar.sol\":1616:1618  id */\n      dup4\n        /* \"KAMIL SIR/PROJECT01/BUY-SELL/contracts/coinstar.sol\":1601:1619  investorAmount[id] */\n      dup2\n      mstore\n      0x20\n      add\n      swap1\n      dup2\n      mstore\n      0x20\n      add\n      0x00\n      keccak256\n      sload\n        /* \"KAMIL SIR/PROJECT01/BUY-SELL/contracts/coinstar.sol\":1601:1624  investorAmount[id] >= 1 */\n      lt\n      iszero\n        /* \"KAMIL SIR/PROJECT01/BUY-SELL/contracts/coinstar.sol\":1593:1657  require(investorAmount[id] >= 1, \"No token left in user wallet\") */\n      tag_116\n      jumpi\n      mload(0x40)\n      0x08c379a000000000000000000000000000000000000000000000000000000000\n      dup2\n      mstore\n      0x04\n      add\n      tag_117\n      swap1\n      tag_118\n      jump\t// in\n    tag_117:\n      mload(0x40)\n      dup1\n      swap2\n      sub\n      swap1\n      revert\n    tag_116:\n        /* \"KAMIL SIR/PROJECT01/BUY-SELL/contracts/coinstar.sol\":1692:1698  amount */\n      dup2\n        /* \"KAMIL SIR/PROJECT01/BUY-SELL/contracts/coinstar.sol\":1668:1676  balances */\n      0x03\n        /* \"KAMIL SIR/PROJECT01/BUY-SELL/contracts/coinstar.sol\":1668:1688  balances[msg.sender] */\n      0x00\n        /* \"KAMIL SIR/PROJECT01/BUY-SELL/contracts/coinstar.sol\":1677:1687  msg.sender */\n      caller\n        /* \"KAMIL SIR/PROJECT01/BUY-SELL/contracts/coinstar.sol\":1668:1688  balances[msg.sender] */\n      0xffffffffffffffffffffffffffffffffffffffff\n      and\n      0xffffffffffffffffffffffffffffffffffffffff\n      and\n      dup2\n      mstore\n      0x20\n      add\n      swap1\n      dup2\n      mstore\n      0x20\n      add\n      0x00\n      keccak256\n      0x00\n        /* \"KAMIL SIR/PROJECT01/BUY-SELL/contracts/coinstar.sol\":1668:1698  balances[msg.sender] -= amount */\n      dup3\n      dup3\n      sload\n      tag_119\n      swap2\n      swap1\n      tag_120\n      jump\t// in\n    tag_119:\n      swap3\n      pop\n      pop\n      dup2\n      swap1\n      sstore\n      pop\n        /* \"KAMIL SIR/PROJECT01/BUY-SELL/contracts/coinstar.sol\":1717:1727  msg.sender */\n      caller\n        /* \"KAMIL SIR/PROJECT01/BUY-SELL/contracts/coinstar.sol\":1709:1737  payable(msg.sender).transfer */\n      0xffffffffffffffffffffffffffffffffffffffff\n      and\n        /* \"KAMIL SIR/PROJECT01/BUY-SELL/contracts/coinstar.sol\":1709:1805  payable(msg.sender).transfer(... */\n      0x08fc\n        /* \"KAMIL SIR/PROJECT01/BUY-SELL/contracts/coinstar.sol\":1775:1789  investorAmount */\n      0x07\n        /* \"KAMIL SIR/PROJECT01/BUY-SELL/contracts/coinstar.sol\":1775:1793  investorAmount[id] */\n      0x00\n        /* \"KAMIL SIR/PROJECT01/BUY-SELL/contracts/coinstar.sol\":1790:1792  id */\n      dup5\n        /* \"KAMIL SIR/PROJECT01/BUY-SELL/contracts/coinstar.sol\":1775:1793  investorAmount[id] */\n      dup2\n      mstore\n      0x20\n      add\n      swap1\n      dup2\n      mstore\n      0x20\n      add\n      0x00\n      keccak256\n      sload\n        /* \"KAMIL SIR/PROJECT01/BUY-SELL/contracts/coinstar.sol\":1762:1772  tokenPrice */\n      sload(0x01)\n        /* \"KAMIL SIR/PROJECT01/BUY-SELL/contracts/coinstar.sol\":1762:1793  tokenPrice - investorAmount[id] */\n      tag_121\n      swap2\n      swap1\n      tag_120\n      jump\t// in\n    tag_121:\n        /* \"KAMIL SIR/PROJECT01/BUY-SELL/contracts/coinstar.sol\":1752:1758  amount */\n      dup5\n        /* \"KAMIL SIR/PROJECT01/BUY-SELL/contracts/coinstar.sol\":1752:1794  amount * (tokenPrice - investorAmount[id]) */\n      tag_122\n      swap2\n      swap1\n      tag_123\n      jump\t// in\n    tag_122:\n        /* \"KAMIL SIR/PROJECT01/BUY-SELL/contracts/coinstar.sol\":1709:1805  payable(msg.sender).transfer(... */\n      swap1\n      dup2\n      iszero\n      mul\n      swap1\n      mload(0x40)\n      0x00\n      mload(0x40)\n      dup1\n      dup4\n      sub\n      dup2\n      dup6\n      dup9\n      dup9\n      call\n      swap4\n      pop\n      pop\n      pop\n      pop\n      iszero\n      dup1\n      iszero\n      tag_125\n      jumpi\n      returndatasize\n      0x00\n      dup1\n      returndatacopy\n      revert(0x00, returndatasize)\n    tag_125:\n      pop\n        /* \"KAMIL SIR/PROJECT01/BUY-SELL/contracts/coinstar.sol\":1816:1823  MyToken */\n      0x02\n      0x00\n      swap1\n      sload\n      swap1\n      0x0100\n      exp\n      swap1\n      div\n      0xffffffffffffffffffffffffffffffffffffffff\n      and\n        /* \"KAMIL SIR/PROJECT01/BUY-SELL/contracts/coinstar.sol\":1816:1837  MyToken.transferPrice */\n      0xffffffffffffffffffffffffffffffffffffffff\n      and\n      0xb45ee9ef\n        /* \"KAMIL SIR/PROJECT01/BUY-SELL/contracts/coinstar.sol\":1838:1848  msg.sender */\n      caller\n        /* \"KAMIL SIR/PROJECT01/BUY-SELL/contracts/coinstar.sol\":1850:1857  owner() */\n      tag_126\n        /* \"KAMIL SIR/PROJECT01/BUY-SELL/contracts/coinstar.sol\":1850:1855  owner */\n      tag_63\n        /* \"KAMIL SIR/PROJECT01/BUY-SELL/contracts/coinstar.sol\":1850:1857  owner() */\n      jump\t// in\n    tag_126:\n        /* \"KAMIL SIR/PROJECT01/BUY-SELL/contracts/coinstar.sol\":1859:1865  amount */\n      dup6\n        /* \"KAMIL SIR/PROJECT01/BUY-SELL/contracts/coinstar.sol\":1816:1866  MyToken.transferPrice(msg.sender, owner(), amount) */\n      mload(0x40)\n      dup5\n      0xffffffff\n      and\n      0xe0\n      shl\n      dup2\n      mstore\n      0x04\n      add\n      tag_127\n      swap4\n      swap3\n      swap2\n      swap1\n      tag_128\n      jump\t// in\n    tag_127:\n      0x00\n      mload(0x40)\n      dup1\n      dup4\n      sub\n      dup2\n      0x00\n      dup8\n      dup1\n      extcodesize\n      iszero\n      dup1\n      iszero\n      tag_129\n      jumpi\n      0x00\n      dup1\n      revert\n    tag_129:\n      pop\n      gas\n      call\n      iszero\n      dup1\n      iszero\n      tag_131\n      jumpi\n      returndatasize\n      0x00\n      dup1\n      returndatacopy\n      revert(0x00, returndatasize)\n    tag_131:\n      pop\n      pop\n      pop\n      pop\n        /* \"KAMIL SIR/PROJECT01/BUY-SELL/contracts/coinstar.sol\":1899:1905  amount */\n      dup2\n        /* \"KAMIL SIR/PROJECT01/BUY-SELL/contracts/coinstar.sol\":1877:1891  investorAmount */\n      0x07\n        /* \"KAMIL SIR/PROJECT01/BUY-SELL/contracts/coinstar.sol\":1877:1895  investorAmount[id] */\n      0x00\n        /* \"KAMIL SIR/PROJECT01/BUY-SELL/contracts/coinstar.sol\":1892:1894  id */\n      dup4\n        /* \"KAMIL SIR/PROJECT01/BUY-SELL/contracts/coinstar.sol\":1877:1895  investorAmount[id] */\n      dup2\n      mstore\n      0x20\n      add\n      swap1\n      dup2\n      mstore\n      0x20\n      add\n      0x00\n      keccak256\n      0x00\n        /* \"KAMIL SIR/PROJECT01/BUY-SELL/contracts/coinstar.sol\":1877:1905  investorAmount[id] -= amount */\n      dup3\n      dup3\n      sload\n      tag_132\n      swap2\n      swap1\n      tag_120\n      jump\t// in\n    tag_132:\n      swap3\n      pop\n      pop\n      dup2\n      swap1\n      sstore\n      pop\n        /* \"KAMIL SIR/PROJECT01/BUY-SELL/contracts/coinstar.sol\":1953:1954  1 */\n      0x01\n        /* \"KAMIL SIR/PROJECT01/BUY-SELL/contracts/coinstar.sol\":1943:1949  amount */\n      dup3\n        /* \"KAMIL SIR/PROJECT01/BUY-SELL/contracts/coinstar.sol\":1943:1955  amount * (1) */\n      tag_133\n      swap2\n      swap1\n      tag_123\n      jump\t// in\n    tag_133:\n        /* \"KAMIL SIR/PROJECT01/BUY-SELL/contracts/coinstar.sol\":1929:1939  tokenPrice */\n      sload(0x01)\n        /* \"KAMIL SIR/PROJECT01/BUY-SELL/contracts/coinstar.sol\":1929:1956  tokenPrice - (amount * (1)) */\n      tag_134\n      swap2\n      swap1\n      tag_120\n      jump\t// in\n    tag_134:\n        /* \"KAMIL SIR/PROJECT01/BUY-SELL/contracts/coinstar.sol\":1916:1926  tokenPrice */\n      0x01\n        /* \"KAMIL SIR/PROJECT01/BUY-SELL/contracts/coinstar.sol\":1916:1956  tokenPrice = tokenPrice - (amount * (1)) */\n      dup2\n      swap1\n      sstore\n      pop\n        /* \"KAMIL SIR/PROJECT01/BUY-SELL/contracts/coinstar.sol\":1533:1964  function sell(uint256 amount, uint256 id) public {... */\n      pop\n      pop\n      jump\t// out\n        /* \"KAMIL SIR/PROJECT01/BUY-SELL/contracts/coinstar.sol\":1122:1525  function buy(uint256 token) public payable {... */\n    tag_88:\n        /* \"KAMIL SIR/PROJECT01/BUY-SELL/contracts/coinstar.sol\":1205:1215  tokenPrice */\n      sload(0x01)\n        /* \"KAMIL SIR/PROJECT01/BUY-SELL/contracts/coinstar.sol\":1197:1202  token */\n      dup2\n        /* \"KAMIL SIR/PROJECT01/BUY-SELL/contracts/coinstar.sol\":1197:1215  token * tokenPrice */\n      tag_136\n      swap2\n      swap1\n      tag_123\n      jump\t// in\n    tag_136:\n        /* \"KAMIL SIR/PROJECT01/BUY-SELL/contracts/coinstar.sol\":1184:1193  msg.value */\n      callvalue\n        /* \"KAMIL SIR/PROJECT01/BUY-SELL/contracts/coinstar.sol\":1184:1215  msg.value >= token * tokenPrice */\n      lt\n      iszero\n        /* \"KAMIL SIR/PROJECT01/BUY-SELL/contracts/coinstar.sol\":1176:1238  require(msg.value >= token * tokenPrice, \"insufficient funds\") */\n      tag_137\n      jumpi\n      mload(0x40)\n      0x08c379a000000000000000000000000000000000000000000000000000000000\n      dup2\n      mstore\n      0x04\n      add\n      tag_138\n      swap1\n      tag_139\n      jump\t// in\n    tag_138:\n      mload(0x40)\n      dup1\n      swap2\n      sub\n      swap1\n      revert\n    tag_137:\n        /* \"KAMIL SIR/PROJECT01/BUY-SELL/contracts/coinstar.sol\":1249:1259  InvestorId */\n      0x08\n      0x00\n        /* \"KAMIL SIR/PROJECT01/BUY-SELL/contracts/coinstar.sol\":1249:1261  InvestorId++ */\n      dup2\n      sload\n      dup1\n      swap3\n      swap2\n      swap1\n      tag_140\n      swap1\n      tag_141\n      jump\t// in\n    tag_140:\n      swap2\n      swap1\n      pop\n      sstore\n      pop\n        /* \"KAMIL SIR/PROJECT01/BUY-SELL/contracts/coinstar.sol\":1272:1287  InvestorAddress */\n      0x06\n        /* \"KAMIL SIR/PROJECT01/BUY-SELL/contracts/coinstar.sol\":1272:1299  InvestorAddress[msg.sender] */\n      0x00\n        /* \"KAMIL SIR/PROJECT01/BUY-SELL/contracts/coinstar.sol\":1288:1298  msg.sender */\n      caller\n        /* \"KAMIL SIR/PROJECT01/BUY-SELL/contracts/coinstar.sol\":1272:1299  InvestorAddress[msg.sender] */\n      0xffffffffffffffffffffffffffffffffffffffff\n      and\n      0xffffffffffffffffffffffffffffffffffffffff\n      and\n      dup2\n      mstore\n      0x20\n      add\n      swap1\n      dup2\n      mstore\n      0x20\n      add\n      0x00\n      keccak256\n        /* \"KAMIL SIR/PROJECT01/BUY-SELL/contracts/coinstar.sol\":1305:1315  InvestorId */\n      sload(0x08)\n        /* \"KAMIL SIR/PROJECT01/BUY-SELL/contracts/coinstar.sol\":1272:1316  InvestorAddress[msg.sender].push(InvestorId) */\n      swap1\n      dup1\n      0x01\n      dup2\n      sload\n      add\n      dup1\n      dup3\n      sstore\n      dup1\n      swap2\n      pop\n      pop\n      0x01\n      swap1\n      sub\n      swap1\n      0x00\n      mstore\n      keccak256(0x00, 0x20)\n      add\n      0x00\n      swap1\n      swap2\n      swap1\n      swap2\n      swap1\n      swap2\n      pop\n      sstore\n        /* \"KAMIL SIR/PROJECT01/BUY-SELL/contracts/coinstar.sol\":1351:1356  token */\n      dup1\n        /* \"KAMIL SIR/PROJECT01/BUY-SELL/contracts/coinstar.sol\":1327:1335  balances */\n      0x03\n        /* \"KAMIL SIR/PROJECT01/BUY-SELL/contracts/coinstar.sol\":1327:1347  balances[msg.sender] */\n      0x00\n        /* \"KAMIL SIR/PROJECT01/BUY-SELL/contracts/coinstar.sol\":1336:1346  msg.sender */\n      caller\n        /* \"KAMIL SIR/PROJECT01/BUY-SELL/contracts/coinstar.sol\":1327:1347  balances[msg.sender] */\n      0xffffffffffffffffffffffffffffffffffffffff\n      and\n      0xffffffffffffffffffffffffffffffffffffffff\n      and\n      dup2\n      mstore\n      0x20\n      add\n      swap1\n      dup2\n      mstore\n      0x20\n      add\n      0x00\n      keccak256\n      0x00\n        /* \"KAMIL SIR/PROJECT01/BUY-SELL/contracts/coinstar.sol\":1327:1356  balances[msg.sender] += token */\n      dup3\n      dup3\n      sload\n      tag_143\n      swap2\n      swap1\n      tag_144\n      jump\t// in\n    tag_143:\n      swap3\n      pop\n      pop\n      dup2\n      swap1\n      sstore\n      pop\n        /* \"KAMIL SIR/PROJECT01/BUY-SELL/contracts/coinstar.sol\":1367:1374  MyToken */\n      0x02\n      0x00\n      swap1\n      sload\n      swap1\n      0x0100\n      exp\n      swap1\n      div\n      0xffffffffffffffffffffffffffffffffffffffff\n      and\n        /* \"KAMIL SIR/PROJECT01/BUY-SELL/contracts/coinstar.sol\":1367:1388  MyToken.transferPrice */\n      0xffffffffffffffffffffffffffffffffffffffff\n      and\n      0xb45ee9ef\n        /* \"KAMIL SIR/PROJECT01/BUY-SELL/contracts/coinstar.sol\":1389:1396  owner() */\n      tag_145\n        /* \"KAMIL SIR/PROJECT01/BUY-SELL/contracts/coinstar.sol\":1389:1394  owner */\n      tag_63\n        /* \"KAMIL SIR/PROJECT01/BUY-SELL/contracts/coinstar.sol\":1389:1396  owner() */\n      jump\t// in\n    tag_145:\n        /* \"KAMIL SIR/PROJECT01/BUY-SELL/contracts/coinstar.sol\":1398:1408  msg.sender */\n      caller\n        /* \"KAMIL SIR/PROJECT01/BUY-SELL/contracts/coinstar.sol\":1410:1415  token */\n      dup5\n        /* \"KAMIL SIR/PROJECT01/BUY-SELL/contracts/coinstar.sol\":1367:1416  MyToken.transferPrice(owner(), msg.sender, token) */\n      mload(0x40)\n      dup5\n      0xffffffff\n      and\n      0xe0\n      shl\n      dup2\n      mstore\n      0x04\n      add\n      tag_146\n      swap4\n      swap3\n      swap2\n      swap1\n      tag_128\n      jump\t// in\n    tag_146:\n      0x00\n      mload(0x40)\n      dup1\n      dup4\n      sub\n      dup2\n      0x00\n      dup8\n      dup1\n      extcodesize\n      iszero\n      dup1\n      iszero\n      tag_147\n      jumpi\n      0x00\n      dup1\n      revert\n    tag_147:\n      pop\n      gas\n      call\n      iszero\n      dup1\n      iszero\n      tag_149\n      jumpi\n      returndatasize\n      0x00\n      dup1\n      returndatacopy\n      revert(0x00, returndatasize)\n    tag_149:\n      pop\n      pop\n      pop\n      pop\n        /* \"KAMIL SIR/PROJECT01/BUY-SELL/contracts/coinstar.sol\":1465:1466  1 */\n      0x01\n        /* \"KAMIL SIR/PROJECT01/BUY-SELL/contracts/coinstar.sol\":1457:1462  token */\n      dup2\n        /* \"KAMIL SIR/PROJECT01/BUY-SELL/contracts/coinstar.sol\":1457:1466  token * 1 */\n      tag_150\n      swap2\n      swap1\n      tag_123\n      jump\t// in\n    tag_150:\n        /* \"KAMIL SIR/PROJECT01/BUY-SELL/contracts/coinstar.sol\":1427:1441  investorAmount */\n      0x07\n        /* \"KAMIL SIR/PROJECT01/BUY-SELL/contracts/coinstar.sol\":1427:1453  investorAmount[InvestorId] */\n      0x00\n        /* \"KAMIL SIR/PROJECT01/BUY-SELL/contracts/coinstar.sol\":1442:1452  InvestorId */\n      sload(0x08)\n        /* \"KAMIL SIR/PROJECT01/BUY-SELL/contracts/coinstar.sol\":1427:1453  investorAmount[InvestorId] */\n      dup2\n      mstore\n      0x20\n      add\n      swap1\n      dup2\n      mstore\n      0x20\n      add\n      0x00\n      keccak256\n        /* \"KAMIL SIR/PROJECT01/BUY-SELL/contracts/coinstar.sol\":1427:1467  investorAmount[InvestorId] = (token * 1) */\n      dup2\n      swap1\n      sstore\n      pop\n        /* \"KAMIL SIR/PROJECT01/BUY-SELL/contracts/coinstar.sol\":1514:1515  1 */\n      0x01\n        /* \"KAMIL SIR/PROJECT01/BUY-SELL/contracts/coinstar.sol\":1505:1510  token */\n      dup2\n        /* \"KAMIL SIR/PROJECT01/BUY-SELL/contracts/coinstar.sol\":1505:1516  token * (1) */\n      tag_151\n      swap2\n      swap1\n      tag_123\n      jump\t// in\n    tag_151:\n        /* \"KAMIL SIR/PROJECT01/BUY-SELL/contracts/coinstar.sol\":1491:1501  tokenPrice */\n      sload(0x01)\n        /* \"KAMIL SIR/PROJECT01/BUY-SELL/contracts/coinstar.sol\":1491:1517  tokenPrice + (token * (1)) */\n      tag_152\n      swap2\n      swap1\n      tag_144\n      jump\t// in\n    tag_152:\n        /* \"KAMIL SIR/PROJECT01/BUY-SELL/contracts/coinstar.sol\":1478:1488  tokenPrice */\n      0x01\n        /* \"KAMIL SIR/PROJECT01/BUY-SELL/contracts/coinstar.sol\":1478:1517  tokenPrice = tokenPrice + (token * (1)) */\n      dup2\n      swap1\n      sstore\n      pop\n        /* \"KAMIL SIR/PROJECT01/BUY-SELL/contracts/coinstar.sol\":1122:1525  function buy(uint256 token) public payable {... */\n      pop\n      jump\t// out\n        /* \"KAMIL SIR/PROJECT01/BUY-SELL/contracts/utils/Ownable.sol\":2168:2406  function transferOwnership(address newOwner) public virtual onlyOwner {... */\n    tag_92:\n        /* \"KAMIL SIR/PROJECT01/BUY-SELL/contracts/utils/Ownable.sol\":1148:1161  _checkOwner() */\n      tag_154\n        /* \"KAMIL SIR/PROJECT01/BUY-SELL/contracts/utils/Ownable.sol\":1148:1159  _checkOwner */\n      tag_100\n        /* \"KAMIL SIR/PROJECT01/BUY-SELL/contracts/utils/Ownable.sol\":1148:1161  _checkOwner() */\n      jump\t// in\n    tag_154:\n        /* \"KAMIL SIR/PROJECT01/BUY-SELL/contracts/utils/Ownable.sol\":2291:2292  0 */\n      0x00\n        /* \"KAMIL SIR/PROJECT01/BUY-SELL/contracts/utils/Ownable.sol\":2271:2293  newOwner != address(0) */\n      0xffffffffffffffffffffffffffffffffffffffff\n      and\n        /* \"KAMIL SIR/PROJECT01/BUY-SELL/contracts/utils/Ownable.sol\":2271:2279  newOwner */\n      dup2\n        /* \"KAMIL SIR/PROJECT01/BUY-SELL/contracts/utils/Ownable.sol\":2271:2293  newOwner != address(0) */\n      0xffffffffffffffffffffffffffffffffffffffff\n      and\n      sub\n        /* \"KAMIL SIR/PROJECT01/BUY-SELL/contracts/utils/Ownable.sol\":2249:2359  require(... */\n      tag_156\n      jumpi\n      mload(0x40)\n      0x08c379a000000000000000000000000000000000000000000000000000000000\n      dup2\n      mstore\n      0x04\n      add\n      tag_157\n      swap1\n      tag_158\n      jump\t// in\n    tag_157:\n      mload(0x40)\n      dup1\n      swap2\n      sub\n      swap1\n      revert\n    tag_156:\n        /* \"KAMIL SIR/PROJECT01/BUY-SELL/contracts/utils/Ownable.sol\":2370:2398  _transferOwnership(newOwner) */\n      tag_159\n        /* \"KAMIL SIR/PROJECT01/BUY-SELL/contracts/utils/Ownable.sol\":2389:2397  newOwner */\n      dup2\n        /* \"KAMIL SIR/PROJECT01/BUY-SELL/contracts/utils/Ownable.sol\":2370:2388  _transferOwnership */\n      tag_107\n        /* \"KAMIL SIR/PROJECT01/BUY-SELL/contracts/utils/Ownable.sol\":2370:2398  _transferOwnership(newOwner) */\n      jump\t// in\n    tag_159:\n        /* \"KAMIL SIR/PROJECT01/BUY-SELL/contracts/utils/Ownable.sol\":2168:2406  function transferOwnership(address newOwner) public virtual onlyOwner {... */\n      pop\n      jump\t// out\n        /* \"KAMIL SIR/PROJECT01/BUY-SELL/contracts/coinstar.sol\":404:453  mapping(uint256 => uint256) public investorAmount */\n    tag_96:\n      mstore(0x20, 0x07)\n      dup1\n      0x00\n      mstore\n      keccak256(0x00, 0x40)\n      0x00\n      swap2\n      pop\n      swap1\n      pop\n      sload\n      dup2\n      jump\t// out\n        /* \"KAMIL SIR/PROJECT01/BUY-SELL/contracts/utils/Ownable.sol\":1427:1559  function _checkOwner() internal view virtual {... */\n    tag_100:\n        /* \"KAMIL SIR/PROJECT01/BUY-SELL/contracts/utils/Ownable.sol\":1502:1514  _msgSender() */\n      tag_161\n        /* \"KAMIL SIR/PROJECT01/BUY-SELL/contracts/utils/Ownable.sol\":1502:1512  _msgSender */\n      tag_162\n        /* \"KAMIL SIR/PROJECT01/BUY-SELL/contracts/utils/Ownable.sol\":1502:1514  _msgSender() */\n      jump\t// in\n    tag_161:\n        /* \"KAMIL SIR/PROJECT01/BUY-SELL/contracts/utils/Ownable.sol\":1491:1514  owner() == _msgSender() */\n      0xffffffffffffffffffffffffffffffffffffffff\n      and\n        /* \"KAMIL SIR/PROJECT01/BUY-SELL/contracts/utils/Ownable.sol\":1491:1498  owner() */\n      tag_163\n        /* \"KAMIL SIR/PROJECT01/BUY-SELL/contracts/utils/Ownable.sol\":1491:1496  owner */\n      tag_63\n        /* \"KAMIL SIR/PROJECT01/BUY-SELL/contracts/utils/Ownable.sol\":1491:1498  owner() */\n      jump\t// in\n    tag_163:\n        /* \"KAMIL SIR/PROJECT01/BUY-SELL/contracts/utils/Ownable.sol\":1491:1514  owner() == _msgSender() */\n      0xffffffffffffffffffffffffffffffffffffffff\n      and\n      eq\n        /* \"KAMIL SIR/PROJECT01/BUY-SELL/contracts/utils/Ownable.sol\":1483:1551  require(owner() == _msgSender(), \"Ownable: caller is not the owner\") */\n      tag_164\n      jumpi\n      mload(0x40)\n      0x08c379a000000000000000000000000000000000000000000000000000000000\n      dup2\n      mstore\n      0x04\n      add\n      tag_165\n      swap1\n      tag_166\n      jump\t// in\n    tag_165:\n      mload(0x40)\n      dup1\n      swap2\n      sub\n      swap1\n      revert\n    tag_164:\n        /* \"KAMIL SIR/PROJECT01/BUY-SELL/contracts/utils/Ownable.sol\":1427:1559  function _checkOwner() internal view virtual {... */\n      jump\t// out\n        /* \"KAMIL SIR/PROJECT01/BUY-SELL/contracts/utils/Ownable.sol\":2566:2757  function _transferOwnership(address newOwner) internal virtual {... */\n    tag_107:\n        /* \"KAMIL SIR/PROJECT01/BUY-SELL/contracts/utils/Ownable.sol\":2640:2656  address oldOwner */\n      0x00\n        /* \"KAMIL SIR/PROJECT01/BUY-SELL/contracts/utils/Ownable.sol\":2659:2665  _owner */\n      dup1\n      0x00\n      swap1\n      sload\n      swap1\n      0x0100\n      exp\n      swap1\n      div\n      0xffffffffffffffffffffffffffffffffffffffff\n      and\n        /* \"KAMIL SIR/PROJECT01/BUY-SELL/contracts/utils/Ownable.sol\":2640:2665  address oldOwner = _owner */\n      swap1\n      pop\n        /* \"KAMIL SIR/PROJECT01/BUY-SELL/contracts/utils/Ownable.sol\":2685:2693  newOwner */\n      dup2\n        /* \"KAMIL SIR/PROJECT01/BUY-SELL/contracts/utils/Ownable.sol\":2676:2682  _owner */\n      0x00\n      dup1\n        /* \"KAMIL SIR/PROJECT01/BUY-SELL/contracts/utils/Ownable.sol\":2676:2693  _owner = newOwner */\n      0x0100\n      exp\n      dup2\n      sload\n      dup2\n      0xffffffffffffffffffffffffffffffffffffffff\n      mul\n      not\n      and\n      swap1\n      dup4\n      0xffffffffffffffffffffffffffffffffffffffff\n      and\n      mul\n      or\n      swap1\n      sstore\n      pop\n        /* \"KAMIL SIR/PROJECT01/BUY-SELL/contracts/utils/Ownable.sol\":2740:2748  newOwner */\n      dup2\n        /* \"KAMIL SIR/PROJECT01/BUY-SELL/contracts/utils/Ownable.sol\":2709:2749  OwnershipTransferred(oldOwner, newOwner) */\n      0xffffffffffffffffffffffffffffffffffffffff\n      and\n        /* \"KAMIL SIR/PROJECT01/BUY-SELL/contracts/utils/Ownable.sol\":2730:2738  oldOwner */\n      dup2\n        /* \"KAMIL SIR/PROJECT01/BUY-SELL/contracts/utils/Ownable.sol\":2709:2749  OwnershipTransferred(oldOwner, newOwner) */\n      0xffffffffffffffffffffffffffffffffffffffff\n      and\n      0x8be0079c531659141344cd1fd0a4f28419497f9722a3daafe3b4186f6b6457e0\n      mload(0x40)\n      mload(0x40)\n      dup1\n      swap2\n      sub\n      swap1\n      log3\n        /* \"KAMIL SIR/PROJECT01/BUY-SELL/contracts/utils/Ownable.sol\":2629:2757  {... */\n      pop\n        /* \"KAMIL SIR/PROJECT01/BUY-SELL/contracts/utils/Ownable.sol\":2566:2757  function _transferOwnership(address newOwner) internal virtual {... */\n      pop\n      jump\t// out\n        /* \"KAMIL SIR/PROJECT01/BUY-SELL/contracts/utils/Context.sol\":657:755  function _msgSender() internal view virtual returns (address) {... */\n    tag_162:\n        /* \"KAMIL SIR/PROJECT01/BUY-SELL/contracts/utils/Context.sol\":710:717  address */\n      0x00\n        /* \"KAMIL SIR/PROJECT01/BUY-SELL/contracts/utils/Context.sol\":737:747  msg.sender */\n      caller\n        /* \"KAMIL SIR/PROJECT01/BUY-SELL/contracts/utils/Context.sol\":730:747  return msg.sender */\n      swap1\n      pop\n        /* \"KAMIL SIR/PROJECT01/BUY-SELL/contracts/utils/Context.sol\":657:755  function _msgSender() internal view virtual returns (address) {... */\n      swap1\n      jump\t// out\n        /* \"#utility.yul\":7:84   */\n    tag_169:\n        /* \"#utility.yul\":44:51   */\n      0x00\n        /* \"#utility.yul\":73:78   */\n      dup2\n        /* \"#utility.yul\":62:78   */\n      swap1\n      pop\n        /* \"#utility.yul\":7:84   */\n      swap2\n      swap1\n      pop\n      jump\t// out\n        /* \"#utility.yul\":90:208   */\n    tag_170:\n        /* \"#utility.yul\":177:201   */\n      tag_209\n        /* \"#utility.yul\":195:200   */\n      dup2\n        /* \"#utility.yul\":177:201   */\n      tag_169\n      jump\t// in\n    tag_209:\n        /* \"#utility.yul\":172:175   */\n      dup3\n        /* \"#utility.yul\":165:202   */\n      mstore\n        /* \"#utility.yul\":90:208   */\n      pop\n      pop\n      jump\t// out\n        /* \"#utility.yul\":214:436   */\n    tag_26:\n        /* \"#utility.yul\":307:311   */\n      0x00\n        /* \"#utility.yul\":345:347   */\n      0x20\n        /* \"#utility.yul\":334:343   */\n      dup3\n        /* \"#utility.yul\":330:348   */\n      add\n        /* \"#utility.yul\":322:348   */\n      swap1\n      pop\n        /* \"#utility.yul\":358:429   */\n      tag_211\n        /* \"#utility.yul\":426:427   */\n      0x00\n        /* \"#utility.yul\":415:424   */\n      dup4\n        /* \"#utility.yul\":411:428   */\n      add\n        /* \"#utility.yul\":402:408   */\n      dup5\n        /* \"#utility.yul\":358:429   */\n      tag_170\n      jump\t// in\n    tag_211:\n        /* \"#utility.yul\":214:436   */\n      swap3\n      swap2\n      pop\n      pop\n      jump\t// out\n        /* \"#utility.yul\":523:640   */\n    tag_172:\n        /* \"#utility.yul\":632:633   */\n      0x00\n        /* \"#utility.yul\":629:630   */\n      dup1\n        /* \"#utility.yul\":622:634   */\n      revert\n        /* \"#utility.yul\":769:891   */\n    tag_174:\n        /* \"#utility.yul\":842:866   */\n      tag_216\n        /* \"#utility.yul\":860:865   */\n      dup2\n        /* \"#utility.yul\":842:866   */\n      tag_169\n      jump\t// in\n    tag_216:\n        /* \"#utility.yul\":835:840   */\n      dup2\n        /* \"#utility.yul\":832:867   */\n      eq\n        /* \"#utility.yul\":822:885   */\n      tag_217\n      jumpi\n        /* \"#utility.yul\":881:882   */\n      0x00\n        /* \"#utility.yul\":878:879   */\n      dup1\n        /* \"#utility.yul\":871:883   */\n      revert\n        /* \"#utility.yul\":822:885   */\n    tag_217:\n        /* \"#utility.yul\":769:891   */\n      pop\n      jump\t// out\n        /* \"#utility.yul\":897:1036   */\n    tag_175:\n        /* \"#utility.yul\":943:948   */\n      0x00\n        /* \"#utility.yul\":981:987   */\n      dup2\n        /* \"#utility.yul\":968:988   */\n      calldataload\n        /* \"#utility.yul\":959:988   */\n      swap1\n      pop\n        /* \"#utility.yul\":997:1030   */\n      tag_219\n        /* \"#utility.yul\":1024:1029   */\n      dup2\n        /* \"#utility.yul\":997:1030   */\n      tag_174\n      jump\t// in\n    tag_219:\n        /* \"#utility.yul\":897:1036   */\n      swap3\n      swap2\n      pop\n      pop\n      jump\t// out\n        /* \"#utility.yul\":1042:1516   */\n    tag_30:\n        /* \"#utility.yul\":1110:1116   */\n      0x00\n        /* \"#utility.yul\":1118:1124   */\n      dup1\n        /* \"#utility.yul\":1167:1169   */\n      0x40\n        /* \"#utility.yul\":1155:1164   */\n      dup4\n        /* \"#utility.yul\":1146:1153   */\n      dup6\n        /* \"#utility.yul\":1142:1165   */\n      sub\n        /* \"#utility.yul\":1138:1170   */\n      slt\n        /* \"#utility.yul\":1135:1254   */\n      iszero\n      tag_221\n      jumpi\n        /* \"#utility.yul\":1173:1252   */\n      tag_222\n      tag_172\n      jump\t// in\n    tag_222:\n        /* \"#utility.yul\":1135:1254   */\n    tag_221:\n        /* \"#utility.yul\":1293:1294   */\n      0x00\n        /* \"#utility.yul\":1318:1371   */\n      tag_223\n        /* \"#utility.yul\":1363:1370   */\n      dup6\n        /* \"#utility.yul\":1354:1360   */\n      dup3\n        /* \"#utility.yul\":1343:1352   */\n      dup7\n        /* \"#utility.yul\":1339:1361   */\n      add\n        /* \"#utility.yul\":1318:1371   */\n      tag_175\n      jump\t// in\n    tag_223:\n        /* \"#utility.yul\":1308:1371   */\n      swap3\n      pop\n        /* \"#utility.yul\":1264:1381   */\n      pop\n        /* \"#utility.yul\":1420:1422   */\n      0x20\n        /* \"#utility.yul\":1446:1499   */\n      tag_224\n        /* \"#utility.yul\":1491:1498   */\n      dup6\n        /* \"#utility.yul\":1482:1488   */\n      dup3\n        /* \"#utility.yul\":1471:1480   */\n      dup7\n        /* \"#utility.yul\":1467:1489   */\n      add\n        /* \"#utility.yul\":1446:1499   */\n      tag_175\n      jump\t// in\n    tag_224:\n        /* \"#utility.yul\":1436:1499   */\n      swap2\n      pop\n        /* \"#utility.yul\":1391:1509   */\n      pop\n        /* \"#utility.yul\":1042:1516   */\n      swap3\n      pop\n      swap3\n      swap1\n      pop\n      jump\t// out\n        /* \"#utility.yul\":1522:1648   */\n    tag_176:\n        /* \"#utility.yul\":1559:1566   */\n      0x00\n        /* \"#utility.yul\":1599:1641   */\n      0xffffffffffffffffffffffffffffffffffffffff\n        /* \"#utility.yul\":1592:1597   */\n      dup3\n        /* \"#utility.yul\":1588:1642   */\n      and\n        /* \"#utility.yul\":1577:1642   */\n      swap1\n      pop\n        /* \"#utility.yul\":1522:1648   */\n      swap2\n      swap1\n      pop\n      jump\t// out\n        /* \"#utility.yul\":1654:1750   */\n    tag_177:\n        /* \"#utility.yul\":1691:1698   */\n      0x00\n        /* \"#utility.yul\":1720:1744   */\n      tag_227\n        /* \"#utility.yul\":1738:1743   */\n      dup3\n        /* \"#utility.yul\":1720:1744   */\n      tag_176\n      jump\t// in\n    tag_227:\n        /* \"#utility.yul\":1709:1744   */\n      swap1\n      pop\n        /* \"#utility.yul\":1654:1750   */\n      swap2\n      swap1\n      pop\n      jump\t// out\n        /* \"#utility.yul\":1756:1874   */\n    tag_178:\n        /* \"#utility.yul\":1843:1867   */\n      tag_229\n        /* \"#utility.yul\":1861:1866   */\n      dup2\n        /* \"#utility.yul\":1843:1867   */\n      tag_177\n      jump\t// in\n    tag_229:\n        /* \"#utility.yul\":1838:1841   */\n      dup3\n        /* \"#utility.yul\":1831:1868   */\n      mstore\n        /* \"#utility.yul\":1756:1874   */\n      pop\n      pop\n      jump\t// out\n        /* \"#utility.yul\":1880:2102   */\n    tag_36:\n        /* \"#utility.yul\":1973:1977   */\n      0x00\n        /* \"#utility.yul\":2011:2013   */\n      0x20\n        /* \"#utility.yul\":2000:2009   */\n      dup3\n        /* \"#utility.yul\":1996:2014   */\n      add\n        /* \"#utility.yul\":1988:2014   */\n      swap1\n      pop\n        /* \"#utility.yul\":2024:2095   */\n      tag_231\n        /* \"#utility.yul\":2092:2093   */\n      0x00\n        /* \"#utility.yul\":2081:2090   */\n      dup4\n        /* \"#utility.yul\":2077:2094   */\n      add\n        /* \"#utility.yul\":2068:2074   */\n      dup5\n        /* \"#utility.yul\":2024:2095   */\n      tag_178\n      jump\t// in\n    tag_231:\n        /* \"#utility.yul\":1880:2102   */\n      swap3\n      swap2\n      pop\n      pop\n      jump\t// out\n        /* \"#utility.yul\":2108:2168   */\n    tag_179:\n        /* \"#utility.yul\":2136:2139   */\n      0x00\n        /* \"#utility.yul\":2157:2162   */\n      dup2\n        /* \"#utility.yul\":2150:2162   */\n      swap1\n      pop\n        /* \"#utility.yul\":2108:2168   */\n      swap2\n      swap1\n      pop\n      jump\t// out\n        /* \"#utility.yul\":2174:2316   */\n    tag_180:\n        /* \"#utility.yul\":2224:2233   */\n      0x00\n        /* \"#utility.yul\":2257:2310   */\n      tag_234\n        /* \"#utility.yul\":2275:2309   */\n      tag_235\n        /* \"#utility.yul\":2284:2308   */\n      tag_236\n        /* \"#utility.yul\":2302:2307   */\n      dup5\n        /* \"#utility.yul\":2284:2308   */\n      tag_176\n      jump\t// in\n    tag_236:\n        /* \"#utility.yul\":2275:2309   */\n      tag_179\n      jump\t// in\n    tag_235:\n        /* \"#utility.yul\":2257:2310   */\n      tag_176\n      jump\t// in\n    tag_234:\n        /* \"#utility.yul\":2244:2310   */\n      swap1\n      pop\n        /* \"#utility.yul\":2174:2316   */\n      swap2\n      swap1\n      pop\n      jump\t// out\n        /* \"#utility.yul\":2322:2448   */\n    tag_181:\n        /* \"#utility.yul\":2372:2381   */\n      0x00\n        /* \"#utility.yul\":2405:2442   */\n      tag_238\n        /* \"#utility.yul\":2436:2441   */\n      dup3\n        /* \"#utility.yul\":2405:2442   */\n      tag_180\n      jump\t// in\n    tag_238:\n        /* \"#utility.yul\":2392:2442   */\n      swap1\n      pop\n        /* \"#utility.yul\":2322:2448   */\n      swap2\n      swap1\n      pop\n      jump\t// out\n        /* \"#utility.yul\":2454:2593   */\n    tag_182:\n        /* \"#utility.yul\":2517:2526   */\n      0x00\n        /* \"#utility.yul\":2550:2587   */\n      tag_240\n        /* \"#utility.yul\":2581:2586   */\n      dup3\n        /* \"#utility.yul\":2550:2587   */\n      tag_181\n      jump\t// in\n    tag_240:\n        /* \"#utility.yul\":2537:2587   */\n      swap1\n      pop\n        /* \"#utility.yul\":2454:2593   */\n      swap2\n      swap1\n      pop\n      jump\t// out\n        /* \"#utility.yul\":2599:2756   */\n    tag_183:\n        /* \"#utility.yul\":2699:2749   */\n      tag_242\n        /* \"#utility.yul\":2743:2748   */\n      dup2\n        /* \"#utility.yul\":2699:2749   */\n      tag_182\n      jump\t// in\n    tag_242:\n        /* \"#utility.yul\":2694:2697   */\n      dup3\n        /* \"#utility.yul\":2687:2750   */\n      mstore\n        /* \"#utility.yul\":2599:2756   */\n      pop\n      pop\n      jump\t// out\n        /* \"#utility.yul\":2762:3010   */\n    tag_41:\n        /* \"#utility.yul\":2868:2872   */\n      0x00\n        /* \"#utility.yul\":2906:2908   */\n      0x20\n        /* \"#utility.yul\":2895:2904   */\n      dup3\n        /* \"#utility.yul\":2891:2909   */\n      add\n        /* \"#utility.yul\":2883:2909   */\n      swap1\n      pop\n        /* \"#utility.yul\":2919:3003   */\n      tag_244\n        /* \"#utility.yul\":3000:3001   */\n      0x00\n        /* \"#utility.yul\":2989:2998   */\n      dup4\n        /* \"#utility.yul\":2985:3002   */\n      add\n        /* \"#utility.yul\":2976:2982   */\n      dup5\n        /* \"#utility.yul\":2919:3003   */\n      tag_183\n      jump\t// in\n    tag_244:\n        /* \"#utility.yul\":2762:3010   */\n      swap3\n      swap2\n      pop\n      pop\n      jump\t// out\n        /* \"#utility.yul\":3016:3138   */\n    tag_184:\n        /* \"#utility.yul\":3089:3113   */\n      tag_246\n        /* \"#utility.yul\":3107:3112   */\n      dup2\n        /* \"#utility.yul\":3089:3113   */\n      tag_177\n      jump\t// in\n    tag_246:\n        /* \"#utility.yul\":3082:3087   */\n      dup2\n        /* \"#utility.yul\":3079:3114   */\n      eq\n        /* \"#utility.yul\":3069:3132   */\n      tag_247\n      jumpi\n        /* \"#utility.yul\":3128:3129   */\n      0x00\n        /* \"#utility.yul\":3125:3126   */\n      dup1\n        /* \"#utility.yul\":3118:3130   */\n      revert\n        /* \"#utility.yul\":3069:3132   */\n    tag_247:\n        /* \"#utility.yul\":3016:3138   */\n      pop\n      jump\t// out\n        /* \"#utility.yul\":3144:3283   */\n    tag_185:\n        /* \"#utility.yul\":3190:3195   */\n      0x00\n        /* \"#utility.yul\":3228:3234   */\n      dup2\n        /* \"#utility.yul\":3215:3235   */\n      calldataload\n        /* \"#utility.yul\":3206:3235   */\n      swap1\n      pop\n        /* \"#utility.yul\":3244:3277   */\n      tag_249\n        /* \"#utility.yul\":3271:3276   */\n      dup2\n        /* \"#utility.yul\":3244:3277   */\n      tag_184\n      jump\t// in\n    tag_249:\n        /* \"#utility.yul\":3144:3283   */\n      swap3\n      swap2\n      pop\n      pop\n      jump\t// out\n        /* \"#utility.yul\":3289:3618   */\n    tag_68:\n        /* \"#utility.yul\":3348:3354   */\n      0x00\n        /* \"#utility.yul\":3397:3399   */\n      0x20\n        /* \"#utility.yul\":3385:3394   */\n      dup3\n        /* \"#utility.yul\":3376:3383   */\n      dup5\n        /* \"#utility.yul\":3372:3395   */\n      sub\n        /* \"#utility.yul\":3368:3400   */\n      slt\n        /* \"#utility.yul\":3365:3484   */\n      iszero\n      tag_251\n      jumpi\n        /* \"#utility.yul\":3403:3482   */\n      tag_252\n      tag_172\n      jump\t// in\n    tag_252:\n        /* \"#utility.yul\":3365:3484   */\n    tag_251:\n        /* \"#utility.yul\":3523:3524   */\n      0x00\n        /* \"#utility.yul\":3548:3601   */\n      tag_253\n        /* \"#utility.yul\":3593:3600   */\n      dup5\n        /* \"#utility.yul\":3584:3590   */\n      dup3\n        /* \"#utility.yul\":3573:3582   */\n      dup6\n        /* \"#utility.yul\":3569:3591   */\n      add\n        /* \"#utility.yul\":3548:3601   */\n      tag_185\n      jump\t// in\n    tag_253:\n        /* \"#utility.yul\":3538:3601   */\n      swap2\n      pop\n        /* \"#utility.yul\":3494:3611   */\n      pop\n        /* \"#utility.yul\":3289:3618   */\n      swap3\n      swap2\n      pop\n      pop\n      jump\t// out\n        /* \"#utility.yul\":3624:3738   */\n    tag_186:\n        /* \"#utility.yul\":3691:3697   */\n      0x00\n        /* \"#utility.yul\":3725:3730   */\n      dup2\n        /* \"#utility.yul\":3719:3731   */\n      mload\n        /* \"#utility.yul\":3709:3731   */\n      swap1\n      pop\n        /* \"#utility.yul\":3624:3738   */\n      swap2\n      swap1\n      pop\n      jump\t// out\n        /* \"#utility.yul\":3744:3928   */\n    tag_187:\n        /* \"#utility.yul\":3843:3854   */\n      0x00\n        /* \"#utility.yul\":3877:3883   */\n      dup3\n        /* \"#utility.yul\":3872:3875   */\n      dup3\n        /* \"#utility.yul\":3865:3884   */\n      mstore\n        /* \"#utility.yul\":3917:3921   */\n      0x20\n        /* \"#utility.yul\":3912:3915   */\n      dup3\n        /* \"#utility.yul\":3908:3922   */\n      add\n        /* \"#utility.yul\":3893:3922   */\n      swap1\n      pop\n        /* \"#utility.yul\":3744:3928   */\n      swap3\n      swap2\n      pop\n      pop\n      jump\t// out\n        /* \"#utility.yul\":3934:4066   */\n    tag_188:\n        /* \"#utility.yul\":4001:4005   */\n      0x00\n        /* \"#utility.yul\":4024:4027   */\n      dup2\n        /* \"#utility.yul\":4016:4027   */\n      swap1\n      pop\n        /* \"#utility.yul\":4054:4058   */\n      0x20\n        /* \"#utility.yul\":4049:4052   */\n      dup3\n        /* \"#utility.yul\":4045:4059   */\n      add\n        /* \"#utility.yul\":4037:4059   */\n      swap1\n      pop\n        /* \"#utility.yul\":3934:4066   */\n      swap2\n      swap1\n      pop\n      jump\t// out\n        /* \"#utility.yul\":4072:4180   */\n    tag_189:\n        /* \"#utility.yul\":4149:4173   */\n      tag_258\n        /* \"#utility.yul\":4167:4172   */\n      dup2\n        /* \"#utility.yul\":4149:4173   */\n      tag_169\n      jump\t// in\n    tag_258:\n        /* \"#utility.yul\":4144:4147   */\n      dup3\n        /* \"#utility.yul\":4137:4174   */\n      mstore\n        /* \"#utility.yul\":4072:4180   */\n      pop\n      pop\n      jump\t// out\n        /* \"#utility.yul\":4186:4365   */\n    tag_190:\n        /* \"#utility.yul\":4255:4265   */\n      0x00\n        /* \"#utility.yul\":4276:4322   */\n      tag_260\n        /* \"#utility.yul\":4318:4321   */\n      dup4\n        /* \"#utility.yul\":4310:4316   */\n      dup4\n        /* \"#utility.yul\":4276:4322   */\n      tag_189\n      jump\t// in\n    tag_260:\n        /* \"#utility.yul\":4354:4358   */\n      0x20\n        /* \"#utility.yul\":4349:4352   */\n      dup4\n        /* \"#utility.yul\":4345:4359   */\n      add\n        /* \"#utility.yul\":4331:4359   */\n      swap1\n      pop\n        /* \"#utility.yul\":4186:4365   */\n      swap3\n      swap2\n      pop\n      pop\n      jump\t// out\n        /* \"#utility.yul\":4371:4484   */\n    tag_191:\n        /* \"#utility.yul\":4441:4445   */\n      0x00\n        /* \"#utility.yul\":4473:4477   */\n      0x20\n        /* \"#utility.yul\":4468:4471   */\n      dup3\n        /* \"#utility.yul\":4464:4478   */\n      add\n        /* \"#utility.yul\":4456:4478   */\n      swap1\n      pop\n        /* \"#utility.yul\":4371:4484   */\n      swap2\n      swap1\n      pop\n      jump\t// out\n        /* \"#utility.yul\":4520:5252   */\n    tag_192:\n        /* \"#utility.yul\":4639:4642   */\n      0x00\n        /* \"#utility.yul\":4668:4722   */\n      tag_263\n        /* \"#utility.yul\":4716:4721   */\n      dup3\n        /* \"#utility.yul\":4668:4722   */\n      tag_186\n      jump\t// in\n    tag_263:\n        /* \"#utility.yul\":4738:4824   */\n      tag_264\n        /* \"#utility.yul\":4817:4823   */\n      dup2\n        /* \"#utility.yul\":4812:4815   */\n      dup6\n        /* \"#utility.yul\":4738:4824   */\n      tag_187\n      jump\t// in\n    tag_264:\n        /* \"#utility.yul\":4731:4824   */\n      swap4\n      pop\n        /* \"#utility.yul\":4848:4904   */\n      tag_265\n        /* \"#utility.yul\":4898:4903   */\n      dup4\n        /* \"#utility.yul\":4848:4904   */\n      tag_188\n      jump\t// in\n    tag_265:\n        /* \"#utility.yul\":4927:4934   */\n      dup1\n        /* \"#utility.yul\":4958:4959   */\n      0x00\n        /* \"#utility.yul\":4943:5227   */\n    tag_266:\n        /* \"#utility.yul\":4968:4974   */\n      dup4\n        /* \"#utility.yul\":4965:4966   */\n      dup2\n        /* \"#utility.yul\":4962:4975   */\n      lt\n        /* \"#utility.yul\":4943:5227   */\n      iszero\n      tag_268\n      jumpi\n        /* \"#utility.yul\":5044:5050   */\n      dup2\n        /* \"#utility.yul\":5038:5051   */\n      mload\n        /* \"#utility.yul\":5071:5134   */\n      tag_269\n        /* \"#utility.yul\":5130:5133   */\n      dup9\n        /* \"#utility.yul\":5115:5128   */\n      dup3\n        /* \"#utility.yul\":5071:5134   */\n      tag_190\n      jump\t// in\n    tag_269:\n        /* \"#utility.yul\":5064:5134   */\n      swap8\n      pop\n        /* \"#utility.yul\":5157:5217   */\n      tag_270\n        /* \"#utility.yul\":5210:5216   */\n      dup4\n        /* \"#utility.yul\":5157:5217   */\n      tag_191\n      jump\t// in\n    tag_270:\n        /* \"#utility.yul\":5147:5217   */\n      swap3\n      pop\n        /* \"#utility.yul\":5003:5227   */\n      pop\n        /* \"#utility.yul\":4990:4991   */\n      0x01\n        /* \"#utility.yul\":4987:4988   */\n      dup2\n        /* \"#utility.yul\":4983:4992   */\n      add\n        /* \"#utility.yul\":4978:4992   */\n      swap1\n      pop\n        /* \"#utility.yul\":4943:5227   */\n      jump(tag_266)\n    tag_268:\n        /* \"#utility.yul\":4947:4961   */\n      pop\n        /* \"#utility.yul\":5243:5246   */\n      dup6\n        /* \"#utility.yul\":5236:5246   */\n      swap4\n      pop\n        /* \"#utility.yul\":4644:5252   */\n      pop\n      pop\n      pop\n        /* \"#utility.yul\":4520:5252   */\n      swap3\n      swap2\n      pop\n      pop\n      jump\t// out\n        /* \"#utility.yul\":5258:5631   */\n    tag_71:\n        /* \"#utility.yul\":5401:5405   */\n      0x00\n        /* \"#utility.yul\":5439:5441   */\n      0x20\n        /* \"#utility.yul\":5428:5437   */\n      dup3\n        /* \"#utility.yul\":5424:5442   */\n      add\n        /* \"#utility.yul\":5416:5442   */\n      swap1\n      pop\n        /* \"#utility.yul\":5488:5497   */\n      dup2\n        /* \"#utility.yul\":5482:5486   */\n      dup2\n        /* \"#utility.yul\":5478:5498   */\n      sub\n        /* \"#utility.yul\":5474:5475   */\n      0x00\n        /* \"#utility.yul\":5463:5472   */\n      dup4\n        /* \"#utility.yul\":5459:5476   */\n      add\n        /* \"#utility.yul\":5452:5499   */\n      mstore\n        /* \"#utility.yul\":5516:5624   */\n      tag_272\n        /* \"#utility.yul\":5619:5623   */\n      dup2\n        /* \"#utility.yul\":5610:5616   */\n      dup5\n        /* \"#utility.yul\":5516:5624   */\n      tag_192\n      jump\t// in\n    tag_272:\n        /* \"#utility.yul\":5508:5624   */\n      swap1\n      pop\n        /* \"#utility.yul\":5258:5631   */\n      swap3\n      swap2\n      pop\n      pop\n      jump\t// out\n        /* \"#utility.yul\":5637:5746   */\n    tag_193:\n        /* \"#utility.yul\":5687:5694   */\n      0x00\n        /* \"#utility.yul\":5716:5740   */\n      tag_274\n        /* \"#utility.yul\":5734:5739   */\n      dup3\n        /* \"#utility.yul\":5716:5740   */\n      tag_177\n      jump\t// in\n    tag_274:\n        /* \"#utility.yul\":5705:5740   */\n      swap1\n      pop\n        /* \"#utility.yul\":5637:5746   */\n      swap2\n      swap1\n      pop\n      jump\t// out\n        /* \"#utility.yul\":5752:5900   */\n    tag_194:\n        /* \"#utility.yul\":5838:5875   */\n      tag_276\n        /* \"#utility.yul\":5869:5874   */\n      dup2\n        /* \"#utility.yul\":5838:5875   */\n      tag_193\n      jump\t// in\n    tag_276:\n        /* \"#utility.yul\":5831:5836   */\n      dup2\n        /* \"#utility.yul\":5828:5876   */\n      eq\n        /* \"#utility.yul\":5818:5894   */\n      tag_277\n      jumpi\n        /* \"#utility.yul\":5890:5891   */\n      0x00\n        /* \"#utility.yul\":5887:5888   */\n      dup1\n        /* \"#utility.yul\":5880:5892   */\n      revert\n        /* \"#utility.yul\":5818:5894   */\n    tag_277:\n        /* \"#utility.yul\":5752:5900   */\n      pop\n      jump\t// out\n        /* \"#utility.yul\":5906:6071   */\n    tag_195:\n        /* \"#utility.yul\":5965:5970   */\n      0x00\n        /* \"#utility.yul\":6003:6009   */\n      dup2\n        /* \"#utility.yul\":5990:6010   */\n      calldataload\n        /* \"#utility.yul\":5981:6010   */\n      swap1\n      pop\n        /* \"#utility.yul\":6019:6065   */\n      tag_279\n        /* \"#utility.yul\":6059:6064   */\n      dup2\n        /* \"#utility.yul\":6019:6065   */\n      tag_194\n      jump\t// in\n    tag_279:\n        /* \"#utility.yul\":5906:6071   */\n      swap3\n      swap2\n      pop\n      pop\n      jump\t// out\n        /* \"#utility.yul\":6077:6432   */\n    tag_79:\n        /* \"#utility.yul\":6149:6155   */\n      0x00\n        /* \"#utility.yul\":6198:6200   */\n      0x20\n        /* \"#utility.yul\":6186:6195   */\n      dup3\n        /* \"#utility.yul\":6177:6184   */\n      dup5\n        /* \"#utility.yul\":6173:6196   */\n      sub\n        /* \"#utility.yul\":6169:6201   */\n      slt\n        /* \"#utility.yul\":6166:6285   */\n      iszero\n      tag_281\n      jumpi\n        /* \"#utility.yul\":6204:6283   */\n      tag_282\n      tag_172\n      jump\t// in\n    tag_282:\n        /* \"#utility.yul\":6166:6285   */\n    tag_281:\n        /* \"#utility.yul\":6324:6325   */\n      0x00\n        /* \"#utility.yul\":6349:6415   */\n      tag_283\n        /* \"#utility.yul\":6407:6414   */\n      dup5\n        /* \"#utility.yul\":6398:6404   */\n      dup3\n        /* \"#utility.yul\":6387:6396   */\n      dup6\n        /* \"#utility.yul\":6383:6405   */\n      add\n        /* \"#utility.yul\":6349:6415   */\n      tag_195\n      jump\t// in\n    tag_283:\n        /* \"#utility.yul\":6339:6415   */\n      swap2\n      pop\n        /* \"#utility.yul\":6295:6425   */\n      pop\n        /* \"#utility.yul\":6077:6432   */\n      swap3\n      swap2\n      pop\n      pop\n      jump\t// out\n        /* \"#utility.yul\":6438:6767   */\n    tag_87:\n        /* \"#utility.yul\":6497:6503   */\n      0x00\n        /* \"#utility.yul\":6546:6548   */\n      0x20\n        /* \"#utility.yul\":6534:6543   */\n      dup3\n        /* \"#utility.yul\":6525:6532   */\n      dup5\n        /* \"#utility.yul\":6521:6544   */\n      sub\n        /* \"#utility.yul\":6517:6549   */\n      slt\n        /* \"#utility.yul\":6514:6633   */\n      iszero\n      tag_285\n      jumpi\n        /* \"#utility.yul\":6552:6631   */\n      tag_286\n      tag_172\n      jump\t// in\n    tag_286:\n        /* \"#utility.yul\":6514:6633   */\n    tag_285:\n        /* \"#utility.yul\":6672:6673   */\n      0x00\n        /* \"#utility.yul\":6697:6750   */\n      tag_287\n        /* \"#utility.yul\":6742:6749   */\n      dup5\n        /* \"#utility.yul\":6733:6739   */\n      dup3\n        /* \"#utility.yul\":6722:6731   */\n      dup6\n        /* \"#utility.yul\":6718:6740   */\n      add\n        /* \"#utility.yul\":6697:6750   */\n      tag_175\n      jump\t// in\n    tag_287:\n        /* \"#utility.yul\":6687:6750   */\n      swap2\n      pop\n        /* \"#utility.yul\":6643:6760   */\n      pop\n        /* \"#utility.yul\":6438:6767   */\n      swap3\n      swap2\n      pop\n      pop\n      jump\t// out\n        /* \"#utility.yul\":6773:6942   */\n    tag_196:\n        /* \"#utility.yul\":6857:6868   */\n      0x00\n        /* \"#utility.yul\":6891:6897   */\n      dup3\n        /* \"#utility.yul\":6886:6889   */\n      dup3\n        /* \"#utility.yul\":6879:6898   */\n      mstore\n        /* \"#utility.yul\":6931:6935   */\n      0x20\n        /* \"#utility.yul\":6926:6929   */\n      dup3\n        /* \"#utility.yul\":6922:6936   */\n      add\n        /* \"#utility.yul\":6907:6936   */\n      swap1\n      pop\n        /* \"#utility.yul\":6773:6942   */\n      swap3\n      swap2\n      pop\n      pop\n      jump\t// out\n        /* \"#utility.yul\":6948:7126   */\n    tag_197:\n        /* \"#utility.yul\":7088:7118   */\n      0x4e6f20746f6b656e206c65667420696e20757365722077616c6c657400000000\n        /* \"#utility.yul\":7084:7085   */\n      0x00\n        /* \"#utility.yul\":7076:7082   */\n      dup3\n        /* \"#utility.yul\":7072:7086   */\n      add\n        /* \"#utility.yul\":7065:7119   */\n      mstore\n        /* \"#utility.yul\":6948:7126   */\n      pop\n      jump\t// out\n        /* \"#utility.yul\":7132:7498   */\n    tag_198:\n        /* \"#utility.yul\":7274:7277   */\n      0x00\n        /* \"#utility.yul\":7295:7362   */\n      tag_291\n        /* \"#utility.yul\":7359:7361   */\n      0x1c\n        /* \"#utility.yul\":7354:7357   */\n      dup4\n        /* \"#utility.yul\":7295:7362   */\n      tag_196\n      jump\t// in\n    tag_291:\n        /* \"#utility.yul\":7288:7362   */\n      swap2\n      pop\n        /* \"#utility.yul\":7371:7464   */\n      tag_292\n        /* \"#utility.yul\":7460:7463   */\n      dup3\n        /* \"#utility.yul\":7371:7464   */\n      tag_197\n      jump\t// in\n    tag_292:\n        /* \"#utility.yul\":7489:7491   */\n      0x20\n        /* \"#utility.yul\":7484:7487   */\n      dup3\n        /* \"#utility.yul\":7480:7492   */\n      add\n        /* \"#utility.yul\":7473:7492   */\n      swap1\n      pop\n        /* \"#utility.yul\":7132:7498   */\n      swap2\n      swap1\n      pop\n      jump\t// out\n        /* \"#utility.yul\":7504:7923   */\n    tag_118:\n        /* \"#utility.yul\":7670:7674   */\n      0x00\n        /* \"#utility.yul\":7708:7710   */\n      0x20\n        /* \"#utility.yul\":7697:7706   */\n      dup3\n        /* \"#utility.yul\":7693:7711   */\n      add\n        /* \"#utility.yul\":7685:7711   */\n      swap1\n      pop\n        /* \"#utility.yul\":7757:7766   */\n      dup2\n        /* \"#utility.yul\":7751:7755   */\n      dup2\n        /* \"#utility.yul\":7747:7767   */\n      sub\n        /* \"#utility.yul\":7743:7744   */\n      0x00\n        /* \"#utility.yul\":7732:7741   */\n      dup4\n        /* \"#utility.yul\":7728:7745   */\n      add\n        /* \"#utility.yul\":7721:7768   */\n      mstore\n        /* \"#utility.yul\":7785:7916   */\n      tag_294\n        /* \"#utility.yul\":7911:7915   */\n      dup2\n        /* \"#utility.yul\":7785:7916   */\n      tag_198\n      jump\t// in\n    tag_294:\n        /* \"#utility.yul\":7777:7916   */\n      swap1\n      pop\n        /* \"#utility.yul\":7504:7923   */\n      swap2\n      swap1\n      pop\n      jump\t// out\n        /* \"#utility.yul\":7929:8109   */\n    tag_199:\n        /* \"#utility.yul\":7977:8054   */\n      0x4e487b7100000000000000000000000000000000000000000000000000000000\n        /* \"#utility.yul\":7974:7975   */\n      0x00\n        /* \"#utility.yul\":7967:8055   */\n      mstore\n        /* \"#utility.yul\":8074:8078   */\n      0x11\n        /* \"#utility.yul\":8071:8072   */\n      0x04\n        /* \"#utility.yul\":8064:8079   */\n      mstore\n        /* \"#utility.yul\":8098:8102   */\n      0x24\n        /* \"#utility.yul\":8095:8096   */\n      0x00\n        /* \"#utility.yul\":8088:8103   */\n      revert\n        /* \"#utility.yul\":8115:8309   */\n    tag_120:\n        /* \"#utility.yul\":8155:8159   */\n      0x00\n        /* \"#utility.yul\":8175:8195   */\n      tag_297\n        /* \"#utility.yul\":8193:8194   */\n      dup3\n        /* \"#utility.yul\":8175:8195   */\n      tag_169\n      jump\t// in\n    tag_297:\n        /* \"#utility.yul\":8170:8195   */\n      swap2\n      pop\n        /* \"#utility.yul\":8209:8229   */\n      tag_298\n        /* \"#utility.yul\":8227:8228   */\n      dup4\n        /* \"#utility.yul\":8209:8229   */\n      tag_169\n      jump\t// in\n    tag_298:\n        /* \"#utility.yul\":8204:8229   */\n      swap3\n      pop\n        /* \"#utility.yul\":8253:8254   */\n      dup3\n        /* \"#utility.yul\":8250:8251   */\n      dup3\n        /* \"#utility.yul\":8246:8255   */\n      sub\n        /* \"#utility.yul\":8238:8255   */\n      swap1\n      pop\n        /* \"#utility.yul\":8277:8278   */\n      dup2\n        /* \"#utility.yul\":8271:8275   */\n      dup2\n        /* \"#utility.yul\":8268:8279   */\n      gt\n        /* \"#utility.yul\":8265:8302   */\n      iszero\n      tag_299\n      jumpi\n        /* \"#utility.yul\":8282:8300   */\n      tag_300\n      tag_199\n      jump\t// in\n    tag_300:\n        /* \"#utility.yul\":8265:8302   */\n    tag_299:\n        /* \"#utility.yul\":8115:8309   */\n      swap3\n      swap2\n      pop\n      pop\n      jump\t// out\n        /* \"#utility.yul\":8315:8725   */\n    tag_123:\n        /* \"#utility.yul\":8355:8362   */\n      0x00\n        /* \"#utility.yul\":8378:8398   */\n      tag_302\n        /* \"#utility.yul\":8396:8397   */\n      dup3\n        /* \"#utility.yul\":8378:8398   */\n      tag_169\n      jump\t// in\n    tag_302:\n        /* \"#utility.yul\":8373:8398   */\n      swap2\n      pop\n        /* \"#utility.yul\":8412:8432   */\n      tag_303\n        /* \"#utility.yul\":8430:8431   */\n      dup4\n        /* \"#utility.yul\":8412:8432   */\n      tag_169\n      jump\t// in\n    tag_303:\n        /* \"#utility.yul\":8407:8432   */\n      swap3\n      pop\n        /* \"#utility.yul\":8467:8468   */\n      dup3\n        /* \"#utility.yul\":8464:8465   */\n      dup3\n        /* \"#utility.yul\":8460:8469   */\n      mul\n        /* \"#utility.yul\":8489:8519   */\n      tag_304\n        /* \"#utility.yul\":8507:8518   */\n      dup2\n        /* \"#utility.yul\":8489:8519   */\n      tag_169\n      jump\t// in\n    tag_304:\n        /* \"#utility.yul\":8478:8519   */\n      swap2\n      pop\n        /* \"#utility.yul\":8668:8669   */\n      dup3\n        /* \"#utility.yul\":8659:8666   */\n      dup3\n        /* \"#utility.yul\":8655:8670   */\n      div\n        /* \"#utility.yul\":8652:8653   */\n      dup5\n        /* \"#utility.yul\":8649:8671   */\n      eq\n        /* \"#utility.yul\":8629:8630   */\n      dup4\n        /* \"#utility.yul\":8622:8631   */\n      iszero\n        /* \"#utility.yul\":8602:8685   */\n      or\n        /* \"#utility.yul\":8579:8718   */\n      tag_305\n      jumpi\n        /* \"#utility.yul\":8698:8716   */\n      tag_306\n      tag_199\n      jump\t// in\n    tag_306:\n        /* \"#utility.yul\":8579:8718   */\n    tag_305:\n        /* \"#utility.yul\":8363:8725   */\n      pop\n        /* \"#utility.yul\":8315:8725   */\n      swap3\n      swap2\n      pop\n      pop\n      jump\t// out\n        /* \"#utility.yul\":8731:9173   */\n    tag_128:\n        /* \"#utility.yul\":8880:8884   */\n      0x00\n        /* \"#utility.yul\":8918:8920   */\n      0x60\n        /* \"#utility.yul\":8907:8916   */\n      dup3\n        /* \"#utility.yul\":8903:8921   */\n      add\n        /* \"#utility.yul\":8895:8921   */\n      swap1\n      pop\n        /* \"#utility.yul\":8931:9002   */\n      tag_308\n        /* \"#utility.yul\":8999:9000   */\n      0x00\n        /* \"#utility.yul\":8988:8997   */\n      dup4\n        /* \"#utility.yul\":8984:9001   */\n      add\n        /* \"#utility.yul\":8975:8981   */\n      dup7\n        /* \"#utility.yul\":8931:9002   */\n      tag_178\n      jump\t// in\n    tag_308:\n        /* \"#utility.yul\":9012:9084   */\n      tag_309\n        /* \"#utility.yul\":9080:9082   */\n      0x20\n        /* \"#utility.yul\":9069:9078   */\n      dup4\n        /* \"#utility.yul\":9065:9083   */\n      add\n        /* \"#utility.yul\":9056:9062   */\n      dup6\n        /* \"#utility.yul\":9012:9084   */\n      tag_178\n      jump\t// in\n    tag_309:\n        /* \"#utility.yul\":9094:9166   */\n      tag_310\n        /* \"#utility.yul\":9162:9164   */\n      0x40\n        /* \"#utility.yul\":9151:9160   */\n      dup4\n        /* \"#utility.yul\":9147:9165   */\n      add\n        /* \"#utility.yul\":9138:9144   */\n      dup5\n        /* \"#utility.yul\":9094:9166   */\n      tag_170\n      jump\t// in\n    tag_310:\n        /* \"#utility.yul\":8731:9173   */\n      swap5\n      swap4\n      pop\n      pop\n      pop\n      pop\n      jump\t// out\n        /* \"#utility.yul\":9179:9347   */\n    tag_200:\n        /* \"#utility.yul\":9319:9339   */\n      0x696e73756666696369656e742066756e64730000000000000000000000000000\n        /* \"#utility.yul\":9315:9316   */\n      0x00\n        /* \"#utility.yul\":9307:9313   */\n      dup3\n        /* \"#utility.yul\":9303:9317   */\n      add\n        /* \"#utility.yul\":9296:9340   */\n      mstore\n        /* \"#utility.yul\":9179:9347   */\n      pop\n      jump\t// out\n        /* \"#utility.yul\":9353:9719   */\n    tag_201:\n        /* \"#utility.yul\":9495:9498   */\n      0x00\n        /* \"#utility.yul\":9516:9583   */\n      tag_313\n        /* \"#utility.yul\":9580:9582   */\n      0x12\n        /* \"#utility.yul\":9575:9578   */\n      dup4\n        /* \"#utility.yul\":9516:9583   */\n      tag_196\n      jump\t// in\n    tag_313:\n        /* \"#utility.yul\":9509:9583   */\n      swap2\n      pop\n        /* \"#utility.yul\":9592:9685   */\n      tag_314\n        /* \"#utility.yul\":9681:9684   */\n      dup3\n        /* \"#utility.yul\":9592:9685   */\n      tag_200\n      jump\t// in\n    tag_314:\n        /* \"#utility.yul\":9710:9712   */\n      0x20\n        /* \"#utility.yul\":9705:9708   */\n      dup3\n        /* \"#utility.yul\":9701:9713   */\n      add\n        /* \"#utility.yul\":9694:9713   */\n      swap1\n      pop\n        /* \"#utility.yul\":9353:9719   */\n      swap2\n      swap1\n      pop\n      jump\t// out\n        /* \"#utility.yul\":9725:10144   */\n    tag_139:\n        /* \"#utility.yul\":9891:9895   */\n      0x00\n        /* \"#utility.yul\":9929:9931   */\n      0x20\n        /* \"#utility.yul\":9918:9927   */\n      dup3\n        /* \"#utility.yul\":9914:9932   */\n      add\n        /* \"#utility.yul\":9906:9932   */\n      swap1\n      pop\n        /* \"#utility.yul\":9978:9987   */\n      dup2\n        /* \"#utility.yul\":9972:9976   */\n      dup2\n        /* \"#utility.yul\":9968:9988   */\n      sub\n        /* \"#utility.yul\":9964:9965   */\n      0x00\n        /* \"#utility.yul\":9953:9962   */\n      dup4\n        /* \"#utility.yul\":9949:9966   */\n      add\n        /* \"#utility.yul\":9942:9989   */\n      mstore\n        /* \"#utility.yul\":10006:10137   */\n      tag_316\n        /* \"#utility.yul\":10132:10136   */\n      dup2\n        /* \"#utility.yul\":10006:10137   */\n      tag_201\n      jump\t// in\n    tag_316:\n        /* \"#utility.yul\":9998:10137   */\n      swap1\n      pop\n        /* \"#utility.yul\":9725:10144   */\n      swap2\n      swap1\n      pop\n      jump\t// out\n        /* \"#utility.yul\":10150:10383   */\n    tag_141:\n        /* \"#utility.yul\":10189:10192   */\n      0x00\n        /* \"#utility.yul\":10212:10236   */\n      tag_318\n        /* \"#utility.yul\":10230:10235   */\n      dup3\n        /* \"#utility.yul\":10212:10236   */\n      tag_169\n      jump\t// in\n    tag_318:\n        /* \"#utility.yul\":10203:10236   */\n      swap2\n      pop\n        /* \"#utility.yul\":10258:10324   */\n      0xffffffffffffffffffffffffffffffffffffffffffffffffffffffffffffffff\n        /* \"#utility.yul\":10251:10256   */\n      dup3\n        /* \"#utility.yul\":10248:10325   */\n      sub\n        /* \"#utility.yul\":10245:10348   */\n      tag_319\n      jumpi\n        /* \"#utility.yul\":10328:10346   */\n      tag_320\n      tag_199\n      jump\t// in\n    tag_320:\n        /* \"#utility.yul\":10245:10348   */\n    tag_319:\n        /* \"#utility.yul\":10375:10376   */\n      0x01\n        /* \"#utility.yul\":10368:10373   */\n      dup3\n        /* \"#utility.yul\":10364:10377   */\n      add\n        /* \"#utility.yul\":10357:10377   */\n      swap1\n      pop\n        /* \"#utility.yul\":10150:10383   */\n      swap2\n      swap1\n      pop\n      jump\t// out\n        /* \"#utility.yul\":10389:10580   */\n    tag_144:\n        /* \"#utility.yul\":10429:10432   */\n      0x00\n        /* \"#utility.yul\":10448:10468   */\n      tag_322\n        /* \"#utility.yul\":10466:10467   */\n      dup3\n        /* \"#utility.yul\":10448:10468   */\n      tag_169\n      jump\t// in\n    tag_322:\n        /* \"#utility.yul\":10443:10468   */\n      swap2\n      pop\n        /* \"#utility.yul\":10482:10502   */\n      tag_323\n        /* \"#utility.yul\":10500:10501   */\n      dup4\n        /* \"#utility.yul\":10482:10502   */\n      tag_169\n      jump\t// in\n    tag_323:\n        /* \"#utility.yul\":10477:10502   */\n      swap3\n      pop\n        /* \"#utility.yul\":10525:10526   */\n      dup3\n        /* \"#utility.yul\":10522:10523   */\n      dup3\n        /* \"#utility.yul\":10518:10527   */\n      add\n        /* \"#utility.yul\":10511:10527   */\n      swap1\n      pop\n        /* \"#utility.yul\":10546:10549   */\n      dup1\n        /* \"#utility.yul\":10543:10544   */\n      dup3\n        /* \"#utility.yul\":10540:10550   */\n      gt\n        /* \"#utility.yul\":10537:10573   */\n      iszero\n      tag_324\n      jumpi\n        /* \"#utility.yul\":10553:10571   */\n      tag_325\n      tag_199\n      jump\t// in\n    tag_325:\n        /* \"#utility.yul\":10537:10573   */\n    tag_324:\n        /* \"#utility.yul\":10389:10580   */\n      swap3\n      swap2\n      pop\n      pop\n      jump\t// out\n        /* \"#utility.yul\":10586:10811   */\n    tag_202:\n        /* \"#utility.yul\":10726:10760   */\n      0x4f776e61626c653a206e6577206f776e657220697320746865207a65726f2061\n        /* \"#utility.yul\":10722:10723   */\n      0x00\n        /* \"#utility.yul\":10714:10720   */\n      dup3\n        /* \"#utility.yul\":10710:10724   */\n      add\n        /* \"#utility.yul\":10703:10761   */\n      mstore\n        /* \"#utility.yul\":10795:10803   */\n      0x6464726573730000000000000000000000000000000000000000000000000000\n        /* \"#utility.yul\":10790:10792   */\n      0x20\n        /* \"#utility.yul\":10782:10788   */\n      dup3\n        /* \"#utility.yul\":10778:10793   */\n      add\n        /* \"#utility.yul\":10771:10804   */\n      mstore\n        /* \"#utility.yul\":10586:10811   */\n      pop\n      jump\t// out\n        /* \"#utility.yul\":10817:11183   */\n    tag_203:\n        /* \"#utility.yul\":10959:10962   */\n      0x00\n        /* \"#utility.yul\":10980:11047   */\n      tag_328\n        /* \"#utility.yul\":11044:11046   */\n      0x26\n        /* \"#utility.yul\":11039:11042   */\n      dup4\n        /* \"#utility.yul\":10980:11047   */\n      tag_196\n      jump\t// in\n    tag_328:\n        /* \"#utility.yul\":10973:11047   */\n      swap2\n      pop\n        /* \"#utility.yul\":11056:11149   */\n      tag_329\n        /* \"#utility.yul\":11145:11148   */\n      dup3\n        /* \"#utility.yul\":11056:11149   */\n      tag_202\n      jump\t// in\n    tag_329:\n        /* \"#utility.yul\":11174:11176   */\n      0x40\n        /* \"#utility.yul\":11169:11172   */\n      dup3\n        /* \"#utility.yul\":11165:11177   */\n      add\n        /* \"#utility.yul\":11158:11177   */\n      swap1\n      pop\n        /* \"#utility.yul\":10817:11183   */\n      swap2\n      swap1\n      pop\n      jump\t// out\n        /* \"#utility.yul\":11189:11608   */\n    tag_158:\n        /* \"#utility.yul\":11355:11359   */\n      0x00\n        /* \"#utility.yul\":11393:11395   */\n      0x20\n        /* \"#utility.yul\":11382:11391   */\n      dup3\n        /* \"#utility.yul\":11378:11396   */\n      add\n        /* \"#utility.yul\":11370:11396   */\n      swap1\n      pop\n        /* \"#utility.yul\":11442:11451   */\n      dup2\n        /* \"#utility.yul\":11436:11440   */\n      dup2\n        /* \"#utility.yul\":11432:11452   */\n      sub\n        /* \"#utility.yul\":11428:11429   */\n      0x00\n        /* \"#utility.yul\":11417:11426   */\n      dup4\n        /* \"#utility.yul\":11413:11430   */\n      add\n        /* \"#utility.yul\":11406:11453   */\n      mstore\n        /* \"#utility.yul\":11470:11601   */\n      tag_331\n        /* \"#utility.yul\":11596:11600   */\n      dup2\n        /* \"#utility.yul\":11470:11601   */\n      tag_203\n      jump\t// in\n    tag_331:\n        /* \"#utility.yul\":11462:11601   */\n      swap1\n      pop\n        /* \"#utility.yul\":11189:11608   */\n      swap2\n      swap1\n      pop\n      jump\t// out\n        /* \"#utility.yul\":11614:11796   */\n    tag_204:\n        /* \"#utility.yul\":11754:11788   */\n      0x4f776e61626c653a2063616c6c6572206973206e6f7420746865206f776e6572\n        /* \"#utility.yul\":11750:11751   */\n      0x00\n        /* \"#utility.yul\":11742:11748   */\n      dup3\n        /* \"#utility.yul\":11738:11752   */\n      add\n        /* \"#utility.yul\":11731:11789   */\n      mstore\n        /* \"#utility.yul\":11614:11796   */\n      pop\n      jump\t// out\n        /* \"#utility.yul\":11802:12168   */\n    tag_205:\n        /* \"#utility.yul\":11944:11947   */\n      0x00\n        /* \"#utility.yul\":11965:12032   */\n      tag_334\n        /* \"#utility.yul\":12029:12031   */\n      0x20\n        /* \"#utility.yul\":12024:12027   */\n      dup4\n        /* \"#utility.yul\":11965:12032   */\n      tag_196\n      jump\t// in\n    tag_334:\n        /* \"#utility.yul\":11958:12032   */\n      swap2\n      pop\n        /* \"#utility.yul\":12041:12134   */\n      tag_335\n        /* \"#utility.yul\":12130:12133   */\n      dup3\n        /* \"#utility.yul\":12041:12134   */\n      tag_204\n      jump\t// in\n    tag_335:\n        /* \"#utility.yul\":12159:12161   */\n      0x20\n        /* \"#utility.yul\":12154:12157   */\n      dup3\n        /* \"#utility.yul\":12150:12162   */\n      add\n        /* \"#utility.yul\":12143:12162   */\n      swap1\n      pop\n        /* \"#utility.yul\":11802:12168   */\n      swap2\n      swap1\n      pop\n      jump\t// out\n        /* \"#utility.yul\":12174:12593   */\n    tag_166:\n        /* \"#utility.yul\":12340:12344   */\n      0x00\n        /* \"#utility.yul\":12378:12380   */\n      0x20\n        /* \"#utility.yul\":12367:12376   */\n      dup3\n        /* \"#utility.yul\":12363:12381   */\n      add\n        /* \"#utility.yul\":12355:12381   */\n      swap1\n      pop\n        /* \"#utility.yul\":12427:12436   */\n      dup2\n        /* \"#utility.yul\":12421:12425   */\n      dup2\n        /* \"#utility.yul\":12417:12437   */\n      sub\n        /* \"#utility.yul\":12413:12414   */\n      0x00\n        /* \"#utility.yul\":12402:12411   */\n      dup4\n        /* \"#utility.yul\":12398:12415   */\n      add\n        /* \"#utility.yul\":12391:12438   */\n      mstore\n        /* \"#utility.yul\":12455:12586   */\n      tag_337\n        /* \"#utility.yul\":12581:12585   */\n      dup2\n        /* \"#utility.yul\":12455:12586   */\n      tag_205\n      jump\t// in\n    tag_337:\n        /* \"#utility.yul\":12447:12586   */\n      swap1\n      pop\n        /* \"#utility.yul\":12174:12593   */\n      swap2\n      swap1\n      pop\n      jump\t// out\n\n    auxdata: 0xa2646970667358221220257fed60b13fda2d8e64f945b54983bafe619e53e7ef1a8c9d797066184e41c564736f6c63430008110033\n}\n",
				"bytecode": {
					"linkReferences": {},
					"object": "6080604052606460015534801561001557600080fd5b5061003261002761003760201b60201c565b61003f60201b60201c565b610103565b600033905090565b60008060009054906101000a900473ffffffffffffffffffffffffffffffffffffffff169050816000806101000a81548173ffffffffffffffffffffffffffffffffffffffff021916908373ffffffffffffffffffffffffffffffffffffffff1602179055508173ffffffffffffffffffffffffffffffffffffffff168173ffffffffffffffffffffffffffffffffffffffff167f8be0079c531659141344cd1fd0a4f28419497f9722a3daafe3b4186f6b6457e060405160405180910390a35050565b611237806101126000396000f3fe6080604052600436106100fe5760003560e01c80638620410b11610095578063c4d66de811610064578063c4d66de814610303578063d79875eb1461032c578063d96a094a14610355578063f2fde38b14610371578063f9adf3ec1461039a576100fe565b80638620410b146102455780638da5cb5b1461027057806399f826a51461029b578063a035b1fe146102d8576100fe565b80634b750334116100d15780634b750334146101ad578063679aefce146101d8578063715018a6146102035780637ff9b5961461021a576100fe565b8063048cc0821461010357806305fefda71461012e57806308551a5314610157578063089327de14610182575b600080fd5b34801561010f57600080fd5b506101186103d7565b6040516101259190610b8f565b60405180910390f35b34801561013a57600080fd5b5061015560048036038101906101509190610bdb565b6103dd565b005b34801561016357600080fd5b5061016c6103f7565b6040516101799190610c5c565b60405180910390f35b34801561018e57600080fd5b5061019761041d565b6040516101a49190610cd6565b60405180910390f35b3480156101b957600080fd5b506101c2610443565b6040516101cf9190610b8f565b60405180910390f35b3480156101e457600080fd5b506101ed610449565b6040516101fa9190610b8f565b60405180910390f35b34801561020f57600080fd5b50610218610453565b005b34801561022657600080fd5b5061022f610467565b60405161023c9190610b8f565b60405180910390f35b34801561025157600080fd5b5061025a61046d565b6040516102679190610b8f565b60405180910390f35b34801561027c57600080fd5b50610285610473565b6040516102929190610c5c565b60405180910390f35b3480156102a757600080fd5b506102c260048036038101906102bd9190610d1d565b61049c565b6040516102cf9190610e08565b60405180910390f35b3480156102e457600080fd5b506102ed610533565b6040516102fa9190610b8f565b60405180910390f35b34801561030f57600080fd5b5061032a60048036038101906103259190610e68565b610539565b005b34801561033857600080fd5b50610353600480360381019061034e9190610bdb565b610585565b005b61036f600480360381019061036a9190610e95565b61078a565b005b34801561037d57600080fd5b5061039860048036038101906103939190610d1d565b610991565b005b3480156103a657600080fd5b506103c160048036038101906103bc9190610e95565b610a14565b6040516103ce9190610b8f565b60405180910390f35b60085481565b6103e5610a2c565b81600481905550806005819055505050565b600960009054906101000a900473ffffffffffffffffffffffffffffffffffffffff1681565b600260009054906101000a900473ffffffffffffffffffffffffffffffffffffffff1681565b60045481565b6000600154905090565b61045b610a2c565b6104656000610aaa565b565b60015481565b60055481565b60008060009054906101000a900473ffffffffffffffffffffffffffffffffffffffff16905090565b6060600660008373ffffffffffffffffffffffffffffffffffffffff1673ffffffffffffffffffffffffffffffffffffffff16815260200190815260200160002080548060200260200160405190810160405280929190818152602001828054801561052757602002820191906000526020600020905b815481526020019060010190808311610513575b50505050509050919050565b600a5481565b610541610a2c565b80600260006101000a81548173ffffffffffffffffffffffffffffffffffffffff021916908373ffffffffffffffffffffffffffffffffffffffff16021790555050565b6001600760008381526020019081526020016000205410156105dc576040517f08c379a00000000000000000000000000000000000000000000000000000000081526004016105d390610f1f565b60405180910390fd5b81600360003373ffffffffffffffffffffffffffffffffffffffff1673ffffffffffffffffffffffffffffffffffffffff168152602001908152602001600020600082825461062b9190610f6e565b925050819055503373ffffffffffffffffffffffffffffffffffffffff166108fc600760008481526020019081526020016000205460015461066d9190610f6e565b846106789190610fa2565b9081150290604051600060405180830381858888f193505050501580156106a3573d6000803e3d6000fd5b50600260009054906101000a900473ffffffffffffffffffffffffffffffffffffffff1673ffffffffffffffffffffffffffffffffffffffff1663b45ee9ef336106eb610473565b856040518463ffffffff1660e01b815260040161070a93929190610fe4565b600060405180830381600087803b15801561072457600080fd5b505af1158015610738573d6000803e3d6000fd5b505050508160076000838152602001908152602001600020600082825461075f9190610f6e565b925050819055506001826107739190610fa2565b6001546107809190610f6e565b6001819055505050565b600154816107989190610fa2565b3410156107da576040517f08c379a00000000000000000000000000000000000000000000000000000000081526004016107d190611067565b60405180910390fd5b600860008154809291906107ed90611087565b9190505550600660003373ffffffffffffffffffffffffffffffffffffffff1673ffffffffffffffffffffffffffffffffffffffff168152602001908152602001600020600854908060018154018082558091505060019003906000526020600020016000909190919091505580600360003373ffffffffffffffffffffffffffffffffffffffff1673ffffffffffffffffffffffffffffffffffffffff16815260200190815260200160002060008282546108a991906110cf565b92505081905550600260009054906101000a900473ffffffffffffffffffffffffffffffffffffffff1673ffffffffffffffffffffffffffffffffffffffff1663b45ee9ef6108f6610473565b33846040518463ffffffff1660e01b815260040161091693929190610fe4565b600060405180830381600087803b15801561093057600080fd5b505af1158015610944573d6000803e3d6000fd5b505050506001816109559190610fa2565b6007600060085481526020019081526020016000208190555060018161097b9190610fa2565b60015461098891906110cf565b60018190555050565b610999610a2c565b600073ffffffffffffffffffffffffffffffffffffffff168173ffffffffffffffffffffffffffffffffffffffff1603610a08576040517f08c379a00000000000000000000000000000000000000000000000000000000081526004016109ff90611175565b60405180910390fd5b610a1181610aaa565b50565b60076020528060005260406000206000915090505481565b610a34610b6e565b73ffffffffffffffffffffffffffffffffffffffff16610a52610473565b73ffffffffffffffffffffffffffffffffffffffff1614610aa8576040517f08c379a0000000000000000000000000000000000000000000000000000000008152600401610a9f906111e1565b60405180910390fd5b565b60008060009054906101000a900473ffffffffffffffffffffffffffffffffffffffff169050816000806101000a81548173ffffffffffffffffffffffffffffffffffffffff021916908373ffffffffffffffffffffffffffffffffffffffff1602179055508173ffffffffffffffffffffffffffffffffffffffff168173ffffffffffffffffffffffffffffffffffffffff167f8be0079c531659141344cd1fd0a4f28419497f9722a3daafe3b4186f6b6457e060405160405180910390a35050565b600033905090565b6000819050919050565b610b8981610b76565b82525050565b6000602082019050610ba46000830184610b80565b92915050565b600080fd5b610bb881610b76565b8114610bc357600080fd5b50565b600081359050610bd581610baf565b92915050565b60008060408385031215610bf257610bf1610baa565b5b6000610c0085828601610bc6565b9250506020610c1185828601610bc6565b9150509250929050565b600073ffffffffffffffffffffffffffffffffffffffff82169050919050565b6000610c4682610c1b565b9050919050565b610c5681610c3b565b82525050565b6000602082019050610c716000830184610c4d565b92915050565b6000819050919050565b6000610c9c610c97610c9284610c1b565b610c77565b610c1b565b9050919050565b6000610cae82610c81565b9050919050565b6000610cc082610ca3565b9050919050565b610cd081610cb5565b82525050565b6000602082019050610ceb6000830184610cc7565b92915050565b610cfa81610c3b565b8114610d0557600080fd5b50565b600081359050610d1781610cf1565b92915050565b600060208284031215610d3357610d32610baa565b5b6000610d4184828501610d08565b91505092915050565b600081519050919050565b600082825260208201905092915050565b6000819050602082019050919050565b610d7f81610b76565b82525050565b6000610d918383610d76565b60208301905092915050565b6000602082019050919050565b6000610db582610d4a565b610dbf8185610d55565b9350610dca83610d66565b8060005b83811015610dfb578151610de28882610d85565b9750610ded83610d9d565b925050600181019050610dce565b5085935050505092915050565b60006020820190508181036000830152610e228184610daa565b905092915050565b6000610e3582610c3b565b9050919050565b610e4581610e2a565b8114610e5057600080fd5b50565b600081359050610e6281610e3c565b92915050565b600060208284031215610e7e57610e7d610baa565b5b6000610e8c84828501610e53565b91505092915050565b600060208284031215610eab57610eaa610baa565b5b6000610eb984828501610bc6565b91505092915050565b600082825260208201905092915050565b7f4e6f20746f6b656e206c65667420696e20757365722077616c6c657400000000600082015250565b6000610f09601c83610ec2565b9150610f1482610ed3565b602082019050919050565b60006020820190508181036000830152610f3881610efc565b9050919050565b7f4e487b7100000000000000000000000000000000000000000000000000000000600052601160045260246000fd5b6000610f7982610b76565b9150610f8483610b76565b9250828203905081811115610f9c57610f9b610f3f565b5b92915050565b6000610fad82610b76565b9150610fb883610b76565b9250828202610fc681610b76565b91508282048414831517610fdd57610fdc610f3f565b5b5092915050565b6000606082019050610ff96000830186610c4d565b6110066020830185610c4d565b6110136040830184610b80565b949350505050565b7f696e73756666696369656e742066756e64730000000000000000000000000000600082015250565b6000611051601283610ec2565b915061105c8261101b565b602082019050919050565b6000602082019050818103600083015261108081611044565b9050919050565b600061109282610b76565b91507fffffffffffffffffffffffffffffffffffffffffffffffffffffffffffffffff82036110c4576110c3610f3f565b5b600182019050919050565b60006110da82610b76565b91506110e583610b76565b92508282019050808211156110fd576110fc610f3f565b5b92915050565b7f4f776e61626c653a206e6577206f776e657220697320746865207a65726f206160008201527f6464726573730000000000000000000000000000000000000000000000000000602082015250565b600061115f602683610ec2565b915061116a82611103565b604082019050919050565b6000602082019050818103600083015261118e81611152565b9050919050565b7f4f776e61626c653a2063616c6c6572206973206e6f7420746865206f776e6572600082015250565b60006111cb602083610ec2565b91506111d682611195565b602082019050919050565b600060208201905081810360008301526111fa816111be565b905091905056fea2646970667358221220257fed60b13fda2d8e64f945b54983bafe619e53e7ef1a8c9d797066184e41c564736f6c63430008110033",
					"opcodes": "PUSH1 0x80 PUSH1 0x40 MSTORE PUSH1 0x64 PUSH1 0x1 SSTORE CALLVALUE DUP1 ISZERO PUSH2 0x15 JUMPI PUSH1 0x0 DUP1 REVERT JUMPDEST POP PUSH2 0x32 PUSH2 0x27 PUSH2 0x37 PUSH1 0x20 SHL PUSH1 0x20 SHR JUMP JUMPDEST PUSH2 0x3F PUSH1 0x20 SHL PUSH1 0x20 SHR JUMP JUMPDEST PUSH2 0x103 JUMP JUMPDEST PUSH1 0x0 CALLER SWAP1 POP SWAP1 JUMP JUMPDEST PUSH1 0x0 DUP1 PUSH1 0x0 SWAP1 SLOAD SWAP1 PUSH2 0x100 EXP SWAP1 DIV PUSH20 0xFFFFFFFFFFFFFFFFFFFFFFFFFFFFFFFFFFFFFFFF AND SWAP1 POP DUP2 PUSH1 0x0 DUP1 PUSH2 0x100 EXP DUP2 SLOAD DUP2 PUSH20 0xFFFFFFFFFFFFFFFFFFFFFFFFFFFFFFFFFFFFFFFF MUL NOT AND SWAP1 DUP4 PUSH20 0xFFFFFFFFFFFFFFFFFFFFFFFFFFFFFFFFFFFFFFFF AND MUL OR SWAP1 SSTORE POP DUP2 PUSH20 0xFFFFFFFFFFFFFFFFFFFFFFFFFFFFFFFFFFFFFFFF AND DUP2 PUSH20 0xFFFFFFFFFFFFFFFFFFFFFFFFFFFFFFFFFFFFFFFF AND PUSH32 0x8BE0079C531659141344CD1FD0A4F28419497F9722A3DAAFE3B4186F6B6457E0 PUSH1 0x40 MLOAD PUSH1 0x40 MLOAD DUP1 SWAP2 SUB SWAP1 LOG3 POP POP JUMP JUMPDEST PUSH2 0x1237 DUP1 PUSH2 0x112 PUSH1 0x0 CODECOPY PUSH1 0x0 RETURN INVALID PUSH1 0x80 PUSH1 0x40 MSTORE PUSH1 0x4 CALLDATASIZE LT PUSH2 0xFE JUMPI PUSH1 0x0 CALLDATALOAD PUSH1 0xE0 SHR DUP1 PUSH4 0x8620410B GT PUSH2 0x95 JUMPI DUP1 PUSH4 0xC4D66DE8 GT PUSH2 0x64 JUMPI DUP1 PUSH4 0xC4D66DE8 EQ PUSH2 0x303 JUMPI DUP1 PUSH4 0xD79875EB EQ PUSH2 0x32C JUMPI DUP1 PUSH4 0xD96A094A EQ PUSH2 0x355 JUMPI DUP1 PUSH4 0xF2FDE38B EQ PUSH2 0x371 JUMPI DUP1 PUSH4 0xF9ADF3EC EQ PUSH2 0x39A JUMPI PUSH2 0xFE JUMP JUMPDEST DUP1 PUSH4 0x8620410B EQ PUSH2 0x245 JUMPI DUP1 PUSH4 0x8DA5CB5B EQ PUSH2 0x270 JUMPI DUP1 PUSH4 0x99F826A5 EQ PUSH2 0x29B JUMPI DUP1 PUSH4 0xA035B1FE EQ PUSH2 0x2D8 JUMPI PUSH2 0xFE JUMP JUMPDEST DUP1 PUSH4 0x4B750334 GT PUSH2 0xD1 JUMPI DUP1 PUSH4 0x4B750334 EQ PUSH2 0x1AD JUMPI DUP1 PUSH4 0x679AEFCE EQ PUSH2 0x1D8 JUMPI DUP1 PUSH4 0x715018A6 EQ PUSH2 0x203 JUMPI DUP1 PUSH4 0x7FF9B596 EQ PUSH2 0x21A JUMPI PUSH2 0xFE JUMP JUMPDEST DUP1 PUSH4 0x48CC082 EQ PUSH2 0x103 JUMPI DUP1 PUSH4 0x5FEFDA7 EQ PUSH2 0x12E JUMPI DUP1 PUSH4 0x8551A53 EQ PUSH2 0x157 JUMPI DUP1 PUSH4 0x89327DE EQ PUSH2 0x182 JUMPI JUMPDEST PUSH1 0x0 DUP1 REVERT JUMPDEST CALLVALUE DUP1 ISZERO PUSH2 0x10F JUMPI PUSH1 0x0 DUP1 REVERT JUMPDEST POP PUSH2 0x118 PUSH2 0x3D7 JUMP JUMPDEST PUSH1 0x40 MLOAD PUSH2 0x125 SWAP2 SWAP1 PUSH2 0xB8F JUMP JUMPDEST PUSH1 0x40 MLOAD DUP1 SWAP2 SUB SWAP1 RETURN JUMPDEST CALLVALUE DUP1 ISZERO PUSH2 0x13A JUMPI PUSH1 0x0 DUP1 REVERT JUMPDEST POP PUSH2 0x155 PUSH1 0x4 DUP1 CALLDATASIZE SUB DUP2 ADD SWAP1 PUSH2 0x150 SWAP2 SWAP1 PUSH2 0xBDB JUMP JUMPDEST PUSH2 0x3DD JUMP JUMPDEST STOP JUMPDEST CALLVALUE DUP1 ISZERO PUSH2 0x163 JUMPI PUSH1 0x0 DUP1 REVERT JUMPDEST POP PUSH2 0x16C PUSH2 0x3F7 JUMP JUMPDEST PUSH1 0x40 MLOAD PUSH2 0x179 SWAP2 SWAP1 PUSH2 0xC5C JUMP JUMPDEST PUSH1 0x40 MLOAD DUP1 SWAP2 SUB SWAP1 RETURN JUMPDEST CALLVALUE DUP1 ISZERO PUSH2 0x18E JUMPI PUSH1 0x0 DUP1 REVERT JUMPDEST POP PUSH2 0x197 PUSH2 0x41D JUMP JUMPDEST PUSH1 0x40 MLOAD PUSH2 0x1A4 SWAP2 SWAP1 PUSH2 0xCD6 JUMP JUMPDEST PUSH1 0x40 MLOAD DUP1 SWAP2 SUB SWAP1 RETURN JUMPDEST CALLVALUE DUP1 ISZERO PUSH2 0x1B9 JUMPI PUSH1 0x0 DUP1 REVERT JUMPDEST POP PUSH2 0x1C2 PUSH2 0x443 JUMP JUMPDEST PUSH1 0x40 MLOAD PUSH2 0x1CF SWAP2 SWAP1 PUSH2 0xB8F JUMP JUMPDEST PUSH1 0x40 MLOAD DUP1 SWAP2 SUB SWAP1 RETURN JUMPDEST CALLVALUE DUP1 ISZERO PUSH2 0x1E4 JUMPI PUSH1 0x0 DUP1 REVERT JUMPDEST POP PUSH2 0x1ED PUSH2 0x449 JUMP JUMPDEST PUSH1 0x40 MLOAD PUSH2 0x1FA SWAP2 SWAP1 PUSH2 0xB8F JUMP JUMPDEST PUSH1 0x40 MLOAD DUP1 SWAP2 SUB SWAP1 RETURN JUMPDEST CALLVALUE DUP1 ISZERO PUSH2 0x20F JUMPI PUSH1 0x0 DUP1 REVERT JUMPDEST POP PUSH2 0x218 PUSH2 0x453 JUMP JUMPDEST STOP JUMPDEST CALLVALUE DUP1 ISZERO PUSH2 0x226 JUMPI PUSH1 0x0 DUP1 REVERT JUMPDEST POP PUSH2 0x22F PUSH2 0x467 JUMP JUMPDEST PUSH1 0x40 MLOAD PUSH2 0x23C SWAP2 SWAP1 PUSH2 0xB8F JUMP JUMPDEST PUSH1 0x40 MLOAD DUP1 SWAP2 SUB SWAP1 RETURN JUMPDEST CALLVALUE DUP1 ISZERO PUSH2 0x251 JUMPI PUSH1 0x0 DUP1 REVERT JUMPDEST POP PUSH2 0x25A PUSH2 0x46D JUMP JUMPDEST PUSH1 0x40 MLOAD PUSH2 0x267 SWAP2 SWAP1 PUSH2 0xB8F JUMP JUMPDEST PUSH1 0x40 MLOAD DUP1 SWAP2 SUB SWAP1 RETURN JUMPDEST CALLVALUE DUP1 ISZERO PUSH2 0x27C JUMPI PUSH1 0x0 DUP1 REVERT JUMPDEST POP PUSH2 0x285 PUSH2 0x473 JUMP JUMPDEST PUSH1 0x40 MLOAD PUSH2 0x292 SWAP2 SWAP1 PUSH2 0xC5C JUMP JUMPDEST PUSH1 0x40 MLOAD DUP1 SWAP2 SUB SWAP1 RETURN JUMPDEST CALLVALUE DUP1 ISZERO PUSH2 0x2A7 JUMPI PUSH1 0x0 DUP1 REVERT JUMPDEST POP PUSH2 0x2C2 PUSH1 0x4 DUP1 CALLDATASIZE SUB DUP2 ADD SWAP1 PUSH2 0x2BD SWAP2 SWAP1 PUSH2 0xD1D JUMP JUMPDEST PUSH2 0x49C JUMP JUMPDEST PUSH1 0x40 MLOAD PUSH2 0x2CF SWAP2 SWAP1 PUSH2 0xE08 JUMP JUMPDEST PUSH1 0x40 MLOAD DUP1 SWAP2 SUB SWAP1 RETURN JUMPDEST CALLVALUE DUP1 ISZERO PUSH2 0x2E4 JUMPI PUSH1 0x0 DUP1 REVERT JUMPDEST POP PUSH2 0x2ED PUSH2 0x533 JUMP JUMPDEST PUSH1 0x40 MLOAD PUSH2 0x2FA SWAP2 SWAP1 PUSH2 0xB8F JUMP JUMPDEST PUSH1 0x40 MLOAD DUP1 SWAP2 SUB SWAP1 RETURN JUMPDEST CALLVALUE DUP1 ISZERO PUSH2 0x30F JUMPI PUSH1 0x0 DUP1 REVERT JUMPDEST POP PUSH2 0x32A PUSH1 0x4 DUP1 CALLDATASIZE SUB DUP2 ADD SWAP1 PUSH2 0x325 SWAP2 SWAP1 PUSH2 0xE68 JUMP JUMPDEST PUSH2 0x539 JUMP JUMPDEST STOP JUMPDEST CALLVALUE DUP1 ISZERO PUSH2 0x338 JUMPI PUSH1 0x0 DUP1 REVERT JUMPDEST POP PUSH2 0x353 PUSH1 0x4 DUP1 CALLDATASIZE SUB DUP2 ADD SWAP1 PUSH2 0x34E SWAP2 SWAP1 PUSH2 0xBDB JUMP JUMPDEST PUSH2 0x585 JUMP JUMPDEST STOP JUMPDEST PUSH2 0x36F PUSH1 0x4 DUP1 CALLDATASIZE SUB DUP2 ADD SWAP1 PUSH2 0x36A SWAP2 SWAP1 PUSH2 0xE95 JUMP JUMPDEST PUSH2 0x78A JUMP JUMPDEST STOP JUMPDEST CALLVALUE DUP1 ISZERO PUSH2 0x37D JUMPI PUSH1 0x0 DUP1 REVERT JUMPDEST POP PUSH2 0x398 PUSH1 0x4 DUP1 CALLDATASIZE SUB DUP2 ADD SWAP1 PUSH2 0x393 SWAP2 SWAP1 PUSH2 0xD1D JUMP JUMPDEST PUSH2 0x991 JUMP JUMPDEST STOP JUMPDEST CALLVALUE DUP1 ISZERO PUSH2 0x3A6 JUMPI PUSH1 0x0 DUP1 REVERT JUMPDEST POP PUSH2 0x3C1 PUSH1 0x4 DUP1 CALLDATASIZE SUB DUP2 ADD SWAP1 PUSH2 0x3BC SWAP2 SWAP1 PUSH2 0xE95 JUMP JUMPDEST PUSH2 0xA14 JUMP JUMPDEST PUSH1 0x40 MLOAD PUSH2 0x3CE SWAP2 SWAP1 PUSH2 0xB8F JUMP JUMPDEST PUSH1 0x40 MLOAD DUP1 SWAP2 SUB SWAP1 RETURN JUMPDEST PUSH1 0x8 SLOAD DUP2 JUMP JUMPDEST PUSH2 0x3E5 PUSH2 0xA2C JUMP JUMPDEST DUP2 PUSH1 0x4 DUP2 SWAP1 SSTORE POP DUP1 PUSH1 0x5 DUP2 SWAP1 SSTORE POP POP POP JUMP JUMPDEST PUSH1 0x9 PUSH1 0x0 SWAP1 SLOAD SWAP1 PUSH2 0x100 EXP SWAP1 DIV PUSH20 0xFFFFFFFFFFFFFFFFFFFFFFFFFFFFFFFFFFFFFFFF AND DUP2 JUMP JUMPDEST PUSH1 0x2 PUSH1 0x0 SWAP1 SLOAD SWAP1 PUSH2 0x100 EXP SWAP1 DIV PUSH20 0xFFFFFFFFFFFFFFFFFFFFFFFFFFFFFFFFFFFFFFFF AND DUP2 JUMP JUMPDEST PUSH1 0x4 SLOAD DUP2 JUMP JUMPDEST PUSH1 0x0 PUSH1 0x1 SLOAD SWAP1 POP SWAP1 JUMP JUMPDEST PUSH2 0x45B PUSH2 0xA2C JUMP JUMPDEST PUSH2 0x465 PUSH1 0x0 PUSH2 0xAAA JUMP JUMPDEST JUMP JUMPDEST PUSH1 0x1 SLOAD DUP2 JUMP JUMPDEST PUSH1 0x5 SLOAD DUP2 JUMP JUMPDEST PUSH1 0x0 DUP1 PUSH1 0x0 SWAP1 SLOAD SWAP1 PUSH2 0x100 EXP SWAP1 DIV PUSH20 0xFFFFFFFFFFFFFFFFFFFFFFFFFFFFFFFFFFFFFFFF AND SWAP1 POP SWAP1 JUMP JUMPDEST PUSH1 0x60 PUSH1 0x6 PUSH1 0x0 DUP4 PUSH20 0xFFFFFFFFFFFFFFFFFFFFFFFFFFFFFFFFFFFFFFFF AND PUSH20 0xFFFFFFFFFFFFFFFFFFFFFFFFFFFFFFFFFFFFFFFF AND DUP2 MSTORE PUSH1 0x20 ADD SWAP1 DUP2 MSTORE PUSH1 0x20 ADD PUSH1 0x0 KECCAK256 DUP1 SLOAD DUP1 PUSH1 0x20 MUL PUSH1 0x20 ADD PUSH1 0x40 MLOAD SWAP1 DUP2 ADD PUSH1 0x40 MSTORE DUP1 SWAP3 SWAP2 SWAP1 DUP2 DUP2 MSTORE PUSH1 0x20 ADD DUP3 DUP1 SLOAD DUP1 ISZERO PUSH2 0x527 JUMPI PUSH1 0x20 MUL DUP3 ADD SWAP2 SWAP1 PUSH1 0x0 MSTORE PUSH1 0x20 PUSH1 0x0 KECCAK256 SWAP1 JUMPDEST DUP2 SLOAD DUP2 MSTORE PUSH1 0x20 ADD SWAP1 PUSH1 0x1 ADD SWAP1 DUP1 DUP4 GT PUSH2 0x513 JUMPI JUMPDEST POP POP POP POP POP SWAP1 POP SWAP2 SWAP1 POP JUMP JUMPDEST PUSH1 0xA SLOAD DUP2 JUMP JUMPDEST PUSH2 0x541 PUSH2 0xA2C JUMP JUMPDEST DUP1 PUSH1 0x2 PUSH1 0x0 PUSH2 0x100 EXP DUP2 SLOAD DUP2 PUSH20 0xFFFFFFFFFFFFFFFFFFFFFFFFFFFFFFFFFFFFFFFF MUL NOT AND SWAP1 DUP4 PUSH20 0xFFFFFFFFFFFFFFFFFFFFFFFFFFFFFFFFFFFFFFFF AND MUL OR SWAP1 SSTORE POP POP JUMP JUMPDEST PUSH1 0x1 PUSH1 0x7 PUSH1 0x0 DUP4 DUP2 MSTORE PUSH1 0x20 ADD SWAP1 DUP2 MSTORE PUSH1 0x20 ADD PUSH1 0x0 KECCAK256 SLOAD LT ISZERO PUSH2 0x5DC JUMPI PUSH1 0x40 MLOAD PUSH32 0x8C379A000000000000000000000000000000000000000000000000000000000 DUP2 MSTORE PUSH1 0x4 ADD PUSH2 0x5D3 SWAP1 PUSH2 0xF1F JUMP JUMPDEST PUSH1 0x40 MLOAD DUP1 SWAP2 SUB SWAP1 REVERT JUMPDEST DUP2 PUSH1 0x3 PUSH1 0x0 CALLER PUSH20 0xFFFFFFFFFFFFFFFFFFFFFFFFFFFFFFFFFFFFFFFF AND PUSH20 0xFFFFFFFFFFFFFFFFFFFFFFFFFFFFFFFFFFFFFFFF AND DUP2 MSTORE PUSH1 0x20 ADD SWAP1 DUP2 MSTORE PUSH1 0x20 ADD PUSH1 0x0 KECCAK256 PUSH1 0x0 DUP3 DUP3 SLOAD PUSH2 0x62B SWAP2 SWAP1 PUSH2 0xF6E JUMP JUMPDEST SWAP3 POP POP DUP2 SWAP1 SSTORE POP CALLER PUSH20 0xFFFFFFFFFFFFFFFFFFFFFFFFFFFFFFFFFFFFFFFF AND PUSH2 0x8FC PUSH1 0x7 PUSH1 0x0 DUP5 DUP2 MSTORE PUSH1 0x20 ADD SWAP1 DUP2 MSTORE PUSH1 0x20 ADD PUSH1 0x0 KECCAK256 SLOAD PUSH1 0x1 SLOAD PUSH2 0x66D SWAP2 SWAP1 PUSH2 0xF6E JUMP JUMPDEST DUP5 PUSH2 0x678 SWAP2 SWAP1 PUSH2 0xFA2 JUMP JUMPDEST SWAP1 DUP2 ISZERO MUL SWAP1 PUSH1 0x40 MLOAD PUSH1 0x0 PUSH1 0x40 MLOAD DUP1 DUP4 SUB DUP2 DUP6 DUP9 DUP9 CALL SWAP4 POP POP POP POP ISZERO DUP1 ISZERO PUSH2 0x6A3 JUMPI RETURNDATASIZE PUSH1 0x0 DUP1 RETURNDATACOPY RETURNDATASIZE PUSH1 0x0 REVERT JUMPDEST POP PUSH1 0x2 PUSH1 0x0 SWAP1 SLOAD SWAP1 PUSH2 0x100 EXP SWAP1 DIV PUSH20 0xFFFFFFFFFFFFFFFFFFFFFFFFFFFFFFFFFFFFFFFF AND PUSH20 0xFFFFFFFFFFFFFFFFFFFFFFFFFFFFFFFFFFFFFFFF AND PUSH4 0xB45EE9EF CALLER PUSH2 0x6EB PUSH2 0x473 JUMP JUMPDEST DUP6 PUSH1 0x40 MLOAD DUP5 PUSH4 0xFFFFFFFF AND PUSH1 0xE0 SHL DUP2 MSTORE PUSH1 0x4 ADD PUSH2 0x70A SWAP4 SWAP3 SWAP2 SWAP1 PUSH2 0xFE4 JUMP JUMPDEST PUSH1 0x0 PUSH1 0x40 MLOAD DUP1 DUP4 SUB DUP2 PUSH1 0x0 DUP8 DUP1 EXTCODESIZE ISZERO DUP1 ISZERO PUSH2 0x724 JUMPI PUSH1 0x0 DUP1 REVERT JUMPDEST POP GAS CALL ISZERO DUP1 ISZERO PUSH2 0x738 JUMPI RETURNDATASIZE PUSH1 0x0 DUP1 RETURNDATACOPY RETURNDATASIZE PUSH1 0x0 REVERT JUMPDEST POP POP POP POP DUP2 PUSH1 0x7 PUSH1 0x0 DUP4 DUP2 MSTORE PUSH1 0x20 ADD SWAP1 DUP2 MSTORE PUSH1 0x20 ADD PUSH1 0x0 KECCAK256 PUSH1 0x0 DUP3 DUP3 SLOAD PUSH2 0x75F SWAP2 SWAP1 PUSH2 0xF6E JUMP JUMPDEST SWAP3 POP POP DUP2 SWAP1 SSTORE POP PUSH1 0x1 DUP3 PUSH2 0x773 SWAP2 SWAP1 PUSH2 0xFA2 JUMP JUMPDEST PUSH1 0x1 SLOAD PUSH2 0x780 SWAP2 SWAP1 PUSH2 0xF6E JUMP JUMPDEST PUSH1 0x1 DUP2 SWAP1 SSTORE POP POP POP JUMP JUMPDEST PUSH1 0x1 SLOAD DUP2 PUSH2 0x798 SWAP2 SWAP1 PUSH2 0xFA2 JUMP JUMPDEST CALLVALUE LT ISZERO PUSH2 0x7DA JUMPI PUSH1 0x40 MLOAD PUSH32 0x8C379A000000000000000000000000000000000000000000000000000000000 DUP2 MSTORE PUSH1 0x4 ADD PUSH2 0x7D1 SWAP1 PUSH2 0x1067 JUMP JUMPDEST PUSH1 0x40 MLOAD DUP1 SWAP2 SUB SWAP1 REVERT JUMPDEST PUSH1 0x8 PUSH1 0x0 DUP2 SLOAD DUP1 SWAP3 SWAP2 SWAP1 PUSH2 0x7ED SWAP1 PUSH2 0x1087 JUMP JUMPDEST SWAP2 SWAP1 POP SSTORE POP PUSH1 0x6 PUSH1 0x0 CALLER PUSH20 0xFFFFFFFFFFFFFFFFFFFFFFFFFFFFFFFFFFFFFFFF AND PUSH20 0xFFFFFFFFFFFFFFFFFFFFFFFFFFFFFFFFFFFFFFFF AND DUP2 MSTORE PUSH1 0x20 ADD SWAP1 DUP2 MSTORE PUSH1 0x20 ADD PUSH1 0x0 KECCAK256 PUSH1 0x8 SLOAD SWAP1 DUP1 PUSH1 0x1 DUP2 SLOAD ADD DUP1 DUP3 SSTORE DUP1 SWAP2 POP POP PUSH1 0x1 SWAP1 SUB SWAP1 PUSH1 0x0 MSTORE PUSH1 0x20 PUSH1 0x0 KECCAK256 ADD PUSH1 0x0 SWAP1 SWAP2 SWAP1 SWAP2 SWAP1 SWAP2 POP SSTORE DUP1 PUSH1 0x3 PUSH1 0x0 CALLER PUSH20 0xFFFFFFFFFFFFFFFFFFFFFFFFFFFFFFFFFFFFFFFF AND PUSH20 0xFFFFFFFFFFFFFFFFFFFFFFFFFFFFFFFFFFFFFFFF AND DUP2 MSTORE PUSH1 0x20 ADD SWAP1 DUP2 MSTORE PUSH1 0x20 ADD PUSH1 0x0 KECCAK256 PUSH1 0x0 DUP3 DUP3 SLOAD PUSH2 0x8A9 SWAP2 SWAP1 PUSH2 0x10CF JUMP JUMPDEST SWAP3 POP POP DUP2 SWAP1 SSTORE POP PUSH1 0x2 PUSH1 0x0 SWAP1 SLOAD SWAP1 PUSH2 0x100 EXP SWAP1 DIV PUSH20 0xFFFFFFFFFFFFFFFFFFFFFFFFFFFFFFFFFFFFFFFF AND PUSH20 0xFFFFFFFFFFFFFFFFFFFFFFFFFFFFFFFFFFFFFFFF AND PUSH4 0xB45EE9EF PUSH2 0x8F6 PUSH2 0x473 JUMP JUMPDEST CALLER DUP5 PUSH1 0x40 MLOAD DUP5 PUSH4 0xFFFFFFFF AND PUSH1 0xE0 SHL DUP2 MSTORE PUSH1 0x4 ADD PUSH2 0x916 SWAP4 SWAP3 SWAP2 SWAP1 PUSH2 0xFE4 JUMP JUMPDEST PUSH1 0x0 PUSH1 0x40 MLOAD DUP1 DUP4 SUB DUP2 PUSH1 0x0 DUP8 DUP1 EXTCODESIZE ISZERO DUP1 ISZERO PUSH2 0x930 JUMPI PUSH1 0x0 DUP1 REVERT JUMPDEST POP GAS CALL ISZERO DUP1 ISZERO PUSH2 0x944 JUMPI RETURNDATASIZE PUSH1 0x0 DUP1 RETURNDATACOPY RETURNDATASIZE PUSH1 0x0 REVERT JUMPDEST POP POP POP POP PUSH1 0x1 DUP2 PUSH2 0x955 SWAP2 SWAP1 PUSH2 0xFA2 JUMP JUMPDEST PUSH1 0x7 PUSH1 0x0 PUSH1 0x8 SLOAD DUP2 MSTORE PUSH1 0x20 ADD SWAP1 DUP2 MSTORE PUSH1 0x20 ADD PUSH1 0x0 KECCAK256 DUP2 SWAP1 SSTORE POP PUSH1 0x1 DUP2 PUSH2 0x97B SWAP2 SWAP1 PUSH2 0xFA2 JUMP JUMPDEST PUSH1 0x1 SLOAD PUSH2 0x988 SWAP2 SWAP1 PUSH2 0x10CF JUMP JUMPDEST PUSH1 0x1 DUP2 SWAP1 SSTORE POP POP JUMP JUMPDEST PUSH2 0x999 PUSH2 0xA2C JUMP JUMPDEST PUSH1 0x0 PUSH20 0xFFFFFFFFFFFFFFFFFFFFFFFFFFFFFFFFFFFFFFFF AND DUP2 PUSH20 0xFFFFFFFFFFFFFFFFFFFFFFFFFFFFFFFFFFFFFFFF AND SUB PUSH2 0xA08 JUMPI PUSH1 0x40 MLOAD PUSH32 0x8C379A000000000000000000000000000000000000000000000000000000000 DUP2 MSTORE PUSH1 0x4 ADD PUSH2 0x9FF SWAP1 PUSH2 0x1175 JUMP JUMPDEST PUSH1 0x40 MLOAD DUP1 SWAP2 SUB SWAP1 REVERT JUMPDEST PUSH2 0xA11 DUP2 PUSH2 0xAAA JUMP JUMPDEST POP JUMP JUMPDEST PUSH1 0x7 PUSH1 0x20 MSTORE DUP1 PUSH1 0x0 MSTORE PUSH1 0x40 PUSH1 0x0 KECCAK256 PUSH1 0x0 SWAP2 POP SWAP1 POP SLOAD DUP2 JUMP JUMPDEST PUSH2 0xA34 PUSH2 0xB6E JUMP JUMPDEST PUSH20 0xFFFFFFFFFFFFFFFFFFFFFFFFFFFFFFFFFFFFFFFF AND PUSH2 0xA52 PUSH2 0x473 JUMP JUMPDEST PUSH20 0xFFFFFFFFFFFFFFFFFFFFFFFFFFFFFFFFFFFFFFFF AND EQ PUSH2 0xAA8 JUMPI PUSH1 0x40 MLOAD PUSH32 0x8C379A000000000000000000000000000000000000000000000000000000000 DUP2 MSTORE PUSH1 0x4 ADD PUSH2 0xA9F SWAP1 PUSH2 0x11E1 JUMP JUMPDEST PUSH1 0x40 MLOAD DUP1 SWAP2 SUB SWAP1 REVERT JUMPDEST JUMP JUMPDEST PUSH1 0x0 DUP1 PUSH1 0x0 SWAP1 SLOAD SWAP1 PUSH2 0x100 EXP SWAP1 DIV PUSH20 0xFFFFFFFFFFFFFFFFFFFFFFFFFFFFFFFFFFFFFFFF AND SWAP1 POP DUP2 PUSH1 0x0 DUP1 PUSH2 0x100 EXP DUP2 SLOAD DUP2 PUSH20 0xFFFFFFFFFFFFFFFFFFFFFFFFFFFFFFFFFFFFFFFF MUL NOT AND SWAP1 DUP4 PUSH20 0xFFFFFFFFFFFFFFFFFFFFFFFFFFFFFFFFFFFFFFFF AND MUL OR SWAP1 SSTORE POP DUP2 PUSH20 0xFFFFFFFFFFFFFFFFFFFFFFFFFFFFFFFFFFFFFFFF AND DUP2 PUSH20 0xFFFFFFFFFFFFFFFFFFFFFFFFFFFFFFFFFFFFFFFF AND PUSH32 0x8BE0079C531659141344CD1FD0A4F28419497F9722A3DAAFE3B4186F6B6457E0 PUSH1 0x40 MLOAD PUSH1 0x40 MLOAD DUP1 SWAP2 SUB SWAP1 LOG3 POP POP JUMP JUMPDEST PUSH1 0x0 CALLER SWAP1 POP SWAP1 JUMP JUMPDEST PUSH1 0x0 DUP2 SWAP1 POP SWAP2 SWAP1 POP JUMP JUMPDEST PUSH2 0xB89 DUP2 PUSH2 0xB76 JUMP JUMPDEST DUP3 MSTORE POP POP JUMP JUMPDEST PUSH1 0x0 PUSH1 0x20 DUP3 ADD SWAP1 POP PUSH2 0xBA4 PUSH1 0x0 DUP4 ADD DUP5 PUSH2 0xB80 JUMP JUMPDEST SWAP3 SWAP2 POP POP JUMP JUMPDEST PUSH1 0x0 DUP1 REVERT JUMPDEST PUSH2 0xBB8 DUP2 PUSH2 0xB76 JUMP JUMPDEST DUP2 EQ PUSH2 0xBC3 JUMPI PUSH1 0x0 DUP1 REVERT JUMPDEST POP JUMP JUMPDEST PUSH1 0x0 DUP2 CALLDATALOAD SWAP1 POP PUSH2 0xBD5 DUP2 PUSH2 0xBAF JUMP JUMPDEST SWAP3 SWAP2 POP POP JUMP JUMPDEST PUSH1 0x0 DUP1 PUSH1 0x40 DUP4 DUP6 SUB SLT ISZERO PUSH2 0xBF2 JUMPI PUSH2 0xBF1 PUSH2 0xBAA JUMP JUMPDEST JUMPDEST PUSH1 0x0 PUSH2 0xC00 DUP6 DUP3 DUP7 ADD PUSH2 0xBC6 JUMP JUMPDEST SWAP3 POP POP PUSH1 0x20 PUSH2 0xC11 DUP6 DUP3 DUP7 ADD PUSH2 0xBC6 JUMP JUMPDEST SWAP2 POP POP SWAP3 POP SWAP3 SWAP1 POP JUMP JUMPDEST PUSH1 0x0 PUSH20 0xFFFFFFFFFFFFFFFFFFFFFFFFFFFFFFFFFFFFFFFF DUP3 AND SWAP1 POP SWAP2 SWAP1 POP JUMP JUMPDEST PUSH1 0x0 PUSH2 0xC46 DUP3 PUSH2 0xC1B JUMP JUMPDEST SWAP1 POP SWAP2 SWAP1 POP JUMP JUMPDEST PUSH2 0xC56 DUP2 PUSH2 0xC3B JUMP JUMPDEST DUP3 MSTORE POP POP JUMP JUMPDEST PUSH1 0x0 PUSH1 0x20 DUP3 ADD SWAP1 POP PUSH2 0xC71 PUSH1 0x0 DUP4 ADD DUP5 PUSH2 0xC4D JUMP JUMPDEST SWAP3 SWAP2 POP POP JUMP JUMPDEST PUSH1 0x0 DUP2 SWAP1 POP SWAP2 SWAP1 POP JUMP JUMPDEST PUSH1 0x0 PUSH2 0xC9C PUSH2 0xC97 PUSH2 0xC92 DUP5 PUSH2 0xC1B JUMP JUMPDEST PUSH2 0xC77 JUMP JUMPDEST PUSH2 0xC1B JUMP JUMPDEST SWAP1 POP SWAP2 SWAP1 POP JUMP JUMPDEST PUSH1 0x0 PUSH2 0xCAE DUP3 PUSH2 0xC81 JUMP JUMPDEST SWAP1 POP SWAP2 SWAP1 POP JUMP JUMPDEST PUSH1 0x0 PUSH2 0xCC0 DUP3 PUSH2 0xCA3 JUMP JUMPDEST SWAP1 POP SWAP2 SWAP1 POP JUMP JUMPDEST PUSH2 0xCD0 DUP2 PUSH2 0xCB5 JUMP JUMPDEST DUP3 MSTORE POP POP JUMP JUMPDEST PUSH1 0x0 PUSH1 0x20 DUP3 ADD SWAP1 POP PUSH2 0xCEB PUSH1 0x0 DUP4 ADD DUP5 PUSH2 0xCC7 JUMP JUMPDEST SWAP3 SWAP2 POP POP JUMP JUMPDEST PUSH2 0xCFA DUP2 PUSH2 0xC3B JUMP JUMPDEST DUP2 EQ PUSH2 0xD05 JUMPI PUSH1 0x0 DUP1 REVERT JUMPDEST POP JUMP JUMPDEST PUSH1 0x0 DUP2 CALLDATALOAD SWAP1 POP PUSH2 0xD17 DUP2 PUSH2 0xCF1 JUMP JUMPDEST SWAP3 SWAP2 POP POP JUMP JUMPDEST PUSH1 0x0 PUSH1 0x20 DUP3 DUP5 SUB SLT ISZERO PUSH2 0xD33 JUMPI PUSH2 0xD32 PUSH2 0xBAA JUMP JUMPDEST JUMPDEST PUSH1 0x0 PUSH2 0xD41 DUP5 DUP3 DUP6 ADD PUSH2 0xD08 JUMP JUMPDEST SWAP2 POP POP SWAP3 SWAP2 POP POP JUMP JUMPDEST PUSH1 0x0 DUP2 MLOAD SWAP1 POP SWAP2 SWAP1 POP JUMP JUMPDEST PUSH1 0x0 DUP3 DUP3 MSTORE PUSH1 0x20 DUP3 ADD SWAP1 POP SWAP3 SWAP2 POP POP JUMP JUMPDEST PUSH1 0x0 DUP2 SWAP1 POP PUSH1 0x20 DUP3 ADD SWAP1 POP SWAP2 SWAP1 POP JUMP JUMPDEST PUSH2 0xD7F DUP2 PUSH2 0xB76 JUMP JUMPDEST DUP3 MSTORE POP POP JUMP JUMPDEST PUSH1 0x0 PUSH2 0xD91 DUP4 DUP4 PUSH2 0xD76 JUMP JUMPDEST PUSH1 0x20 DUP4 ADD SWAP1 POP SWAP3 SWAP2 POP POP JUMP JUMPDEST PUSH1 0x0 PUSH1 0x20 DUP3 ADD SWAP1 POP SWAP2 SWAP1 POP JUMP JUMPDEST PUSH1 0x0 PUSH2 0xDB5 DUP3 PUSH2 0xD4A JUMP JUMPDEST PUSH2 0xDBF DUP2 DUP6 PUSH2 0xD55 JUMP JUMPDEST SWAP4 POP PUSH2 0xDCA DUP4 PUSH2 0xD66 JUMP JUMPDEST DUP1 PUSH1 0x0 JUMPDEST DUP4 DUP2 LT ISZERO PUSH2 0xDFB JUMPI DUP2 MLOAD PUSH2 0xDE2 DUP9 DUP3 PUSH2 0xD85 JUMP JUMPDEST SWAP8 POP PUSH2 0xDED DUP4 PUSH2 0xD9D JUMP JUMPDEST SWAP3 POP POP PUSH1 0x1 DUP2 ADD SWAP1 POP PUSH2 0xDCE JUMP JUMPDEST POP DUP6 SWAP4 POP POP POP POP SWAP3 SWAP2 POP POP JUMP JUMPDEST PUSH1 0x0 PUSH1 0x20 DUP3 ADD SWAP1 POP DUP2 DUP2 SUB PUSH1 0x0 DUP4 ADD MSTORE PUSH2 0xE22 DUP2 DUP5 PUSH2 0xDAA JUMP JUMPDEST SWAP1 POP SWAP3 SWAP2 POP POP JUMP JUMPDEST PUSH1 0x0 PUSH2 0xE35 DUP3 PUSH2 0xC3B JUMP JUMPDEST SWAP1 POP SWAP2 SWAP1 POP JUMP JUMPDEST PUSH2 0xE45 DUP2 PUSH2 0xE2A JUMP JUMPDEST DUP2 EQ PUSH2 0xE50 JUMPI PUSH1 0x0 DUP1 REVERT JUMPDEST POP JUMP JUMPDEST PUSH1 0x0 DUP2 CALLDATALOAD SWAP1 POP PUSH2 0xE62 DUP2 PUSH2 0xE3C JUMP JUMPDEST SWAP3 SWAP2 POP POP JUMP JUMPDEST PUSH1 0x0 PUSH1 0x20 DUP3 DUP5 SUB SLT ISZERO PUSH2 0xE7E JUMPI PUSH2 0xE7D PUSH2 0xBAA JUMP JUMPDEST JUMPDEST PUSH1 0x0 PUSH2 0xE8C DUP5 DUP3 DUP6 ADD PUSH2 0xE53 JUMP JUMPDEST SWAP2 POP POP SWAP3 SWAP2 POP POP JUMP JUMPDEST PUSH1 0x0 PUSH1 0x20 DUP3 DUP5 SUB SLT ISZERO PUSH2 0xEAB JUMPI PUSH2 0xEAA PUSH2 0xBAA JUMP JUMPDEST JUMPDEST PUSH1 0x0 PUSH2 0xEB9 DUP5 DUP3 DUP6 ADD PUSH2 0xBC6 JUMP JUMPDEST SWAP2 POP POP SWAP3 SWAP2 POP POP JUMP JUMPDEST PUSH1 0x0 DUP3 DUP3 MSTORE PUSH1 0x20 DUP3 ADD SWAP1 POP SWAP3 SWAP2 POP POP JUMP JUMPDEST PUSH32 0x4E6F20746F6B656E206C65667420696E20757365722077616C6C657400000000 PUSH1 0x0 DUP3 ADD MSTORE POP JUMP JUMPDEST PUSH1 0x0 PUSH2 0xF09 PUSH1 0x1C DUP4 PUSH2 0xEC2 JUMP JUMPDEST SWAP2 POP PUSH2 0xF14 DUP3 PUSH2 0xED3 JUMP JUMPDEST PUSH1 0x20 DUP3 ADD SWAP1 POP SWAP2 SWAP1 POP JUMP JUMPDEST PUSH1 0x0 PUSH1 0x20 DUP3 ADD SWAP1 POP DUP2 DUP2 SUB PUSH1 0x0 DUP4 ADD MSTORE PUSH2 0xF38 DUP2 PUSH2 0xEFC JUMP JUMPDEST SWAP1 POP SWAP2 SWAP1 POP JUMP JUMPDEST PUSH32 0x4E487B7100000000000000000000000000000000000000000000000000000000 PUSH1 0x0 MSTORE PUSH1 0x11 PUSH1 0x4 MSTORE PUSH1 0x24 PUSH1 0x0 REVERT JUMPDEST PUSH1 0x0 PUSH2 0xF79 DUP3 PUSH2 0xB76 JUMP JUMPDEST SWAP2 POP PUSH2 0xF84 DUP4 PUSH2 0xB76 JUMP JUMPDEST SWAP3 POP DUP3 DUP3 SUB SWAP1 POP DUP2 DUP2 GT ISZERO PUSH2 0xF9C JUMPI PUSH2 0xF9B PUSH2 0xF3F JUMP JUMPDEST JUMPDEST SWAP3 SWAP2 POP POP JUMP JUMPDEST PUSH1 0x0 PUSH2 0xFAD DUP3 PUSH2 0xB76 JUMP JUMPDEST SWAP2 POP PUSH2 0xFB8 DUP4 PUSH2 0xB76 JUMP JUMPDEST SWAP3 POP DUP3 DUP3 MUL PUSH2 0xFC6 DUP2 PUSH2 0xB76 JUMP JUMPDEST SWAP2 POP DUP3 DUP3 DIV DUP5 EQ DUP4 ISZERO OR PUSH2 0xFDD JUMPI PUSH2 0xFDC PUSH2 0xF3F JUMP JUMPDEST JUMPDEST POP SWAP3 SWAP2 POP POP JUMP JUMPDEST PUSH1 0x0 PUSH1 0x60 DUP3 ADD SWAP1 POP PUSH2 0xFF9 PUSH1 0x0 DUP4 ADD DUP7 PUSH2 0xC4D JUMP JUMPDEST PUSH2 0x1006 PUSH1 0x20 DUP4 ADD DUP6 PUSH2 0xC4D JUMP JUMPDEST PUSH2 0x1013 PUSH1 0x40 DUP4 ADD DUP5 PUSH2 0xB80 JUMP JUMPDEST SWAP5 SWAP4 POP POP POP POP JUMP JUMPDEST PUSH32 0x696E73756666696369656E742066756E64730000000000000000000000000000 PUSH1 0x0 DUP3 ADD MSTORE POP JUMP JUMPDEST PUSH1 0x0 PUSH2 0x1051 PUSH1 0x12 DUP4 PUSH2 0xEC2 JUMP JUMPDEST SWAP2 POP PUSH2 0x105C DUP3 PUSH2 0x101B JUMP JUMPDEST PUSH1 0x20 DUP3 ADD SWAP1 POP SWAP2 SWAP1 POP JUMP JUMPDEST PUSH1 0x0 PUSH1 0x20 DUP3 ADD SWAP1 POP DUP2 DUP2 SUB PUSH1 0x0 DUP4 ADD MSTORE PUSH2 0x1080 DUP2 PUSH2 0x1044 JUMP JUMPDEST SWAP1 POP SWAP2 SWAP1 POP JUMP JUMPDEST PUSH1 0x0 PUSH2 0x1092 DUP3 PUSH2 0xB76 JUMP JUMPDEST SWAP2 POP PUSH32 0xFFFFFFFFFFFFFFFFFFFFFFFFFFFFFFFFFFFFFFFFFFFFFFFFFFFFFFFFFFFFFFFF DUP3 SUB PUSH2 0x10C4 JUMPI PUSH2 0x10C3 PUSH2 0xF3F JUMP JUMPDEST JUMPDEST PUSH1 0x1 DUP3 ADD SWAP1 POP SWAP2 SWAP1 POP JUMP JUMPDEST PUSH1 0x0 PUSH2 0x10DA DUP3 PUSH2 0xB76 JUMP JUMPDEST SWAP2 POP PUSH2 0x10E5 DUP4 PUSH2 0xB76 JUMP JUMPDEST SWAP3 POP DUP3 DUP3 ADD SWAP1 POP DUP1 DUP3 GT ISZERO PUSH2 0x10FD JUMPI PUSH2 0x10FC PUSH2 0xF3F JUMP JUMPDEST JUMPDEST SWAP3 SWAP2 POP POP JUMP JUMPDEST PUSH32 0x4F776E61626C653A206E6577206F776E657220697320746865207A65726F2061 PUSH1 0x0 DUP3 ADD MSTORE PUSH32 0x6464726573730000000000000000000000000000000000000000000000000000 PUSH1 0x20 DUP3 ADD MSTORE POP JUMP JUMPDEST PUSH1 0x0 PUSH2 0x115F PUSH1 0x26 DUP4 PUSH2 0xEC2 JUMP JUMPDEST SWAP2 POP PUSH2 0x116A DUP3 PUSH2 0x1103 JUMP JUMPDEST PUSH1 0x40 DUP3 ADD SWAP1 POP SWAP2 SWAP1 POP JUMP JUMPDEST PUSH1 0x0 PUSH1 0x20 DUP3 ADD SWAP1 POP DUP2 DUP2 SUB PUSH1 0x0 DUP4 ADD MSTORE PUSH2 0x118E DUP2 PUSH2 0x1152 JUMP JUMPDEST SWAP1 POP SWAP2 SWAP1 POP JUMP JUMPDEST PUSH32 0x4F776E61626C653A2063616C6C6572206973206E6F7420746865206F776E6572 PUSH1 0x0 DUP3 ADD MSTORE POP JUMP JUMPDEST PUSH1 0x0 PUSH2 0x11CB PUSH1 0x20 DUP4 PUSH2 0xEC2 JUMP JUMPDEST SWAP2 POP PUSH2 0x11D6 DUP3 PUSH2 0x1195 JUMP JUMPDEST PUSH1 0x20 DUP3 ADD SWAP1 POP SWAP2 SWAP1 POP JUMP JUMPDEST PUSH1 0x0 PUSH1 0x20 DUP3 ADD SWAP1 POP DUP2 DUP2 SUB PUSH1 0x0 DUP4 ADD MSTORE PUSH2 0x11FA DUP2 PUSH2 0x11BE JUMP JUMPDEST SWAP1 POP SWAP2 SWAP1 POP JUMP INVALID LOG2 PUSH5 0x6970667358 0x22 SLT KECCAK256 0x25 PUSH32 0xED60B13FDA2D8E64F945B54983BAFE619E53E7EF1A8C9D797066184E41C56473 PUSH16 0x6C634300081100330000000000000000 "
				},
				"gasEstimates": {
					"creation": {
						"codeDepositCost": "932600",
						"executionCost": "infinite",
						"totalCost": "infinite"
					},
					"external": {
						"InvestorId()": "2453",
						"MyToken()": "infinite",
						"buy(uint256)": "infinite",
						"buyPrice()": "2452",
						"getID(address)": "infinite",
						"getRate()": "2482",
						"initialize(address)": "27051",
						"investorAmount(uint256)": "infinite",
						"owner()": "2567",
						"price()": "2518",
						"renounceOwnership()": "30465",
						"sell(uint256,uint256)": "infinite",
						"sellPrice()": "2452",
						"seller()": "2582",
						"setPrices(uint256,uint256)": "infinite",
						"tokenPrice()": "2518",
						"transferOwnership(address)": "30832"
					}
				},
				"methodIdentifiers": {
					"InvestorId()": "048cc082",
					"MyToken()": "089327de",
					"buy(uint256)": "d96a094a",
					"buyPrice()": "8620410b",
					"getID(address)": "99f826a5",
					"getRate()": "679aefce",
					"initialize(address)": "c4d66de8",
					"investorAmount(uint256)": "f9adf3ec",
					"owner()": "8da5cb5b",
					"price()": "a035b1fe",
					"renounceOwnership()": "715018a6",
					"sell(uint256,uint256)": "d79875eb",
					"sellPrice()": "4b750334",
					"seller()": "08551a53",
					"setPrices(uint256,uint256)": "05fefda7",
					"tokenPrice()": "7ff9b596",
					"transferOwnership(address)": "f2fde38b"
				}
			},
			"storageLayout": {
				"storage": [
					{
						"astId": 1017,
						"contract": "KAMIL SIR/PROJECT01/BUY-SELL/contracts/coinstar.sol:coinstar",
						"label": "_owner",
						"offset": 0,
						"slot": "0",
						"type": "t_address"
					},
					{
						"astId": 746,
						"contract": "KAMIL SIR/PROJECT01/BUY-SELL/contracts/coinstar.sol:coinstar",
						"label": "tokenPrice",
						"offset": 0,
						"slot": "1",
						"type": "t_uint256"
					},
					{
						"astId": 749,
						"contract": "KAMIL SIR/PROJECT01/BUY-SELL/contracts/coinstar.sol:coinstar",
						"label": "MyToken",
						"offset": 0,
						"slot": "2",
						"type": "t_contract(Token)738"
					},
					{
						"astId": 753,
						"contract": "KAMIL SIR/PROJECT01/BUY-SELL/contracts/coinstar.sol:coinstar",
						"label": "balances",
						"offset": 0,
						"slot": "3",
						"type": "t_mapping(t_address,t_uint256)"
					},
					{
						"astId": 755,
						"contract": "KAMIL SIR/PROJECT01/BUY-SELL/contracts/coinstar.sol:coinstar",
						"label": "sellPrice",
						"offset": 0,
						"slot": "4",
						"type": "t_uint256"
					},
					{
						"astId": 757,
						"contract": "KAMIL SIR/PROJECT01/BUY-SELL/contracts/coinstar.sol:coinstar",
						"label": "buyPrice",
						"offset": 0,
						"slot": "5",
						"type": "t_uint256"
					},
					{
						"astId": 762,
						"contract": "KAMIL SIR/PROJECT01/BUY-SELL/contracts/coinstar.sol:coinstar",
						"label": "InvestorAddress",
						"offset": 0,
						"slot": "6",
						"type": "t_mapping(t_address,t_array(t_uint256)dyn_storage)"
					},
					{
						"astId": 766,
						"contract": "KAMIL SIR/PROJECT01/BUY-SELL/contracts/coinstar.sol:coinstar",
						"label": "investorAmount",
						"offset": 0,
						"slot": "7",
						"type": "t_mapping(t_uint256,t_uint256)"
					},
					{
						"astId": 768,
						"contract": "KAMIL SIR/PROJECT01/BUY-SELL/contracts/coinstar.sol:coinstar",
						"label": "InvestorId",
						"offset": 0,
						"slot": "8",
						"type": "t_uint256"
					},
					{
						"astId": 785,
						"contract": "KAMIL SIR/PROJECT01/BUY-SELL/contracts/coinstar.sol:coinstar",
						"label": "seller",
						"offset": 0,
						"slot": "9",
						"type": "t_address"
					},
					{
						"astId": 787,
						"contract": "KAMIL SIR/PROJECT01/BUY-SELL/contracts/coinstar.sol:coinstar",
						"label": "price",
						"offset": 0,
						"slot": "10",
						"type": "t_uint256"
					}
				],
				"types": {
					"t_address": {
						"encoding": "inplace",
						"label": "address",
						"numberOfBytes": "20"
					},
					"t_array(t_uint256)dyn_storage": {
						"base": "t_uint256",
						"encoding": "dynamic_array",
						"label": "uint256[]",
						"numberOfBytes": "32"
					},
					"t_contract(Token)738": {
						"encoding": "inplace",
						"label": "contract Token",
						"numberOfBytes": "20"
					},
					"t_mapping(t_address,t_array(t_uint256)dyn_storage)": {
						"encoding": "mapping",
						"key": "t_address",
						"label": "mapping(address => uint256[])",
						"numberOfBytes": "32",
						"value": "t_array(t_uint256)dyn_storage"
					},
					"t_mapping(t_address,t_uint256)": {
						"encoding": "mapping",
						"key": "t_address",
						"label": "mapping(address => uint256)",
						"numberOfBytes": "32",
						"value": "t_uint256"
					},
					"t_mapping(t_uint256,t_uint256)": {
						"encoding": "mapping",
						"key": "t_uint256",
						"label": "mapping(uint256 => uint256)",
						"numberOfBytes": "32",
						"value": "t_uint256"
					},
					"t_uint256": {
						"encoding": "inplace",
						"label": "uint256",
						"numberOfBytes": "32"
					}
				}
			},
			"userdoc": {
				"kind": "user",
				"methods": {},
				"version": 1
			}
		}
	}
}