{
	"KAMIL SIR/PROJECT01/BUY-SELL/contracts/Token.sol": {
		"Token": {
			"abi": [
				{
					"inputs": [],
					"stateMutability": "nonpayable",
					"type": "constructor"
				},
				{
					"anonymous": false,
					"inputs": [
						{
							"indexed": true,
							"internalType": "address",
							"name": "owner",
							"type": "address"
						},
						{
							"indexed": true,
							"internalType": "address",
							"name": "spender",
							"type": "address"
						},
						{
							"indexed": false,
							"internalType": "uint256",
							"name": "value",
							"type": "uint256"
						}
					],
					"name": "Approval",
					"type": "event"
				},
				{
					"anonymous": false,
					"inputs": [
						{
							"indexed": true,
							"internalType": "address",
							"name": "previousOwner",
							"type": "address"
						},
						{
							"indexed": true,
							"internalType": "address",
							"name": "newOwner",
							"type": "address"
						}
					],
					"name": "OwnershipTransferred",
					"type": "event"
				},
				{
					"anonymous": false,
					"inputs": [
						{
							"indexed": true,
							"internalType": "address",
							"name": "from",
							"type": "address"
						},
						{
							"indexed": true,
							"internalType": "address",
							"name": "to",
							"type": "address"
						},
						{
							"indexed": false,
							"internalType": "uint256",
							"name": "value",
							"type": "uint256"
						}
					],
					"name": "Transfer",
					"type": "event"
				},
				{
					"inputs": [
						{
							"internalType": "address",
							"name": "owner",
							"type": "address"
						},
						{
							"internalType": "address",
							"name": "spender",
							"type": "address"
						}
					],
					"name": "allowance",
					"outputs": [
						{
							"internalType": "uint256",
							"name": "",
							"type": "uint256"
						}
					],
					"stateMutability": "view",
					"type": "function"
				},
				{
					"inputs": [
						{
							"internalType": "address",
							"name": "spender",
							"type": "address"
						},
						{
							"internalType": "uint256",
							"name": "amount",
							"type": "uint256"
						}
					],
					"name": "approve",
					"outputs": [
						{
							"internalType": "bool",
							"name": "",
							"type": "bool"
						}
					],
					"stateMutability": "nonpayable",
					"type": "function"
				},
				{
					"inputs": [
						{
							"internalType": "address",
							"name": "account",
							"type": "address"
						}
					],
					"name": "balanceOf",
					"outputs": [
						{
							"internalType": "uint256",
							"name": "",
							"type": "uint256"
						}
					],
					"stateMutability": "view",
					"type": "function"
				},
				{
					"inputs": [],
					"name": "decimals",
					"outputs": [
						{
							"internalType": "uint8",
							"name": "",
							"type": "uint8"
						}
					],
					"stateMutability": "view",
					"type": "function"
				},
				{
					"inputs": [
						{
							"internalType": "address",
							"name": "spender",
							"type": "address"
						},
						{
							"internalType": "uint256",
							"name": "subtractedValue",
							"type": "uint256"
						}
					],
					"name": "decreaseAllowance",
					"outputs": [
						{
							"internalType": "bool",
							"name": "",
							"type": "bool"
						}
					],
					"stateMutability": "nonpayable",
					"type": "function"
				},
				{
					"inputs": [
						{
							"internalType": "address",
							"name": "spender",
							"type": "address"
						},
						{
							"internalType": "uint256",
							"name": "addedValue",
							"type": "uint256"
						}
					],
					"name": "increaseAllowance",
					"outputs": [
						{
							"internalType": "bool",
							"name": "",
							"type": "bool"
						}
					],
					"stateMutability": "nonpayable",
					"type": "function"
				},
				{
					"inputs": [],
					"name": "name",
					"outputs": [
						{
							"internalType": "string",
							"name": "",
							"type": "string"
						}
					],
					"stateMutability": "view",
					"type": "function"
				},
				{
					"inputs": [],
					"name": "owner",
					"outputs": [
						{
							"internalType": "address",
							"name": "",
							"type": "address"
						}
					],
					"stateMutability": "view",
					"type": "function"
				},
				{
					"inputs": [],
					"name": "renounceOwnership",
					"outputs": [],
					"stateMutability": "nonpayable",
					"type": "function"
				},
				{
					"inputs": [],
					"name": "symbol",
					"outputs": [
						{
							"internalType": "string",
							"name": "",
							"type": "string"
						}
					],
					"stateMutability": "view",
					"type": "function"
				},
				{
					"inputs": [],
					"name": "totalSupply",
					"outputs": [
						{
							"internalType": "uint256",
							"name": "",
							"type": "uint256"
						}
					],
					"stateMutability": "view",
					"type": "function"
				},
				{
					"inputs": [
						{
							"internalType": "address",
							"name": "to",
							"type": "address"
						},
						{
							"internalType": "uint256",
							"name": "amount",
							"type": "uint256"
						}
					],
					"name": "transfer",
					"outputs": [
						{
							"internalType": "bool",
							"name": "",
							"type": "bool"
						}
					],
					"stateMutability": "nonpayable",
					"type": "function"
				},
				{
					"inputs": [
						{
							"internalType": "address",
							"name": "from",
							"type": "address"
						},
						{
							"internalType": "address",
							"name": "to",
							"type": "address"
						},
						{
							"internalType": "uint256",
							"name": "amount",
							"type": "uint256"
						}
					],
					"name": "transferFrom",
					"outputs": [
						{
							"internalType": "bool",
							"name": "",
							"type": "bool"
						}
					],
					"stateMutability": "nonpayable",
					"type": "function"
				},
				{
					"inputs": [
						{
							"internalType": "address",
							"name": "newOwner",
							"type": "address"
						}
					],
					"name": "transferOwnership",
					"outputs": [],
					"stateMutability": "nonpayable",
					"type": "function"
				},
				{
					"inputs": [
						{
							"internalType": "address",
							"name": "from",
							"type": "address"
						},
						{
							"internalType": "address",
							"name": "to",
							"type": "address"
						},
						{
							"internalType": "uint256",
							"name": "amount",
							"type": "uint256"
						}
					],
					"name": "transferPrice",
					"outputs": [],
					"stateMutability": "nonpayable",
					"type": "function"
				},
				{
					"inputs": [
						{
							"internalType": "uint256",
							"name": "amount",
							"type": "uint256"
						}
					],
					"name": "withdraw",
					"outputs": [],
					"stateMutability": "nonpayable",
					"type": "function"
				}
			],
			"devdoc": {
				"kind": "dev",
				"methods": {
					"allowance(address,address)": {
						"details": "See {IERC20-allowance}."
					},
					"approve(address,uint256)": {
						"details": "See {IERC20-approve}. NOTE: If `amount` is the maximum `uint256`, the allowance is not updated on `transferFrom`. This is semantically equivalent to an infinite approval. Requirements: - `spender` cannot be the zero address."
					},
					"balanceOf(address)": {
						"details": "See {IERC20-balanceOf}."
					},
					"decimals()": {
						"details": "Returns the number of decimals used to get its user representation. For example, if `decimals` equals `2`, a balance of `505` tokens should be displayed to a user as `5.05` (`505 / 10 ** 2`). Tokens usually opt for a value of 18, imitating the relationship between Ether and Wei. This is the default value returned by this function, unless it's overridden. NOTE: This information is only used for _display_ purposes: it in no way affects any of the arithmetic of the contract, including {IERC20-balanceOf} and {IERC20-transfer}."
					},
					"decreaseAllowance(address,uint256)": {
						"details": "Atomically decreases the allowance granted to `spender` by the caller. This is an alternative to {approve} that can be used as a mitigation for problems described in {IERC20-approve}. Emits an {Approval} event indicating the updated allowance. Requirements: - `spender` cannot be the zero address. - `spender` must have allowance for the caller of at least `subtractedValue`."
					},
					"increaseAllowance(address,uint256)": {
						"details": "Atomically increases the allowance granted to `spender` by the caller. This is an alternative to {approve} that can be used as a mitigation for problems described in {IERC20-approve}. Emits an {Approval} event indicating the updated allowance. Requirements: - `spender` cannot be the zero address."
					},
					"name()": {
						"details": "Returns the name of the token."
					},
					"owner()": {
						"details": "Returns the address of the current owner."
					},
					"renounceOwnership()": {
						"details": "Leaves the contract without owner. It will not be possible to call `onlyOwner` functions anymore. Can only be called by the current owner. NOTE: Renouncing ownership will leave the contract without an owner, thereby removing any functionality that is only available to the owner."
					},
					"symbol()": {
						"details": "Returns the symbol of the token, usually a shorter version of the name."
					},
					"totalSupply()": {
						"details": "See {IERC20-totalSupply}."
					},
					"transfer(address,uint256)": {
						"details": "See {IERC20-transfer}. Requirements: - `to` cannot be the zero address. - the caller must have a balance of at least `amount`."
					},
					"transferFrom(address,address,uint256)": {
						"details": "See {IERC20-transferFrom}. Emits an {Approval} event indicating the updated allowance. This is not required by the EIP. See the note at the beginning of {ERC20}. NOTE: Does not update the allowance if the current allowance is the maximum `uint256`. Requirements: - `from` and `to` cannot be the zero address. - `from` must have a balance of at least `amount`. - the caller must have allowance for ``from``'s tokens of at least `amount`."
					},
					"transferOwnership(address)": {
						"details": "Transfers ownership of the contract to a new account (`newOwner`). Can only be called by the current owner."
					}
				},
				"version": 1
			},
			"evm": {
				"assembly": "    /* \"KAMIL SIR/PROJECT01/BUY-SELL/contracts/Token.sol\":88:575  contract Token is ERC20 {... */\n  mstore(0x40, 0x80)\n    /* \"KAMIL SIR/PROJECT01/BUY-SELL/contracts/Token.sol\":119:213  constructor() ERC20(\"COINSTAR\", \"COISTAR\") {... */\n  callvalue\n  dup1\n  iszero\n  tag_1\n  jumpi\n  0x00\n  dup1\n  revert\ntag_1:\n  pop\n    /* \"KAMIL SIR/PROJECT01/BUY-SELL/contracts/ERC20.sol\":2070:2186  constructor(string memory name_, string memory symbol_) {... */\n  mload(0x40)\n  dup1\n  0x40\n  add\n  0x40\n  mstore\n  dup1\n  0x08\n  dup2\n  mstore\n  0x20\n  add\n  0x434f494e53544152000000000000000000000000000000000000000000000000\n  dup2\n  mstore\n  pop\n  mload(0x40)\n  dup1\n  0x40\n  add\n  0x40\n  mstore\n  dup1\n  0x07\n  dup2\n  mstore\n  0x20\n  add\n  0x434f495354415200000000000000000000000000000000000000000000000000\n  dup2\n  mstore\n  pop\n    /* \"KAMIL SIR/PROJECT01/BUY-SELL/contracts/utils/Ownable.sol\":983:1015  _transferOwnership(_msgSender()) */\n  tag_6\n    /* \"KAMIL SIR/PROJECT01/BUY-SELL/contracts/utils/Ownable.sol\":1002:1014  _msgSender() */\n  tag_7\n    /* \"KAMIL SIR/PROJECT01/BUY-SELL/contracts/utils/Ownable.sol\":1002:1012  _msgSender */\n  shl(0x20, tag_8)\n    /* \"KAMIL SIR/PROJECT01/BUY-SELL/contracts/utils/Ownable.sol\":1002:1014  _msgSender() */\n  0x20\n  shr\n  jump\t// in\ntag_7:\n    /* \"KAMIL SIR/PROJECT01/BUY-SELL/contracts/utils/Ownable.sol\":983:1001  _transferOwnership */\n  shl(0x20, tag_9)\n    /* \"KAMIL SIR/PROJECT01/BUY-SELL/contracts/utils/Ownable.sol\":983:1015  _transferOwnership(_msgSender()) */\n  0x20\n  shr\n  jump\t// in\ntag_6:\n    /* \"KAMIL SIR/PROJECT01/BUY-SELL/contracts/ERC20.sol\":2145:2150  name_ */\n  dup2\n    /* \"KAMIL SIR/PROJECT01/BUY-SELL/contracts/ERC20.sol\":2137:2142  _name */\n  0x04\n    /* \"KAMIL SIR/PROJECT01/BUY-SELL/contracts/ERC20.sol\":2137:2150  _name = name_ */\n  swap1\n  dup2\n  tag_11\n  swap2\n  swap1\n  tag_12\n  jump\t// in\ntag_11:\n  pop\n    /* \"KAMIL SIR/PROJECT01/BUY-SELL/contracts/ERC20.sol\":2171:2178  symbol_ */\n  dup1\n    /* \"KAMIL SIR/PROJECT01/BUY-SELL/contracts/ERC20.sol\":2161:2168  _symbol */\n  0x05\n    /* \"KAMIL SIR/PROJECT01/BUY-SELL/contracts/ERC20.sol\":2161:2178  _symbol = symbol_ */\n  swap1\n  dup2\n  tag_13\n  swap2\n  swap1\n  tag_12\n  jump\t// in\ntag_13:\n  pop\n    /* \"KAMIL SIR/PROJECT01/BUY-SELL/contracts/ERC20.sol\":2070:2186  constructor(string memory name_, string memory symbol_) {... */\n  pop\n  pop\n    /* \"KAMIL SIR/PROJECT01/BUY-SELL/contracts/Token.sol\":173:205  _mint(owner(), 100000 * (10**9)) */\n  tag_15\n    /* \"KAMIL SIR/PROJECT01/BUY-SELL/contracts/Token.sol\":179:186  owner() */\n  tag_16\n    /* \"KAMIL SIR/PROJECT01/BUY-SELL/contracts/Token.sol\":179:184  owner */\n  shl(0x20, tag_17)\n    /* \"KAMIL SIR/PROJECT01/BUY-SELL/contracts/Token.sol\":179:186  owner() */\n  0x20\n  shr\n  jump\t// in\ntag_16:\n    /* \"KAMIL SIR/PROJECT01/BUY-SELL/contracts/Token.sol\":188:204  100000 * (10**9) */\n  0x5af3107a4000\n    /* \"KAMIL SIR/PROJECT01/BUY-SELL/contracts/Token.sol\":173:178  _mint */\n  shl(0x20, tag_18)\n    /* \"KAMIL SIR/PROJECT01/BUY-SELL/contracts/Token.sol\":173:205  _mint(owner(), 100000 * (10**9)) */\n  0x20\n  shr\n  jump\t// in\ntag_15:\n    /* \"KAMIL SIR/PROJECT01/BUY-SELL/contracts/Token.sol\":88:575  contract Token is ERC20 {... */\n  jump(tag_19)\n    /* \"KAMIL SIR/PROJECT01/BUY-SELL/contracts/utils/Context.sol\":657:755  function _msgSender() internal view virtual returns (address) {... */\ntag_8:\n    /* \"KAMIL SIR/PROJECT01/BUY-SELL/contracts/utils/Context.sol\":710:717  address */\n  0x00\n    /* \"KAMIL SIR/PROJECT01/BUY-SELL/contracts/utils/Context.sol\":737:747  msg.sender */\n  caller\n    /* \"KAMIL SIR/PROJECT01/BUY-SELL/contracts/utils/Context.sol\":730:747  return msg.sender */\n  swap1\n  pop\n    /* \"KAMIL SIR/PROJECT01/BUY-SELL/contracts/utils/Context.sol\":657:755  function _msgSender() internal view virtual returns (address) {... */\n  swap1\n  jump\t// out\n    /* \"KAMIL SIR/PROJECT01/BUY-SELL/contracts/utils/Ownable.sol\":2566:2757  function _transferOwnership(address newOwner) internal virtual {... */\ntag_9:\n    /* \"KAMIL SIR/PROJECT01/BUY-SELL/contracts/utils/Ownable.sol\":2640:2656  address oldOwner */\n  0x00\n    /* \"KAMIL SIR/PROJECT01/BUY-SELL/contracts/utils/Ownable.sol\":2659:2665  _owner */\n  dup1\n  0x00\n  swap1\n  sload\n  swap1\n  0x0100\n  exp\n  swap1\n  div\n  0xffffffffffffffffffffffffffffffffffffffff\n  and\n    /* \"KAMIL SIR/PROJECT01/BUY-SELL/contracts/utils/Ownable.sol\":2640:2665  address oldOwner = _owner */\n  swap1\n  pop\n    /* \"KAMIL SIR/PROJECT01/BUY-SELL/contracts/utils/Ownable.sol\":2685:2693  newOwner */\n  dup2\n    /* \"KAMIL SIR/PROJECT01/BUY-SELL/contracts/utils/Ownable.sol\":2676:2682  _owner */\n  0x00\n  dup1\n    /* \"KAMIL SIR/PROJECT01/BUY-SELL/contracts/utils/Ownable.sol\":2676:2693  _owner = newOwner */\n  0x0100\n  exp\n  dup2\n  sload\n  dup2\n  0xffffffffffffffffffffffffffffffffffffffff\n  mul\n  not\n  and\n  swap1\n  dup4\n  0xffffffffffffffffffffffffffffffffffffffff\n  and\n  mul\n  or\n  swap1\n  sstore\n  pop\n    /* \"KAMIL SIR/PROJECT01/BUY-SELL/contracts/utils/Ownable.sol\":2740:2748  newOwner */\n  dup2\n    /* \"KAMIL SIR/PROJECT01/BUY-SELL/contracts/utils/Ownable.sol\":2709:2749  OwnershipTransferred(oldOwner, newOwner) */\n  0xffffffffffffffffffffffffffffffffffffffff\n  and\n    /* \"KAMIL SIR/PROJECT01/BUY-SELL/contracts/utils/Ownable.sol\":2730:2738  oldOwner */\n  dup2\n    /* \"KAMIL SIR/PROJECT01/BUY-SELL/contracts/utils/Ownable.sol\":2709:2749  OwnershipTransferred(oldOwner, newOwner) */\n  0xffffffffffffffffffffffffffffffffffffffff\n  and\n  0x8be0079c531659141344cd1fd0a4f28419497f9722a3daafe3b4186f6b6457e0\n  mload(0x40)\n  mload(0x40)\n  dup1\n  swap2\n  sub\n  swap1\n  log3\n    /* \"KAMIL SIR/PROJECT01/BUY-SELL/contracts/utils/Ownable.sol\":2629:2757  {... */\n  pop\n    /* \"KAMIL SIR/PROJECT01/BUY-SELL/contracts/utils/Ownable.sol\":2566:2757  function _transferOwnership(address newOwner) internal virtual {... */\n  pop\n  jump\t// out\n    /* \"KAMIL SIR/PROJECT01/BUY-SELL/contracts/utils/Ownable.sol\":1262:1349  function owner() public view virtual returns (address) {... */\ntag_17:\n    /* \"KAMIL SIR/PROJECT01/BUY-SELL/contracts/utils/Ownable.sol\":1308:1315  address */\n  0x00\n    /* \"KAMIL SIR/PROJECT01/BUY-SELL/contracts/utils/Ownable.sol\":1335:1341  _owner */\n  dup1\n  0x00\n  swap1\n  sload\n  swap1\n  0x0100\n  exp\n  swap1\n  div\n  0xffffffffffffffffffffffffffffffffffffffff\n  and\n    /* \"KAMIL SIR/PROJECT01/BUY-SELL/contracts/utils/Ownable.sol\":1328:1341  return _owner */\n  swap1\n  pop\n    /* \"KAMIL SIR/PROJECT01/BUY-SELL/contracts/utils/Ownable.sol\":1262:1349  function owner() public view virtual returns (address) {... */\n  swap1\n  jump\t// out\n    /* \"KAMIL SIR/PROJECT01/BUY-SELL/contracts/ERC20.sol\":9194:9742  function _mint(address account, uint256 amount) internal virtual {... */\ntag_18:\n    /* \"KAMIL SIR/PROJECT01/BUY-SELL/contracts/ERC20.sol\":9297:9298  0 */\n  0x00\n    /* \"KAMIL SIR/PROJECT01/BUY-SELL/contracts/ERC20.sol\":9278:9299  account != address(0) */\n  0xffffffffffffffffffffffffffffffffffffffff\n  and\n    /* \"KAMIL SIR/PROJECT01/BUY-SELL/contracts/ERC20.sol\":9278:9285  account */\n  dup3\n    /* \"KAMIL SIR/PROJECT01/BUY-SELL/contracts/ERC20.sol\":9278:9299  account != address(0) */\n  0xffffffffffffffffffffffffffffffffffffffff\n  and\n  sub\n    /* \"KAMIL SIR/PROJECT01/BUY-SELL/contracts/ERC20.sol\":9270:9335  require(account != address(0), \"ERC20: mint to the zero address\") */\n  tag_24\n  jumpi\n  mload(0x40)\n  0x08c379a000000000000000000000000000000000000000000000000000000000\n  dup2\n  mstore\n  0x04\n  add\n  tag_25\n  swap1\n  tag_26\n  jump\t// in\ntag_25:\n  mload(0x40)\n  dup1\n  swap2\n  sub\n  swap1\n  revert\ntag_24:\n    /* \"KAMIL SIR/PROJECT01/BUY-SELL/contracts/ERC20.sol\":9348:9397  _beforeTokenTransfer(address(0), account, amount) */\n  tag_27\n    /* \"KAMIL SIR/PROJECT01/BUY-SELL/contracts/ERC20.sol\":9377:9378  0 */\n  0x00\n    /* \"KAMIL SIR/PROJECT01/BUY-SELL/contracts/ERC20.sol\":9381:9388  account */\n  dup4\n    /* \"KAMIL SIR/PROJECT01/BUY-SELL/contracts/ERC20.sol\":9390:9396  amount */\n  dup4\n    /* \"KAMIL SIR/PROJECT01/BUY-SELL/contracts/ERC20.sol\":9348:9368  _beforeTokenTransfer */\n  shl(0x20, tag_28)\n    /* \"KAMIL SIR/PROJECT01/BUY-SELL/contracts/ERC20.sol\":9348:9397  _beforeTokenTransfer(address(0), account, amount) */\n  0x20\n  shr\n  jump\t// in\ntag_27:\n    /* \"KAMIL SIR/PROJECT01/BUY-SELL/contracts/ERC20.sol\":9426:9432  amount */\n  dup1\n    /* \"KAMIL SIR/PROJECT01/BUY-SELL/contracts/ERC20.sol\":9410:9422  _totalSupply */\n  0x03\n  0x00\n    /* \"KAMIL SIR/PROJECT01/BUY-SELL/contracts/ERC20.sol\":9410:9432  _totalSupply += amount */\n  dup3\n  dup3\n  sload\n  tag_29\n  swap2\n  swap1\n  tag_30\n  jump\t// in\ntag_29:\n  swap3\n  pop\n  pop\n  dup2\n  swap1\n  sstore\n  pop\n    /* \"KAMIL SIR/PROJECT01/BUY-SELL/contracts/ERC20.sol\":9603:9609  amount */\n  dup1\n    /* \"KAMIL SIR/PROJECT01/BUY-SELL/contracts/ERC20.sol\":9581:9590  _balances */\n  0x01\n    /* \"KAMIL SIR/PROJECT01/BUY-SELL/contracts/ERC20.sol\":9581:9599  _balances[account] */\n  0x00\n    /* \"KAMIL SIR/PROJECT01/BUY-SELL/contracts/ERC20.sol\":9591:9598  account */\n  dup5\n    /* \"KAMIL SIR/PROJECT01/BUY-SELL/contracts/ERC20.sol\":9581:9599  _balances[account] */\n  0xffffffffffffffffffffffffffffffffffffffff\n  and\n  0xffffffffffffffffffffffffffffffffffffffff\n  and\n  dup2\n  mstore\n  0x20\n  add\n  swap1\n  dup2\n  mstore\n  0x20\n  add\n  0x00\n  keccak256\n  0x00\n    /* \"KAMIL SIR/PROJECT01/BUY-SELL/contracts/ERC20.sol\":9581:9609  _balances[account] += amount */\n  dup3\n  dup3\n  sload\n  add\n  swap3\n  pop\n  pop\n  dup2\n  swap1\n  sstore\n  pop\n    /* \"KAMIL SIR/PROJECT01/BUY-SELL/contracts/ERC20.sol\":9657:9664  account */\n  dup2\n    /* \"KAMIL SIR/PROJECT01/BUY-SELL/contracts/ERC20.sol\":9636:9673  Transfer(address(0), account, amount) */\n  0xffffffffffffffffffffffffffffffffffffffff\n  and\n    /* \"KAMIL SIR/PROJECT01/BUY-SELL/contracts/ERC20.sol\":9653:9654  0 */\n  0x00\n    /* \"KAMIL SIR/PROJECT01/BUY-SELL/contracts/ERC20.sol\":9636:9673  Transfer(address(0), account, amount) */\n  0xffffffffffffffffffffffffffffffffffffffff\n  and\n  0xddf252ad1be2c89b69c2b068fc378daa952ba7f163c4a11628f55a4df523b3ef\n    /* \"KAMIL SIR/PROJECT01/BUY-SELL/contracts/ERC20.sol\":9666:9672  amount */\n  dup4\n    /* \"KAMIL SIR/PROJECT01/BUY-SELL/contracts/ERC20.sol\":9636:9673  Transfer(address(0), account, amount) */\n  mload(0x40)\n  tag_31\n  swap2\n  swap1\n  tag_32\n  jump\t// in\ntag_31:\n  mload(0x40)\n  dup1\n  swap2\n  sub\n  swap1\n  log3\n    /* \"KAMIL SIR/PROJECT01/BUY-SELL/contracts/ERC20.sol\":9686:9734  _afterTokenTransfer(address(0), account, amount) */\n  tag_33\n    /* \"KAMIL SIR/PROJECT01/BUY-SELL/contracts/ERC20.sol\":9714:9715  0 */\n  0x00\n    /* \"KAMIL SIR/PROJECT01/BUY-SELL/contracts/ERC20.sol\":9718:9725  account */\n  dup4\n    /* \"KAMIL SIR/PROJECT01/BUY-SELL/contracts/ERC20.sol\":9727:9733  amount */\n  dup4\n    /* \"KAMIL SIR/PROJECT01/BUY-SELL/contracts/ERC20.sol\":9686:9705  _afterTokenTransfer */\n  shl(0x20, tag_34)\n    /* \"KAMIL SIR/PROJECT01/BUY-SELL/contracts/ERC20.sol\":9686:9734  _afterTokenTransfer(address(0), account, amount) */\n  0x20\n  shr\n  jump\t// in\ntag_33:\n    /* \"KAMIL SIR/PROJECT01/BUY-SELL/contracts/ERC20.sol\":9194:9742  function _mint(address account, uint256 amount) internal virtual {... */\n  pop\n  pop\n  jump\t// out\n    /* \"KAMIL SIR/PROJECT01/BUY-SELL/contracts/ERC20.sol\":12961:13086  function _beforeTokenTransfer(... */\ntag_28:\n  pop\n  pop\n  pop\n  jump\t// out\n    /* \"KAMIL SIR/PROJECT01/BUY-SELL/contracts/ERC20.sol\":13690:13814  function _afterTokenTransfer(... */\ntag_34:\n  pop\n  pop\n  pop\n  jump\t// out\n    /* \"#utility.yul\":7:106   */\ntag_37:\n    /* \"#utility.yul\":59:65   */\n  0x00\n    /* \"#utility.yul\":93:98   */\n  dup2\n    /* \"#utility.yul\":87:99   */\n  mload\n    /* \"#utility.yul\":77:99   */\n  swap1\n  pop\n    /* \"#utility.yul\":7:106   */\n  swap2\n  swap1\n  pop\n  jump\t// out\n    /* \"#utility.yul\":112:292   */\ntag_38:\n    /* \"#utility.yul\":160:237   */\n  0x4e487b7100000000000000000000000000000000000000000000000000000000\n    /* \"#utility.yul\":157:158   */\n  0x00\n    /* \"#utility.yul\":150:238   */\n  mstore\n    /* \"#utility.yul\":257:261   */\n  0x41\n    /* \"#utility.yul\":254:255   */\n  0x04\n    /* \"#utility.yul\":247:262   */\n  mstore\n    /* \"#utility.yul\":281:285   */\n  0x24\n    /* \"#utility.yul\":278:279   */\n  0x00\n    /* \"#utility.yul\":271:286   */\n  revert\n    /* \"#utility.yul\":298:478   */\ntag_39:\n    /* \"#utility.yul\":346:423   */\n  0x4e487b7100000000000000000000000000000000000000000000000000000000\n    /* \"#utility.yul\":343:344   */\n  0x00\n    /* \"#utility.yul\":336:424   */\n  mstore\n    /* \"#utility.yul\":443:447   */\n  0x22\n    /* \"#utility.yul\":440:441   */\n  0x04\n    /* \"#utility.yul\":433:448   */\n  mstore\n    /* \"#utility.yul\":467:471   */\n  0x24\n    /* \"#utility.yul\":464:465   */\n  0x00\n    /* \"#utility.yul\":457:472   */\n  revert\n    /* \"#utility.yul\":484:804   */\ntag_40:\n    /* \"#utility.yul\":528:534   */\n  0x00\n    /* \"#utility.yul\":565:566   */\n  0x02\n    /* \"#utility.yul\":559:563   */\n  dup3\n    /* \"#utility.yul\":555:567   */\n  div\n    /* \"#utility.yul\":545:567   */\n  swap1\n  pop\n    /* \"#utility.yul\":612:613   */\n  0x01\n    /* \"#utility.yul\":606:610   */\n  dup3\n    /* \"#utility.yul\":602:614   */\n  and\n    /* \"#utility.yul\":633:651   */\n  dup1\n    /* \"#utility.yul\":623:704   */\n  tag_67\n  jumpi\n    /* \"#utility.yul\":689:693   */\n  0x7f\n    /* \"#utility.yul\":681:687   */\n  dup3\n    /* \"#utility.yul\":677:694   */\n  and\n    /* \"#utility.yul\":667:694   */\n  swap2\n  pop\n    /* \"#utility.yul\":623:704   */\ntag_67:\n    /* \"#utility.yul\":751:753   */\n  0x20\n    /* \"#utility.yul\":743:749   */\n  dup3\n    /* \"#utility.yul\":740:754   */\n  lt\n    /* \"#utility.yul\":720:738   */\n  dup2\n    /* \"#utility.yul\":717:755   */\n  sub\n    /* \"#utility.yul\":714:798   */\n  tag_68\n  jumpi\n    /* \"#utility.yul\":770:788   */\n  tag_69\n  tag_39\n  jump\t// in\ntag_69:\n    /* \"#utility.yul\":714:798   */\ntag_68:\n    /* \"#utility.yul\":535:804   */\n  pop\n    /* \"#utility.yul\":484:804   */\n  swap2\n  swap1\n  pop\n  jump\t// out\n    /* \"#utility.yul\":810:951   */\ntag_41:\n    /* \"#utility.yul\":859:863   */\n  0x00\n    /* \"#utility.yul\":882:885   */\n  dup2\n    /* \"#utility.yul\":874:885   */\n  swap1\n  pop\n    /* \"#utility.yul\":905:908   */\n  dup2\n    /* \"#utility.yul\":902:903   */\n  0x00\n    /* \"#utility.yul\":895:909   */\n  mstore\n    /* \"#utility.yul\":939:943   */\n  0x20\n    /* \"#utility.yul\":936:937   */\n  0x00\n    /* \"#utility.yul\":926:944   */\n  keccak256\n    /* \"#utility.yul\":918:944   */\n  swap1\n  pop\n    /* \"#utility.yul\":810:951   */\n  swap2\n  swap1\n  pop\n  jump\t// out\n    /* \"#utility.yul\":957:1050   */\ntag_42:\n    /* \"#utility.yul\":994:1000   */\n  0x00\n    /* \"#utility.yul\":1041:1043   */\n  0x20\n    /* \"#utility.yul\":1036:1038   */\n  0x1f\n    /* \"#utility.yul\":1029:1034   */\n  dup4\n    /* \"#utility.yul\":1025:1039   */\n  add\n    /* \"#utility.yul\":1021:1044   */\n  div\n    /* \"#utility.yul\":1011:1044   */\n  swap1\n  pop\n    /* \"#utility.yul\":957:1050   */\n  swap2\n  swap1\n  pop\n  jump\t// out\n    /* \"#utility.yul\":1056:1163   */\ntag_43:\n    /* \"#utility.yul\":1100:1108   */\n  0x00\n    /* \"#utility.yul\":1150:1155   */\n  dup3\n    /* \"#utility.yul\":1144:1148   */\n  dup3\n    /* \"#utility.yul\":1140:1156   */\n  shl\n    /* \"#utility.yul\":1119:1156   */\n  swap1\n  pop\n    /* \"#utility.yul\":1056:1163   */\n  swap3\n  swap2\n  pop\n  pop\n  jump\t// out\n    /* \"#utility.yul\":1169:1562   */\ntag_44:\n    /* \"#utility.yul\":1238:1244   */\n  0x00\n    /* \"#utility.yul\":1288:1289   */\n  0x08\n    /* \"#utility.yul\":1276:1286   */\n  dup4\n    /* \"#utility.yul\":1272:1290   */\n  mul\n    /* \"#utility.yul\":1311:1408   */\n  tag_74\n    /* \"#utility.yul\":1341:1407   */\n  0xffffffffffffffffffffffffffffffffffffffffffffffffffffffffffffffff\n    /* \"#utility.yul\":1330:1339   */\n  dup3\n    /* \"#utility.yul\":1311:1408   */\n  tag_43\n  jump\t// in\ntag_74:\n    /* \"#utility.yul\":1429:1468   */\n  tag_75\n    /* \"#utility.yul\":1459:1467   */\n  dup7\n    /* \"#utility.yul\":1448:1457   */\n  dup4\n    /* \"#utility.yul\":1429:1468   */\n  tag_43\n  jump\t// in\ntag_75:\n    /* \"#utility.yul\":1417:1468   */\n  swap6\n  pop\n    /* \"#utility.yul\":1501:1505   */\n  dup1\n    /* \"#utility.yul\":1497:1506   */\n  not\n    /* \"#utility.yul\":1490:1495   */\n  dup5\n    /* \"#utility.yul\":1486:1507   */\n  and\n    /* \"#utility.yul\":1477:1507   */\n  swap4\n  pop\n    /* \"#utility.yul\":1550:1554   */\n  dup1\n    /* \"#utility.yul\":1540:1548   */\n  dup7\n    /* \"#utility.yul\":1536:1555   */\n  and\n    /* \"#utility.yul\":1529:1534   */\n  dup5\n    /* \"#utility.yul\":1526:1556   */\n  or\n    /* \"#utility.yul\":1516:1556   */\n  swap3\n  pop\n    /* \"#utility.yul\":1245:1562   */\n  pop\n  pop\n    /* \"#utility.yul\":1169:1562   */\n  swap4\n  swap3\n  pop\n  pop\n  pop\n  jump\t// out\n    /* \"#utility.yul\":1568:1645   */\ntag_45:\n    /* \"#utility.yul\":1605:1612   */\n  0x00\n    /* \"#utility.yul\":1634:1639   */\n  dup2\n    /* \"#utility.yul\":1623:1639   */\n  swap1\n  pop\n    /* \"#utility.yul\":1568:1645   */\n  swap2\n  swap1\n  pop\n  jump\t// out\n    /* \"#utility.yul\":1651:1711   */\ntag_46:\n    /* \"#utility.yul\":1679:1682   */\n  0x00\n    /* \"#utility.yul\":1700:1705   */\n  dup2\n    /* \"#utility.yul\":1693:1705   */\n  swap1\n  pop\n    /* \"#utility.yul\":1651:1711   */\n  swap2\n  swap1\n  pop\n  jump\t// out\n    /* \"#utility.yul\":1717:1859   */\ntag_47:\n    /* \"#utility.yul\":1767:1776   */\n  0x00\n    /* \"#utility.yul\":1800:1853   */\n  tag_79\n    /* \"#utility.yul\":1818:1852   */\n  tag_80\n    /* \"#utility.yul\":1827:1851   */\n  tag_81\n    /* \"#utility.yul\":1845:1850   */\n  dup5\n    /* \"#utility.yul\":1827:1851   */\n  tag_45\n  jump\t// in\ntag_81:\n    /* \"#utility.yul\":1818:1852   */\n  tag_46\n  jump\t// in\ntag_80:\n    /* \"#utility.yul\":1800:1853   */\n  tag_45\n  jump\t// in\ntag_79:\n    /* \"#utility.yul\":1787:1853   */\n  swap1\n  pop\n    /* \"#utility.yul\":1717:1859   */\n  swap2\n  swap1\n  pop\n  jump\t// out\n    /* \"#utility.yul\":1865:1940   */\ntag_48:\n    /* \"#utility.yul\":1908:1911   */\n  0x00\n    /* \"#utility.yul\":1929:1934   */\n  dup2\n    /* \"#utility.yul\":1922:1934   */\n  swap1\n  pop\n    /* \"#utility.yul\":1865:1940   */\n  swap2\n  swap1\n  pop\n  jump\t// out\n    /* \"#utility.yul\":1946:2215   */\ntag_49:\n    /* \"#utility.yul\":2056:2095   */\n  tag_84\n    /* \"#utility.yul\":2087:2094   */\n  dup4\n    /* \"#utility.yul\":2056:2095   */\n  tag_47\n  jump\t// in\ntag_84:\n    /* \"#utility.yul\":2117:2208   */\n  tag_85\n    /* \"#utility.yul\":2166:2207   */\n  tag_86\n    /* \"#utility.yul\":2190:2206   */\n  dup3\n    /* \"#utility.yul\":2166:2207   */\n  tag_48\n  jump\t// in\ntag_86:\n    /* \"#utility.yul\":2158:2164   */\n  dup5\n    /* \"#utility.yul\":2151:2155   */\n  dup5\n    /* \"#utility.yul\":2145:2156   */\n  sload\n    /* \"#utility.yul\":2117:2208   */\n  tag_44\n  jump\t// in\ntag_85:\n    /* \"#utility.yul\":2111:2115   */\n  dup3\n    /* \"#utility.yul\":2104:2209   */\n  sstore\n    /* \"#utility.yul\":2022:2215   */\n  pop\n    /* \"#utility.yul\":1946:2215   */\n  pop\n  pop\n  pop\n  jump\t// out\n    /* \"#utility.yul\":2221:2294   */\ntag_50:\n    /* \"#utility.yul\":2266:2269   */\n  0x00\n    /* \"#utility.yul\":2221:2294   */\n  swap1\n  jump\t// out\n    /* \"#utility.yul\":2300:2489   */\ntag_51:\n    /* \"#utility.yul\":2377:2409   */\n  tag_89\n  tag_50\n  jump\t// in\ntag_89:\n    /* \"#utility.yul\":2418:2483   */\n  tag_90\n    /* \"#utility.yul\":2476:2482   */\n  dup2\n    /* \"#utility.yul\":2468:2474   */\n  dup5\n    /* \"#utility.yul\":2462:2466   */\n  dup5\n    /* \"#utility.yul\":2418:2483   */\n  tag_49\n  jump\t// in\ntag_90:\n    /* \"#utility.yul\":2353:2489   */\n  pop\n    /* \"#utility.yul\":2300:2489   */\n  pop\n  pop\n  jump\t// out\n    /* \"#utility.yul\":2495:2681   */\ntag_52:\n    /* \"#utility.yul\":2555:2675   */\ntag_92:\n    /* \"#utility.yul\":2572:2575   */\n  dup2\n    /* \"#utility.yul\":2565:2570   */\n  dup2\n    /* \"#utility.yul\":2562:2576   */\n  lt\n    /* \"#utility.yul\":2555:2675   */\n  iszero\n  tag_94\n  jumpi\n    /* \"#utility.yul\":2626:2665   */\n  tag_95\n    /* \"#utility.yul\":2663:2664   */\n  0x00\n    /* \"#utility.yul\":2656:2661   */\n  dup3\n    /* \"#utility.yul\":2626:2665   */\n  tag_51\n  jump\t// in\ntag_95:\n    /* \"#utility.yul\":2599:2600   */\n  0x01\n    /* \"#utility.yul\":2592:2597   */\n  dup2\n    /* \"#utility.yul\":2588:2601   */\n  add\n    /* \"#utility.yul\":2579:2601   */\n  swap1\n  pop\n    /* \"#utility.yul\":2555:2675   */\n  jump(tag_92)\ntag_94:\n    /* \"#utility.yul\":2495:2681   */\n  pop\n  pop\n  jump\t// out\n    /* \"#utility.yul\":2687:3230   */\ntag_53:\n    /* \"#utility.yul\":2788:2790   */\n  0x1f\n    /* \"#utility.yul\":2783:2786   */\n  dup3\n    /* \"#utility.yul\":2780:2791   */\n  gt\n    /* \"#utility.yul\":2777:3223   */\n  iszero\n  tag_97\n  jumpi\n    /* \"#utility.yul\":2822:2860   */\n  tag_98\n    /* \"#utility.yul\":2854:2859   */\n  dup2\n    /* \"#utility.yul\":2822:2860   */\n  tag_41\n  jump\t// in\ntag_98:\n    /* \"#utility.yul\":2906:2935   */\n  tag_99\n    /* \"#utility.yul\":2924:2934   */\n  dup5\n    /* \"#utility.yul\":2906:2935   */\n  tag_42\n  jump\t// in\ntag_99:\n    /* \"#utility.yul\":2896:2904   */\n  dup2\n    /* \"#utility.yul\":2892:2936   */\n  add\n    /* \"#utility.yul\":3089:3091   */\n  0x20\n    /* \"#utility.yul\":3077:3087   */\n  dup6\n    /* \"#utility.yul\":3074:3092   */\n  lt\n    /* \"#utility.yul\":3071:3120   */\n  iszero\n  tag_100\n  jumpi\n    /* \"#utility.yul\":3110:3118   */\n  dup2\n    /* \"#utility.yul\":3095:3118   */\n  swap1\n  pop\n    /* \"#utility.yul\":3071:3120   */\ntag_100:\n    /* \"#utility.yul\":3133:3213   */\n  tag_101\n    /* \"#utility.yul\":3189:3211   */\n  tag_102\n    /* \"#utility.yul\":3207:3210   */\n  dup6\n    /* \"#utility.yul\":3189:3211   */\n  tag_42\n  jump\t// in\ntag_102:\n    /* \"#utility.yul\":3179:3187   */\n  dup4\n    /* \"#utility.yul\":3175:3212   */\n  add\n    /* \"#utility.yul\":3162:3173   */\n  dup3\n    /* \"#utility.yul\":3133:3213   */\n  tag_52\n  jump\t// in\ntag_101:\n    /* \"#utility.yul\":2792:3223   */\n  pop\n  pop\n    /* \"#utility.yul\":2777:3223   */\ntag_97:\n    /* \"#utility.yul\":2687:3230   */\n  pop\n  pop\n  pop\n  jump\t// out\n    /* \"#utility.yul\":3236:3353   */\ntag_54:\n    /* \"#utility.yul\":3290:3298   */\n  0x00\n    /* \"#utility.yul\":3340:3345   */\n  dup3\n    /* \"#utility.yul\":3334:3338   */\n  dup3\n    /* \"#utility.yul\":3330:3346   */\n  shr\n    /* \"#utility.yul\":3309:3346   */\n  swap1\n  pop\n    /* \"#utility.yul\":3236:3353   */\n  swap3\n  swap2\n  pop\n  pop\n  jump\t// out\n    /* \"#utility.yul\":3359:3528   */\ntag_55:\n    /* \"#utility.yul\":3403:3409   */\n  0x00\n    /* \"#utility.yul\":3436:3487   */\n  tag_105\n    /* \"#utility.yul\":3484:3485   */\n  0x00\n    /* \"#utility.yul\":3480:3486   */\n  not\n    /* \"#utility.yul\":3472:3477   */\n  dup5\n    /* \"#utility.yul\":3469:3470   */\n  0x08\n    /* \"#utility.yul\":3465:3478   */\n  mul\n    /* \"#utility.yul\":3436:3487   */\n  tag_54\n  jump\t// in\ntag_105:\n    /* \"#utility.yul\":3432:3488   */\n  not\n    /* \"#utility.yul\":3517:3521   */\n  dup1\n    /* \"#utility.yul\":3511:3515   */\n  dup4\n    /* \"#utility.yul\":3507:3522   */\n  and\n    /* \"#utility.yul\":3497:3522   */\n  swap2\n  pop\n    /* \"#utility.yul\":3410:3528   */\n  pop\n    /* \"#utility.yul\":3359:3528   */\n  swap3\n  swap2\n  pop\n  pop\n  jump\t// out\n    /* \"#utility.yul\":3533:3828   */\ntag_56:\n    /* \"#utility.yul\":3609:3613   */\n  0x00\n    /* \"#utility.yul\":3755:3784   */\n  tag_107\n    /* \"#utility.yul\":3780:3783   */\n  dup4\n    /* \"#utility.yul\":3774:3778   */\n  dup4\n    /* \"#utility.yul\":3755:3784   */\n  tag_55\n  jump\t// in\ntag_107:\n    /* \"#utility.yul\":3747:3784   */\n  swap2\n  pop\n    /* \"#utility.yul\":3817:3820   */\n  dup3\n    /* \"#utility.yul\":3814:3815   */\n  0x02\n    /* \"#utility.yul\":3810:3821   */\n  mul\n    /* \"#utility.yul\":3804:3808   */\n  dup3\n    /* \"#utility.yul\":3801:3822   */\n  or\n    /* \"#utility.yul\":3793:3822   */\n  swap1\n  pop\n    /* \"#utility.yul\":3533:3828   */\n  swap3\n  swap2\n  pop\n  pop\n  jump\t// out\n    /* \"#utility.yul\":3833:5228   */\ntag_12:\n    /* \"#utility.yul\":3950:3987   */\n  tag_109\n    /* \"#utility.yul\":3983:3986   */\n  dup3\n    /* \"#utility.yul\":3950:3987   */\n  tag_37\n  jump\t// in\ntag_109:\n    /* \"#utility.yul\":4052:4070   */\n  0xffffffffffffffff\n    /* \"#utility.yul\":4044:4050   */\n  dup2\n    /* \"#utility.yul\":4041:4071   */\n  gt\n    /* \"#utility.yul\":4038:4094   */\n  iszero\n  tag_110\n  jumpi\n    /* \"#utility.yul\":4074:4092   */\n  tag_111\n  tag_38\n  jump\t// in\ntag_111:\n    /* \"#utility.yul\":4038:4094   */\ntag_110:\n    /* \"#utility.yul\":4118:4156   */\n  tag_112\n    /* \"#utility.yul\":4150:4154   */\n  dup3\n    /* \"#utility.yul\":4144:4155   */\n  sload\n    /* \"#utility.yul\":4118:4156   */\n  tag_40\n  jump\t// in\ntag_112:\n    /* \"#utility.yul\":4203:4270   */\n  tag_113\n    /* \"#utility.yul\":4263:4269   */\n  dup3\n    /* \"#utility.yul\":4255:4261   */\n  dup3\n    /* \"#utility.yul\":4249:4253   */\n  dup6\n    /* \"#utility.yul\":4203:4270   */\n  tag_53\n  jump\t// in\ntag_113:\n    /* \"#utility.yul\":4297:4298   */\n  0x00\n    /* \"#utility.yul\":4321:4325   */\n  0x20\n    /* \"#utility.yul\":4308:4325   */\n  swap1\n  pop\n    /* \"#utility.yul\":4353:4355   */\n  0x1f\n    /* \"#utility.yul\":4345:4351   */\n  dup4\n    /* \"#utility.yul\":4342:4356   */\n  gt\n    /* \"#utility.yul\":4370:4371   */\n  0x01\n    /* \"#utility.yul\":4365:4983   */\n  dup2\n  eq\n  tag_115\n  jumpi\n    /* \"#utility.yul\":5027:5028   */\n  0x00\n    /* \"#utility.yul\":5044:5050   */\n  dup5\n    /* \"#utility.yul\":5041:5118   */\n  iszero\n  tag_116\n  jumpi\n    /* \"#utility.yul\":5093:5102   */\n  dup3\n    /* \"#utility.yul\":5088:5091   */\n  dup8\n    /* \"#utility.yul\":5084:5103   */\n  add\n    /* \"#utility.yul\":5078:5104   */\n  mload\n    /* \"#utility.yul\":5069:5104   */\n  swap1\n  pop\n    /* \"#utility.yul\":5041:5118   */\ntag_116:\n    /* \"#utility.yul\":5144:5211   */\n  tag_117\n    /* \"#utility.yul\":5204:5210   */\n  dup6\n    /* \"#utility.yul\":5197:5202   */\n  dup3\n    /* \"#utility.yul\":5144:5211   */\n  tag_56\n  jump\t// in\ntag_117:\n    /* \"#utility.yul\":5138:5142   */\n  dup7\n    /* \"#utility.yul\":5131:5212   */\n  sstore\n    /* \"#utility.yul\":5000:5222   */\n  pop\n    /* \"#utility.yul\":4335:5222   */\n  jump(tag_114)\n    /* \"#utility.yul\":4365:4983   */\ntag_115:\n    /* \"#utility.yul\":4417:4421   */\n  0x1f\n    /* \"#utility.yul\":4413:4422   */\n  not\n    /* \"#utility.yul\":4405:4411   */\n  dup5\n    /* \"#utility.yul\":4401:4423   */\n  and\n    /* \"#utility.yul\":4451:4488   */\n  tag_118\n    /* \"#utility.yul\":4483:4487   */\n  dup7\n    /* \"#utility.yul\":4451:4488   */\n  tag_41\n  jump\t// in\ntag_118:\n    /* \"#utility.yul\":4510:4511   */\n  0x00\n    /* \"#utility.yul\":4524:4732   */\ntag_119:\n    /* \"#utility.yul\":4538:4545   */\n  dup3\n    /* \"#utility.yul\":4535:4536   */\n  dup2\n    /* \"#utility.yul\":4532:4546   */\n  lt\n    /* \"#utility.yul\":4524:4732   */\n  iszero\n  tag_121\n  jumpi\n    /* \"#utility.yul\":4617:4626   */\n  dup5\n    /* \"#utility.yul\":4612:4615   */\n  dup10\n    /* \"#utility.yul\":4608:4627   */\n  add\n    /* \"#utility.yul\":4602:4628   */\n  mload\n    /* \"#utility.yul\":4594:4600   */\n  dup3\n    /* \"#utility.yul\":4587:4629   */\n  sstore\n    /* \"#utility.yul\":4668:4669   */\n  0x01\n    /* \"#utility.yul\":4660:4666   */\n  dup3\n    /* \"#utility.yul\":4656:4670   */\n  add\n    /* \"#utility.yul\":4646:4670   */\n  swap2\n  pop\n    /* \"#utility.yul\":4715:4717   */\n  0x20\n    /* \"#utility.yul\":4704:4713   */\n  dup6\n    /* \"#utility.yul\":4700:4718   */\n  add\n    /* \"#utility.yul\":4687:4718   */\n  swap5\n  pop\n    /* \"#utility.yul\":4561:4565   */\n  0x20\n    /* \"#utility.yul\":4558:4559   */\n  dup2\n    /* \"#utility.yul\":4554:4566   */\n  add\n    /* \"#utility.yul\":4549:4566   */\n  swap1\n  pop\n    /* \"#utility.yul\":4524:4732   */\n  jump(tag_119)\ntag_121:\n    /* \"#utility.yul\":4760:4766   */\n  dup7\n    /* \"#utility.yul\":4751:4758   */\n  dup4\n    /* \"#utility.yul\":4748:4767   */\n  lt\n    /* \"#utility.yul\":4745:4924   */\n  iszero\n  tag_122\n  jumpi\n    /* \"#utility.yul\":4818:4827   */\n  dup5\n    /* \"#utility.yul\":4813:4816   */\n  dup10\n    /* \"#utility.yul\":4809:4828   */\n  add\n    /* \"#utility.yul\":4803:4829   */\n  mload\n    /* \"#utility.yul\":4861:4909   */\n  tag_123\n    /* \"#utility.yul\":4903:4907   */\n  0x1f\n    /* \"#utility.yul\":4895:4901   */\n  dup10\n    /* \"#utility.yul\":4891:4908   */\n  and\n    /* \"#utility.yul\":4880:4889   */\n  dup3\n    /* \"#utility.yul\":4861:4909   */\n  tag_55\n  jump\t// in\ntag_123:\n    /* \"#utility.yul\":4853:4859   */\n  dup4\n    /* \"#utility.yul\":4846:4910   */\n  sstore\n    /* \"#utility.yul\":4768:4924   */\n  pop\n    /* \"#utility.yul\":4745:4924   */\ntag_122:\n    /* \"#utility.yul\":4970:4971   */\n  0x01\n    /* \"#utility.yul\":4966:4967   */\n  0x02\n    /* \"#utility.yul\":4958:4964   */\n  dup9\n    /* \"#utility.yul\":4954:4968   */\n  mul\n    /* \"#utility.yul\":4950:4972   */\n  add\n    /* \"#utility.yul\":4944:4948   */\n  dup9\n    /* \"#utility.yul\":4937:4973   */\n  sstore\n    /* \"#utility.yul\":4372:4983   */\n  pop\n  pop\n  pop\n    /* \"#utility.yul\":4335:5222   */\ntag_114:\n  pop\n    /* \"#utility.yul\":3925:5228   */\n  pop\n  pop\n  pop\n    /* \"#utility.yul\":3833:5228   */\n  pop\n  pop\n  jump\t// out\n    /* \"#utility.yul\":5234:5403   */\ntag_57:\n    /* \"#utility.yul\":5318:5329   */\n  0x00\n    /* \"#utility.yul\":5352:5358   */\n  dup3\n    /* \"#utility.yul\":5347:5350   */\n  dup3\n    /* \"#utility.yul\":5340:5359   */\n  mstore\n    /* \"#utility.yul\":5392:5396   */\n  0x20\n    /* \"#utility.yul\":5387:5390   */\n  dup3\n    /* \"#utility.yul\":5383:5397   */\n  add\n    /* \"#utility.yul\":5368:5397   */\n  swap1\n  pop\n    /* \"#utility.yul\":5234:5403   */\n  swap3\n  swap2\n  pop\n  pop\n  jump\t// out\n    /* \"#utility.yul\":5409:5590   */\ntag_58:\n    /* \"#utility.yul\":5549:5582   */\n  0x45524332303a206d696e7420746f20746865207a65726f206164647265737300\n    /* \"#utility.yul\":5545:5546   */\n  0x00\n    /* \"#utility.yul\":5537:5543   */\n  dup3\n    /* \"#utility.yul\":5533:5547   */\n  add\n    /* \"#utility.yul\":5526:5583   */\n  mstore\n    /* \"#utility.yul\":5409:5590   */\n  pop\n  jump\t// out\n    /* \"#utility.yul\":5596:5962   */\ntag_59:\n    /* \"#utility.yul\":5738:5741   */\n  0x00\n    /* \"#utility.yul\":5759:5826   */\n  tag_127\n    /* \"#utility.yul\":5823:5825   */\n  0x1f\n    /* \"#utility.yul\":5818:5821   */\n  dup4\n    /* \"#utility.yul\":5759:5826   */\n  tag_57\n  jump\t// in\ntag_127:\n    /* \"#utility.yul\":5752:5826   */\n  swap2\n  pop\n    /* \"#utility.yul\":5835:5928   */\n  tag_128\n    /* \"#utility.yul\":5924:5927   */\n  dup3\n    /* \"#utility.yul\":5835:5928   */\n  tag_58\n  jump\t// in\ntag_128:\n    /* \"#utility.yul\":5953:5955   */\n  0x20\n    /* \"#utility.yul\":5948:5951   */\n  dup3\n    /* \"#utility.yul\":5944:5956   */\n  add\n    /* \"#utility.yul\":5937:5956   */\n  swap1\n  pop\n    /* \"#utility.yul\":5596:5962   */\n  swap2\n  swap1\n  pop\n  jump\t// out\n    /* \"#utility.yul\":5968:6387   */\ntag_26:\n    /* \"#utility.yul\":6134:6138   */\n  0x00\n    /* \"#utility.yul\":6172:6174   */\n  0x20\n    /* \"#utility.yul\":6161:6170   */\n  dup3\n    /* \"#utility.yul\":6157:6175   */\n  add\n    /* \"#utility.yul\":6149:6175   */\n  swap1\n  pop\n    /* \"#utility.yul\":6221:6230   */\n  dup2\n    /* \"#utility.yul\":6215:6219   */\n  dup2\n    /* \"#utility.yul\":6211:6231   */\n  sub\n    /* \"#utility.yul\":6207:6208   */\n  0x00\n    /* \"#utility.yul\":6196:6205   */\n  dup4\n    /* \"#utility.yul\":6192:6209   */\n  add\n    /* \"#utility.yul\":6185:6232   */\n  mstore\n    /* \"#utility.yul\":6249:6380   */\n  tag_130\n    /* \"#utility.yul\":6375:6379   */\n  dup2\n    /* \"#utility.yul\":6249:6380   */\n  tag_59\n  jump\t// in\ntag_130:\n    /* \"#utility.yul\":6241:6380   */\n  swap1\n  pop\n    /* \"#utility.yul\":5968:6387   */\n  swap2\n  swap1\n  pop\n  jump\t// out\n    /* \"#utility.yul\":6393:6573   */\ntag_60:\n    /* \"#utility.yul\":6441:6518   */\n  0x4e487b7100000000000000000000000000000000000000000000000000000000\n    /* \"#utility.yul\":6438:6439   */\n  0x00\n    /* \"#utility.yul\":6431:6519   */\n  mstore\n    /* \"#utility.yul\":6538:6542   */\n  0x11\n    /* \"#utility.yul\":6535:6536   */\n  0x04\n    /* \"#utility.yul\":6528:6543   */\n  mstore\n    /* \"#utility.yul\":6562:6566   */\n  0x24\n    /* \"#utility.yul\":6559:6560   */\n  0x00\n    /* \"#utility.yul\":6552:6567   */\n  revert\n    /* \"#utility.yul\":6579:6770   */\ntag_30:\n    /* \"#utility.yul\":6619:6622   */\n  0x00\n    /* \"#utility.yul\":6638:6658   */\n  tag_133\n    /* \"#utility.yul\":6656:6657   */\n  dup3\n    /* \"#utility.yul\":6638:6658   */\n  tag_45\n  jump\t// in\ntag_133:\n    /* \"#utility.yul\":6633:6658   */\n  swap2\n  pop\n    /* \"#utility.yul\":6672:6692   */\n  tag_134\n    /* \"#utility.yul\":6690:6691   */\n  dup4\n    /* \"#utility.yul\":6672:6692   */\n  tag_45\n  jump\t// in\ntag_134:\n    /* \"#utility.yul\":6667:6692   */\n  swap3\n  pop\n    /* \"#utility.yul\":6715:6716   */\n  dup3\n    /* \"#utility.yul\":6712:6713   */\n  dup3\n    /* \"#utility.yul\":6708:6717   */\n  add\n    /* \"#utility.yul\":6701:6717   */\n  swap1\n  pop\n    /* \"#utility.yul\":6736:6739   */\n  dup1\n    /* \"#utility.yul\":6733:6734   */\n  dup3\n    /* \"#utility.yul\":6730:6740   */\n  gt\n    /* \"#utility.yul\":6727:6763   */\n  iszero\n  tag_135\n  jumpi\n    /* \"#utility.yul\":6743:6761   */\n  tag_136\n  tag_60\n  jump\t// in\ntag_136:\n    /* \"#utility.yul\":6727:6763   */\ntag_135:\n    /* \"#utility.yul\":6579:6770   */\n  swap3\n  swap2\n  pop\n  pop\n  jump\t// out\n    /* \"#utility.yul\":6776:6894   */\ntag_61:\n    /* \"#utility.yul\":6863:6887   */\n  tag_138\n    /* \"#utility.yul\":6881:6886   */\n  dup2\n    /* \"#utility.yul\":6863:6887   */\n  tag_45\n  jump\t// in\ntag_138:\n    /* \"#utility.yul\":6858:6861   */\n  dup3\n    /* \"#utility.yul\":6851:6888   */\n  mstore\n    /* \"#utility.yul\":6776:6894   */\n  pop\n  pop\n  jump\t// out\n    /* \"#utility.yul\":6900:7122   */\ntag_32:\n    /* \"#utility.yul\":6993:6997   */\n  0x00\n    /* \"#utility.yul\":7031:7033   */\n  0x20\n    /* \"#utility.yul\":7020:7029   */\n  dup3\n    /* \"#utility.yul\":7016:7034   */\n  add\n    /* \"#utility.yul\":7008:7034   */\n  swap1\n  pop\n    /* \"#utility.yul\":7044:7115   */\n  tag_140\n    /* \"#utility.yul\":7112:7113   */\n  0x00\n    /* \"#utility.yul\":7101:7110   */\n  dup4\n    /* \"#utility.yul\":7097:7114   */\n  add\n    /* \"#utility.yul\":7088:7094   */\n  dup5\n    /* \"#utility.yul\":7044:7115   */\n  tag_61\n  jump\t// in\ntag_140:\n    /* \"#utility.yul\":6900:7122   */\n  swap3\n  swap2\n  pop\n  pop\n  jump\t// out\n    /* \"KAMIL SIR/PROJECT01/BUY-SELL/contracts/Token.sol\":88:575  contract Token is ERC20 {... */\ntag_19:\n  dataSize(sub_0)\n  dup1\n  dataOffset(sub_0)\n  0x00\n  codecopy\n  0x00\n  return\nstop\n\nsub_0: assembly {\n        /* \"KAMIL SIR/PROJECT01/BUY-SELL/contracts/Token.sol\":88:575  contract Token is ERC20 {... */\n      mstore(0x40, 0x80)\n      callvalue\n      dup1\n      iszero\n      tag_1\n      jumpi\n      0x00\n      dup1\n      revert\n    tag_1:\n      pop\n      jumpi(tag_2, lt(calldatasize, 0x04))\n      shr(0xe0, calldataload(0x00))\n      dup1\n      0x715018a6\n      gt\n      tag_19\n      jumpi\n      dup1\n      0xa9059cbb\n      gt\n      tag_20\n      jumpi\n      dup1\n      0xa9059cbb\n      eq\n      tag_15\n      jumpi\n      dup1\n      0xb45ee9ef\n      eq\n      tag_16\n      jumpi\n      dup1\n      0xdd62ed3e\n      eq\n      tag_17\n      jumpi\n      dup1\n      0xf2fde38b\n      eq\n      tag_18\n      jumpi\n      jump(tag_2)\n    tag_20:\n      dup1\n      0x715018a6\n      eq\n      tag_11\n      jumpi\n      dup1\n      0x8da5cb5b\n      eq\n      tag_12\n      jumpi\n      dup1\n      0x95d89b41\n      eq\n      tag_13\n      jumpi\n      dup1\n      0xa457c2d7\n      eq\n      tag_14\n      jumpi\n      jump(tag_2)\n    tag_19:\n      dup1\n      0x2e1a7d4d\n      gt\n      tag_21\n      jumpi\n      dup1\n      0x2e1a7d4d\n      eq\n      tag_7\n      jumpi\n      dup1\n      0x313ce567\n      eq\n      tag_8\n      jumpi\n      dup1\n      0x39509351\n      eq\n      tag_9\n      jumpi\n      dup1\n      0x70a08231\n      eq\n      tag_10\n      jumpi\n      jump(tag_2)\n    tag_21:\n      dup1\n      0x06fdde03\n      eq\n      tag_3\n      jumpi\n      dup1\n      0x095ea7b3\n      eq\n      tag_4\n      jumpi\n      dup1\n      0x18160ddd\n      eq\n      tag_5\n      jumpi\n      dup1\n      0x23b872dd\n      eq\n      tag_6\n      jumpi\n    tag_2:\n      0x00\n      dup1\n      revert\n        /* \"KAMIL SIR/PROJECT01/BUY-SELL/contracts/ERC20.sol\":2256:2356  function name() public view virtual override returns (string memory) {... */\n    tag_3:\n      tag_22\n      tag_23\n      jump\t// in\n    tag_22:\n      mload(0x40)\n      tag_24\n      swap2\n      swap1\n      tag_25\n      jump\t// in\n    tag_24:\n      mload(0x40)\n      dup1\n      swap2\n      sub\n      swap1\n      return\n        /* \"KAMIL SIR/PROJECT01/BUY-SELL/contracts/ERC20.sol\":4756:4998  function approve(address spender, uint256 amount)... */\n    tag_4:\n      tag_26\n      0x04\n      dup1\n      calldatasize\n      sub\n      dup2\n      add\n      swap1\n      tag_27\n      swap2\n      swap1\n      tag_28\n      jump\t// in\n    tag_27:\n      tag_29\n      jump\t// in\n    tag_26:\n      mload(0x40)\n      tag_30\n      swap2\n      swap1\n      tag_31\n      jump\t// in\n    tag_30:\n      mload(0x40)\n      dup1\n      swap2\n      sub\n      swap1\n      return\n        /* \"KAMIL SIR/PROJECT01/BUY-SELL/contracts/ERC20.sol\":3384:3492  function totalSupply() public view virtual override returns (uint256) {... */\n    tag_5:\n      tag_32\n      tag_33\n      jump\t// in\n    tag_32:\n      mload(0x40)\n      tag_34\n      swap2\n      swap1\n      tag_35\n      jump\t// in\n    tag_34:\n      mload(0x40)\n      dup1\n      swap2\n      sub\n      swap1\n      return\n        /* \"KAMIL SIR/PROJECT01/BUY-SELL/contracts/ERC20.sol\":5578:5873  function transferFrom(... */\n    tag_6:\n      tag_36\n      0x04\n      dup1\n      calldatasize\n      sub\n      dup2\n      add\n      swap1\n      tag_37\n      swap2\n      swap1\n      tag_38\n      jump\t// in\n    tag_37:\n      tag_39\n      jump\t// in\n    tag_36:\n      mload(0x40)\n      tag_40\n      swap2\n      swap1\n      tag_31\n      jump\t// in\n    tag_40:\n      mload(0x40)\n      dup1\n      swap2\n      sub\n      swap1\n      return\n        /* \"KAMIL SIR/PROJECT01/BUY-SELL/contracts/Token.sol\":381:572  function withdraw(uint256 amount) public onlyOwner {... */\n    tag_7:\n      tag_41\n      0x04\n      dup1\n      calldatasize\n      sub\n      dup2\n      add\n      swap1\n      tag_42\n      swap2\n      swap1\n      tag_43\n      jump\t// in\n    tag_42:\n      tag_44\n      jump\t// in\n    tag_41:\n      stop\n        /* \"KAMIL SIR/PROJECT01/BUY-SELL/contracts/ERC20.sol\":3227:3319  function decimals() public view virtual override returns (uint8) {... */\n    tag_8:\n      tag_45\n      tag_46\n      jump\t// in\n    tag_45:\n      mload(0x40)\n      tag_47\n      swap2\n      swap1\n      tag_48\n      jump\t// in\n    tag_47:\n      mload(0x40)\n      dup1\n      swap2\n      sub\n      swap1\n      return\n        /* \"KAMIL SIR/PROJECT01/BUY-SELL/contracts/ERC20.sol\":6282:6552  function increaseAllowance(address spender, uint256 addedValue)... */\n    tag_9:\n      tag_49\n      0x04\n      dup1\n      calldatasize\n      sub\n      dup2\n      add\n      swap1\n      tag_50\n      swap2\n      swap1\n      tag_28\n      jump\t// in\n    tag_50:\n      tag_51\n      jump\t// in\n    tag_49:\n      mload(0x40)\n      tag_52\n      swap2\n      swap1\n      tag_31\n      jump\t// in\n    tag_52:\n      mload(0x40)\n      dup1\n      swap2\n      sub\n      swap1\n      return\n        /* \"KAMIL SIR/PROJECT01/BUY-SELL/contracts/ERC20.sol\":3555:3732  function balanceOf(address account)... */\n    tag_10:\n      tag_53\n      0x04\n      dup1\n      calldatasize\n      sub\n      dup2\n      add\n      swap1\n      tag_54\n      swap2\n      swap1\n      tag_55\n      jump\t// in\n    tag_54:\n      tag_56\n      jump\t// in\n    tag_53:\n      mload(0x40)\n      tag_57\n      swap2\n      swap1\n      tag_35\n      jump\t// in\n    tag_57:\n      mload(0x40)\n      dup1\n      swap2\n      sub\n      swap1\n      return\n        /* \"KAMIL SIR/PROJECT01/BUY-SELL/contracts/utils/Ownable.sol\":1910:2013  function renounceOwnership() public virtual onlyOwner {... */\n    tag_11:\n      tag_58\n      tag_59\n      jump\t// in\n    tag_58:\n      stop\n        /* \"KAMIL SIR/PROJECT01/BUY-SELL/contracts/utils/Ownable.sol\":1262:1349  function owner() public view virtual returns (address) {... */\n    tag_12:\n      tag_60\n      tag_61\n      jump\t// in\n    tag_60:\n      mload(0x40)\n      tag_62\n      swap2\n      swap1\n      tag_63\n      jump\t// in\n    tag_62:\n      mload(0x40)\n      dup1\n      swap2\n      sub\n      swap1\n      return\n        /* \"KAMIL SIR/PROJECT01/BUY-SELL/contracts/ERC20.sol\":2475:2579  function symbol() public view virtual override returns (string memory) {... */\n    tag_13:\n      tag_64\n      tag_65\n      jump\t// in\n    tag_64:\n      mload(0x40)\n      tag_66\n      swap2\n      swap1\n      tag_25\n      jump\t// in\n    tag_66:\n      mload(0x40)\n      dup1\n      swap2\n      sub\n      swap1\n      return\n        /* \"KAMIL SIR/PROJECT01/BUY-SELL/contracts/ERC20.sol\":7055:7560  function decreaseAllowance(address spender, uint256 subtractedValue)... */\n    tag_14:\n      tag_67\n      0x04\n      dup1\n      calldatasize\n      sub\n      dup2\n      add\n      swap1\n      tag_68\n      swap2\n      swap1\n      tag_28\n      jump\t// in\n    tag_68:\n      tag_69\n      jump\t// in\n    tag_67:\n      mload(0x40)\n      tag_70\n      swap2\n      swap1\n      tag_31\n      jump\t// in\n    tag_70:\n      mload(0x40)\n      dup1\n      swap2\n      sub\n      swap1\n      return\n        /* \"KAMIL SIR/PROJECT01/BUY-SELL/contracts/ERC20.sol\":3938:4172  function transfer(address to, uint256 amount)... */\n    tag_15:\n      tag_71\n      0x04\n      dup1\n      calldatasize\n      sub\n      dup2\n      add\n      swap1\n      tag_72\n      swap2\n      swap1\n      tag_28\n      jump\t// in\n    tag_72:\n      tag_73\n      jump\t// in\n    tag_71:\n      mload(0x40)\n      tag_74\n      swap2\n      swap1\n      tag_31\n      jump\t// in\n    tag_74:\n      mload(0x40)\n      dup1\n      swap2\n      sub\n      swap1\n      return\n        /* \"KAMIL SIR/PROJECT01/BUY-SELL/contracts/Token.sol\":221:373  function transferPrice(... */\n    tag_16:\n      tag_75\n      0x04\n      dup1\n      calldatasize\n      sub\n      dup2\n      add\n      swap1\n      tag_76\n      swap2\n      swap1\n      tag_38\n      jump\t// in\n    tag_76:\n      tag_77\n      jump\t// in\n    tag_75:\n      stop\n        /* \"KAMIL SIR/PROJECT01/BUY-SELL/contracts/ERC20.sol\":4235:4436  function allowance(address owner, address spender)... */\n    tag_17:\n      tag_78\n      0x04\n      dup1\n      calldatasize\n      sub\n      dup2\n      add\n      swap1\n      tag_79\n      swap2\n      swap1\n      tag_80\n      jump\t// in\n    tag_79:\n      tag_81\n      jump\t// in\n    tag_78:\n      mload(0x40)\n      tag_82\n      swap2\n      swap1\n      tag_35\n      jump\t// in\n    tag_82:\n      mload(0x40)\n      dup1\n      swap2\n      sub\n      swap1\n      return\n        /* \"KAMIL SIR/PROJECT01/BUY-SELL/contracts/utils/Ownable.sol\":2168:2406  function transferOwnership(address newOwner) public virtual onlyOwner {... */\n    tag_18:\n      tag_83\n      0x04\n      dup1\n      calldatasize\n      sub\n      dup2\n      add\n      swap1\n      tag_84\n      swap2\n      swap1\n      tag_55\n      jump\t// in\n    tag_84:\n      tag_85\n      jump\t// in\n    tag_83:\n      stop\n        /* \"KAMIL SIR/PROJECT01/BUY-SELL/contracts/ERC20.sol\":2256:2356  function name() public view virtual override returns (string memory) {... */\n    tag_23:\n        /* \"KAMIL SIR/PROJECT01/BUY-SELL/contracts/ERC20.sol\":2310:2323  string memory */\n      0x60\n        /* \"KAMIL SIR/PROJECT01/BUY-SELL/contracts/ERC20.sol\":2343:2348  _name */\n      0x04\n        /* \"KAMIL SIR/PROJECT01/BUY-SELL/contracts/ERC20.sol\":2336:2348  return _name */\n      dup1\n      sload\n      tag_87\n      swap1\n      tag_88\n      jump\t// in\n    tag_87:\n      dup1\n      0x1f\n      add\n      0x20\n      dup1\n      swap2\n      div\n      mul\n      0x20\n      add\n      mload(0x40)\n      swap1\n      dup2\n      add\n      0x40\n      mstore\n      dup1\n      swap3\n      swap2\n      swap1\n      dup2\n      dup2\n      mstore\n      0x20\n      add\n      dup3\n      dup1\n      sload\n      tag_89\n      swap1\n      tag_88\n      jump\t// in\n    tag_89:\n      dup1\n      iszero\n      tag_90\n      jumpi\n      dup1\n      0x1f\n      lt\n      tag_91\n      jumpi\n      0x0100\n      dup1\n      dup4\n      sload\n      div\n      mul\n      dup4\n      mstore\n      swap2\n      0x20\n      add\n      swap2\n      jump(tag_90)\n    tag_91:\n      dup3\n      add\n      swap2\n      swap1\n      0x00\n      mstore\n      keccak256(0x00, 0x20)\n      swap1\n    tag_92:\n      dup2\n      sload\n      dup2\n      mstore\n      swap1\n      0x01\n      add\n      swap1\n      0x20\n      add\n      dup1\n      dup4\n      gt\n      tag_92\n      jumpi\n      dup3\n      swap1\n      sub\n      0x1f\n      and\n      dup3\n      add\n      swap2\n    tag_90:\n      pop\n      pop\n      pop\n      pop\n      pop\n      swap1\n      pop\n        /* \"KAMIL SIR/PROJECT01/BUY-SELL/contracts/ERC20.sol\":2256:2356  function name() public view virtual override returns (string memory) {... */\n      swap1\n      jump\t// out\n        /* \"KAMIL SIR/PROJECT01/BUY-SELL/contracts/ERC20.sol\":4756:4998  function approve(address spender, uint256 amount)... */\n    tag_29:\n        /* \"KAMIL SIR/PROJECT01/BUY-SELL/contracts/ERC20.sol\":4875:4879  bool */\n      0x00\n        /* \"KAMIL SIR/PROJECT01/BUY-SELL/contracts/ERC20.sol\":4897:4910  address owner */\n      dup1\n        /* \"KAMIL SIR/PROJECT01/BUY-SELL/contracts/ERC20.sol\":4913:4925  _msgSender() */\n      tag_94\n        /* \"KAMIL SIR/PROJECT01/BUY-SELL/contracts/ERC20.sol\":4913:4923  _msgSender */\n      tag_95\n        /* \"KAMIL SIR/PROJECT01/BUY-SELL/contracts/ERC20.sol\":4913:4925  _msgSender() */\n      jump\t// in\n    tag_94:\n        /* \"KAMIL SIR/PROJECT01/BUY-SELL/contracts/ERC20.sol\":4897:4925  address owner = _msgSender() */\n      swap1\n      pop\n        /* \"KAMIL SIR/PROJECT01/BUY-SELL/contracts/ERC20.sol\":4936:4968  _approve(owner, spender, amount) */\n      tag_96\n        /* \"KAMIL SIR/PROJECT01/BUY-SELL/contracts/ERC20.sol\":4945:4950  owner */\n      dup2\n        /* \"KAMIL SIR/PROJECT01/BUY-SELL/contracts/ERC20.sol\":4952:4959  spender */\n      dup6\n        /* \"KAMIL SIR/PROJECT01/BUY-SELL/contracts/ERC20.sol\":4961:4967  amount */\n      dup6\n        /* \"KAMIL SIR/PROJECT01/BUY-SELL/contracts/ERC20.sol\":4936:4944  _approve */\n      tag_97\n        /* \"KAMIL SIR/PROJECT01/BUY-SELL/contracts/ERC20.sol\":4936:4968  _approve(owner, spender, amount) */\n      jump\t// in\n    tag_96:\n        /* \"KAMIL SIR/PROJECT01/BUY-SELL/contracts/ERC20.sol\":4986:4990  true */\n      0x01\n        /* \"KAMIL SIR/PROJECT01/BUY-SELL/contracts/ERC20.sol\":4979:4990  return true */\n      swap2\n      pop\n      pop\n        /* \"KAMIL SIR/PROJECT01/BUY-SELL/contracts/ERC20.sol\":4756:4998  function approve(address spender, uint256 amount)... */\n      swap3\n      swap2\n      pop\n      pop\n      jump\t// out\n        /* \"KAMIL SIR/PROJECT01/BUY-SELL/contracts/ERC20.sol\":3384:3492  function totalSupply() public view virtual override returns (uint256) {... */\n    tag_33:\n        /* \"KAMIL SIR/PROJECT01/BUY-SELL/contracts/ERC20.sol\":3445:3452  uint256 */\n      0x00\n        /* \"KAMIL SIR/PROJECT01/BUY-SELL/contracts/ERC20.sol\":3472:3484  _totalSupply */\n      sload(0x03)\n        /* \"KAMIL SIR/PROJECT01/BUY-SELL/contracts/ERC20.sol\":3465:3484  return _totalSupply */\n      swap1\n      pop\n        /* \"KAMIL SIR/PROJECT01/BUY-SELL/contracts/ERC20.sol\":3384:3492  function totalSupply() public view virtual override returns (uint256) {... */\n      swap1\n      jump\t// out\n        /* \"KAMIL SIR/PROJECT01/BUY-SELL/contracts/ERC20.sol\":5578:5873  function transferFrom(... */\n    tag_39:\n        /* \"KAMIL SIR/PROJECT01/BUY-SELL/contracts/ERC20.sol\":5709:5713  bool */\n      0x00\n        /* \"KAMIL SIR/PROJECT01/BUY-SELL/contracts/ERC20.sol\":5726:5741  address spender */\n      dup1\n        /* \"KAMIL SIR/PROJECT01/BUY-SELL/contracts/ERC20.sol\":5744:5756  _msgSender() */\n      tag_100\n        /* \"KAMIL SIR/PROJECT01/BUY-SELL/contracts/ERC20.sol\":5744:5754  _msgSender */\n      tag_95\n        /* \"KAMIL SIR/PROJECT01/BUY-SELL/contracts/ERC20.sol\":5744:5756  _msgSender() */\n      jump\t// in\n    tag_100:\n        /* \"KAMIL SIR/PROJECT01/BUY-SELL/contracts/ERC20.sol\":5726:5756  address spender = _msgSender() */\n      swap1\n      pop\n        /* \"KAMIL SIR/PROJECT01/BUY-SELL/contracts/ERC20.sol\":5767:5805  _spendAllowance(from, spender, amount) */\n      tag_101\n        /* \"KAMIL SIR/PROJECT01/BUY-SELL/contracts/ERC20.sol\":5783:5787  from */\n      dup6\n        /* \"KAMIL SIR/PROJECT01/BUY-SELL/contracts/ERC20.sol\":5789:5796  spender */\n      dup3\n        /* \"KAMIL SIR/PROJECT01/BUY-SELL/contracts/ERC20.sol\":5798:5804  amount */\n      dup6\n        /* \"KAMIL SIR/PROJECT01/BUY-SELL/contracts/ERC20.sol\":5767:5782  _spendAllowance */\n      tag_102\n        /* \"KAMIL SIR/PROJECT01/BUY-SELL/contracts/ERC20.sol\":5767:5805  _spendAllowance(from, spender, amount) */\n      jump\t// in\n    tag_101:\n        /* \"KAMIL SIR/PROJECT01/BUY-SELL/contracts/ERC20.sol\":5816:5843  _transfer(from, to, amount) */\n      tag_103\n        /* \"KAMIL SIR/PROJECT01/BUY-SELL/contracts/ERC20.sol\":5826:5830  from */\n      dup6\n        /* \"KAMIL SIR/PROJECT01/BUY-SELL/contracts/ERC20.sol\":5832:5834  to */\n      dup6\n        /* \"KAMIL SIR/PROJECT01/BUY-SELL/contracts/ERC20.sol\":5836:5842  amount */\n      dup6\n        /* \"KAMIL SIR/PROJECT01/BUY-SELL/contracts/ERC20.sol\":5816:5825  _transfer */\n      tag_104\n        /* \"KAMIL SIR/PROJECT01/BUY-SELL/contracts/ERC20.sol\":5816:5843  _transfer(from, to, amount) */\n      jump\t// in\n    tag_103:\n        /* \"KAMIL SIR/PROJECT01/BUY-SELL/contracts/ERC20.sol\":5861:5865  true */\n      0x01\n        /* \"KAMIL SIR/PROJECT01/BUY-SELL/contracts/ERC20.sol\":5854:5865  return true */\n      swap2\n      pop\n      pop\n        /* \"KAMIL SIR/PROJECT01/BUY-SELL/contracts/ERC20.sol\":5578:5873  function transferFrom(... */\n      swap4\n      swap3\n      pop\n      pop\n      pop\n      jump\t// out\n        /* \"KAMIL SIR/PROJECT01/BUY-SELL/contracts/Token.sol\":381:572  function withdraw(uint256 amount) public onlyOwner {... */\n    tag_44:\n        /* \"KAMIL SIR/PROJECT01/BUY-SELL/contracts/utils/Ownable.sol\":1148:1161  _checkOwner() */\n      tag_106\n        /* \"KAMIL SIR/PROJECT01/BUY-SELL/contracts/utils/Ownable.sol\":1148:1159  _checkOwner */\n      tag_107\n        /* \"KAMIL SIR/PROJECT01/BUY-SELL/contracts/utils/Ownable.sol\":1148:1161  _checkOwner() */\n      jump\t// in\n    tag_106:\n        /* \"KAMIL SIR/PROJECT01/BUY-SELL/contracts/Token.sol\":478:479  0 */\n      0x00\n        /* \"KAMIL SIR/PROJECT01/BUY-SELL/contracts/Token.sol\":451:475  balanceOf(address(this)) */\n      tag_109\n        /* \"KAMIL SIR/PROJECT01/BUY-SELL/contracts/Token.sol\":469:473  this */\n      address\n        /* \"KAMIL SIR/PROJECT01/BUY-SELL/contracts/Token.sol\":451:460  balanceOf */\n      tag_56\n        /* \"KAMIL SIR/PROJECT01/BUY-SELL/contracts/Token.sol\":451:475  balanceOf(address(this)) */\n      jump\t// in\n    tag_109:\n        /* \"KAMIL SIR/PROJECT01/BUY-SELL/contracts/Token.sol\":451:479  balanceOf(address(this)) > 0 */\n      gt\n        /* \"KAMIL SIR/PROJECT01/BUY-SELL/contracts/Token.sol\":443:508  require(balanceOf(address(this)) > 0, \"please check this amount\") */\n      tag_110\n      jumpi\n      mload(0x40)\n      0x08c379a000000000000000000000000000000000000000000000000000000000\n      dup2\n      mstore\n      0x04\n      add\n      tag_111\n      swap1\n      tag_112\n      jump\t// in\n    tag_111:\n      mload(0x40)\n      dup1\n      swap2\n      sub\n      swap1\n      revert\n    tag_110:\n        /* \"KAMIL SIR/PROJECT01/BUY-SELL/contracts/Token.sol\":519:564  transferPrice(address(this), owner(), amount) */\n      tag_113\n        /* \"KAMIL SIR/PROJECT01/BUY-SELL/contracts/Token.sol\":541:545  this */\n      address\n        /* \"KAMIL SIR/PROJECT01/BUY-SELL/contracts/Token.sol\":548:555  owner() */\n      tag_114\n        /* \"KAMIL SIR/PROJECT01/BUY-SELL/contracts/Token.sol\":548:553  owner */\n      tag_61\n        /* \"KAMIL SIR/PROJECT01/BUY-SELL/contracts/Token.sol\":548:555  owner() */\n      jump\t// in\n    tag_114:\n        /* \"KAMIL SIR/PROJECT01/BUY-SELL/contracts/Token.sol\":557:563  amount */\n      dup4\n        /* \"KAMIL SIR/PROJECT01/BUY-SELL/contracts/Token.sol\":519:532  transferPrice */\n      tag_77\n        /* \"KAMIL SIR/PROJECT01/BUY-SELL/contracts/Token.sol\":519:564  transferPrice(address(this), owner(), amount) */\n      jump\t// in\n    tag_113:\n        /* \"KAMIL SIR/PROJECT01/BUY-SELL/contracts/Token.sol\":381:572  function withdraw(uint256 amount) public onlyOwner {... */\n      pop\n      jump\t// out\n        /* \"KAMIL SIR/PROJECT01/BUY-SELL/contracts/ERC20.sol\":3227:3319  function decimals() public view virtual override returns (uint8) {... */\n    tag_46:\n        /* \"KAMIL SIR/PROJECT01/BUY-SELL/contracts/ERC20.sol\":3285:3290  uint8 */\n      0x00\n        /* \"KAMIL SIR/PROJECT01/BUY-SELL/contracts/ERC20.sol\":3310:3311  9 */\n      0x09\n        /* \"KAMIL SIR/PROJECT01/BUY-SELL/contracts/ERC20.sol\":3303:3311  return 9 */\n      swap1\n      pop\n        /* \"KAMIL SIR/PROJECT01/BUY-SELL/contracts/ERC20.sol\":3227:3319  function decimals() public view virtual override returns (uint8) {... */\n      swap1\n      jump\t// out\n        /* \"KAMIL SIR/PROJECT01/BUY-SELL/contracts/ERC20.sol\":6282:6552  function increaseAllowance(address spender, uint256 addedValue)... */\n    tag_51:\n        /* \"KAMIL SIR/PROJECT01/BUY-SELL/contracts/ERC20.sol\":6397:6401  bool */\n      0x00\n        /* \"KAMIL SIR/PROJECT01/BUY-SELL/contracts/ERC20.sol\":6419:6432  address owner */\n      dup1\n        /* \"KAMIL SIR/PROJECT01/BUY-SELL/contracts/ERC20.sol\":6435:6447  _msgSender() */\n      tag_117\n        /* \"KAMIL SIR/PROJECT01/BUY-SELL/contracts/ERC20.sol\":6435:6445  _msgSender */\n      tag_95\n        /* \"KAMIL SIR/PROJECT01/BUY-SELL/contracts/ERC20.sol\":6435:6447  _msgSender() */\n      jump\t// in\n    tag_117:\n        /* \"KAMIL SIR/PROJECT01/BUY-SELL/contracts/ERC20.sol\":6419:6447  address owner = _msgSender() */\n      swap1\n      pop\n        /* \"KAMIL SIR/PROJECT01/BUY-SELL/contracts/ERC20.sol\":6458:6522  _approve(owner, spender, allowance(owner, spender) + addedValue) */\n      tag_118\n        /* \"KAMIL SIR/PROJECT01/BUY-SELL/contracts/ERC20.sol\":6467:6472  owner */\n      dup2\n        /* \"KAMIL SIR/PROJECT01/BUY-SELL/contracts/ERC20.sol\":6474:6481  spender */\n      dup6\n        /* \"KAMIL SIR/PROJECT01/BUY-SELL/contracts/ERC20.sol\":6511:6521  addedValue */\n      dup6\n        /* \"KAMIL SIR/PROJECT01/BUY-SELL/contracts/ERC20.sol\":6483:6508  allowance(owner, spender) */\n      tag_119\n        /* \"KAMIL SIR/PROJECT01/BUY-SELL/contracts/ERC20.sol\":6493:6498  owner */\n      dup6\n        /* \"KAMIL SIR/PROJECT01/BUY-SELL/contracts/ERC20.sol\":6500:6507  spender */\n      dup10\n        /* \"KAMIL SIR/PROJECT01/BUY-SELL/contracts/ERC20.sol\":6483:6492  allowance */\n      tag_81\n        /* \"KAMIL SIR/PROJECT01/BUY-SELL/contracts/ERC20.sol\":6483:6508  allowance(owner, spender) */\n      jump\t// in\n    tag_119:\n        /* \"KAMIL SIR/PROJECT01/BUY-SELL/contracts/ERC20.sol\":6483:6521  allowance(owner, spender) + addedValue */\n      tag_120\n      swap2\n      swap1\n      tag_121\n      jump\t// in\n    tag_120:\n        /* \"KAMIL SIR/PROJECT01/BUY-SELL/contracts/ERC20.sol\":6458:6466  _approve */\n      tag_97\n        /* \"KAMIL SIR/PROJECT01/BUY-SELL/contracts/ERC20.sol\":6458:6522  _approve(owner, spender, allowance(owner, spender) + addedValue) */\n      jump\t// in\n    tag_118:\n        /* \"KAMIL SIR/PROJECT01/BUY-SELL/contracts/ERC20.sol\":6540:6544  true */\n      0x01\n        /* \"KAMIL SIR/PROJECT01/BUY-SELL/contracts/ERC20.sol\":6533:6544  return true */\n      swap2\n      pop\n      pop\n        /* \"KAMIL SIR/PROJECT01/BUY-SELL/contracts/ERC20.sol\":6282:6552  function increaseAllowance(address spender, uint256 addedValue)... */\n      swap3\n      swap2\n      pop\n      pop\n      jump\t// out\n        /* \"KAMIL SIR/PROJECT01/BUY-SELL/contracts/ERC20.sol\":3555:3732  function balanceOf(address account)... */\n    tag_56:\n        /* \"KAMIL SIR/PROJECT01/BUY-SELL/contracts/ERC20.sol\":3674:3681  uint256 */\n      0x00\n        /* \"KAMIL SIR/PROJECT01/BUY-SELL/contracts/ERC20.sol\":3706:3715  _balances */\n      0x01\n        /* \"KAMIL SIR/PROJECT01/BUY-SELL/contracts/ERC20.sol\":3706:3724  _balances[account] */\n      0x00\n        /* \"KAMIL SIR/PROJECT01/BUY-SELL/contracts/ERC20.sol\":3716:3723  account */\n      dup4\n        /* \"KAMIL SIR/PROJECT01/BUY-SELL/contracts/ERC20.sol\":3706:3724  _balances[account] */\n      0xffffffffffffffffffffffffffffffffffffffff\n      and\n      0xffffffffffffffffffffffffffffffffffffffff\n      and\n      dup2\n      mstore\n      0x20\n      add\n      swap1\n      dup2\n      mstore\n      0x20\n      add\n      0x00\n      keccak256\n      sload\n        /* \"KAMIL SIR/PROJECT01/BUY-SELL/contracts/ERC20.sol\":3699:3724  return _balances[account] */\n      swap1\n      pop\n        /* \"KAMIL SIR/PROJECT01/BUY-SELL/contracts/ERC20.sol\":3555:3732  function balanceOf(address account)... */\n      swap2\n      swap1\n      pop\n      jump\t// out\n        /* \"KAMIL SIR/PROJECT01/BUY-SELL/contracts/utils/Ownable.sol\":1910:2013  function renounceOwnership() public virtual onlyOwner {... */\n    tag_59:\n        /* \"KAMIL SIR/PROJECT01/BUY-SELL/contracts/utils/Ownable.sol\":1148:1161  _checkOwner() */\n      tag_124\n        /* \"KAMIL SIR/PROJECT01/BUY-SELL/contracts/utils/Ownable.sol\":1148:1159  _checkOwner */\n      tag_107\n        /* \"KAMIL SIR/PROJECT01/BUY-SELL/contracts/utils/Ownable.sol\":1148:1161  _checkOwner() */\n      jump\t// in\n    tag_124:\n        /* \"KAMIL SIR/PROJECT01/BUY-SELL/contracts/utils/Ownable.sol\":1975:2005  _transferOwnership(address(0)) */\n      tag_126\n        /* \"KAMIL SIR/PROJECT01/BUY-SELL/contracts/utils/Ownable.sol\":2002:2003  0 */\n      0x00\n        /* \"KAMIL SIR/PROJECT01/BUY-SELL/contracts/utils/Ownable.sol\":1975:1993  _transferOwnership */\n      tag_127\n        /* \"KAMIL SIR/PROJECT01/BUY-SELL/contracts/utils/Ownable.sol\":1975:2005  _transferOwnership(address(0)) */\n      jump\t// in\n    tag_126:\n        /* \"KAMIL SIR/PROJECT01/BUY-SELL/contracts/utils/Ownable.sol\":1910:2013  function renounceOwnership() public virtual onlyOwner {... */\n      jump\t// out\n        /* \"KAMIL SIR/PROJECT01/BUY-SELL/contracts/utils/Ownable.sol\":1262:1349  function owner() public view virtual returns (address) {... */\n    tag_61:\n        /* \"KAMIL SIR/PROJECT01/BUY-SELL/contracts/utils/Ownable.sol\":1308:1315  address */\n      0x00\n        /* \"KAMIL SIR/PROJECT01/BUY-SELL/contracts/utils/Ownable.sol\":1335:1341  _owner */\n      dup1\n      0x00\n      swap1\n      sload\n      swap1\n      0x0100\n      exp\n      swap1\n      div\n      0xffffffffffffffffffffffffffffffffffffffff\n      and\n        /* \"KAMIL SIR/PROJECT01/BUY-SELL/contracts/utils/Ownable.sol\":1328:1341  return _owner */\n      swap1\n      pop\n        /* \"KAMIL SIR/PROJECT01/BUY-SELL/contracts/utils/Ownable.sol\":1262:1349  function owner() public view virtual returns (address) {... */\n      swap1\n      jump\t// out\n        /* \"KAMIL SIR/PROJECT01/BUY-SELL/contracts/ERC20.sol\":2475:2579  function symbol() public view virtual override returns (string memory) {... */\n    tag_65:\n        /* \"KAMIL SIR/PROJECT01/BUY-SELL/contracts/ERC20.sol\":2531:2544  string memory */\n      0x60\n        /* \"KAMIL SIR/PROJECT01/BUY-SELL/contracts/ERC20.sol\":2564:2571  _symbol */\n      0x05\n        /* \"KAMIL SIR/PROJECT01/BUY-SELL/contracts/ERC20.sol\":2557:2571  return _symbol */\n      dup1\n      sload\n      tag_130\n      swap1\n      tag_88\n      jump\t// in\n    tag_130:\n      dup1\n      0x1f\n      add\n      0x20\n      dup1\n      swap2\n      div\n      mul\n      0x20\n      add\n      mload(0x40)\n      swap1\n      dup2\n      add\n      0x40\n      mstore\n      dup1\n      swap3\n      swap2\n      swap1\n      dup2\n      dup2\n      mstore\n      0x20\n      add\n      dup3\n      dup1\n      sload\n      tag_131\n      swap1\n      tag_88\n      jump\t// in\n    tag_131:\n      dup1\n      iszero\n      tag_132\n      jumpi\n      dup1\n      0x1f\n      lt\n      tag_133\n      jumpi\n      0x0100\n      dup1\n      dup4\n      sload\n      div\n      mul\n      dup4\n      mstore\n      swap2\n      0x20\n      add\n      swap2\n      jump(tag_132)\n    tag_133:\n      dup3\n      add\n      swap2\n      swap1\n      0x00\n      mstore\n      keccak256(0x00, 0x20)\n      swap1\n    tag_134:\n      dup2\n      sload\n      dup2\n      mstore\n      swap1\n      0x01\n      add\n      swap1\n      0x20\n      add\n      dup1\n      dup4\n      gt\n      tag_134\n      jumpi\n      dup3\n      swap1\n      sub\n      0x1f\n      and\n      dup3\n      add\n      swap2\n    tag_132:\n      pop\n      pop\n      pop\n      pop\n      pop\n      swap1\n      pop\n        /* \"KAMIL SIR/PROJECT01/BUY-SELL/contracts/ERC20.sol\":2475:2579  function symbol() public view virtual override returns (string memory) {... */\n      swap1\n      jump\t// out\n        /* \"KAMIL SIR/PROJECT01/BUY-SELL/contracts/ERC20.sol\":7055:7560  function decreaseAllowance(address spender, uint256 subtractedValue)... */\n    tag_69:\n        /* \"KAMIL SIR/PROJECT01/BUY-SELL/contracts/ERC20.sol\":7175:7179  bool */\n      0x00\n        /* \"KAMIL SIR/PROJECT01/BUY-SELL/contracts/ERC20.sol\":7197:7210  address owner */\n      dup1\n        /* \"KAMIL SIR/PROJECT01/BUY-SELL/contracts/ERC20.sol\":7213:7225  _msgSender() */\n      tag_136\n        /* \"KAMIL SIR/PROJECT01/BUY-SELL/contracts/ERC20.sol\":7213:7223  _msgSender */\n      tag_95\n        /* \"KAMIL SIR/PROJECT01/BUY-SELL/contracts/ERC20.sol\":7213:7225  _msgSender() */\n      jump\t// in\n    tag_136:\n        /* \"KAMIL SIR/PROJECT01/BUY-SELL/contracts/ERC20.sol\":7197:7225  address owner = _msgSender() */\n      swap1\n      pop\n        /* \"KAMIL SIR/PROJECT01/BUY-SELL/contracts/ERC20.sol\":7236:7260  uint256 currentAllowance */\n      0x00\n        /* \"KAMIL SIR/PROJECT01/BUY-SELL/contracts/ERC20.sol\":7263:7288  allowance(owner, spender) */\n      tag_137\n        /* \"KAMIL SIR/PROJECT01/BUY-SELL/contracts/ERC20.sol\":7273:7278  owner */\n      dup3\n        /* \"KAMIL SIR/PROJECT01/BUY-SELL/contracts/ERC20.sol\":7280:7287  spender */\n      dup7\n        /* \"KAMIL SIR/PROJECT01/BUY-SELL/contracts/ERC20.sol\":7263:7272  allowance */\n      tag_81\n        /* \"KAMIL SIR/PROJECT01/BUY-SELL/contracts/ERC20.sol\":7263:7288  allowance(owner, spender) */\n      jump\t// in\n    tag_137:\n        /* \"KAMIL SIR/PROJECT01/BUY-SELL/contracts/ERC20.sol\":7236:7288  uint256 currentAllowance = allowance(owner, spender) */\n      swap1\n      pop\n        /* \"KAMIL SIR/PROJECT01/BUY-SELL/contracts/ERC20.sol\":7341:7356  subtractedValue */\n      dup4\n        /* \"KAMIL SIR/PROJECT01/BUY-SELL/contracts/ERC20.sol\":7321:7337  currentAllowance */\n      dup2\n        /* \"KAMIL SIR/PROJECT01/BUY-SELL/contracts/ERC20.sol\":7321:7356  currentAllowance >= subtractedValue */\n      lt\n      iszero\n        /* \"KAMIL SIR/PROJECT01/BUY-SELL/contracts/ERC20.sol\":7299:7421  require(... */\n      tag_138\n      jumpi\n      mload(0x40)\n      0x08c379a000000000000000000000000000000000000000000000000000000000\n      dup2\n      mstore\n      0x04\n      add\n      tag_139\n      swap1\n      tag_140\n      jump\t// in\n    tag_139:\n      mload(0x40)\n      dup1\n      swap2\n      sub\n      swap1\n      revert\n    tag_138:\n        /* \"KAMIL SIR/PROJECT01/BUY-SELL/contracts/ERC20.sol\":7457:7517  _approve(owner, spender, currentAllowance - subtractedValue) */\n      tag_141\n        /* \"KAMIL SIR/PROJECT01/BUY-SELL/contracts/ERC20.sol\":7466:7471  owner */\n      dup3\n        /* \"KAMIL SIR/PROJECT01/BUY-SELL/contracts/ERC20.sol\":7473:7480  spender */\n      dup7\n        /* \"KAMIL SIR/PROJECT01/BUY-SELL/contracts/ERC20.sol\":7501:7516  subtractedValue */\n      dup7\n        /* \"KAMIL SIR/PROJECT01/BUY-SELL/contracts/ERC20.sol\":7482:7498  currentAllowance */\n      dup5\n        /* \"KAMIL SIR/PROJECT01/BUY-SELL/contracts/ERC20.sol\":7482:7516  currentAllowance - subtractedValue */\n      sub\n        /* \"KAMIL SIR/PROJECT01/BUY-SELL/contracts/ERC20.sol\":7457:7465  _approve */\n      tag_97\n        /* \"KAMIL SIR/PROJECT01/BUY-SELL/contracts/ERC20.sol\":7457:7517  _approve(owner, spender, currentAllowance - subtractedValue) */\n      jump\t// in\n    tag_141:\n        /* \"KAMIL SIR/PROJECT01/BUY-SELL/contracts/ERC20.sol\":7548:7552  true */\n      0x01\n        /* \"KAMIL SIR/PROJECT01/BUY-SELL/contracts/ERC20.sol\":7541:7552  return true */\n      swap3\n      pop\n      pop\n      pop\n        /* \"KAMIL SIR/PROJECT01/BUY-SELL/contracts/ERC20.sol\":7055:7560  function decreaseAllowance(address spender, uint256 subtractedValue)... */\n      swap3\n      swap2\n      pop\n      pop\n      jump\t// out\n        /* \"KAMIL SIR/PROJECT01/BUY-SELL/contracts/ERC20.sol\":3938:4172  function transfer(address to, uint256 amount)... */\n    tag_73:\n        /* \"KAMIL SIR/PROJECT01/BUY-SELL/contracts/ERC20.sol\":4053:4057  bool */\n      0x00\n        /* \"KAMIL SIR/PROJECT01/BUY-SELL/contracts/ERC20.sol\":4075:4088  address owner */\n      dup1\n        /* \"KAMIL SIR/PROJECT01/BUY-SELL/contracts/ERC20.sol\":4091:4103  _msgSender() */\n      tag_143\n        /* \"KAMIL SIR/PROJECT01/BUY-SELL/contracts/ERC20.sol\":4091:4101  _msgSender */\n      tag_95\n        /* \"KAMIL SIR/PROJECT01/BUY-SELL/contracts/ERC20.sol\":4091:4103  _msgSender() */\n      jump\t// in\n    tag_143:\n        /* \"KAMIL SIR/PROJECT01/BUY-SELL/contracts/ERC20.sol\":4075:4103  address owner = _msgSender() */\n      swap1\n      pop\n        /* \"KAMIL SIR/PROJECT01/BUY-SELL/contracts/ERC20.sol\":4114:4142  _transfer(owner, to, amount) */\n      tag_144\n        /* \"KAMIL SIR/PROJECT01/BUY-SELL/contracts/ERC20.sol\":4124:4129  owner */\n      dup2\n        /* \"KAMIL SIR/PROJECT01/BUY-SELL/contracts/ERC20.sol\":4131:4133  to */\n      dup6\n        /* \"KAMIL SIR/PROJECT01/BUY-SELL/contracts/ERC20.sol\":4135:4141  amount */\n      dup6\n        /* \"KAMIL SIR/PROJECT01/BUY-SELL/contracts/ERC20.sol\":4114:4123  _transfer */\n      tag_104\n        /* \"KAMIL SIR/PROJECT01/BUY-SELL/contracts/ERC20.sol\":4114:4142  _transfer(owner, to, amount) */\n      jump\t// in\n    tag_144:\n        /* \"KAMIL SIR/PROJECT01/BUY-SELL/contracts/ERC20.sol\":4160:4164  true */\n      0x01\n        /* \"KAMIL SIR/PROJECT01/BUY-SELL/contracts/ERC20.sol\":4153:4164  return true */\n      swap2\n      pop\n      pop\n        /* \"KAMIL SIR/PROJECT01/BUY-SELL/contracts/ERC20.sol\":3938:4172  function transfer(address to, uint256 amount)... */\n      swap3\n      swap2\n      pop\n      pop\n      jump\t// out\n        /* \"KAMIL SIR/PROJECT01/BUY-SELL/contracts/Token.sol\":221:373  function transferPrice(... */\n    tag_77:\n        /* \"KAMIL SIR/PROJECT01/BUY-SELL/contracts/Token.sol\":338:365  _transfer(from, to, amount) */\n      tag_146\n        /* \"KAMIL SIR/PROJECT01/BUY-SELL/contracts/Token.sol\":348:352  from */\n      dup4\n        /* \"KAMIL SIR/PROJECT01/BUY-SELL/contracts/Token.sol\":354:356  to */\n      dup4\n        /* \"KAMIL SIR/PROJECT01/BUY-SELL/contracts/Token.sol\":358:364  amount */\n      dup4\n        /* \"KAMIL SIR/PROJECT01/BUY-SELL/contracts/Token.sol\":338:347  _transfer */\n      tag_104\n        /* \"KAMIL SIR/PROJECT01/BUY-SELL/contracts/Token.sol\":338:365  _transfer(from, to, amount) */\n      jump\t// in\n    tag_146:\n        /* \"KAMIL SIR/PROJECT01/BUY-SELL/contracts/Token.sol\":221:373  function transferPrice(... */\n      pop\n      pop\n      pop\n      jump\t// out\n        /* \"KAMIL SIR/PROJECT01/BUY-SELL/contracts/ERC20.sol\":4235:4436  function allowance(address owner, address spender)... */\n    tag_81:\n        /* \"KAMIL SIR/PROJECT01/BUY-SELL/contracts/ERC20.sol\":4369:4376  uint256 */\n      0x00\n        /* \"KAMIL SIR/PROJECT01/BUY-SELL/contracts/ERC20.sol\":4401:4412  _allowances */\n      0x02\n        /* \"KAMIL SIR/PROJECT01/BUY-SELL/contracts/ERC20.sol\":4401:4419  _allowances[owner] */\n      0x00\n        /* \"KAMIL SIR/PROJECT01/BUY-SELL/contracts/ERC20.sol\":4413:4418  owner */\n      dup5\n        /* \"KAMIL SIR/PROJECT01/BUY-SELL/contracts/ERC20.sol\":4401:4419  _allowances[owner] */\n      0xffffffffffffffffffffffffffffffffffffffff\n      and\n      0xffffffffffffffffffffffffffffffffffffffff\n      and\n      dup2\n      mstore\n      0x20\n      add\n      swap1\n      dup2\n      mstore\n      0x20\n      add\n      0x00\n      keccak256\n        /* \"KAMIL SIR/PROJECT01/BUY-SELL/contracts/ERC20.sol\":4401:4428  _allowances[owner][spender] */\n      0x00\n        /* \"KAMIL SIR/PROJECT01/BUY-SELL/contracts/ERC20.sol\":4420:4427  spender */\n      dup4\n        /* \"KAMIL SIR/PROJECT01/BUY-SELL/contracts/ERC20.sol\":4401:4428  _allowances[owner][spender] */\n      0xffffffffffffffffffffffffffffffffffffffff\n      and\n      0xffffffffffffffffffffffffffffffffffffffff\n      and\n      dup2\n      mstore\n      0x20\n      add\n      swap1\n      dup2\n      mstore\n      0x20\n      add\n      0x00\n      keccak256\n      sload\n        /* \"KAMIL SIR/PROJECT01/BUY-SELL/contracts/ERC20.sol\":4394:4428  return _allowances[owner][spender] */\n      swap1\n      pop\n        /* \"KAMIL SIR/PROJECT01/BUY-SELL/contracts/ERC20.sol\":4235:4436  function allowance(address owner, address spender)... */\n      swap3\n      swap2\n      pop\n      pop\n      jump\t// out\n        /* \"KAMIL SIR/PROJECT01/BUY-SELL/contracts/utils/Ownable.sol\":2168:2406  function transferOwnership(address newOwner) public virtual onlyOwner {... */\n    tag_85:\n        /* \"KAMIL SIR/PROJECT01/BUY-SELL/contracts/utils/Ownable.sol\":1148:1161  _checkOwner() */\n      tag_149\n        /* \"KAMIL SIR/PROJECT01/BUY-SELL/contracts/utils/Ownable.sol\":1148:1159  _checkOwner */\n      tag_107\n        /* \"KAMIL SIR/PROJECT01/BUY-SELL/contracts/utils/Ownable.sol\":1148:1161  _checkOwner() */\n      jump\t// in\n    tag_149:\n        /* \"KAMIL SIR/PROJECT01/BUY-SELL/contracts/utils/Ownable.sol\":2291:2292  0 */\n      0x00\n        /* \"KAMIL SIR/PROJECT01/BUY-SELL/contracts/utils/Ownable.sol\":2271:2293  newOwner != address(0) */\n      0xffffffffffffffffffffffffffffffffffffffff\n      and\n        /* \"KAMIL SIR/PROJECT01/BUY-SELL/contracts/utils/Ownable.sol\":2271:2279  newOwner */\n      dup2\n        /* \"KAMIL SIR/PROJECT01/BUY-SELL/contracts/utils/Ownable.sol\":2271:2293  newOwner != address(0) */\n      0xffffffffffffffffffffffffffffffffffffffff\n      and\n      sub\n        /* \"KAMIL SIR/PROJECT01/BUY-SELL/contracts/utils/Ownable.sol\":2249:2359  require(... */\n      tag_151\n      jumpi\n      mload(0x40)\n      0x08c379a000000000000000000000000000000000000000000000000000000000\n      dup2\n      mstore\n      0x04\n      add\n      tag_152\n      swap1\n      tag_153\n      jump\t// in\n    tag_152:\n      mload(0x40)\n      dup1\n      swap2\n      sub\n      swap1\n      revert\n    tag_151:\n        /* \"KAMIL SIR/PROJECT01/BUY-SELL/contracts/utils/Ownable.sol\":2370:2398  _transferOwnership(newOwner) */\n      tag_154\n        /* \"KAMIL SIR/PROJECT01/BUY-SELL/contracts/utils/Ownable.sol\":2389:2397  newOwner */\n      dup2\n        /* \"KAMIL SIR/PROJECT01/BUY-SELL/contracts/utils/Ownable.sol\":2370:2388  _transferOwnership */\n      tag_127\n        /* \"KAMIL SIR/PROJECT01/BUY-SELL/contracts/utils/Ownable.sol\":2370:2398  _transferOwnership(newOwner) */\n      jump\t// in\n    tag_154:\n        /* \"KAMIL SIR/PROJECT01/BUY-SELL/contracts/utils/Ownable.sol\":2168:2406  function transferOwnership(address newOwner) public virtual onlyOwner {... */\n      pop\n      jump\t// out\n        /* \"KAMIL SIR/PROJECT01/BUY-SELL/contracts/utils/Context.sol\":657:755  function _msgSender() internal view virtual returns (address) {... */\n    tag_95:\n        /* \"KAMIL SIR/PROJECT01/BUY-SELL/contracts/utils/Context.sol\":710:717  address */\n      0x00\n        /* \"KAMIL SIR/PROJECT01/BUY-SELL/contracts/utils/Context.sol\":737:747  msg.sender */\n      caller\n        /* \"KAMIL SIR/PROJECT01/BUY-SELL/contracts/utils/Context.sol\":730:747  return msg.sender */\n      swap1\n      pop\n        /* \"KAMIL SIR/PROJECT01/BUY-SELL/contracts/utils/Context.sol\":657:755  function _msgSender() internal view virtual returns (address) {... */\n      swap1\n      jump\t// out\n        /* \"KAMIL SIR/PROJECT01/BUY-SELL/contracts/ERC20.sol\":11188:11568  function _approve(... */\n    tag_97:\n        /* \"KAMIL SIR/PROJECT01/BUY-SELL/contracts/ERC20.sol\":11341:11342  0 */\n      0x00\n        /* \"KAMIL SIR/PROJECT01/BUY-SELL/contracts/ERC20.sol\":11324:11343  owner != address(0) */\n      0xffffffffffffffffffffffffffffffffffffffff\n      and\n        /* \"KAMIL SIR/PROJECT01/BUY-SELL/contracts/ERC20.sol\":11324:11329  owner */\n      dup4\n        /* \"KAMIL SIR/PROJECT01/BUY-SELL/contracts/ERC20.sol\":11324:11343  owner != address(0) */\n      0xffffffffffffffffffffffffffffffffffffffff\n      and\n      sub\n        /* \"KAMIL SIR/PROJECT01/BUY-SELL/contracts/ERC20.sol\":11316:11384  require(owner != address(0), \"ERC20: approve from the zero address\") */\n      tag_157\n      jumpi\n      mload(0x40)\n      0x08c379a000000000000000000000000000000000000000000000000000000000\n      dup2\n      mstore\n      0x04\n      add\n      tag_158\n      swap1\n      tag_159\n      jump\t// in\n    tag_158:\n      mload(0x40)\n      dup1\n      swap2\n      sub\n      swap1\n      revert\n    tag_157:\n        /* \"KAMIL SIR/PROJECT01/BUY-SELL/contracts/ERC20.sol\":11422:11423  0 */\n      0x00\n        /* \"KAMIL SIR/PROJECT01/BUY-SELL/contracts/ERC20.sol\":11403:11424  spender != address(0) */\n      0xffffffffffffffffffffffffffffffffffffffff\n      and\n        /* \"KAMIL SIR/PROJECT01/BUY-SELL/contracts/ERC20.sol\":11403:11410  spender */\n      dup3\n        /* \"KAMIL SIR/PROJECT01/BUY-SELL/contracts/ERC20.sol\":11403:11424  spender != address(0) */\n      0xffffffffffffffffffffffffffffffffffffffff\n      and\n      sub\n        /* \"KAMIL SIR/PROJECT01/BUY-SELL/contracts/ERC20.sol\":11395:11463  require(spender != address(0), \"ERC20: approve to the zero address\") */\n      tag_160\n      jumpi\n      mload(0x40)\n      0x08c379a000000000000000000000000000000000000000000000000000000000\n      dup2\n      mstore\n      0x04\n      add\n      tag_161\n      swap1\n      tag_162\n      jump\t// in\n    tag_161:\n      mload(0x40)\n      dup1\n      swap2\n      sub\n      swap1\n      revert\n    tag_160:\n        /* \"KAMIL SIR/PROJECT01/BUY-SELL/contracts/ERC20.sol\":11506:11512  amount */\n      dup1\n        /* \"KAMIL SIR/PROJECT01/BUY-SELL/contracts/ERC20.sol\":11476:11487  _allowances */\n      0x02\n        /* \"KAMIL SIR/PROJECT01/BUY-SELL/contracts/ERC20.sol\":11476:11494  _allowances[owner] */\n      0x00\n        /* \"KAMIL SIR/PROJECT01/BUY-SELL/contracts/ERC20.sol\":11488:11493  owner */\n      dup6\n        /* \"KAMIL SIR/PROJECT01/BUY-SELL/contracts/ERC20.sol\":11476:11494  _allowances[owner] */\n      0xffffffffffffffffffffffffffffffffffffffff\n      and\n      0xffffffffffffffffffffffffffffffffffffffff\n      and\n      dup2\n      mstore\n      0x20\n      add\n      swap1\n      dup2\n      mstore\n      0x20\n      add\n      0x00\n      keccak256\n        /* \"KAMIL SIR/PROJECT01/BUY-SELL/contracts/ERC20.sol\":11476:11503  _allowances[owner][spender] */\n      0x00\n        /* \"KAMIL SIR/PROJECT01/BUY-SELL/contracts/ERC20.sol\":11495:11502  spender */\n      dup5\n        /* \"KAMIL SIR/PROJECT01/BUY-SELL/contracts/ERC20.sol\":11476:11503  _allowances[owner][spender] */\n      0xffffffffffffffffffffffffffffffffffffffff\n      and\n      0xffffffffffffffffffffffffffffffffffffffff\n      and\n      dup2\n      mstore\n      0x20\n      add\n      swap1\n      dup2\n      mstore\n      0x20\n      add\n      0x00\n      keccak256\n        /* \"KAMIL SIR/PROJECT01/BUY-SELL/contracts/ERC20.sol\":11476:11512  _allowances[owner][spender] = amount */\n      dup2\n      swap1\n      sstore\n      pop\n        /* \"KAMIL SIR/PROJECT01/BUY-SELL/contracts/ERC20.sol\":11544:11551  spender */\n      dup2\n        /* \"KAMIL SIR/PROJECT01/BUY-SELL/contracts/ERC20.sol\":11528:11560  Approval(owner, spender, amount) */\n      0xffffffffffffffffffffffffffffffffffffffff\n      and\n        /* \"KAMIL SIR/PROJECT01/BUY-SELL/contracts/ERC20.sol\":11537:11542  owner */\n      dup4\n        /* \"KAMIL SIR/PROJECT01/BUY-SELL/contracts/ERC20.sol\":11528:11560  Approval(owner, spender, amount) */\n      0xffffffffffffffffffffffffffffffffffffffff\n      and\n      0x8c5be1e5ebec7d5bd14f71427d1e84f3dd0314c0f7b2291e5b200ac8c7c3b925\n        /* \"KAMIL SIR/PROJECT01/BUY-SELL/contracts/ERC20.sol\":11553:11559  amount */\n      dup4\n        /* \"KAMIL SIR/PROJECT01/BUY-SELL/contracts/ERC20.sol\":11528:11560  Approval(owner, spender, amount) */\n      mload(0x40)\n      tag_163\n      swap2\n      swap1\n      tag_35\n      jump\t// in\n    tag_163:\n      mload(0x40)\n      dup1\n      swap2\n      sub\n      swap1\n      log3\n        /* \"KAMIL SIR/PROJECT01/BUY-SELL/contracts/ERC20.sol\":11188:11568  function _approve(... */\n      pop\n      pop\n      pop\n      jump\t// out\n        /* \"KAMIL SIR/PROJECT01/BUY-SELL/contracts/ERC20.sol\":11859:12361  function _spendAllowance(... */\n    tag_102:\n        /* \"KAMIL SIR/PROJECT01/BUY-SELL/contracts/ERC20.sol\":11994:12018  uint256 currentAllowance */\n      0x00\n        /* \"KAMIL SIR/PROJECT01/BUY-SELL/contracts/ERC20.sol\":12021:12046  allowance(owner, spender) */\n      tag_165\n        /* \"KAMIL SIR/PROJECT01/BUY-SELL/contracts/ERC20.sol\":12031:12036  owner */\n      dup5\n        /* \"KAMIL SIR/PROJECT01/BUY-SELL/contracts/ERC20.sol\":12038:12045  spender */\n      dup5\n        /* \"KAMIL SIR/PROJECT01/BUY-SELL/contracts/ERC20.sol\":12021:12030  allowance */\n      tag_81\n        /* \"KAMIL SIR/PROJECT01/BUY-SELL/contracts/ERC20.sol\":12021:12046  allowance(owner, spender) */\n      jump\t// in\n    tag_165:\n        /* \"KAMIL SIR/PROJECT01/BUY-SELL/contracts/ERC20.sol\":11994:12046  uint256 currentAllowance = allowance(owner, spender) */\n      swap1\n      pop\n        /* \"KAMIL SIR/PROJECT01/BUY-SELL/contracts/ERC20.sol\":12081:12098  type(uint256).max */\n      0xffffffffffffffffffffffffffffffffffffffffffffffffffffffffffffffff\n        /* \"KAMIL SIR/PROJECT01/BUY-SELL/contracts/ERC20.sol\":12061:12077  currentAllowance */\n      dup2\n        /* \"KAMIL SIR/PROJECT01/BUY-SELL/contracts/ERC20.sol\":12061:12098  currentAllowance != type(uint256).max */\n      eq\n        /* \"KAMIL SIR/PROJECT01/BUY-SELL/contracts/ERC20.sol\":12057:12354  if (currentAllowance != type(uint256).max) {... */\n      tag_166\n      jumpi\n        /* \"KAMIL SIR/PROJECT01/BUY-SELL/contracts/ERC20.sol\":12161:12167  amount */\n      dup2\n        /* \"KAMIL SIR/PROJECT01/BUY-SELL/contracts/ERC20.sol\":12141:12157  currentAllowance */\n      dup2\n        /* \"KAMIL SIR/PROJECT01/BUY-SELL/contracts/ERC20.sol\":12141:12167  currentAllowance >= amount */\n      lt\n      iszero\n        /* \"KAMIL SIR/PROJECT01/BUY-SELL/contracts/ERC20.sol\":12115:12232  require(... */\n      tag_167\n      jumpi\n      mload(0x40)\n      0x08c379a000000000000000000000000000000000000000000000000000000000\n      dup2\n      mstore\n      0x04\n      add\n      tag_168\n      swap1\n      tag_169\n      jump\t// in\n    tag_168:\n      mload(0x40)\n      dup1\n      swap2\n      sub\n      swap1\n      revert\n    tag_167:\n        /* \"KAMIL SIR/PROJECT01/BUY-SELL/contracts/ERC20.sol\":12276:12327  _approve(owner, spender, currentAllowance - amount) */\n      tag_170\n        /* \"KAMIL SIR/PROJECT01/BUY-SELL/contracts/ERC20.sol\":12285:12290  owner */\n      dup5\n        /* \"KAMIL SIR/PROJECT01/BUY-SELL/contracts/ERC20.sol\":12292:12299  spender */\n      dup5\n        /* \"KAMIL SIR/PROJECT01/BUY-SELL/contracts/ERC20.sol\":12320:12326  amount */\n      dup5\n        /* \"KAMIL SIR/PROJECT01/BUY-SELL/contracts/ERC20.sol\":12301:12317  currentAllowance */\n      dup5\n        /* \"KAMIL SIR/PROJECT01/BUY-SELL/contracts/ERC20.sol\":12301:12326  currentAllowance - amount */\n      sub\n        /* \"KAMIL SIR/PROJECT01/BUY-SELL/contracts/ERC20.sol\":12276:12284  _approve */\n      tag_97\n        /* \"KAMIL SIR/PROJECT01/BUY-SELL/contracts/ERC20.sol\":12276:12327  _approve(owner, spender, currentAllowance - amount) */\n      jump\t// in\n    tag_170:\n        /* \"KAMIL SIR/PROJECT01/BUY-SELL/contracts/ERC20.sol\":12057:12354  if (currentAllowance != type(uint256).max) {... */\n    tag_166:\n        /* \"KAMIL SIR/PROJECT01/BUY-SELL/contracts/ERC20.sol\":11983:12361  {... */\n      pop\n        /* \"KAMIL SIR/PROJECT01/BUY-SELL/contracts/ERC20.sol\":11859:12361  function _spendAllowance(... */\n      pop\n      pop\n      pop\n      jump\t// out\n        /* \"KAMIL SIR/PROJECT01/BUY-SELL/contracts/ERC20.sol\":8030:8907  function _transfer(... */\n    tag_104:\n        /* \"KAMIL SIR/PROJECT01/BUY-SELL/contracts/ERC20.sol\":8177:8178  0 */\n      0x00\n        /* \"KAMIL SIR/PROJECT01/BUY-SELL/contracts/ERC20.sol\":8161:8179  from != address(0) */\n      0xffffffffffffffffffffffffffffffffffffffff\n      and\n        /* \"KAMIL SIR/PROJECT01/BUY-SELL/contracts/ERC20.sol\":8161:8165  from */\n      dup4\n        /* \"KAMIL SIR/PROJECT01/BUY-SELL/contracts/ERC20.sol\":8161:8179  from != address(0) */\n      0xffffffffffffffffffffffffffffffffffffffff\n      and\n      sub\n        /* \"KAMIL SIR/PROJECT01/BUY-SELL/contracts/ERC20.sol\":8153:8221  require(from != address(0), \"ERC20: transfer from the zero address\") */\n      tag_172\n      jumpi\n      mload(0x40)\n      0x08c379a000000000000000000000000000000000000000000000000000000000\n      dup2\n      mstore\n      0x04\n      add\n      tag_173\n      swap1\n      tag_174\n      jump\t// in\n    tag_173:\n      mload(0x40)\n      dup1\n      swap2\n      sub\n      swap1\n      revert\n    tag_172:\n        /* \"KAMIL SIR/PROJECT01/BUY-SELL/contracts/ERC20.sol\":8254:8255  0 */\n      0x00\n        /* \"KAMIL SIR/PROJECT01/BUY-SELL/contracts/ERC20.sol\":8240:8256  to != address(0) */\n      0xffffffffffffffffffffffffffffffffffffffff\n      and\n        /* \"KAMIL SIR/PROJECT01/BUY-SELL/contracts/ERC20.sol\":8240:8242  to */\n      dup3\n        /* \"KAMIL SIR/PROJECT01/BUY-SELL/contracts/ERC20.sol\":8240:8256  to != address(0) */\n      0xffffffffffffffffffffffffffffffffffffffff\n      and\n      sub\n        /* \"KAMIL SIR/PROJECT01/BUY-SELL/contracts/ERC20.sol\":8232:8296  require(to != address(0), \"ERC20: transfer to the zero address\") */\n      tag_175\n      jumpi\n      mload(0x40)\n      0x08c379a000000000000000000000000000000000000000000000000000000000\n      dup2\n      mstore\n      0x04\n      add\n      tag_176\n      swap1\n      tag_177\n      jump\t// in\n    tag_176:\n      mload(0x40)\n      dup1\n      swap2\n      sub\n      swap1\n      revert\n    tag_175:\n        /* \"KAMIL SIR/PROJECT01/BUY-SELL/contracts/ERC20.sol\":8309:8347  _beforeTokenTransfer(from, to, amount) */\n      tag_178\n        /* \"KAMIL SIR/PROJECT01/BUY-SELL/contracts/ERC20.sol\":8330:8334  from */\n      dup4\n        /* \"KAMIL SIR/PROJECT01/BUY-SELL/contracts/ERC20.sol\":8336:8338  to */\n      dup4\n        /* \"KAMIL SIR/PROJECT01/BUY-SELL/contracts/ERC20.sol\":8340:8346  amount */\n      dup4\n        /* \"KAMIL SIR/PROJECT01/BUY-SELL/contracts/ERC20.sol\":8309:8329  _beforeTokenTransfer */\n      tag_179\n        /* \"KAMIL SIR/PROJECT01/BUY-SELL/contracts/ERC20.sol\":8309:8347  _beforeTokenTransfer(from, to, amount) */\n      jump\t// in\n    tag_178:\n        /* \"KAMIL SIR/PROJECT01/BUY-SELL/contracts/ERC20.sol\":8360:8379  uint256 fromBalance */\n      0x00\n        /* \"KAMIL SIR/PROJECT01/BUY-SELL/contracts/ERC20.sol\":8382:8391  _balances */\n      0x01\n        /* \"KAMIL SIR/PROJECT01/BUY-SELL/contracts/ERC20.sol\":8382:8397  _balances[from] */\n      0x00\n        /* \"KAMIL SIR/PROJECT01/BUY-SELL/contracts/ERC20.sol\":8392:8396  from */\n      dup6\n        /* \"KAMIL SIR/PROJECT01/BUY-SELL/contracts/ERC20.sol\":8382:8397  _balances[from] */\n      0xffffffffffffffffffffffffffffffffffffffff\n      and\n      0xffffffffffffffffffffffffffffffffffffffff\n      and\n      dup2\n      mstore\n      0x20\n      add\n      swap1\n      dup2\n      mstore\n      0x20\n      add\n      0x00\n      keccak256\n      sload\n        /* \"KAMIL SIR/PROJECT01/BUY-SELL/contracts/ERC20.sol\":8360:8397  uint256 fromBalance = _balances[from] */\n      swap1\n      pop\n        /* \"KAMIL SIR/PROJECT01/BUY-SELL/contracts/ERC20.sol\":8445:8451  amount */\n      dup2\n        /* \"KAMIL SIR/PROJECT01/BUY-SELL/contracts/ERC20.sol\":8430:8441  fromBalance */\n      dup2\n        /* \"KAMIL SIR/PROJECT01/BUY-SELL/contracts/ERC20.sol\":8430:8451  fromBalance >= amount */\n      lt\n      iszero\n        /* \"KAMIL SIR/PROJECT01/BUY-SELL/contracts/ERC20.sol\":8408:8517  require(... */\n      tag_180\n      jumpi\n      mload(0x40)\n      0x08c379a000000000000000000000000000000000000000000000000000000000\n      dup2\n      mstore\n      0x04\n      add\n      tag_181\n      swap1\n      tag_182\n      jump\t// in\n    tag_181:\n      mload(0x40)\n      dup1\n      swap2\n      sub\n      swap1\n      revert\n    tag_180:\n        /* \"KAMIL SIR/PROJECT01/BUY-SELL/contracts/ERC20.sol\":8585:8591  amount */\n      dup2\n        /* \"KAMIL SIR/PROJECT01/BUY-SELL/contracts/ERC20.sol\":8571:8582  fromBalance */\n      dup2\n        /* \"KAMIL SIR/PROJECT01/BUY-SELL/contracts/ERC20.sol\":8571:8591  fromBalance - amount */\n      sub\n        /* \"KAMIL SIR/PROJECT01/BUY-SELL/contracts/ERC20.sol\":8553:8562  _balances */\n      0x01\n        /* \"KAMIL SIR/PROJECT01/BUY-SELL/contracts/ERC20.sol\":8553:8568  _balances[from] */\n      0x00\n        /* \"KAMIL SIR/PROJECT01/BUY-SELL/contracts/ERC20.sol\":8563:8567  from */\n      dup7\n        /* \"KAMIL SIR/PROJECT01/BUY-SELL/contracts/ERC20.sol\":8553:8568  _balances[from] */\n      0xffffffffffffffffffffffffffffffffffffffff\n      and\n      0xffffffffffffffffffffffffffffffffffffffff\n      and\n      dup2\n      mstore\n      0x20\n      add\n      swap1\n      dup2\n      mstore\n      0x20\n      add\n      0x00\n      keccak256\n        /* \"KAMIL SIR/PROJECT01/BUY-SELL/contracts/ERC20.sol\":8553:8591  _balances[from] = fromBalance - amount */\n      dup2\n      swap1\n      sstore\n      pop\n        /* \"KAMIL SIR/PROJECT01/BUY-SELL/contracts/ERC20.sol\":8788:8794  amount */\n      dup2\n        /* \"KAMIL SIR/PROJECT01/BUY-SELL/contracts/ERC20.sol\":8771:8780  _balances */\n      0x01\n        /* \"KAMIL SIR/PROJECT01/BUY-SELL/contracts/ERC20.sol\":8771:8784  _balances[to] */\n      0x00\n        /* \"KAMIL SIR/PROJECT01/BUY-SELL/contracts/ERC20.sol\":8781:8783  to */\n      dup6\n        /* \"KAMIL SIR/PROJECT01/BUY-SELL/contracts/ERC20.sol\":8771:8784  _balances[to] */\n      0xffffffffffffffffffffffffffffffffffffffff\n      and\n      0xffffffffffffffffffffffffffffffffffffffff\n      and\n      dup2\n      mstore\n      0x20\n      add\n      swap1\n      dup2\n      mstore\n      0x20\n      add\n      0x00\n      keccak256\n      0x00\n        /* \"KAMIL SIR/PROJECT01/BUY-SELL/contracts/ERC20.sol\":8771:8794  _balances[to] += amount */\n      dup3\n      dup3\n      sload\n      add\n      swap3\n      pop\n      pop\n      dup2\n      swap1\n      sstore\n      pop\n        /* \"KAMIL SIR/PROJECT01/BUY-SELL/contracts/ERC20.sol\":8838:8840  to */\n      dup3\n        /* \"KAMIL SIR/PROJECT01/BUY-SELL/contracts/ERC20.sol\":8823:8849  Transfer(from, to, amount) */\n      0xffffffffffffffffffffffffffffffffffffffff\n      and\n        /* \"KAMIL SIR/PROJECT01/BUY-SELL/contracts/ERC20.sol\":8832:8836  from */\n      dup5\n        /* \"KAMIL SIR/PROJECT01/BUY-SELL/contracts/ERC20.sol\":8823:8849  Transfer(from, to, amount) */\n      0xffffffffffffffffffffffffffffffffffffffff\n      and\n      0xddf252ad1be2c89b69c2b068fc378daa952ba7f163c4a11628f55a4df523b3ef\n        /* \"KAMIL SIR/PROJECT01/BUY-SELL/contracts/ERC20.sol\":8842:8848  amount */\n      dup5\n        /* \"KAMIL SIR/PROJECT01/BUY-SELL/contracts/ERC20.sol\":8823:8849  Transfer(from, to, amount) */\n      mload(0x40)\n      tag_183\n      swap2\n      swap1\n      tag_35\n      jump\t// in\n    tag_183:\n      mload(0x40)\n      dup1\n      swap2\n      sub\n      swap1\n      log3\n        /* \"KAMIL SIR/PROJECT01/BUY-SELL/contracts/ERC20.sol\":8862:8899  _afterTokenTransfer(from, to, amount) */\n      tag_184\n        /* \"KAMIL SIR/PROJECT01/BUY-SELL/contracts/ERC20.sol\":8882:8886  from */\n      dup5\n        /* \"KAMIL SIR/PROJECT01/BUY-SELL/contracts/ERC20.sol\":8888:8890  to */\n      dup5\n        /* \"KAMIL SIR/PROJECT01/BUY-SELL/contracts/ERC20.sol\":8892:8898  amount */\n      dup5\n        /* \"KAMIL SIR/PROJECT01/BUY-SELL/contracts/ERC20.sol\":8862:8881  _afterTokenTransfer */\n      tag_185\n        /* \"KAMIL SIR/PROJECT01/BUY-SELL/contracts/ERC20.sol\":8862:8899  _afterTokenTransfer(from, to, amount) */\n      jump\t// in\n    tag_184:\n        /* \"KAMIL SIR/PROJECT01/BUY-SELL/contracts/ERC20.sol\":8142:8907  {... */\n      pop\n        /* \"KAMIL SIR/PROJECT01/BUY-SELL/contracts/ERC20.sol\":8030:8907  function _transfer(... */\n      pop\n      pop\n      pop\n      jump\t// out\n        /* \"KAMIL SIR/PROJECT01/BUY-SELL/contracts/utils/Ownable.sol\":1427:1559  function _checkOwner() internal view virtual {... */\n    tag_107:\n        /* \"KAMIL SIR/PROJECT01/BUY-SELL/contracts/utils/Ownable.sol\":1502:1514  _msgSender() */\n      tag_187\n        /* \"KAMIL SIR/PROJECT01/BUY-SELL/contracts/utils/Ownable.sol\":1502:1512  _msgSender */\n      tag_95\n        /* \"KAMIL SIR/PROJECT01/BUY-SELL/contracts/utils/Ownable.sol\":1502:1514  _msgSender() */\n      jump\t// in\n    tag_187:\n        /* \"KAMIL SIR/PROJECT01/BUY-SELL/contracts/utils/Ownable.sol\":1491:1514  owner() == _msgSender() */\n      0xffffffffffffffffffffffffffffffffffffffff\n      and\n        /* \"KAMIL SIR/PROJECT01/BUY-SELL/contracts/utils/Ownable.sol\":1491:1498  owner() */\n      tag_188\n        /* \"KAMIL SIR/PROJECT01/BUY-SELL/contracts/utils/Ownable.sol\":1491:1496  owner */\n      tag_61\n        /* \"KAMIL SIR/PROJECT01/BUY-SELL/contracts/utils/Ownable.sol\":1491:1498  owner() */\n      jump\t// in\n    tag_188:\n        /* \"KAMIL SIR/PROJECT01/BUY-SELL/contracts/utils/Ownable.sol\":1491:1514  owner() == _msgSender() */\n      0xffffffffffffffffffffffffffffffffffffffff\n      and\n      eq\n        /* \"KAMIL SIR/PROJECT01/BUY-SELL/contracts/utils/Ownable.sol\":1483:1551  require(owner() == _msgSender(), \"Ownable: caller is not the owner\") */\n      tag_189\n      jumpi\n      mload(0x40)\n      0x08c379a000000000000000000000000000000000000000000000000000000000\n      dup2\n      mstore\n      0x04\n      add\n      tag_190\n      swap1\n      tag_191\n      jump\t// in\n    tag_190:\n      mload(0x40)\n      dup1\n      swap2\n      sub\n      swap1\n      revert\n    tag_189:\n        /* \"KAMIL SIR/PROJECT01/BUY-SELL/contracts/utils/Ownable.sol\":1427:1559  function _checkOwner() internal view virtual {... */\n      jump\t// out\n        /* \"KAMIL SIR/PROJECT01/BUY-SELL/contracts/utils/Ownable.sol\":2566:2757  function _transferOwnership(address newOwner) internal virtual {... */\n    tag_127:\n        /* \"KAMIL SIR/PROJECT01/BUY-SELL/contracts/utils/Ownable.sol\":2640:2656  address oldOwner */\n      0x00\n        /* \"KAMIL SIR/PROJECT01/BUY-SELL/contracts/utils/Ownable.sol\":2659:2665  _owner */\n      dup1\n      0x00\n      swap1\n      sload\n      swap1\n      0x0100\n      exp\n      swap1\n      div\n      0xffffffffffffffffffffffffffffffffffffffff\n      and\n        /* \"KAMIL SIR/PROJECT01/BUY-SELL/contracts/utils/Ownable.sol\":2640:2665  address oldOwner = _owner */\n      swap1\n      pop\n        /* \"KAMIL SIR/PROJECT01/BUY-SELL/contracts/utils/Ownable.sol\":2685:2693  newOwner */\n      dup2\n        /* \"KAMIL SIR/PROJECT01/BUY-SELL/contracts/utils/Ownable.sol\":2676:2682  _owner */\n      0x00\n      dup1\n        /* \"KAMIL SIR/PROJECT01/BUY-SELL/contracts/utils/Ownable.sol\":2676:2693  _owner = newOwner */\n      0x0100\n      exp\n      dup2\n      sload\n      dup2\n      0xffffffffffffffffffffffffffffffffffffffff\n      mul\n      not\n      and\n      swap1\n      dup4\n      0xffffffffffffffffffffffffffffffffffffffff\n      and\n      mul\n      or\n      swap1\n      sstore\n      pop\n        /* \"KAMIL SIR/PROJECT01/BUY-SELL/contracts/utils/Ownable.sol\":2740:2748  newOwner */\n      dup2\n        /* \"KAMIL SIR/PROJECT01/BUY-SELL/contracts/utils/Ownable.sol\":2709:2749  OwnershipTransferred(oldOwner, newOwner) */\n      0xffffffffffffffffffffffffffffffffffffffff\n      and\n        /* \"KAMIL SIR/PROJECT01/BUY-SELL/contracts/utils/Ownable.sol\":2730:2738  oldOwner */\n      dup2\n        /* \"KAMIL SIR/PROJECT01/BUY-SELL/contracts/utils/Ownable.sol\":2709:2749  OwnershipTransferred(oldOwner, newOwner) */\n      0xffffffffffffffffffffffffffffffffffffffff\n      and\n      0x8be0079c531659141344cd1fd0a4f28419497f9722a3daafe3b4186f6b6457e0\n      mload(0x40)\n      mload(0x40)\n      dup1\n      swap2\n      sub\n      swap1\n      log3\n        /* \"KAMIL SIR/PROJECT01/BUY-SELL/contracts/utils/Ownable.sol\":2629:2757  {... */\n      pop\n        /* \"KAMIL SIR/PROJECT01/BUY-SELL/contracts/utils/Ownable.sol\":2566:2757  function _transferOwnership(address newOwner) internal virtual {... */\n      pop\n      jump\t// out\n        /* \"KAMIL SIR/PROJECT01/BUY-SELL/contracts/ERC20.sol\":12961:13086  function _beforeTokenTransfer(... */\n    tag_179:\n      pop\n      pop\n      pop\n      jump\t// out\n        /* \"KAMIL SIR/PROJECT01/BUY-SELL/contracts/ERC20.sol\":13690:13814  function _afterTokenTransfer(... */\n    tag_185:\n      pop\n      pop\n      pop\n      jump\t// out\n        /* \"#utility.yul\":7:106   */\n    tag_195:\n        /* \"#utility.yul\":59:65   */\n      0x00\n        /* \"#utility.yul\":93:98   */\n      dup2\n        /* \"#utility.yul\":87:99   */\n      mload\n        /* \"#utility.yul\":77:99   */\n      swap1\n      pop\n        /* \"#utility.yul\":7:106   */\n      swap2\n      swap1\n      pop\n      jump\t// out\n        /* \"#utility.yul\":112:281   */\n    tag_196:\n        /* \"#utility.yul\":196:207   */\n      0x00\n        /* \"#utility.yul\":230:236   */\n      dup3\n        /* \"#utility.yul\":225:228   */\n      dup3\n        /* \"#utility.yul\":218:237   */\n      mstore\n        /* \"#utility.yul\":270:274   */\n      0x20\n        /* \"#utility.yul\":265:268   */\n      dup3\n        /* \"#utility.yul\":261:275   */\n      add\n        /* \"#utility.yul\":246:275   */\n      swap1\n      pop\n        /* \"#utility.yul\":112:281   */\n      swap3\n      swap2\n      pop\n      pop\n      jump\t// out\n        /* \"#utility.yul\":287:533   */\n    tag_197:\n        /* \"#utility.yul\":368:369   */\n      0x00\n        /* \"#utility.yul\":378:491   */\n    tag_242:\n        /* \"#utility.yul\":392:398   */\n      dup4\n        /* \"#utility.yul\":389:390   */\n      dup2\n        /* \"#utility.yul\":386:399   */\n      lt\n        /* \"#utility.yul\":378:491   */\n      iszero\n      tag_244\n      jumpi\n        /* \"#utility.yul\":477:478   */\n      dup1\n        /* \"#utility.yul\":472:475   */\n      dup3\n        /* \"#utility.yul\":468:479   */\n      add\n        /* \"#utility.yul\":462:480   */\n      mload\n        /* \"#utility.yul\":458:459   */\n      dup2\n        /* \"#utility.yul\":453:456   */\n      dup5\n        /* \"#utility.yul\":449:460   */\n      add\n        /* \"#utility.yul\":442:481   */\n      mstore\n        /* \"#utility.yul\":414:416   */\n      0x20\n        /* \"#utility.yul\":411:412   */\n      dup2\n        /* \"#utility.yul\":407:417   */\n      add\n        /* \"#utility.yul\":402:417   */\n      swap1\n      pop\n        /* \"#utility.yul\":378:491   */\n      jump(tag_242)\n    tag_244:\n        /* \"#utility.yul\":525:526   */\n      0x00\n        /* \"#utility.yul\":516:522   */\n      dup5\n        /* \"#utility.yul\":511:514   */\n      dup5\n        /* \"#utility.yul\":507:523   */\n      add\n        /* \"#utility.yul\":500:527   */\n      mstore\n        /* \"#utility.yul\":349:533   */\n      pop\n        /* \"#utility.yul\":287:533   */\n      pop\n      pop\n      pop\n      jump\t// out\n        /* \"#utility.yul\":539:641   */\n    tag_198:\n        /* \"#utility.yul\":580:586   */\n      0x00\n        /* \"#utility.yul\":631:633   */\n      0x1f\n        /* \"#utility.yul\":627:634   */\n      not\n        /* \"#utility.yul\":622:624   */\n      0x1f\n        /* \"#utility.yul\":615:620   */\n      dup4\n        /* \"#utility.yul\":611:625   */\n      add\n        /* \"#utility.yul\":607:635   */\n      and\n        /* \"#utility.yul\":597:635   */\n      swap1\n      pop\n        /* \"#utility.yul\":539:641   */\n      swap2\n      swap1\n      pop\n      jump\t// out\n        /* \"#utility.yul\":647:1024   */\n    tag_199:\n        /* \"#utility.yul\":735:738   */\n      0x00\n        /* \"#utility.yul\":763:802   */\n      tag_247\n        /* \"#utility.yul\":796:801   */\n      dup3\n        /* \"#utility.yul\":763:802   */\n      tag_195\n      jump\t// in\n    tag_247:\n        /* \"#utility.yul\":818:889   */\n      tag_248\n        /* \"#utility.yul\":882:888   */\n      dup2\n        /* \"#utility.yul\":877:880   */\n      dup6\n        /* \"#utility.yul\":818:889   */\n      tag_196\n      jump\t// in\n    tag_248:\n        /* \"#utility.yul\":811:889   */\n      swap4\n      pop\n        /* \"#utility.yul\":898:963   */\n      tag_249\n        /* \"#utility.yul\":956:962   */\n      dup2\n        /* \"#utility.yul\":951:954   */\n      dup6\n        /* \"#utility.yul\":944:948   */\n      0x20\n        /* \"#utility.yul\":937:942   */\n      dup7\n        /* \"#utility.yul\":933:949   */\n      add\n        /* \"#utility.yul\":898:963   */\n      tag_197\n      jump\t// in\n    tag_249:\n        /* \"#utility.yul\":988:1017   */\n      tag_250\n        /* \"#utility.yul\":1010:1016   */\n      dup2\n        /* \"#utility.yul\":988:1017   */\n      tag_198\n      jump\t// in\n    tag_250:\n        /* \"#utility.yul\":983:986   */\n      dup5\n        /* \"#utility.yul\":979:1018   */\n      add\n        /* \"#utility.yul\":972:1018   */\n      swap2\n      pop\n        /* \"#utility.yul\":739:1024   */\n      pop\n        /* \"#utility.yul\":647:1024   */\n      swap3\n      swap2\n      pop\n      pop\n      jump\t// out\n        /* \"#utility.yul\":1030:1343   */\n    tag_25:\n        /* \"#utility.yul\":1143:1147   */\n      0x00\n        /* \"#utility.yul\":1181:1183   */\n      0x20\n        /* \"#utility.yul\":1170:1179   */\n      dup3\n        /* \"#utility.yul\":1166:1184   */\n      add\n        /* \"#utility.yul\":1158:1184   */\n      swap1\n      pop\n        /* \"#utility.yul\":1230:1239   */\n      dup2\n        /* \"#utility.yul\":1224:1228   */\n      dup2\n        /* \"#utility.yul\":1220:1240   */\n      sub\n        /* \"#utility.yul\":1216:1217   */\n      0x00\n        /* \"#utility.yul\":1205:1214   */\n      dup4\n        /* \"#utility.yul\":1201:1218   */\n      add\n        /* \"#utility.yul\":1194:1241   */\n      mstore\n        /* \"#utility.yul\":1258:1336   */\n      tag_252\n        /* \"#utility.yul\":1331:1335   */\n      dup2\n        /* \"#utility.yul\":1322:1328   */\n      dup5\n        /* \"#utility.yul\":1258:1336   */\n      tag_199\n      jump\t// in\n    tag_252:\n        /* \"#utility.yul\":1250:1336   */\n      swap1\n      pop\n        /* \"#utility.yul\":1030:1343   */\n      swap3\n      swap2\n      pop\n      pop\n      jump\t// out\n        /* \"#utility.yul\":1430:1547   */\n    tag_201:\n        /* \"#utility.yul\":1539:1540   */\n      0x00\n        /* \"#utility.yul\":1536:1537   */\n      dup1\n        /* \"#utility.yul\":1529:1541   */\n      revert\n        /* \"#utility.yul\":1676:1802   */\n    tag_203:\n        /* \"#utility.yul\":1713:1720   */\n      0x00\n        /* \"#utility.yul\":1753:1795   */\n      0xffffffffffffffffffffffffffffffffffffffff\n        /* \"#utility.yul\":1746:1751   */\n      dup3\n        /* \"#utility.yul\":1742:1796   */\n      and\n        /* \"#utility.yul\":1731:1796   */\n      swap1\n      pop\n        /* \"#utility.yul\":1676:1802   */\n      swap2\n      swap1\n      pop\n      jump\t// out\n        /* \"#utility.yul\":1808:1904   */\n    tag_204:\n        /* \"#utility.yul\":1845:1852   */\n      0x00\n        /* \"#utility.yul\":1874:1898   */\n      tag_258\n        /* \"#utility.yul\":1892:1897   */\n      dup3\n        /* \"#utility.yul\":1874:1898   */\n      tag_203\n      jump\t// in\n    tag_258:\n        /* \"#utility.yul\":1863:1898   */\n      swap1\n      pop\n        /* \"#utility.yul\":1808:1904   */\n      swap2\n      swap1\n      pop\n      jump\t// out\n        /* \"#utility.yul\":1910:2032   */\n    tag_205:\n        /* \"#utility.yul\":1983:2007   */\n      tag_260\n        /* \"#utility.yul\":2001:2006   */\n      dup2\n        /* \"#utility.yul\":1983:2007   */\n      tag_204\n      jump\t// in\n    tag_260:\n        /* \"#utility.yul\":1976:1981   */\n      dup2\n        /* \"#utility.yul\":1973:2008   */\n      eq\n        /* \"#utility.yul\":1963:2026   */\n      tag_261\n      jumpi\n        /* \"#utility.yul\":2022:2023   */\n      0x00\n        /* \"#utility.yul\":2019:2020   */\n      dup1\n        /* \"#utility.yul\":2012:2024   */\n      revert\n        /* \"#utility.yul\":1963:2026   */\n    tag_261:\n        /* \"#utility.yul\":1910:2032   */\n      pop\n      jump\t// out\n        /* \"#utility.yul\":2038:2177   */\n    tag_206:\n        /* \"#utility.yul\":2084:2089   */\n      0x00\n        /* \"#utility.yul\":2122:2128   */\n      dup2\n        /* \"#utility.yul\":2109:2129   */\n      calldataload\n        /* \"#utility.yul\":2100:2129   */\n      swap1\n      pop\n        /* \"#utility.yul\":2138:2171   */\n      tag_263\n        /* \"#utility.yul\":2165:2170   */\n      dup2\n        /* \"#utility.yul\":2138:2171   */\n      tag_205\n      jump\t// in\n    tag_263:\n        /* \"#utility.yul\":2038:2177   */\n      swap3\n      swap2\n      pop\n      pop\n      jump\t// out\n        /* \"#utility.yul\":2183:2260   */\n    tag_207:\n        /* \"#utility.yul\":2220:2227   */\n      0x00\n        /* \"#utility.yul\":2249:2254   */\n      dup2\n        /* \"#utility.yul\":2238:2254   */\n      swap1\n      pop\n        /* \"#utility.yul\":2183:2260   */\n      swap2\n      swap1\n      pop\n      jump\t// out\n        /* \"#utility.yul\":2266:2388   */\n    tag_208:\n        /* \"#utility.yul\":2339:2363   */\n      tag_266\n        /* \"#utility.yul\":2357:2362   */\n      dup2\n        /* \"#utility.yul\":2339:2363   */\n      tag_207\n      jump\t// in\n    tag_266:\n        /* \"#utility.yul\":2332:2337   */\n      dup2\n        /* \"#utility.yul\":2329:2364   */\n      eq\n        /* \"#utility.yul\":2319:2382   */\n      tag_267\n      jumpi\n        /* \"#utility.yul\":2378:2379   */\n      0x00\n        /* \"#utility.yul\":2375:2376   */\n      dup1\n        /* \"#utility.yul\":2368:2380   */\n      revert\n        /* \"#utility.yul\":2319:2382   */\n    tag_267:\n        /* \"#utility.yul\":2266:2388   */\n      pop\n      jump\t// out\n        /* \"#utility.yul\":2394:2533   */\n    tag_209:\n        /* \"#utility.yul\":2440:2445   */\n      0x00\n        /* \"#utility.yul\":2478:2484   */\n      dup2\n        /* \"#utility.yul\":2465:2485   */\n      calldataload\n        /* \"#utility.yul\":2456:2485   */\n      swap1\n      pop\n        /* \"#utility.yul\":2494:2527   */\n      tag_269\n        /* \"#utility.yul\":2521:2526   */\n      dup2\n        /* \"#utility.yul\":2494:2527   */\n      tag_208\n      jump\t// in\n    tag_269:\n        /* \"#utility.yul\":2394:2533   */\n      swap3\n      swap2\n      pop\n      pop\n      jump\t// out\n        /* \"#utility.yul\":2539:3013   */\n    tag_28:\n        /* \"#utility.yul\":2607:2613   */\n      0x00\n        /* \"#utility.yul\":2615:2621   */\n      dup1\n        /* \"#utility.yul\":2664:2666   */\n      0x40\n        /* \"#utility.yul\":2652:2661   */\n      dup4\n        /* \"#utility.yul\":2643:2650   */\n      dup6\n        /* \"#utility.yul\":2639:2662   */\n      sub\n        /* \"#utility.yul\":2635:2667   */\n      slt\n        /* \"#utility.yul\":2632:2751   */\n      iszero\n      tag_271\n      jumpi\n        /* \"#utility.yul\":2670:2749   */\n      tag_272\n      tag_201\n      jump\t// in\n    tag_272:\n        /* \"#utility.yul\":2632:2751   */\n    tag_271:\n        /* \"#utility.yul\":2790:2791   */\n      0x00\n        /* \"#utility.yul\":2815:2868   */\n      tag_273\n        /* \"#utility.yul\":2860:2867   */\n      dup6\n        /* \"#utility.yul\":2851:2857   */\n      dup3\n        /* \"#utility.yul\":2840:2849   */\n      dup7\n        /* \"#utility.yul\":2836:2858   */\n      add\n        /* \"#utility.yul\":2815:2868   */\n      tag_206\n      jump\t// in\n    tag_273:\n        /* \"#utility.yul\":2805:2868   */\n      swap3\n      pop\n        /* \"#utility.yul\":2761:2878   */\n      pop\n        /* \"#utility.yul\":2917:2919   */\n      0x20\n        /* \"#utility.yul\":2943:2996   */\n      tag_274\n        /* \"#utility.yul\":2988:2995   */\n      dup6\n        /* \"#utility.yul\":2979:2985   */\n      dup3\n        /* \"#utility.yul\":2968:2977   */\n      dup7\n        /* \"#utility.yul\":2964:2986   */\n      add\n        /* \"#utility.yul\":2943:2996   */\n      tag_209\n      jump\t// in\n    tag_274:\n        /* \"#utility.yul\":2933:2996   */\n      swap2\n      pop\n        /* \"#utility.yul\":2888:3006   */\n      pop\n        /* \"#utility.yul\":2539:3013   */\n      swap3\n      pop\n      swap3\n      swap1\n      pop\n      jump\t// out\n        /* \"#utility.yul\":3019:3109   */\n    tag_210:\n        /* \"#utility.yul\":3053:3060   */\n      0x00\n        /* \"#utility.yul\":3096:3101   */\n      dup2\n        /* \"#utility.yul\":3089:3102   */\n      iszero\n        /* \"#utility.yul\":3082:3103   */\n      iszero\n        /* \"#utility.yul\":3071:3103   */\n      swap1\n      pop\n        /* \"#utility.yul\":3019:3109   */\n      swap2\n      swap1\n      pop\n      jump\t// out\n        /* \"#utility.yul\":3115:3224   */\n    tag_211:\n        /* \"#utility.yul\":3196:3217   */\n      tag_277\n        /* \"#utility.yul\":3211:3216   */\n      dup2\n        /* \"#utility.yul\":3196:3217   */\n      tag_210\n      jump\t// in\n    tag_277:\n        /* \"#utility.yul\":3191:3194   */\n      dup3\n        /* \"#utility.yul\":3184:3218   */\n      mstore\n        /* \"#utility.yul\":3115:3224   */\n      pop\n      pop\n      jump\t// out\n        /* \"#utility.yul\":3230:3440   */\n    tag_31:\n        /* \"#utility.yul\":3317:3321   */\n      0x00\n        /* \"#utility.yul\":3355:3357   */\n      0x20\n        /* \"#utility.yul\":3344:3353   */\n      dup3\n        /* \"#utility.yul\":3340:3358   */\n      add\n        /* \"#utility.yul\":3332:3358   */\n      swap1\n      pop\n        /* \"#utility.yul\":3368:3433   */\n      tag_279\n        /* \"#utility.yul\":3430:3431   */\n      0x00\n        /* \"#utility.yul\":3419:3428   */\n      dup4\n        /* \"#utility.yul\":3415:3432   */\n      add\n        /* \"#utility.yul\":3406:3412   */\n      dup5\n        /* \"#utility.yul\":3368:3433   */\n      tag_211\n      jump\t// in\n    tag_279:\n        /* \"#utility.yul\":3230:3440   */\n      swap3\n      swap2\n      pop\n      pop\n      jump\t// out\n        /* \"#utility.yul\":3446:3564   */\n    tag_212:\n        /* \"#utility.yul\":3533:3557   */\n      tag_281\n        /* \"#utility.yul\":3551:3556   */\n      dup2\n        /* \"#utility.yul\":3533:3557   */\n      tag_207\n      jump\t// in\n    tag_281:\n        /* \"#utility.yul\":3528:3531   */\n      dup3\n        /* \"#utility.yul\":3521:3558   */\n      mstore\n        /* \"#utility.yul\":3446:3564   */\n      pop\n      pop\n      jump\t// out\n        /* \"#utility.yul\":3570:3792   */\n    tag_35:\n        /* \"#utility.yul\":3663:3667   */\n      0x00\n        /* \"#utility.yul\":3701:3703   */\n      0x20\n        /* \"#utility.yul\":3690:3699   */\n      dup3\n        /* \"#utility.yul\":3686:3704   */\n      add\n        /* \"#utility.yul\":3678:3704   */\n      swap1\n      pop\n        /* \"#utility.yul\":3714:3785   */\n      tag_283\n        /* \"#utility.yul\":3782:3783   */\n      0x00\n        /* \"#utility.yul\":3771:3780   */\n      dup4\n        /* \"#utility.yul\":3767:3784   */\n      add\n        /* \"#utility.yul\":3758:3764   */\n      dup5\n        /* \"#utility.yul\":3714:3785   */\n      tag_212\n      jump\t// in\n    tag_283:\n        /* \"#utility.yul\":3570:3792   */\n      swap3\n      swap2\n      pop\n      pop\n      jump\t// out\n        /* \"#utility.yul\":3798:4417   */\n    tag_38:\n        /* \"#utility.yul\":3875:3881   */\n      0x00\n        /* \"#utility.yul\":3883:3889   */\n      dup1\n        /* \"#utility.yul\":3891:3897   */\n      0x00\n        /* \"#utility.yul\":3940:3942   */\n      0x60\n        /* \"#utility.yul\":3928:3937   */\n      dup5\n        /* \"#utility.yul\":3919:3926   */\n      dup7\n        /* \"#utility.yul\":3915:3938   */\n      sub\n        /* \"#utility.yul\":3911:3943   */\n      slt\n        /* \"#utility.yul\":3908:4027   */\n      iszero\n      tag_285\n      jumpi\n        /* \"#utility.yul\":3946:4025   */\n      tag_286\n      tag_201\n      jump\t// in\n    tag_286:\n        /* \"#utility.yul\":3908:4027   */\n    tag_285:\n        /* \"#utility.yul\":4066:4067   */\n      0x00\n        /* \"#utility.yul\":4091:4144   */\n      tag_287\n        /* \"#utility.yul\":4136:4143   */\n      dup7\n        /* \"#utility.yul\":4127:4133   */\n      dup3\n        /* \"#utility.yul\":4116:4125   */\n      dup8\n        /* \"#utility.yul\":4112:4134   */\n      add\n        /* \"#utility.yul\":4091:4144   */\n      tag_206\n      jump\t// in\n    tag_287:\n        /* \"#utility.yul\":4081:4144   */\n      swap4\n      pop\n        /* \"#utility.yul\":4037:4154   */\n      pop\n        /* \"#utility.yul\":4193:4195   */\n      0x20\n        /* \"#utility.yul\":4219:4272   */\n      tag_288\n        /* \"#utility.yul\":4264:4271   */\n      dup7\n        /* \"#utility.yul\":4255:4261   */\n      dup3\n        /* \"#utility.yul\":4244:4253   */\n      dup8\n        /* \"#utility.yul\":4240:4262   */\n      add\n        /* \"#utility.yul\":4219:4272   */\n      tag_206\n      jump\t// in\n    tag_288:\n        /* \"#utility.yul\":4209:4272   */\n      swap3\n      pop\n        /* \"#utility.yul\":4164:4282   */\n      pop\n        /* \"#utility.yul\":4321:4323   */\n      0x40\n        /* \"#utility.yul\":4347:4400   */\n      tag_289\n        /* \"#utility.yul\":4392:4399   */\n      dup7\n        /* \"#utility.yul\":4383:4389   */\n      dup3\n        /* \"#utility.yul\":4372:4381   */\n      dup8\n        /* \"#utility.yul\":4368:4390   */\n      add\n        /* \"#utility.yul\":4347:4400   */\n      tag_209\n      jump\t// in\n    tag_289:\n        /* \"#utility.yul\":4337:4400   */\n      swap2\n      pop\n        /* \"#utility.yul\":4292:4410   */\n      pop\n        /* \"#utility.yul\":3798:4417   */\n      swap3\n      pop\n      swap3\n      pop\n      swap3\n      jump\t// out\n        /* \"#utility.yul\":4423:4752   */\n    tag_43:\n        /* \"#utility.yul\":4482:4488   */\n      0x00\n        /* \"#utility.yul\":4531:4533   */\n      0x20\n        /* \"#utility.yul\":4519:4528   */\n      dup3\n        /* \"#utility.yul\":4510:4517   */\n      dup5\n        /* \"#utility.yul\":4506:4529   */\n      sub\n        /* \"#utility.yul\":4502:4534   */\n      slt\n        /* \"#utility.yul\":4499:4618   */\n      iszero\n      tag_291\n      jumpi\n        /* \"#utility.yul\":4537:4616   */\n      tag_292\n      tag_201\n      jump\t// in\n    tag_292:\n        /* \"#utility.yul\":4499:4618   */\n    tag_291:\n        /* \"#utility.yul\":4657:4658   */\n      0x00\n        /* \"#utility.yul\":4682:4735   */\n      tag_293\n        /* \"#utility.yul\":4727:4734   */\n      dup5\n        /* \"#utility.yul\":4718:4724   */\n      dup3\n        /* \"#utility.yul\":4707:4716   */\n      dup6\n        /* \"#utility.yul\":4703:4725   */\n      add\n        /* \"#utility.yul\":4682:4735   */\n      tag_209\n      jump\t// in\n    tag_293:\n        /* \"#utility.yul\":4672:4735   */\n      swap2\n      pop\n        /* \"#utility.yul\":4628:4745   */\n      pop\n        /* \"#utility.yul\":4423:4752   */\n      swap3\n      swap2\n      pop\n      pop\n      jump\t// out\n        /* \"#utility.yul\":4758:4844   */\n    tag_213:\n        /* \"#utility.yul\":4793:4800   */\n      0x00\n        /* \"#utility.yul\":4833:4837   */\n      0xff\n        /* \"#utility.yul\":4826:4831   */\n      dup3\n        /* \"#utility.yul\":4822:4838   */\n      and\n        /* \"#utility.yul\":4811:4838   */\n      swap1\n      pop\n        /* \"#utility.yul\":4758:4844   */\n      swap2\n      swap1\n      pop\n      jump\t// out\n        /* \"#utility.yul\":4850:4962   */\n    tag_214:\n        /* \"#utility.yul\":4933:4955   */\n      tag_296\n        /* \"#utility.yul\":4949:4954   */\n      dup2\n        /* \"#utility.yul\":4933:4955   */\n      tag_213\n      jump\t// in\n    tag_296:\n        /* \"#utility.yul\":4928:4931   */\n      dup3\n        /* \"#utility.yul\":4921:4956   */\n      mstore\n        /* \"#utility.yul\":4850:4962   */\n      pop\n      pop\n      jump\t// out\n        /* \"#utility.yul\":4968:5182   */\n    tag_48:\n        /* \"#utility.yul\":5057:5061   */\n      0x00\n        /* \"#utility.yul\":5095:5097   */\n      0x20\n        /* \"#utility.yul\":5084:5093   */\n      dup3\n        /* \"#utility.yul\":5080:5098   */\n      add\n        /* \"#utility.yul\":5072:5098   */\n      swap1\n      pop\n        /* \"#utility.yul\":5108:5175   */\n      tag_298\n        /* \"#utility.yul\":5172:5173   */\n      0x00\n        /* \"#utility.yul\":5161:5170   */\n      dup4\n        /* \"#utility.yul\":5157:5174   */\n      add\n        /* \"#utility.yul\":5148:5154   */\n      dup5\n        /* \"#utility.yul\":5108:5175   */\n      tag_214\n      jump\t// in\n    tag_298:\n        /* \"#utility.yul\":4968:5182   */\n      swap3\n      swap2\n      pop\n      pop\n      jump\t// out\n        /* \"#utility.yul\":5188:5517   */\n    tag_55:\n        /* \"#utility.yul\":5247:5253   */\n      0x00\n        /* \"#utility.yul\":5296:5298   */\n      0x20\n        /* \"#utility.yul\":5284:5293   */\n      dup3\n        /* \"#utility.yul\":5275:5282   */\n      dup5\n        /* \"#utility.yul\":5271:5294   */\n      sub\n        /* \"#utility.yul\":5267:5299   */\n      slt\n        /* \"#utility.yul\":5264:5383   */\n      iszero\n      tag_300\n      jumpi\n        /* \"#utility.yul\":5302:5381   */\n      tag_301\n      tag_201\n      jump\t// in\n    tag_301:\n        /* \"#utility.yul\":5264:5383   */\n    tag_300:\n        /* \"#utility.yul\":5422:5423   */\n      0x00\n        /* \"#utility.yul\":5447:5500   */\n      tag_302\n        /* \"#utility.yul\":5492:5499   */\n      dup5\n        /* \"#utility.yul\":5483:5489   */\n      dup3\n        /* \"#utility.yul\":5472:5481   */\n      dup6\n        /* \"#utility.yul\":5468:5490   */\n      add\n        /* \"#utility.yul\":5447:5500   */\n      tag_206\n      jump\t// in\n    tag_302:\n        /* \"#utility.yul\":5437:5500   */\n      swap2\n      pop\n        /* \"#utility.yul\":5393:5510   */\n      pop\n        /* \"#utility.yul\":5188:5517   */\n      swap3\n      swap2\n      pop\n      pop\n      jump\t// out\n        /* \"#utility.yul\":5523:5641   */\n    tag_215:\n        /* \"#utility.yul\":5610:5634   */\n      tag_304\n        /* \"#utility.yul\":5628:5633   */\n      dup2\n        /* \"#utility.yul\":5610:5634   */\n      tag_204\n      jump\t// in\n    tag_304:\n        /* \"#utility.yul\":5605:5608   */\n      dup3\n        /* \"#utility.yul\":5598:5635   */\n      mstore\n        /* \"#utility.yul\":5523:5641   */\n      pop\n      pop\n      jump\t// out\n        /* \"#utility.yul\":5647:5869   */\n    tag_63:\n        /* \"#utility.yul\":5740:5744   */\n      0x00\n        /* \"#utility.yul\":5778:5780   */\n      0x20\n        /* \"#utility.yul\":5767:5776   */\n      dup3\n        /* \"#utility.yul\":5763:5781   */\n      add\n        /* \"#utility.yul\":5755:5781   */\n      swap1\n      pop\n        /* \"#utility.yul\":5791:5862   */\n      tag_306\n        /* \"#utility.yul\":5859:5860   */\n      0x00\n        /* \"#utility.yul\":5848:5857   */\n      dup4\n        /* \"#utility.yul\":5844:5861   */\n      add\n        /* \"#utility.yul\":5835:5841   */\n      dup5\n        /* \"#utility.yul\":5791:5862   */\n      tag_215\n      jump\t// in\n    tag_306:\n        /* \"#utility.yul\":5647:5869   */\n      swap3\n      swap2\n      pop\n      pop\n      jump\t// out\n        /* \"#utility.yul\":5875:6349   */\n    tag_80:\n        /* \"#utility.yul\":5943:5949   */\n      0x00\n        /* \"#utility.yul\":5951:5957   */\n      dup1\n        /* \"#utility.yul\":6000:6002   */\n      0x40\n        /* \"#utility.yul\":5988:5997   */\n      dup4\n        /* \"#utility.yul\":5979:5986   */\n      dup6\n        /* \"#utility.yul\":5975:5998   */\n      sub\n        /* \"#utility.yul\":5971:6003   */\n      slt\n        /* \"#utility.yul\":5968:6087   */\n      iszero\n      tag_308\n      jumpi\n        /* \"#utility.yul\":6006:6085   */\n      tag_309\n      tag_201\n      jump\t// in\n    tag_309:\n        /* \"#utility.yul\":5968:6087   */\n    tag_308:\n        /* \"#utility.yul\":6126:6127   */\n      0x00\n        /* \"#utility.yul\":6151:6204   */\n      tag_310\n        /* \"#utility.yul\":6196:6203   */\n      dup6\n        /* \"#utility.yul\":6187:6193   */\n      dup3\n        /* \"#utility.yul\":6176:6185   */\n      dup7\n        /* \"#utility.yul\":6172:6194   */\n      add\n        /* \"#utility.yul\":6151:6204   */\n      tag_206\n      jump\t// in\n    tag_310:\n        /* \"#utility.yul\":6141:6204   */\n      swap3\n      pop\n        /* \"#utility.yul\":6097:6214   */\n      pop\n        /* \"#utility.yul\":6253:6255   */\n      0x20\n        /* \"#utility.yul\":6279:6332   */\n      tag_311\n        /* \"#utility.yul\":6324:6331   */\n      dup6\n        /* \"#utility.yul\":6315:6321   */\n      dup3\n        /* \"#utility.yul\":6304:6313   */\n      dup7\n        /* \"#utility.yul\":6300:6322   */\n      add\n        /* \"#utility.yul\":6279:6332   */\n      tag_206\n      jump\t// in\n    tag_311:\n        /* \"#utility.yul\":6269:6332   */\n      swap2\n      pop\n        /* \"#utility.yul\":6224:6342   */\n      pop\n        /* \"#utility.yul\":5875:6349   */\n      swap3\n      pop\n      swap3\n      swap1\n      pop\n      jump\t// out\n        /* \"#utility.yul\":6355:6535   */\n    tag_216:\n        /* \"#utility.yul\":6403:6480   */\n      0x4e487b7100000000000000000000000000000000000000000000000000000000\n        /* \"#utility.yul\":6400:6401   */\n      0x00\n        /* \"#utility.yul\":6393:6481   */\n      mstore\n        /* \"#utility.yul\":6500:6504   */\n      0x22\n        /* \"#utility.yul\":6497:6498   */\n      0x04\n        /* \"#utility.yul\":6490:6505   */\n      mstore\n        /* \"#utility.yul\":6524:6528   */\n      0x24\n        /* \"#utility.yul\":6521:6522   */\n      0x00\n        /* \"#utility.yul\":6514:6529   */\n      revert\n        /* \"#utility.yul\":6541:6861   */\n    tag_88:\n        /* \"#utility.yul\":6585:6591   */\n      0x00\n        /* \"#utility.yul\":6622:6623   */\n      0x02\n        /* \"#utility.yul\":6616:6620   */\n      dup3\n        /* \"#utility.yul\":6612:6624   */\n      div\n        /* \"#utility.yul\":6602:6624   */\n      swap1\n      pop\n        /* \"#utility.yul\":6669:6670   */\n      0x01\n        /* \"#utility.yul\":6663:6667   */\n      dup3\n        /* \"#utility.yul\":6659:6671   */\n      and\n        /* \"#utility.yul\":6690:6708   */\n      dup1\n        /* \"#utility.yul\":6680:6761   */\n      tag_314\n      jumpi\n        /* \"#utility.yul\":6746:6750   */\n      0x7f\n        /* \"#utility.yul\":6738:6744   */\n      dup3\n        /* \"#utility.yul\":6734:6751   */\n      and\n        /* \"#utility.yul\":6724:6751   */\n      swap2\n      pop\n        /* \"#utility.yul\":6680:6761   */\n    tag_314:\n        /* \"#utility.yul\":6808:6810   */\n      0x20\n        /* \"#utility.yul\":6800:6806   */\n      dup3\n        /* \"#utility.yul\":6797:6811   */\n      lt\n        /* \"#utility.yul\":6777:6795   */\n      dup2\n        /* \"#utility.yul\":6774:6812   */\n      sub\n        /* \"#utility.yul\":6771:6855   */\n      tag_315\n      jumpi\n        /* \"#utility.yul\":6827:6845   */\n      tag_316\n      tag_216\n      jump\t// in\n    tag_316:\n        /* \"#utility.yul\":6771:6855   */\n    tag_315:\n        /* \"#utility.yul\":6592:6861   */\n      pop\n        /* \"#utility.yul\":6541:6861   */\n      swap2\n      swap1\n      pop\n      jump\t// out\n        /* \"#utility.yul\":6867:7041   */\n    tag_217:\n        /* \"#utility.yul\":7007:7033   */\n      0x706c6561736520636865636b207468697320616d6f756e740000000000000000\n        /* \"#utility.yul\":7003:7004   */\n      0x00\n        /* \"#utility.yul\":6995:7001   */\n      dup3\n        /* \"#utility.yul\":6991:7005   */\n      add\n        /* \"#utility.yul\":6984:7034   */\n      mstore\n        /* \"#utility.yul\":6867:7041   */\n      pop\n      jump\t// out\n        /* \"#utility.yul\":7047:7413   */\n    tag_218:\n        /* \"#utility.yul\":7189:7192   */\n      0x00\n        /* \"#utility.yul\":7210:7277   */\n      tag_319\n        /* \"#utility.yul\":7274:7276   */\n      0x18\n        /* \"#utility.yul\":7269:7272   */\n      dup4\n        /* \"#utility.yul\":7210:7277   */\n      tag_196\n      jump\t// in\n    tag_319:\n        /* \"#utility.yul\":7203:7277   */\n      swap2\n      pop\n        /* \"#utility.yul\":7286:7379   */\n      tag_320\n        /* \"#utility.yul\":7375:7378   */\n      dup3\n        /* \"#utility.yul\":7286:7379   */\n      tag_217\n      jump\t// in\n    tag_320:\n        /* \"#utility.yul\":7404:7406   */\n      0x20\n        /* \"#utility.yul\":7399:7402   */\n      dup3\n        /* \"#utility.yul\":7395:7407   */\n      add\n        /* \"#utility.yul\":7388:7407   */\n      swap1\n      pop\n        /* \"#utility.yul\":7047:7413   */\n      swap2\n      swap1\n      pop\n      jump\t// out\n        /* \"#utility.yul\":7419:7838   */\n    tag_112:\n        /* \"#utility.yul\":7585:7589   */\n      0x00\n        /* \"#utility.yul\":7623:7625   */\n      0x20\n        /* \"#utility.yul\":7612:7621   */\n      dup3\n        /* \"#utility.yul\":7608:7626   */\n      add\n        /* \"#utility.yul\":7600:7626   */\n      swap1\n      pop\n        /* \"#utility.yul\":7672:7681   */\n      dup2\n        /* \"#utility.yul\":7666:7670   */\n      dup2\n        /* \"#utility.yul\":7662:7682   */\n      sub\n        /* \"#utility.yul\":7658:7659   */\n      0x00\n        /* \"#utility.yul\":7647:7656   */\n      dup4\n        /* \"#utility.yul\":7643:7660   */\n      add\n        /* \"#utility.yul\":7636:7683   */\n      mstore\n        /* \"#utility.yul\":7700:7831   */\n      tag_322\n        /* \"#utility.yul\":7826:7830   */\n      dup2\n        /* \"#utility.yul\":7700:7831   */\n      tag_218\n      jump\t// in\n    tag_322:\n        /* \"#utility.yul\":7692:7831   */\n      swap1\n      pop\n        /* \"#utility.yul\":7419:7838   */\n      swap2\n      swap1\n      pop\n      jump\t// out\n        /* \"#utility.yul\":7844:8024   */\n    tag_219:\n        /* \"#utility.yul\":7892:7969   */\n      0x4e487b7100000000000000000000000000000000000000000000000000000000\n        /* \"#utility.yul\":7889:7890   */\n      0x00\n        /* \"#utility.yul\":7882:7970   */\n      mstore\n        /* \"#utility.yul\":7989:7993   */\n      0x11\n        /* \"#utility.yul\":7986:7987   */\n      0x04\n        /* \"#utility.yul\":7979:7994   */\n      mstore\n        /* \"#utility.yul\":8013:8017   */\n      0x24\n        /* \"#utility.yul\":8010:8011   */\n      0x00\n        /* \"#utility.yul\":8003:8018   */\n      revert\n        /* \"#utility.yul\":8030:8221   */\n    tag_121:\n        /* \"#utility.yul\":8070:8073   */\n      0x00\n        /* \"#utility.yul\":8089:8109   */\n      tag_325\n        /* \"#utility.yul\":8107:8108   */\n      dup3\n        /* \"#utility.yul\":8089:8109   */\n      tag_207\n      jump\t// in\n    tag_325:\n        /* \"#utility.yul\":8084:8109   */\n      swap2\n      pop\n        /* \"#utility.yul\":8123:8143   */\n      tag_326\n        /* \"#utility.yul\":8141:8142   */\n      dup4\n        /* \"#utility.yul\":8123:8143   */\n      tag_207\n      jump\t// in\n    tag_326:\n        /* \"#utility.yul\":8118:8143   */\n      swap3\n      pop\n        /* \"#utility.yul\":8166:8167   */\n      dup3\n        /* \"#utility.yul\":8163:8164   */\n      dup3\n        /* \"#utility.yul\":8159:8168   */\n      add\n        /* \"#utility.yul\":8152:8168   */\n      swap1\n      pop\n        /* \"#utility.yul\":8187:8190   */\n      dup1\n        /* \"#utility.yul\":8184:8185   */\n      dup3\n        /* \"#utility.yul\":8181:8191   */\n      gt\n        /* \"#utility.yul\":8178:8214   */\n      iszero\n      tag_327\n      jumpi\n        /* \"#utility.yul\":8194:8212   */\n      tag_328\n      tag_219\n      jump\t// in\n    tag_328:\n        /* \"#utility.yul\":8178:8214   */\n    tag_327:\n        /* \"#utility.yul\":8030:8221   */\n      swap3\n      swap2\n      pop\n      pop\n      jump\t// out\n        /* \"#utility.yul\":8227:8451   */\n    tag_220:\n        /* \"#utility.yul\":8367:8401   */\n      0x45524332303a2064656372656173656420616c6c6f77616e63652062656c6f77\n        /* \"#utility.yul\":8363:8364   */\n      0x00\n        /* \"#utility.yul\":8355:8361   */\n      dup3\n        /* \"#utility.yul\":8351:8365   */\n      add\n        /* \"#utility.yul\":8344:8402   */\n      mstore\n        /* \"#utility.yul\":8436:8443   */\n      0x207a65726f000000000000000000000000000000000000000000000000000000\n        /* \"#utility.yul\":8431:8433   */\n      0x20\n        /* \"#utility.yul\":8423:8429   */\n      dup3\n        /* \"#utility.yul\":8419:8434   */\n      add\n        /* \"#utility.yul\":8412:8444   */\n      mstore\n        /* \"#utility.yul\":8227:8451   */\n      pop\n      jump\t// out\n        /* \"#utility.yul\":8457:8823   */\n    tag_221:\n        /* \"#utility.yul\":8599:8602   */\n      0x00\n        /* \"#utility.yul\":8620:8687   */\n      tag_331\n        /* \"#utility.yul\":8684:8686   */\n      0x25\n        /* \"#utility.yul\":8679:8682   */\n      dup4\n        /* \"#utility.yul\":8620:8687   */\n      tag_196\n      jump\t// in\n    tag_331:\n        /* \"#utility.yul\":8613:8687   */\n      swap2\n      pop\n        /* \"#utility.yul\":8696:8789   */\n      tag_332\n        /* \"#utility.yul\":8785:8788   */\n      dup3\n        /* \"#utility.yul\":8696:8789   */\n      tag_220\n      jump\t// in\n    tag_332:\n        /* \"#utility.yul\":8814:8816   */\n      0x40\n        /* \"#utility.yul\":8809:8812   */\n      dup3\n        /* \"#utility.yul\":8805:8817   */\n      add\n        /* \"#utility.yul\":8798:8817   */\n      swap1\n      pop\n        /* \"#utility.yul\":8457:8823   */\n      swap2\n      swap1\n      pop\n      jump\t// out\n        /* \"#utility.yul\":8829:9248   */\n    tag_140:\n        /* \"#utility.yul\":8995:8999   */\n      0x00\n        /* \"#utility.yul\":9033:9035   */\n      0x20\n        /* \"#utility.yul\":9022:9031   */\n      dup3\n        /* \"#utility.yul\":9018:9036   */\n      add\n        /* \"#utility.yul\":9010:9036   */\n      swap1\n      pop\n        /* \"#utility.yul\":9082:9091   */\n      dup2\n        /* \"#utility.yul\":9076:9080   */\n      dup2\n        /* \"#utility.yul\":9072:9092   */\n      sub\n        /* \"#utility.yul\":9068:9069   */\n      0x00\n        /* \"#utility.yul\":9057:9066   */\n      dup4\n        /* \"#utility.yul\":9053:9070   */\n      add\n        /* \"#utility.yul\":9046:9093   */\n      mstore\n        /* \"#utility.yul\":9110:9241   */\n      tag_334\n        /* \"#utility.yul\":9236:9240   */\n      dup2\n        /* \"#utility.yul\":9110:9241   */\n      tag_221\n      jump\t// in\n    tag_334:\n        /* \"#utility.yul\":9102:9241   */\n      swap1\n      pop\n        /* \"#utility.yul\":8829:9248   */\n      swap2\n      swap1\n      pop\n      jump\t// out\n        /* \"#utility.yul\":9254:9479   */\n    tag_222:\n        /* \"#utility.yul\":9394:9428   */\n      0x4f776e61626c653a206e6577206f776e657220697320746865207a65726f2061\n        /* \"#utility.yul\":9390:9391   */\n      0x00\n        /* \"#utility.yul\":9382:9388   */\n      dup3\n        /* \"#utility.yul\":9378:9392   */\n      add\n        /* \"#utility.yul\":9371:9429   */\n      mstore\n        /* \"#utility.yul\":9463:9471   */\n      0x6464726573730000000000000000000000000000000000000000000000000000\n        /* \"#utility.yul\":9458:9460   */\n      0x20\n        /* \"#utility.yul\":9450:9456   */\n      dup3\n        /* \"#utility.yul\":9446:9461   */\n      add\n        /* \"#utility.yul\":9439:9472   */\n      mstore\n        /* \"#utility.yul\":9254:9479   */\n      pop\n      jump\t// out\n        /* \"#utility.yul\":9485:9851   */\n    tag_223:\n        /* \"#utility.yul\":9627:9630   */\n      0x00\n        /* \"#utility.yul\":9648:9715   */\n      tag_337\n        /* \"#utility.yul\":9712:9714   */\n      0x26\n        /* \"#utility.yul\":9707:9710   */\n      dup4\n        /* \"#utility.yul\":9648:9715   */\n      tag_196\n      jump\t// in\n    tag_337:\n        /* \"#utility.yul\":9641:9715   */\n      swap2\n      pop\n        /* \"#utility.yul\":9724:9817   */\n      tag_338\n        /* \"#utility.yul\":9813:9816   */\n      dup3\n        /* \"#utility.yul\":9724:9817   */\n      tag_222\n      jump\t// in\n    tag_338:\n        /* \"#utility.yul\":9842:9844   */\n      0x40\n        /* \"#utility.yul\":9837:9840   */\n      dup3\n        /* \"#utility.yul\":9833:9845   */\n      add\n        /* \"#utility.yul\":9826:9845   */\n      swap1\n      pop\n        /* \"#utility.yul\":9485:9851   */\n      swap2\n      swap1\n      pop\n      jump\t// out\n        /* \"#utility.yul\":9857:10276   */\n    tag_153:\n        /* \"#utility.yul\":10023:10027   */\n      0x00\n        /* \"#utility.yul\":10061:10063   */\n      0x20\n        /* \"#utility.yul\":10050:10059   */\n      dup3\n        /* \"#utility.yul\":10046:10064   */\n      add\n        /* \"#utility.yul\":10038:10064   */\n      swap1\n      pop\n        /* \"#utility.yul\":10110:10119   */\n      dup2\n        /* \"#utility.yul\":10104:10108   */\n      dup2\n        /* \"#utility.yul\":10100:10120   */\n      sub\n        /* \"#utility.yul\":10096:10097   */\n      0x00\n        /* \"#utility.yul\":10085:10094   */\n      dup4\n        /* \"#utility.yul\":10081:10098   */\n      add\n        /* \"#utility.yul\":10074:10121   */\n      mstore\n        /* \"#utility.yul\":10138:10269   */\n      tag_340\n        /* \"#utility.yul\":10264:10268   */\n      dup2\n        /* \"#utility.yul\":10138:10269   */\n      tag_223\n      jump\t// in\n    tag_340:\n        /* \"#utility.yul\":10130:10269   */\n      swap1\n      pop\n        /* \"#utility.yul\":9857:10276   */\n      swap2\n      swap1\n      pop\n      jump\t// out\n        /* \"#utility.yul\":10282:10505   */\n    tag_224:\n        /* \"#utility.yul\":10422:10456   */\n      0x45524332303a20617070726f76652066726f6d20746865207a65726f20616464\n        /* \"#utility.yul\":10418:10419   */\n      0x00\n        /* \"#utility.yul\":10410:10416   */\n      dup3\n        /* \"#utility.yul\":10406:10420   */\n      add\n        /* \"#utility.yul\":10399:10457   */\n      mstore\n        /* \"#utility.yul\":10491:10497   */\n      0x7265737300000000000000000000000000000000000000000000000000000000\n        /* \"#utility.yul\":10486:10488   */\n      0x20\n        /* \"#utility.yul\":10478:10484   */\n      dup3\n        /* \"#utility.yul\":10474:10489   */\n      add\n        /* \"#utility.yul\":10467:10498   */\n      mstore\n        /* \"#utility.yul\":10282:10505   */\n      pop\n      jump\t// out\n        /* \"#utility.yul\":10511:10877   */\n    tag_225:\n        /* \"#utility.yul\":10653:10656   */\n      0x00\n        /* \"#utility.yul\":10674:10741   */\n      tag_343\n        /* \"#utility.yul\":10738:10740   */\n      0x24\n        /* \"#utility.yul\":10733:10736   */\n      dup4\n        /* \"#utility.yul\":10674:10741   */\n      tag_196\n      jump\t// in\n    tag_343:\n        /* \"#utility.yul\":10667:10741   */\n      swap2\n      pop\n        /* \"#utility.yul\":10750:10843   */\n      tag_344\n        /* \"#utility.yul\":10839:10842   */\n      dup3\n        /* \"#utility.yul\":10750:10843   */\n      tag_224\n      jump\t// in\n    tag_344:\n        /* \"#utility.yul\":10868:10870   */\n      0x40\n        /* \"#utility.yul\":10863:10866   */\n      dup3\n        /* \"#utility.yul\":10859:10871   */\n      add\n        /* \"#utility.yul\":10852:10871   */\n      swap1\n      pop\n        /* \"#utility.yul\":10511:10877   */\n      swap2\n      swap1\n      pop\n      jump\t// out\n        /* \"#utility.yul\":10883:11302   */\n    tag_159:\n        /* \"#utility.yul\":11049:11053   */\n      0x00\n        /* \"#utility.yul\":11087:11089   */\n      0x20\n        /* \"#utility.yul\":11076:11085   */\n      dup3\n        /* \"#utility.yul\":11072:11090   */\n      add\n        /* \"#utility.yul\":11064:11090   */\n      swap1\n      pop\n        /* \"#utility.yul\":11136:11145   */\n      dup2\n        /* \"#utility.yul\":11130:11134   */\n      dup2\n        /* \"#utility.yul\":11126:11146   */\n      sub\n        /* \"#utility.yul\":11122:11123   */\n      0x00\n        /* \"#utility.yul\":11111:11120   */\n      dup4\n        /* \"#utility.yul\":11107:11124   */\n      add\n        /* \"#utility.yul\":11100:11147   */\n      mstore\n        /* \"#utility.yul\":11164:11295   */\n      tag_346\n        /* \"#utility.yul\":11290:11294   */\n      dup2\n        /* \"#utility.yul\":11164:11295   */\n      tag_225\n      jump\t// in\n    tag_346:\n        /* \"#utility.yul\":11156:11295   */\n      swap1\n      pop\n        /* \"#utility.yul\":10883:11302   */\n      swap2\n      swap1\n      pop\n      jump\t// out\n        /* \"#utility.yul\":11308:11529   */\n    tag_226:\n        /* \"#utility.yul\":11448:11482   */\n      0x45524332303a20617070726f766520746f20746865207a65726f206164647265\n        /* \"#utility.yul\":11444:11445   */\n      0x00\n        /* \"#utility.yul\":11436:11442   */\n      dup3\n        /* \"#utility.yul\":11432:11446   */\n      add\n        /* \"#utility.yul\":11425:11483   */\n      mstore\n        /* \"#utility.yul\":11517:11521   */\n      0x7373000000000000000000000000000000000000000000000000000000000000\n        /* \"#utility.yul\":11512:11514   */\n      0x20\n        /* \"#utility.yul\":11504:11510   */\n      dup3\n        /* \"#utility.yul\":11500:11515   */\n      add\n        /* \"#utility.yul\":11493:11522   */\n      mstore\n        /* \"#utility.yul\":11308:11529   */\n      pop\n      jump\t// out\n        /* \"#utility.yul\":11535:11901   */\n    tag_227:\n        /* \"#utility.yul\":11677:11680   */\n      0x00\n        /* \"#utility.yul\":11698:11765   */\n      tag_349\n        /* \"#utility.yul\":11762:11764   */\n      0x22\n        /* \"#utility.yul\":11757:11760   */\n      dup4\n        /* \"#utility.yul\":11698:11765   */\n      tag_196\n      jump\t// in\n    tag_349:\n        /* \"#utility.yul\":11691:11765   */\n      swap2\n      pop\n        /* \"#utility.yul\":11774:11867   */\n      tag_350\n        /* \"#utility.yul\":11863:11866   */\n      dup3\n        /* \"#utility.yul\":11774:11867   */\n      tag_226\n      jump\t// in\n    tag_350:\n        /* \"#utility.yul\":11892:11894   */\n      0x40\n        /* \"#utility.yul\":11887:11890   */\n      dup3\n        /* \"#utility.yul\":11883:11895   */\n      add\n        /* \"#utility.yul\":11876:11895   */\n      swap1\n      pop\n        /* \"#utility.yul\":11535:11901   */\n      swap2\n      swap1\n      pop\n      jump\t// out\n        /* \"#utility.yul\":11907:12326   */\n    tag_162:\n        /* \"#utility.yul\":12073:12077   */\n      0x00\n        /* \"#utility.yul\":12111:12113   */\n      0x20\n        /* \"#utility.yul\":12100:12109   */\n      dup3\n        /* \"#utility.yul\":12096:12114   */\n      add\n        /* \"#utility.yul\":12088:12114   */\n      swap1\n      pop\n        /* \"#utility.yul\":12160:12169   */\n      dup2\n        /* \"#utility.yul\":12154:12158   */\n      dup2\n        /* \"#utility.yul\":12150:12170   */\n      sub\n        /* \"#utility.yul\":12146:12147   */\n      0x00\n        /* \"#utility.yul\":12135:12144   */\n      dup4\n        /* \"#utility.yul\":12131:12148   */\n      add\n        /* \"#utility.yul\":12124:12171   */\n      mstore\n        /* \"#utility.yul\":12188:12319   */\n      tag_352\n        /* \"#utility.yul\":12314:12318   */\n      dup2\n        /* \"#utility.yul\":12188:12319   */\n      tag_227\n      jump\t// in\n    tag_352:\n        /* \"#utility.yul\":12180:12319   */\n      swap1\n      pop\n        /* \"#utility.yul\":11907:12326   */\n      swap2\n      swap1\n      pop\n      jump\t// out\n        /* \"#utility.yul\":12332:12511   */\n    tag_228:\n        /* \"#utility.yul\":12472:12503   */\n      0x45524332303a20696e73756666696369656e7420616c6c6f77616e6365000000\n        /* \"#utility.yul\":12468:12469   */\n      0x00\n        /* \"#utility.yul\":12460:12466   */\n      dup3\n        /* \"#utility.yul\":12456:12470   */\n      add\n        /* \"#utility.yul\":12449:12504   */\n      mstore\n        /* \"#utility.yul\":12332:12511   */\n      pop\n      jump\t// out\n        /* \"#utility.yul\":12517:12883   */\n    tag_229:\n        /* \"#utility.yul\":12659:12662   */\n      0x00\n        /* \"#utility.yul\":12680:12747   */\n      tag_355\n        /* \"#utility.yul\":12744:12746   */\n      0x1d\n        /* \"#utility.yul\":12739:12742   */\n      dup4\n        /* \"#utility.yul\":12680:12747   */\n      tag_196\n      jump\t// in\n    tag_355:\n        /* \"#utility.yul\":12673:12747   */\n      swap2\n      pop\n        /* \"#utility.yul\":12756:12849   */\n      tag_356\n        /* \"#utility.yul\":12845:12848   */\n      dup3\n        /* \"#utility.yul\":12756:12849   */\n      tag_228\n      jump\t// in\n    tag_356:\n        /* \"#utility.yul\":12874:12876   */\n      0x20\n        /* \"#utility.yul\":12869:12872   */\n      dup3\n        /* \"#utility.yul\":12865:12877   */\n      add\n        /* \"#utility.yul\":12858:12877   */\n      swap1\n      pop\n        /* \"#utility.yul\":12517:12883   */\n      swap2\n      swap1\n      pop\n      jump\t// out\n        /* \"#utility.yul\":12889:13308   */\n    tag_169:\n        /* \"#utility.yul\":13055:13059   */\n      0x00\n        /* \"#utility.yul\":13093:13095   */\n      0x20\n        /* \"#utility.yul\":13082:13091   */\n      dup3\n        /* \"#utility.yul\":13078:13096   */\n      add\n        /* \"#utility.yul\":13070:13096   */\n      swap1\n      pop\n        /* \"#utility.yul\":13142:13151   */\n      dup2\n        /* \"#utility.yul\":13136:13140   */\n      dup2\n        /* \"#utility.yul\":13132:13152   */\n      sub\n        /* \"#utility.yul\":13128:13129   */\n      0x00\n        /* \"#utility.yul\":13117:13126   */\n      dup4\n        /* \"#utility.yul\":13113:13130   */\n      add\n        /* \"#utility.yul\":13106:13153   */\n      mstore\n        /* \"#utility.yul\":13170:13301   */\n      tag_358\n        /* \"#utility.yul\":13296:13300   */\n      dup2\n        /* \"#utility.yul\":13170:13301   */\n      tag_229\n      jump\t// in\n    tag_358:\n        /* \"#utility.yul\":13162:13301   */\n      swap1\n      pop\n        /* \"#utility.yul\":12889:13308   */\n      swap2\n      swap1\n      pop\n      jump\t// out\n        /* \"#utility.yul\":13314:13538   */\n    tag_230:\n        /* \"#utility.yul\":13454:13488   */\n      0x45524332303a207472616e736665722066726f6d20746865207a65726f206164\n        /* \"#utility.yul\":13450:13451   */\n      0x00\n        /* \"#utility.yul\":13442:13448   */\n      dup3\n        /* \"#utility.yul\":13438:13452   */\n      add\n        /* \"#utility.yul\":13431:13489   */\n      mstore\n        /* \"#utility.yul\":13523:13530   */\n      0x6472657373000000000000000000000000000000000000000000000000000000\n        /* \"#utility.yul\":13518:13520   */\n      0x20\n        /* \"#utility.yul\":13510:13516   */\n      dup3\n        /* \"#utility.yul\":13506:13521   */\n      add\n        /* \"#utility.yul\":13499:13531   */\n      mstore\n        /* \"#utility.yul\":13314:13538   */\n      pop\n      jump\t// out\n        /* \"#utility.yul\":13544:13910   */\n    tag_231:\n        /* \"#utility.yul\":13686:13689   */\n      0x00\n        /* \"#utility.yul\":13707:13774   */\n      tag_361\n        /* \"#utility.yul\":13771:13773   */\n      0x25\n        /* \"#utility.yul\":13766:13769   */\n      dup4\n        /* \"#utility.yul\":13707:13774   */\n      tag_196\n      jump\t// in\n    tag_361:\n        /* \"#utility.yul\":13700:13774   */\n      swap2\n      pop\n        /* \"#utility.yul\":13783:13876   */\n      tag_362\n        /* \"#utility.yul\":13872:13875   */\n      dup3\n        /* \"#utility.yul\":13783:13876   */\n      tag_230\n      jump\t// in\n    tag_362:\n        /* \"#utility.yul\":13901:13903   */\n      0x40\n        /* \"#utility.yul\":13896:13899   */\n      dup3\n        /* \"#utility.yul\":13892:13904   */\n      add\n        /* \"#utility.yul\":13885:13904   */\n      swap1\n      pop\n        /* \"#utility.yul\":13544:13910   */\n      swap2\n      swap1\n      pop\n      jump\t// out\n        /* \"#utility.yul\":13916:14335   */\n    tag_174:\n        /* \"#utility.yul\":14082:14086   */\n      0x00\n        /* \"#utility.yul\":14120:14122   */\n      0x20\n        /* \"#utility.yul\":14109:14118   */\n      dup3\n        /* \"#utility.yul\":14105:14123   */\n      add\n        /* \"#utility.yul\":14097:14123   */\n      swap1\n      pop\n        /* \"#utility.yul\":14169:14178   */\n      dup2\n        /* \"#utility.yul\":14163:14167   */\n      dup2\n        /* \"#utility.yul\":14159:14179   */\n      sub\n        /* \"#utility.yul\":14155:14156   */\n      0x00\n        /* \"#utility.yul\":14144:14153   */\n      dup4\n        /* \"#utility.yul\":14140:14157   */\n      add\n        /* \"#utility.yul\":14133:14180   */\n      mstore\n        /* \"#utility.yul\":14197:14328   */\n      tag_364\n        /* \"#utility.yul\":14323:14327   */\n      dup2\n        /* \"#utility.yul\":14197:14328   */\n      tag_231\n      jump\t// in\n    tag_364:\n        /* \"#utility.yul\":14189:14328   */\n      swap1\n      pop\n        /* \"#utility.yul\":13916:14335   */\n      swap2\n      swap1\n      pop\n      jump\t// out\n        /* \"#utility.yul\":14341:14563   */\n    tag_232:\n        /* \"#utility.yul\":14481:14515   */\n      0x45524332303a207472616e7366657220746f20746865207a65726f2061646472\n        /* \"#utility.yul\":14477:14478   */\n      0x00\n        /* \"#utility.yul\":14469:14475   */\n      dup3\n        /* \"#utility.yul\":14465:14479   */\n      add\n        /* \"#utility.yul\":14458:14516   */\n      mstore\n        /* \"#utility.yul\":14550:14555   */\n      0x6573730000000000000000000000000000000000000000000000000000000000\n        /* \"#utility.yul\":14545:14547   */\n      0x20\n        /* \"#utility.yul\":14537:14543   */\n      dup3\n        /* \"#utility.yul\":14533:14548   */\n      add\n        /* \"#utility.yul\":14526:14556   */\n      mstore\n        /* \"#utility.yul\":14341:14563   */\n      pop\n      jump\t// out\n        /* \"#utility.yul\":14569:14935   */\n    tag_233:\n        /* \"#utility.yul\":14711:14714   */\n      0x00\n        /* \"#utility.yul\":14732:14799   */\n      tag_367\n        /* \"#utility.yul\":14796:14798   */\n      0x23\n        /* \"#utility.yul\":14791:14794   */\n      dup4\n        /* \"#utility.yul\":14732:14799   */\n      tag_196\n      jump\t// in\n    tag_367:\n        /* \"#utility.yul\":14725:14799   */\n      swap2\n      pop\n        /* \"#utility.yul\":14808:14901   */\n      tag_368\n        /* \"#utility.yul\":14897:14900   */\n      dup3\n        /* \"#utility.yul\":14808:14901   */\n      tag_232\n      jump\t// in\n    tag_368:\n        /* \"#utility.yul\":14926:14928   */\n      0x40\n        /* \"#utility.yul\":14921:14924   */\n      dup3\n        /* \"#utility.yul\":14917:14929   */\n      add\n        /* \"#utility.yul\":14910:14929   */\n      swap1\n      pop\n        /* \"#utility.yul\":14569:14935   */\n      swap2\n      swap1\n      pop\n      jump\t// out\n        /* \"#utility.yul\":14941:15360   */\n    tag_177:\n        /* \"#utility.yul\":15107:15111   */\n      0x00\n        /* \"#utility.yul\":15145:15147   */\n      0x20\n        /* \"#utility.yul\":15134:15143   */\n      dup3\n        /* \"#utility.yul\":15130:15148   */\n      add\n        /* \"#utility.yul\":15122:15148   */\n      swap1\n      pop\n        /* \"#utility.yul\":15194:15203   */\n      dup2\n        /* \"#utility.yul\":15188:15192   */\n      dup2\n        /* \"#utility.yul\":15184:15204   */\n      sub\n        /* \"#utility.yul\":15180:15181   */\n      0x00\n        /* \"#utility.yul\":15169:15178   */\n      dup4\n        /* \"#utility.yul\":15165:15182   */\n      add\n        /* \"#utility.yul\":15158:15205   */\n      mstore\n        /* \"#utility.yul\":15222:15353   */\n      tag_370\n        /* \"#utility.yul\":15348:15352   */\n      dup2\n        /* \"#utility.yul\":15222:15353   */\n      tag_233\n      jump\t// in\n    tag_370:\n        /* \"#utility.yul\":15214:15353   */\n      swap1\n      pop\n        /* \"#utility.yul\":14941:15360   */\n      swap2\n      swap1\n      pop\n      jump\t// out\n        /* \"#utility.yul\":15366:15591   */\n    tag_234:\n        /* \"#utility.yul\":15506:15540   */\n      0x45524332303a207472616e7366657220616d6f756e7420657863656564732062\n        /* \"#utility.yul\":15502:15503   */\n      0x00\n        /* \"#utility.yul\":15494:15500   */\n      dup3\n        /* \"#utility.yul\":15490:15504   */\n      add\n        /* \"#utility.yul\":15483:15541   */\n      mstore\n        /* \"#utility.yul\":15575:15583   */\n      0x616c616e63650000000000000000000000000000000000000000000000000000\n        /* \"#utility.yul\":15570:15572   */\n      0x20\n        /* \"#utility.yul\":15562:15568   */\n      dup3\n        /* \"#utility.yul\":15558:15573   */\n      add\n        /* \"#utility.yul\":15551:15584   */\n      mstore\n        /* \"#utility.yul\":15366:15591   */\n      pop\n      jump\t// out\n        /* \"#utility.yul\":15597:15963   */\n    tag_235:\n        /* \"#utility.yul\":15739:15742   */\n      0x00\n        /* \"#utility.yul\":15760:15827   */\n      tag_373\n        /* \"#utility.yul\":15824:15826   */\n      0x26\n        /* \"#utility.yul\":15819:15822   */\n      dup4\n        /* \"#utility.yul\":15760:15827   */\n      tag_196\n      jump\t// in\n    tag_373:\n        /* \"#utility.yul\":15753:15827   */\n      swap2\n      pop\n        /* \"#utility.yul\":15836:15929   */\n      tag_374\n        /* \"#utility.yul\":15925:15928   */\n      dup3\n        /* \"#utility.yul\":15836:15929   */\n      tag_234\n      jump\t// in\n    tag_374:\n        /* \"#utility.yul\":15954:15956   */\n      0x40\n        /* \"#utility.yul\":15949:15952   */\n      dup3\n        /* \"#utility.yul\":15945:15957   */\n      add\n        /* \"#utility.yul\":15938:15957   */\n      swap1\n      pop\n        /* \"#utility.yul\":15597:15963   */\n      swap2\n      swap1\n      pop\n      jump\t// out\n        /* \"#utility.yul\":15969:16388   */\n    tag_182:\n        /* \"#utility.yul\":16135:16139   */\n      0x00\n        /* \"#utility.yul\":16173:16175   */\n      0x20\n        /* \"#utility.yul\":16162:16171   */\n      dup3\n        /* \"#utility.yul\":16158:16176   */\n      add\n        /* \"#utility.yul\":16150:16176   */\n      swap1\n      pop\n        /* \"#utility.yul\":16222:16231   */\n      dup2\n        /* \"#utility.yul\":16216:16220   */\n      dup2\n        /* \"#utility.yul\":16212:16232   */\n      sub\n        /* \"#utility.yul\":16208:16209   */\n      0x00\n        /* \"#utility.yul\":16197:16206   */\n      dup4\n        /* \"#utility.yul\":16193:16210   */\n      add\n        /* \"#utility.yul\":16186:16233   */\n      mstore\n        /* \"#utility.yul\":16250:16381   */\n      tag_376\n        /* \"#utility.yul\":16376:16380   */\n      dup2\n        /* \"#utility.yul\":16250:16381   */\n      tag_235\n      jump\t// in\n    tag_376:\n        /* \"#utility.yul\":16242:16381   */\n      swap1\n      pop\n        /* \"#utility.yul\":15969:16388   */\n      swap2\n      swap1\n      pop\n      jump\t// out\n        /* \"#utility.yul\":16394:16576   */\n    tag_236:\n        /* \"#utility.yul\":16534:16568   */\n      0x4f776e61626c653a2063616c6c6572206973206e6f7420746865206f776e6572\n        /* \"#utility.yul\":16530:16531   */\n      0x00\n        /* \"#utility.yul\":16522:16528   */\n      dup3\n        /* \"#utility.yul\":16518:16532   */\n      add\n        /* \"#utility.yul\":16511:16569   */\n      mstore\n        /* \"#utility.yul\":16394:16576   */\n      pop\n      jump\t// out\n        /* \"#utility.yul\":16582:16948   */\n    tag_237:\n        /* \"#utility.yul\":16724:16727   */\n      0x00\n        /* \"#utility.yul\":16745:16812   */\n      tag_379\n        /* \"#utility.yul\":16809:16811   */\n      0x20\n        /* \"#utility.yul\":16804:16807   */\n      dup4\n        /* \"#utility.yul\":16745:16812   */\n      tag_196\n      jump\t// in\n    tag_379:\n        /* \"#utility.yul\":16738:16812   */\n      swap2\n      pop\n        /* \"#utility.yul\":16821:16914   */\n      tag_380\n        /* \"#utility.yul\":16910:16913   */\n      dup3\n        /* \"#utility.yul\":16821:16914   */\n      tag_236\n      jump\t// in\n    tag_380:\n        /* \"#utility.yul\":16939:16941   */\n      0x20\n        /* \"#utility.yul\":16934:16937   */\n      dup3\n        /* \"#utility.yul\":16930:16942   */\n      add\n        /* \"#utility.yul\":16923:16942   */\n      swap1\n      pop\n        /* \"#utility.yul\":16582:16948   */\n      swap2\n      swap1\n      pop\n      jump\t// out\n        /* \"#utility.yul\":16954:17373   */\n    tag_191:\n        /* \"#utility.yul\":17120:17124   */\n      0x00\n        /* \"#utility.yul\":17158:17160   */\n      0x20\n        /* \"#utility.yul\":17147:17156   */\n      dup3\n        /* \"#utility.yul\":17143:17161   */\n      add\n        /* \"#utility.yul\":17135:17161   */\n      swap1\n      pop\n        /* \"#utility.yul\":17207:17216   */\n      dup2\n        /* \"#utility.yul\":17201:17205   */\n      dup2\n        /* \"#utility.yul\":17197:17217   */\n      sub\n        /* \"#utility.yul\":17193:17194   */\n      0x00\n        /* \"#utility.yul\":17182:17191   */\n      dup4\n        /* \"#utility.yul\":17178:17195   */\n      add\n        /* \"#utility.yul\":17171:17218   */\n      mstore\n        /* \"#utility.yul\":17235:17366   */\n      tag_382\n        /* \"#utility.yul\":17361:17365   */\n      dup2\n        /* \"#utility.yul\":17235:17366   */\n      tag_237\n      jump\t// in\n    tag_382:\n        /* \"#utility.yul\":17227:17366   */\n      swap1\n      pop\n        /* \"#utility.yul\":16954:17373   */\n      swap2\n      swap1\n      pop\n      jump\t// out\n\n    auxdata: 0xa26469706673582212209f68e6079e366ea41bd11d0c8b97d36014313fcbaeec6f796380f9f55c77c74c64736f6c63430008110033\n}\n",
				"bytecode": {
					"linkReferences": {},
					"object": "60806040523480156200001157600080fd5b506040518060400160405280600881526020017f434f494e535441520000000000000000000000000000000000000000000000008152506040518060400160405280600781526020017f434f4953544152000000000000000000000000000000000000000000000000008152506200009e62000092620000f160201b60201c565b620000f960201b60201c565b8160049081620000af9190620005d8565b508060059081620000c19190620005d8565b505050620000eb620000d8620001bd60201b60201c565b655af3107a4000620001e660201b60201c565b620007da565b600033905090565b60008060009054906101000a900473ffffffffffffffffffffffffffffffffffffffff169050816000806101000a81548173ffffffffffffffffffffffffffffffffffffffff021916908373ffffffffffffffffffffffffffffffffffffffff1602179055508173ffffffffffffffffffffffffffffffffffffffff168173ffffffffffffffffffffffffffffffffffffffff167f8be0079c531659141344cd1fd0a4f28419497f9722a3daafe3b4186f6b6457e060405160405180910390a35050565b60008060009054906101000a900473ffffffffffffffffffffffffffffffffffffffff16905090565b600073ffffffffffffffffffffffffffffffffffffffff168273ffffffffffffffffffffffffffffffffffffffff160362000258576040517f08c379a00000000000000000000000000000000000000000000000000000000081526004016200024f9062000720565b60405180910390fd5b6200026c600083836200035460201b60201c565b806003600082825462000280919062000771565b9250508190555080600160008473ffffffffffffffffffffffffffffffffffffffff1673ffffffffffffffffffffffffffffffffffffffff168152602001908152602001600020600082825401925050819055508173ffffffffffffffffffffffffffffffffffffffff16600073ffffffffffffffffffffffffffffffffffffffff167fddf252ad1be2c89b69c2b068fc378daa952ba7f163c4a11628f55a4df523b3ef83604051620003349190620007bd565b60405180910390a362000350600083836200035960201b60201c565b5050565b505050565b505050565b600081519050919050565b7f4e487b7100000000000000000000000000000000000000000000000000000000600052604160045260246000fd5b7f4e487b7100000000000000000000000000000000000000000000000000000000600052602260045260246000fd5b60006002820490506001821680620003e057607f821691505b602082108103620003f657620003f562000398565b5b50919050565b60008190508160005260206000209050919050565b60006020601f8301049050919050565b600082821b905092915050565b600060088302620004607fffffffffffffffffffffffffffffffffffffffffffffffffffffffffffffffff8262000421565b6200046c868362000421565b95508019841693508086168417925050509392505050565b6000819050919050565b6000819050919050565b6000620004b9620004b3620004ad8462000484565b6200048e565b62000484565b9050919050565b6000819050919050565b620004d58362000498565b620004ed620004e482620004c0565b8484546200042e565b825550505050565b600090565b62000504620004f5565b62000511818484620004ca565b505050565b5b8181101562000539576200052d600082620004fa565b60018101905062000517565b5050565b601f82111562000588576200055281620003fc565b6200055d8462000411565b810160208510156200056d578190505b620005856200057c8562000411565b83018262000516565b50505b505050565b600082821c905092915050565b6000620005ad600019846008026200058d565b1980831691505092915050565b6000620005c883836200059a565b9150826002028217905092915050565b620005e3826200035e565b67ffffffffffffffff811115620005ff57620005fe62000369565b5b6200060b8254620003c7565b620006188282856200053d565b600060209050601f8311600181146200065057600084156200063b578287015190505b620006478582620005ba565b865550620006b7565b601f1984166200066086620003fc565b60005b828110156200068a5784890151825560018201915060208501945060208101905062000663565b86831015620006aa5784890151620006a6601f8916826200059a565b8355505b6001600288020188555050505b505050505050565b600082825260208201905092915050565b7f45524332303a206d696e7420746f20746865207a65726f206164647265737300600082015250565b600062000708601f83620006bf565b91506200071582620006d0565b602082019050919050565b600060208201905081810360008301526200073b81620006f9565b9050919050565b7f4e487b7100000000000000000000000000000000000000000000000000000000600052601160045260246000fd5b60006200077e8262000484565b91506200078b8362000484565b9250828201905080821115620007a657620007a562000742565b5b92915050565b620007b78162000484565b82525050565b6000602082019050620007d46000830184620007ac565b92915050565b61174180620007ea6000396000f3fe608060405234801561001057600080fd5b50600436106101005760003560e01c8063715018a611610097578063a9059cbb11610066578063a9059cbb146102b1578063b45ee9ef146102e1578063dd62ed3e146102fd578063f2fde38b1461032d57610100565b8063715018a61461023b5780638da5cb5b1461024557806395d89b4114610263578063a457c2d71461028157610100565b80632e1a7d4d116100d35780632e1a7d4d146101a1578063313ce567146101bd57806339509351146101db57806370a082311461020b57610100565b806306fdde0314610105578063095ea7b31461012357806318160ddd1461015357806323b872dd14610171575b600080fd5b61010d610349565b60405161011a9190610e5d565b60405180910390f35b61013d60048036038101906101389190610f18565b6103db565b60405161014a9190610f73565b60405180910390f35b61015b6103fe565b6040516101689190610f9d565b60405180910390f35b61018b60048036038101906101869190610fb8565b610408565b6040516101989190610f73565b60405180910390f35b6101bb60048036038101906101b6919061100b565b610437565b005b6101c561049f565b6040516101d29190611054565b60405180910390f35b6101f560048036038101906101f09190610f18565b6104a8565b6040516102029190610f73565b60405180910390f35b6102256004803603810190610220919061106f565b6104df565b6040516102329190610f9d565b60405180910390f35b610243610528565b005b61024d61053c565b60405161025a91906110ab565b60405180910390f35b61026b610565565b6040516102789190610e5d565b60405180910390f35b61029b60048036038101906102969190610f18565b6105f7565b6040516102a89190610f73565b60405180910390f35b6102cb60048036038101906102c69190610f18565b61066e565b6040516102d89190610f73565b60405180910390f35b6102fb60048036038101906102f69190610fb8565b610691565b005b610317600480360381019061031291906110c6565b6106a1565b6040516103249190610f9d565b60405180910390f35b6103476004803603810190610342919061106f565b610728565b005b60606004805461035890611135565b80601f016020809104026020016040519081016040528092919081815260200182805461038490611135565b80156103d15780601f106103a6576101008083540402835291602001916103d1565b820191906000526020600020905b8154815290600101906020018083116103b457829003601f168201915b5050505050905090565b6000806103e66107ab565b90506103f38185856107b3565b600191505092915050565b6000600354905090565b6000806104136107ab565b905061042085828561097c565b61042b858585610a08565b60019150509392505050565b61043f610c81565b600061044a306104df565b1161048a576040517f08c379a0000000000000000000000000000000000000000000000000000000008152600401610481906111b2565b60405180910390fd5b61049c3061049661053c565b83610691565b50565b60006009905090565b6000806104b36107ab565b90506104d48185856104c585896106a1565b6104cf9190611201565b6107b3565b600191505092915050565b6000600160008373ffffffffffffffffffffffffffffffffffffffff1673ffffffffffffffffffffffffffffffffffffffff168152602001908152602001600020549050919050565b610530610c81565b61053a6000610cff565b565b60008060009054906101000a900473ffffffffffffffffffffffffffffffffffffffff16905090565b60606005805461057490611135565b80601f01602080910402602001604051908101604052809291908181526020018280546105a090611135565b80156105ed5780601f106105c2576101008083540402835291602001916105ed565b820191906000526020600020905b8154815290600101906020018083116105d057829003601f168201915b5050505050905090565b6000806106026107ab565b9050600061061082866106a1565b905083811015610655576040517f08c379a000000000000000000000000000000000000000000000000000000000815260040161064c906112a7565b60405180910390fd5b61066282868684036107b3565b60019250505092915050565b6000806106796107ab565b9050610686818585610a08565b600191505092915050565b61069c838383610a08565b505050565b6000600260008473ffffffffffffffffffffffffffffffffffffffff1673ffffffffffffffffffffffffffffffffffffffff16815260200190815260200160002060008373ffffffffffffffffffffffffffffffffffffffff1673ffffffffffffffffffffffffffffffffffffffff16815260200190815260200160002054905092915050565b610730610c81565b600073ffffffffffffffffffffffffffffffffffffffff168173ffffffffffffffffffffffffffffffffffffffff160361079f576040517f08c379a000000000000000000000000000000000000000000000000000000000815260040161079690611339565b60405180910390fd5b6107a881610cff565b50565b600033905090565b600073ffffffffffffffffffffffffffffffffffffffff168373ffffffffffffffffffffffffffffffffffffffff1603610822576040517f08c379a0000000000000000000000000000000000000000000000000000000008152600401610819906113cb565b60405180910390fd5b600073ffffffffffffffffffffffffffffffffffffffff168273ffffffffffffffffffffffffffffffffffffffff1603610891576040517f08c379a00000000000000000000000000000000000000000000000000000000081526004016108889061145d565b60405180910390fd5b80600260008573ffffffffffffffffffffffffffffffffffffffff1673ffffffffffffffffffffffffffffffffffffffff16815260200190815260200160002060008473ffffffffffffffffffffffffffffffffffffffff1673ffffffffffffffffffffffffffffffffffffffff168152602001908152602001600020819055508173ffffffffffffffffffffffffffffffffffffffff168373ffffffffffffffffffffffffffffffffffffffff167f8c5be1e5ebec7d5bd14f71427d1e84f3dd0314c0f7b2291e5b200ac8c7c3b9258360405161096f9190610f9d565b60405180910390a3505050565b600061098884846106a1565b90507fffffffffffffffffffffffffffffffffffffffffffffffffffffffffffffffff8114610a0257818110156109f4576040517f08c379a00000000000000000000000000000000000000000000000000000000081526004016109eb906114c9565b60405180910390fd5b610a0184848484036107b3565b5b50505050565b600073ffffffffffffffffffffffffffffffffffffffff168373ffffffffffffffffffffffffffffffffffffffff1603610a77576040517f08c379a0000000000000000000000000000000000000000000000000000000008152600401610a6e9061155b565b60405180910390fd5b600073ffffffffffffffffffffffffffffffffffffffff168273ffffffffffffffffffffffffffffffffffffffff1603610ae6576040517f08c379a0000000000000000000000000000000000000000000000000000000008152600401610add906115ed565b60405180910390fd5b610af1838383610dc3565b6000600160008573ffffffffffffffffffffffffffffffffffffffff1673ffffffffffffffffffffffffffffffffffffffff16815260200190815260200160002054905081811015610b78576040517f08c379a0000000000000000000000000000000000000000000000000000000008152600401610b6f9061167f565b60405180910390fd5b818103600160008673ffffffffffffffffffffffffffffffffffffffff1673ffffffffffffffffffffffffffffffffffffffff1681526020019081526020016000208190555081600160008573ffffffffffffffffffffffffffffffffffffffff1673ffffffffffffffffffffffffffffffffffffffff168152602001908152602001600020600082825401925050819055508273ffffffffffffffffffffffffffffffffffffffff168473ffffffffffffffffffffffffffffffffffffffff167fddf252ad1be2c89b69c2b068fc378daa952ba7f163c4a11628f55a4df523b3ef84604051610c689190610f9d565b60405180910390a3610c7b848484610dc8565b50505050565b610c896107ab565b73ffffffffffffffffffffffffffffffffffffffff16610ca761053c565b73ffffffffffffffffffffffffffffffffffffffff1614610cfd576040517f08c379a0000000000000000000000000000000000000000000000000000000008152600401610cf4906116eb565b60405180910390fd5b565b60008060009054906101000a900473ffffffffffffffffffffffffffffffffffffffff169050816000806101000a81548173ffffffffffffffffffffffffffffffffffffffff021916908373ffffffffffffffffffffffffffffffffffffffff1602179055508173ffffffffffffffffffffffffffffffffffffffff168173ffffffffffffffffffffffffffffffffffffffff167f8be0079c531659141344cd1fd0a4f28419497f9722a3daafe3b4186f6b6457e060405160405180910390a35050565b505050565b505050565b600081519050919050565b600082825260208201905092915050565b60005b83811015610e07578082015181840152602081019050610dec565b60008484015250505050565b6000601f19601f8301169050919050565b6000610e2f82610dcd565b610e398185610dd8565b9350610e49818560208601610de9565b610e5281610e13565b840191505092915050565b60006020820190508181036000830152610e778184610e24565b905092915050565b600080fd5b600073ffffffffffffffffffffffffffffffffffffffff82169050919050565b6000610eaf82610e84565b9050919050565b610ebf81610ea4565b8114610eca57600080fd5b50565b600081359050610edc81610eb6565b92915050565b6000819050919050565b610ef581610ee2565b8114610f0057600080fd5b50565b600081359050610f1281610eec565b92915050565b60008060408385031215610f2f57610f2e610e7f565b5b6000610f3d85828601610ecd565b9250506020610f4e85828601610f03565b9150509250929050565b60008115159050919050565b610f6d81610f58565b82525050565b6000602082019050610f886000830184610f64565b92915050565b610f9781610ee2565b82525050565b6000602082019050610fb26000830184610f8e565b92915050565b600080600060608486031215610fd157610fd0610e7f565b5b6000610fdf86828701610ecd565b9350506020610ff086828701610ecd565b925050604061100186828701610f03565b9150509250925092565b60006020828403121561102157611020610e7f565b5b600061102f84828501610f03565b91505092915050565b600060ff82169050919050565b61104e81611038565b82525050565b60006020820190506110696000830184611045565b92915050565b60006020828403121561108557611084610e7f565b5b600061109384828501610ecd565b91505092915050565b6110a581610ea4565b82525050565b60006020820190506110c0600083018461109c565b92915050565b600080604083850312156110dd576110dc610e7f565b5b60006110eb85828601610ecd565b92505060206110fc85828601610ecd565b9150509250929050565b7f4e487b7100000000000000000000000000000000000000000000000000000000600052602260045260246000fd5b6000600282049050600182168061114d57607f821691505b6020821081036111605761115f611106565b5b50919050565b7f706c6561736520636865636b207468697320616d6f756e740000000000000000600082015250565b600061119c601883610dd8565b91506111a782611166565b602082019050919050565b600060208201905081810360008301526111cb8161118f565b9050919050565b7f4e487b7100000000000000000000000000000000000000000000000000000000600052601160045260246000fd5b600061120c82610ee2565b915061121783610ee2565b925082820190508082111561122f5761122e6111d2565b5b92915050565b7f45524332303a2064656372656173656420616c6c6f77616e63652062656c6f7760008201527f207a65726f000000000000000000000000000000000000000000000000000000602082015250565b6000611291602583610dd8565b915061129c82611235565b604082019050919050565b600060208201905081810360008301526112c081611284565b9050919050565b7f4f776e61626c653a206e6577206f776e657220697320746865207a65726f206160008201527f6464726573730000000000000000000000000000000000000000000000000000602082015250565b6000611323602683610dd8565b915061132e826112c7565b604082019050919050565b6000602082019050818103600083015261135281611316565b9050919050565b7f45524332303a20617070726f76652066726f6d20746865207a65726f2061646460008201527f7265737300000000000000000000000000000000000000000000000000000000602082015250565b60006113b5602483610dd8565b91506113c082611359565b604082019050919050565b600060208201905081810360008301526113e4816113a8565b9050919050565b7f45524332303a20617070726f766520746f20746865207a65726f20616464726560008201527f7373000000000000000000000000000000000000000000000000000000000000602082015250565b6000611447602283610dd8565b9150611452826113eb565b604082019050919050565b600060208201905081810360008301526114768161143a565b9050919050565b7f45524332303a20696e73756666696369656e7420616c6c6f77616e6365000000600082015250565b60006114b3601d83610dd8565b91506114be8261147d565b602082019050919050565b600060208201905081810360008301526114e2816114a6565b9050919050565b7f45524332303a207472616e736665722066726f6d20746865207a65726f20616460008201527f6472657373000000000000000000000000000000000000000000000000000000602082015250565b6000611545602583610dd8565b9150611550826114e9565b604082019050919050565b6000602082019050818103600083015261157481611538565b9050919050565b7f45524332303a207472616e7366657220746f20746865207a65726f206164647260008201527f6573730000000000000000000000000000000000000000000000000000000000602082015250565b60006115d7602383610dd8565b91506115e28261157b565b604082019050919050565b60006020820190508181036000830152611606816115ca565b9050919050565b7f45524332303a207472616e7366657220616d6f756e742065786365656473206260008201527f616c616e63650000000000000000000000000000000000000000000000000000602082015250565b6000611669602683610dd8565b91506116748261160d565b604082019050919050565b600060208201905081810360008301526116988161165c565b9050919050565b7f4f776e61626c653a2063616c6c6572206973206e6f7420746865206f776e6572600082015250565b60006116d5602083610dd8565b91506116e08261169f565b602082019050919050565b60006020820190508181036000830152611704816116c8565b905091905056fea26469706673582212209f68e6079e366ea41bd11d0c8b97d36014313fcbaeec6f796380f9f55c77c74c64736f6c63430008110033",
					"opcodes": "PUSH1 0x80 PUSH1 0x40 MSTORE CALLVALUE DUP1 ISZERO PUSH3 0x11 JUMPI PUSH1 0x0 DUP1 REVERT JUMPDEST POP PUSH1 0x40 MLOAD DUP1 PUSH1 0x40 ADD PUSH1 0x40 MSTORE DUP1 PUSH1 0x8 DUP2 MSTORE PUSH1 0x20 ADD PUSH32 0x434F494E53544152000000000000000000000000000000000000000000000000 DUP2 MSTORE POP PUSH1 0x40 MLOAD DUP1 PUSH1 0x40 ADD PUSH1 0x40 MSTORE DUP1 PUSH1 0x7 DUP2 MSTORE PUSH1 0x20 ADD PUSH32 0x434F495354415200000000000000000000000000000000000000000000000000 DUP2 MSTORE POP PUSH3 0x9E PUSH3 0x92 PUSH3 0xF1 PUSH1 0x20 SHL PUSH1 0x20 SHR JUMP JUMPDEST PUSH3 0xF9 PUSH1 0x20 SHL PUSH1 0x20 SHR JUMP JUMPDEST DUP2 PUSH1 0x4 SWAP1 DUP2 PUSH3 0xAF SWAP2 SWAP1 PUSH3 0x5D8 JUMP JUMPDEST POP DUP1 PUSH1 0x5 SWAP1 DUP2 PUSH3 0xC1 SWAP2 SWAP1 PUSH3 0x5D8 JUMP JUMPDEST POP POP POP PUSH3 0xEB PUSH3 0xD8 PUSH3 0x1BD PUSH1 0x20 SHL PUSH1 0x20 SHR JUMP JUMPDEST PUSH6 0x5AF3107A4000 PUSH3 0x1E6 PUSH1 0x20 SHL PUSH1 0x20 SHR JUMP JUMPDEST PUSH3 0x7DA JUMP JUMPDEST PUSH1 0x0 CALLER SWAP1 POP SWAP1 JUMP JUMPDEST PUSH1 0x0 DUP1 PUSH1 0x0 SWAP1 SLOAD SWAP1 PUSH2 0x100 EXP SWAP1 DIV PUSH20 0xFFFFFFFFFFFFFFFFFFFFFFFFFFFFFFFFFFFFFFFF AND SWAP1 POP DUP2 PUSH1 0x0 DUP1 PUSH2 0x100 EXP DUP2 SLOAD DUP2 PUSH20 0xFFFFFFFFFFFFFFFFFFFFFFFFFFFFFFFFFFFFFFFF MUL NOT AND SWAP1 DUP4 PUSH20 0xFFFFFFFFFFFFFFFFFFFFFFFFFFFFFFFFFFFFFFFF AND MUL OR SWAP1 SSTORE POP DUP2 PUSH20 0xFFFFFFFFFFFFFFFFFFFFFFFFFFFFFFFFFFFFFFFF AND DUP2 PUSH20 0xFFFFFFFFFFFFFFFFFFFFFFFFFFFFFFFFFFFFFFFF AND PUSH32 0x8BE0079C531659141344CD1FD0A4F28419497F9722A3DAAFE3B4186F6B6457E0 PUSH1 0x40 MLOAD PUSH1 0x40 MLOAD DUP1 SWAP2 SUB SWAP1 LOG3 POP POP JUMP JUMPDEST PUSH1 0x0 DUP1 PUSH1 0x0 SWAP1 SLOAD SWAP1 PUSH2 0x100 EXP SWAP1 DIV PUSH20 0xFFFFFFFFFFFFFFFFFFFFFFFFFFFFFFFFFFFFFFFF AND SWAP1 POP SWAP1 JUMP JUMPDEST PUSH1 0x0 PUSH20 0xFFFFFFFFFFFFFFFFFFFFFFFFFFFFFFFFFFFFFFFF AND DUP3 PUSH20 0xFFFFFFFFFFFFFFFFFFFFFFFFFFFFFFFFFFFFFFFF AND SUB PUSH3 0x258 JUMPI PUSH1 0x40 MLOAD PUSH32 0x8C379A000000000000000000000000000000000000000000000000000000000 DUP2 MSTORE PUSH1 0x4 ADD PUSH3 0x24F SWAP1 PUSH3 0x720 JUMP JUMPDEST PUSH1 0x40 MLOAD DUP1 SWAP2 SUB SWAP1 REVERT JUMPDEST PUSH3 0x26C PUSH1 0x0 DUP4 DUP4 PUSH3 0x354 PUSH1 0x20 SHL PUSH1 0x20 SHR JUMP JUMPDEST DUP1 PUSH1 0x3 PUSH1 0x0 DUP3 DUP3 SLOAD PUSH3 0x280 SWAP2 SWAP1 PUSH3 0x771 JUMP JUMPDEST SWAP3 POP POP DUP2 SWAP1 SSTORE POP DUP1 PUSH1 0x1 PUSH1 0x0 DUP5 PUSH20 0xFFFFFFFFFFFFFFFFFFFFFFFFFFFFFFFFFFFFFFFF AND PUSH20 0xFFFFFFFFFFFFFFFFFFFFFFFFFFFFFFFFFFFFFFFF AND DUP2 MSTORE PUSH1 0x20 ADD SWAP1 DUP2 MSTORE PUSH1 0x20 ADD PUSH1 0x0 KECCAK256 PUSH1 0x0 DUP3 DUP3 SLOAD ADD SWAP3 POP POP DUP2 SWAP1 SSTORE POP DUP2 PUSH20 0xFFFFFFFFFFFFFFFFFFFFFFFFFFFFFFFFFFFFFFFF AND PUSH1 0x0 PUSH20 0xFFFFFFFFFFFFFFFFFFFFFFFFFFFFFFFFFFFFFFFF AND PUSH32 0xDDF252AD1BE2C89B69C2B068FC378DAA952BA7F163C4A11628F55A4DF523B3EF DUP4 PUSH1 0x40 MLOAD PUSH3 0x334 SWAP2 SWAP1 PUSH3 0x7BD JUMP JUMPDEST PUSH1 0x40 MLOAD DUP1 SWAP2 SUB SWAP1 LOG3 PUSH3 0x350 PUSH1 0x0 DUP4 DUP4 PUSH3 0x359 PUSH1 0x20 SHL PUSH1 0x20 SHR JUMP JUMPDEST POP POP JUMP JUMPDEST POP POP POP JUMP JUMPDEST POP POP POP JUMP JUMPDEST PUSH1 0x0 DUP2 MLOAD SWAP1 POP SWAP2 SWAP1 POP JUMP JUMPDEST PUSH32 0x4E487B7100000000000000000000000000000000000000000000000000000000 PUSH1 0x0 MSTORE PUSH1 0x41 PUSH1 0x4 MSTORE PUSH1 0x24 PUSH1 0x0 REVERT JUMPDEST PUSH32 0x4E487B7100000000000000000000000000000000000000000000000000000000 PUSH1 0x0 MSTORE PUSH1 0x22 PUSH1 0x4 MSTORE PUSH1 0x24 PUSH1 0x0 REVERT JUMPDEST PUSH1 0x0 PUSH1 0x2 DUP3 DIV SWAP1 POP PUSH1 0x1 DUP3 AND DUP1 PUSH3 0x3E0 JUMPI PUSH1 0x7F DUP3 AND SWAP2 POP JUMPDEST PUSH1 0x20 DUP3 LT DUP2 SUB PUSH3 0x3F6 JUMPI PUSH3 0x3F5 PUSH3 0x398 JUMP JUMPDEST JUMPDEST POP SWAP2 SWAP1 POP JUMP JUMPDEST PUSH1 0x0 DUP2 SWAP1 POP DUP2 PUSH1 0x0 MSTORE PUSH1 0x20 PUSH1 0x0 KECCAK256 SWAP1 POP SWAP2 SWAP1 POP JUMP JUMPDEST PUSH1 0x0 PUSH1 0x20 PUSH1 0x1F DUP4 ADD DIV SWAP1 POP SWAP2 SWAP1 POP JUMP JUMPDEST PUSH1 0x0 DUP3 DUP3 SHL SWAP1 POP SWAP3 SWAP2 POP POP JUMP JUMPDEST PUSH1 0x0 PUSH1 0x8 DUP4 MUL PUSH3 0x460 PUSH32 0xFFFFFFFFFFFFFFFFFFFFFFFFFFFFFFFFFFFFFFFFFFFFFFFFFFFFFFFFFFFFFFFF DUP3 PUSH3 0x421 JUMP JUMPDEST PUSH3 0x46C DUP7 DUP4 PUSH3 0x421 JUMP JUMPDEST SWAP6 POP DUP1 NOT DUP5 AND SWAP4 POP DUP1 DUP7 AND DUP5 OR SWAP3 POP POP POP SWAP4 SWAP3 POP POP POP JUMP JUMPDEST PUSH1 0x0 DUP2 SWAP1 POP SWAP2 SWAP1 POP JUMP JUMPDEST PUSH1 0x0 DUP2 SWAP1 POP SWAP2 SWAP1 POP JUMP JUMPDEST PUSH1 0x0 PUSH3 0x4B9 PUSH3 0x4B3 PUSH3 0x4AD DUP5 PUSH3 0x484 JUMP JUMPDEST PUSH3 0x48E JUMP JUMPDEST PUSH3 0x484 JUMP JUMPDEST SWAP1 POP SWAP2 SWAP1 POP JUMP JUMPDEST PUSH1 0x0 DUP2 SWAP1 POP SWAP2 SWAP1 POP JUMP JUMPDEST PUSH3 0x4D5 DUP4 PUSH3 0x498 JUMP JUMPDEST PUSH3 0x4ED PUSH3 0x4E4 DUP3 PUSH3 0x4C0 JUMP JUMPDEST DUP5 DUP5 SLOAD PUSH3 0x42E JUMP JUMPDEST DUP3 SSTORE POP POP POP POP JUMP JUMPDEST PUSH1 0x0 SWAP1 JUMP JUMPDEST PUSH3 0x504 PUSH3 0x4F5 JUMP JUMPDEST PUSH3 0x511 DUP2 DUP5 DUP5 PUSH3 0x4CA JUMP JUMPDEST POP POP POP JUMP JUMPDEST JUMPDEST DUP2 DUP2 LT ISZERO PUSH3 0x539 JUMPI PUSH3 0x52D PUSH1 0x0 DUP3 PUSH3 0x4FA JUMP JUMPDEST PUSH1 0x1 DUP2 ADD SWAP1 POP PUSH3 0x517 JUMP JUMPDEST POP POP JUMP JUMPDEST PUSH1 0x1F DUP3 GT ISZERO PUSH3 0x588 JUMPI PUSH3 0x552 DUP2 PUSH3 0x3FC JUMP JUMPDEST PUSH3 0x55D DUP5 PUSH3 0x411 JUMP JUMPDEST DUP2 ADD PUSH1 0x20 DUP6 LT ISZERO PUSH3 0x56D JUMPI DUP2 SWAP1 POP JUMPDEST PUSH3 0x585 PUSH3 0x57C DUP6 PUSH3 0x411 JUMP JUMPDEST DUP4 ADD DUP3 PUSH3 0x516 JUMP JUMPDEST POP POP JUMPDEST POP POP POP JUMP JUMPDEST PUSH1 0x0 DUP3 DUP3 SHR SWAP1 POP SWAP3 SWAP2 POP POP JUMP JUMPDEST PUSH1 0x0 PUSH3 0x5AD PUSH1 0x0 NOT DUP5 PUSH1 0x8 MUL PUSH3 0x58D JUMP JUMPDEST NOT DUP1 DUP4 AND SWAP2 POP POP SWAP3 SWAP2 POP POP JUMP JUMPDEST PUSH1 0x0 PUSH3 0x5C8 DUP4 DUP4 PUSH3 0x59A JUMP JUMPDEST SWAP2 POP DUP3 PUSH1 0x2 MUL DUP3 OR SWAP1 POP SWAP3 SWAP2 POP POP JUMP JUMPDEST PUSH3 0x5E3 DUP3 PUSH3 0x35E JUMP JUMPDEST PUSH8 0xFFFFFFFFFFFFFFFF DUP2 GT ISZERO PUSH3 0x5FF JUMPI PUSH3 0x5FE PUSH3 0x369 JUMP JUMPDEST JUMPDEST PUSH3 0x60B DUP3 SLOAD PUSH3 0x3C7 JUMP JUMPDEST PUSH3 0x618 DUP3 DUP3 DUP6 PUSH3 0x53D JUMP JUMPDEST PUSH1 0x0 PUSH1 0x20 SWAP1 POP PUSH1 0x1F DUP4 GT PUSH1 0x1 DUP2 EQ PUSH3 0x650 JUMPI PUSH1 0x0 DUP5 ISZERO PUSH3 0x63B JUMPI DUP3 DUP8 ADD MLOAD SWAP1 POP JUMPDEST PUSH3 0x647 DUP6 DUP3 PUSH3 0x5BA JUMP JUMPDEST DUP7 SSTORE POP PUSH3 0x6B7 JUMP JUMPDEST PUSH1 0x1F NOT DUP5 AND PUSH3 0x660 DUP7 PUSH3 0x3FC JUMP JUMPDEST PUSH1 0x0 JUMPDEST DUP3 DUP2 LT ISZERO PUSH3 0x68A JUMPI DUP5 DUP10 ADD MLOAD DUP3 SSTORE PUSH1 0x1 DUP3 ADD SWAP2 POP PUSH1 0x20 DUP6 ADD SWAP5 POP PUSH1 0x20 DUP2 ADD SWAP1 POP PUSH3 0x663 JUMP JUMPDEST DUP7 DUP4 LT ISZERO PUSH3 0x6AA JUMPI DUP5 DUP10 ADD MLOAD PUSH3 0x6A6 PUSH1 0x1F DUP10 AND DUP3 PUSH3 0x59A JUMP JUMPDEST DUP4 SSTORE POP JUMPDEST PUSH1 0x1 PUSH1 0x2 DUP9 MUL ADD DUP9 SSTORE POP POP POP JUMPDEST POP POP POP POP POP POP JUMP JUMPDEST PUSH1 0x0 DUP3 DUP3 MSTORE PUSH1 0x20 DUP3 ADD SWAP1 POP SWAP3 SWAP2 POP POP JUMP JUMPDEST PUSH32 0x45524332303A206D696E7420746F20746865207A65726F206164647265737300 PUSH1 0x0 DUP3 ADD MSTORE POP JUMP JUMPDEST PUSH1 0x0 PUSH3 0x708 PUSH1 0x1F DUP4 PUSH3 0x6BF JUMP JUMPDEST SWAP2 POP PUSH3 0x715 DUP3 PUSH3 0x6D0 JUMP JUMPDEST PUSH1 0x20 DUP3 ADD SWAP1 POP SWAP2 SWAP1 POP JUMP JUMPDEST PUSH1 0x0 PUSH1 0x20 DUP3 ADD SWAP1 POP DUP2 DUP2 SUB PUSH1 0x0 DUP4 ADD MSTORE PUSH3 0x73B DUP2 PUSH3 0x6F9 JUMP JUMPDEST SWAP1 POP SWAP2 SWAP1 POP JUMP JUMPDEST PUSH32 0x4E487B7100000000000000000000000000000000000000000000000000000000 PUSH1 0x0 MSTORE PUSH1 0x11 PUSH1 0x4 MSTORE PUSH1 0x24 PUSH1 0x0 REVERT JUMPDEST PUSH1 0x0 PUSH3 0x77E DUP3 PUSH3 0x484 JUMP JUMPDEST SWAP2 POP PUSH3 0x78B DUP4 PUSH3 0x484 JUMP JUMPDEST SWAP3 POP DUP3 DUP3 ADD SWAP1 POP DUP1 DUP3 GT ISZERO PUSH3 0x7A6 JUMPI PUSH3 0x7A5 PUSH3 0x742 JUMP JUMPDEST JUMPDEST SWAP3 SWAP2 POP POP JUMP JUMPDEST PUSH3 0x7B7 DUP2 PUSH3 0x484 JUMP JUMPDEST DUP3 MSTORE POP POP JUMP JUMPDEST PUSH1 0x0 PUSH1 0x20 DUP3 ADD SWAP1 POP PUSH3 0x7D4 PUSH1 0x0 DUP4 ADD DUP5 PUSH3 0x7AC JUMP JUMPDEST SWAP3 SWAP2 POP POP JUMP JUMPDEST PUSH2 0x1741 DUP1 PUSH3 0x7EA PUSH1 0x0 CODECOPY PUSH1 0x0 RETURN INVALID PUSH1 0x80 PUSH1 0x40 MSTORE CALLVALUE DUP1 ISZERO PUSH2 0x10 JUMPI PUSH1 0x0 DUP1 REVERT JUMPDEST POP PUSH1 0x4 CALLDATASIZE LT PUSH2 0x100 JUMPI PUSH1 0x0 CALLDATALOAD PUSH1 0xE0 SHR DUP1 PUSH4 0x715018A6 GT PUSH2 0x97 JUMPI DUP1 PUSH4 0xA9059CBB GT PUSH2 0x66 JUMPI DUP1 PUSH4 0xA9059CBB EQ PUSH2 0x2B1 JUMPI DUP1 PUSH4 0xB45EE9EF EQ PUSH2 0x2E1 JUMPI DUP1 PUSH4 0xDD62ED3E EQ PUSH2 0x2FD JUMPI DUP1 PUSH4 0xF2FDE38B EQ PUSH2 0x32D JUMPI PUSH2 0x100 JUMP JUMPDEST DUP1 PUSH4 0x715018A6 EQ PUSH2 0x23B JUMPI DUP1 PUSH4 0x8DA5CB5B EQ PUSH2 0x245 JUMPI DUP1 PUSH4 0x95D89B41 EQ PUSH2 0x263 JUMPI DUP1 PUSH4 0xA457C2D7 EQ PUSH2 0x281 JUMPI PUSH2 0x100 JUMP JUMPDEST DUP1 PUSH4 0x2E1A7D4D GT PUSH2 0xD3 JUMPI DUP1 PUSH4 0x2E1A7D4D EQ PUSH2 0x1A1 JUMPI DUP1 PUSH4 0x313CE567 EQ PUSH2 0x1BD JUMPI DUP1 PUSH4 0x39509351 EQ PUSH2 0x1DB JUMPI DUP1 PUSH4 0x70A08231 EQ PUSH2 0x20B JUMPI PUSH2 0x100 JUMP JUMPDEST DUP1 PUSH4 0x6FDDE03 EQ PUSH2 0x105 JUMPI DUP1 PUSH4 0x95EA7B3 EQ PUSH2 0x123 JUMPI DUP1 PUSH4 0x18160DDD EQ PUSH2 0x153 JUMPI DUP1 PUSH4 0x23B872DD EQ PUSH2 0x171 JUMPI JUMPDEST PUSH1 0x0 DUP1 REVERT JUMPDEST PUSH2 0x10D PUSH2 0x349 JUMP JUMPDEST PUSH1 0x40 MLOAD PUSH2 0x11A SWAP2 SWAP1 PUSH2 0xE5D JUMP JUMPDEST PUSH1 0x40 MLOAD DUP1 SWAP2 SUB SWAP1 RETURN JUMPDEST PUSH2 0x13D PUSH1 0x4 DUP1 CALLDATASIZE SUB DUP2 ADD SWAP1 PUSH2 0x138 SWAP2 SWAP1 PUSH2 0xF18 JUMP JUMPDEST PUSH2 0x3DB JUMP JUMPDEST PUSH1 0x40 MLOAD PUSH2 0x14A SWAP2 SWAP1 PUSH2 0xF73 JUMP JUMPDEST PUSH1 0x40 MLOAD DUP1 SWAP2 SUB SWAP1 RETURN JUMPDEST PUSH2 0x15B PUSH2 0x3FE JUMP JUMPDEST PUSH1 0x40 MLOAD PUSH2 0x168 SWAP2 SWAP1 PUSH2 0xF9D JUMP JUMPDEST PUSH1 0x40 MLOAD DUP1 SWAP2 SUB SWAP1 RETURN JUMPDEST PUSH2 0x18B PUSH1 0x4 DUP1 CALLDATASIZE SUB DUP2 ADD SWAP1 PUSH2 0x186 SWAP2 SWAP1 PUSH2 0xFB8 JUMP JUMPDEST PUSH2 0x408 JUMP JUMPDEST PUSH1 0x40 MLOAD PUSH2 0x198 SWAP2 SWAP1 PUSH2 0xF73 JUMP JUMPDEST PUSH1 0x40 MLOAD DUP1 SWAP2 SUB SWAP1 RETURN JUMPDEST PUSH2 0x1BB PUSH1 0x4 DUP1 CALLDATASIZE SUB DUP2 ADD SWAP1 PUSH2 0x1B6 SWAP2 SWAP1 PUSH2 0x100B JUMP JUMPDEST PUSH2 0x437 JUMP JUMPDEST STOP JUMPDEST PUSH2 0x1C5 PUSH2 0x49F JUMP JUMPDEST PUSH1 0x40 MLOAD PUSH2 0x1D2 SWAP2 SWAP1 PUSH2 0x1054 JUMP JUMPDEST PUSH1 0x40 MLOAD DUP1 SWAP2 SUB SWAP1 RETURN JUMPDEST PUSH2 0x1F5 PUSH1 0x4 DUP1 CALLDATASIZE SUB DUP2 ADD SWAP1 PUSH2 0x1F0 SWAP2 SWAP1 PUSH2 0xF18 JUMP JUMPDEST PUSH2 0x4A8 JUMP JUMPDEST PUSH1 0x40 MLOAD PUSH2 0x202 SWAP2 SWAP1 PUSH2 0xF73 JUMP JUMPDEST PUSH1 0x40 MLOAD DUP1 SWAP2 SUB SWAP1 RETURN JUMPDEST PUSH2 0x225 PUSH1 0x4 DUP1 CALLDATASIZE SUB DUP2 ADD SWAP1 PUSH2 0x220 SWAP2 SWAP1 PUSH2 0x106F JUMP JUMPDEST PUSH2 0x4DF JUMP JUMPDEST PUSH1 0x40 MLOAD PUSH2 0x232 SWAP2 SWAP1 PUSH2 0xF9D JUMP JUMPDEST PUSH1 0x40 MLOAD DUP1 SWAP2 SUB SWAP1 RETURN JUMPDEST PUSH2 0x243 PUSH2 0x528 JUMP JUMPDEST STOP JUMPDEST PUSH2 0x24D PUSH2 0x53C JUMP JUMPDEST PUSH1 0x40 MLOAD PUSH2 0x25A SWAP2 SWAP1 PUSH2 0x10AB JUMP JUMPDEST PUSH1 0x40 MLOAD DUP1 SWAP2 SUB SWAP1 RETURN JUMPDEST PUSH2 0x26B PUSH2 0x565 JUMP JUMPDEST PUSH1 0x40 MLOAD PUSH2 0x278 SWAP2 SWAP1 PUSH2 0xE5D JUMP JUMPDEST PUSH1 0x40 MLOAD DUP1 SWAP2 SUB SWAP1 RETURN JUMPDEST PUSH2 0x29B PUSH1 0x4 DUP1 CALLDATASIZE SUB DUP2 ADD SWAP1 PUSH2 0x296 SWAP2 SWAP1 PUSH2 0xF18 JUMP JUMPDEST PUSH2 0x5F7 JUMP JUMPDEST PUSH1 0x40 MLOAD PUSH2 0x2A8 SWAP2 SWAP1 PUSH2 0xF73 JUMP JUMPDEST PUSH1 0x40 MLOAD DUP1 SWAP2 SUB SWAP1 RETURN JUMPDEST PUSH2 0x2CB PUSH1 0x4 DUP1 CALLDATASIZE SUB DUP2 ADD SWAP1 PUSH2 0x2C6 SWAP2 SWAP1 PUSH2 0xF18 JUMP JUMPDEST PUSH2 0x66E JUMP JUMPDEST PUSH1 0x40 MLOAD PUSH2 0x2D8 SWAP2 SWAP1 PUSH2 0xF73 JUMP JUMPDEST PUSH1 0x40 MLOAD DUP1 SWAP2 SUB SWAP1 RETURN JUMPDEST PUSH2 0x2FB PUSH1 0x4 DUP1 CALLDATASIZE SUB DUP2 ADD SWAP1 PUSH2 0x2F6 SWAP2 SWAP1 PUSH2 0xFB8 JUMP JUMPDEST PUSH2 0x691 JUMP JUMPDEST STOP JUMPDEST PUSH2 0x317 PUSH1 0x4 DUP1 CALLDATASIZE SUB DUP2 ADD SWAP1 PUSH2 0x312 SWAP2 SWAP1 PUSH2 0x10C6 JUMP JUMPDEST PUSH2 0x6A1 JUMP JUMPDEST PUSH1 0x40 MLOAD PUSH2 0x324 SWAP2 SWAP1 PUSH2 0xF9D JUMP JUMPDEST PUSH1 0x40 MLOAD DUP1 SWAP2 SUB SWAP1 RETURN JUMPDEST PUSH2 0x347 PUSH1 0x4 DUP1 CALLDATASIZE SUB DUP2 ADD SWAP1 PUSH2 0x342 SWAP2 SWAP1 PUSH2 0x106F JUMP JUMPDEST PUSH2 0x728 JUMP JUMPDEST STOP JUMPDEST PUSH1 0x60 PUSH1 0x4 DUP1 SLOAD PUSH2 0x358 SWAP1 PUSH2 0x1135 JUMP JUMPDEST DUP1 PUSH1 0x1F ADD PUSH1 0x20 DUP1 SWAP2 DIV MUL PUSH1 0x20 ADD PUSH1 0x40 MLOAD SWAP1 DUP2 ADD PUSH1 0x40 MSTORE DUP1 SWAP3 SWAP2 SWAP1 DUP2 DUP2 MSTORE PUSH1 0x20 ADD DUP3 DUP1 SLOAD PUSH2 0x384 SWAP1 PUSH2 0x1135 JUMP JUMPDEST DUP1 ISZERO PUSH2 0x3D1 JUMPI DUP1 PUSH1 0x1F LT PUSH2 0x3A6 JUMPI PUSH2 0x100 DUP1 DUP4 SLOAD DIV MUL DUP4 MSTORE SWAP2 PUSH1 0x20 ADD SWAP2 PUSH2 0x3D1 JUMP JUMPDEST DUP3 ADD SWAP2 SWAP1 PUSH1 0x0 MSTORE PUSH1 0x20 PUSH1 0x0 KECCAK256 SWAP1 JUMPDEST DUP2 SLOAD DUP2 MSTORE SWAP1 PUSH1 0x1 ADD SWAP1 PUSH1 0x20 ADD DUP1 DUP4 GT PUSH2 0x3B4 JUMPI DUP3 SWAP1 SUB PUSH1 0x1F AND DUP3 ADD SWAP2 JUMPDEST POP POP POP POP POP SWAP1 POP SWAP1 JUMP JUMPDEST PUSH1 0x0 DUP1 PUSH2 0x3E6 PUSH2 0x7AB JUMP JUMPDEST SWAP1 POP PUSH2 0x3F3 DUP2 DUP6 DUP6 PUSH2 0x7B3 JUMP JUMPDEST PUSH1 0x1 SWAP2 POP POP SWAP3 SWAP2 POP POP JUMP JUMPDEST PUSH1 0x0 PUSH1 0x3 SLOAD SWAP1 POP SWAP1 JUMP JUMPDEST PUSH1 0x0 DUP1 PUSH2 0x413 PUSH2 0x7AB JUMP JUMPDEST SWAP1 POP PUSH2 0x420 DUP6 DUP3 DUP6 PUSH2 0x97C JUMP JUMPDEST PUSH2 0x42B DUP6 DUP6 DUP6 PUSH2 0xA08 JUMP JUMPDEST PUSH1 0x1 SWAP2 POP POP SWAP4 SWAP3 POP POP POP JUMP JUMPDEST PUSH2 0x43F PUSH2 0xC81 JUMP JUMPDEST PUSH1 0x0 PUSH2 0x44A ADDRESS PUSH2 0x4DF JUMP JUMPDEST GT PUSH2 0x48A JUMPI PUSH1 0x40 MLOAD PUSH32 0x8C379A000000000000000000000000000000000000000000000000000000000 DUP2 MSTORE PUSH1 0x4 ADD PUSH2 0x481 SWAP1 PUSH2 0x11B2 JUMP JUMPDEST PUSH1 0x40 MLOAD DUP1 SWAP2 SUB SWAP1 REVERT JUMPDEST PUSH2 0x49C ADDRESS PUSH2 0x496 PUSH2 0x53C JUMP JUMPDEST DUP4 PUSH2 0x691 JUMP JUMPDEST POP JUMP JUMPDEST PUSH1 0x0 PUSH1 0x9 SWAP1 POP SWAP1 JUMP JUMPDEST PUSH1 0x0 DUP1 PUSH2 0x4B3 PUSH2 0x7AB JUMP JUMPDEST SWAP1 POP PUSH2 0x4D4 DUP2 DUP6 DUP6 PUSH2 0x4C5 DUP6 DUP10 PUSH2 0x6A1 JUMP JUMPDEST PUSH2 0x4CF SWAP2 SWAP1 PUSH2 0x1201 JUMP JUMPDEST PUSH2 0x7B3 JUMP JUMPDEST PUSH1 0x1 SWAP2 POP POP SWAP3 SWAP2 POP POP JUMP JUMPDEST PUSH1 0x0 PUSH1 0x1 PUSH1 0x0 DUP4 PUSH20 0xFFFFFFFFFFFFFFFFFFFFFFFFFFFFFFFFFFFFFFFF AND PUSH20 0xFFFFFFFFFFFFFFFFFFFFFFFFFFFFFFFFFFFFFFFF AND DUP2 MSTORE PUSH1 0x20 ADD SWAP1 DUP2 MSTORE PUSH1 0x20 ADD PUSH1 0x0 KECCAK256 SLOAD SWAP1 POP SWAP2 SWAP1 POP JUMP JUMPDEST PUSH2 0x530 PUSH2 0xC81 JUMP JUMPDEST PUSH2 0x53A PUSH1 0x0 PUSH2 0xCFF JUMP JUMPDEST JUMP JUMPDEST PUSH1 0x0 DUP1 PUSH1 0x0 SWAP1 SLOAD SWAP1 PUSH2 0x100 EXP SWAP1 DIV PUSH20 0xFFFFFFFFFFFFFFFFFFFFFFFFFFFFFFFFFFFFFFFF AND SWAP1 POP SWAP1 JUMP JUMPDEST PUSH1 0x60 PUSH1 0x5 DUP1 SLOAD PUSH2 0x574 SWAP1 PUSH2 0x1135 JUMP JUMPDEST DUP1 PUSH1 0x1F ADD PUSH1 0x20 DUP1 SWAP2 DIV MUL PUSH1 0x20 ADD PUSH1 0x40 MLOAD SWAP1 DUP2 ADD PUSH1 0x40 MSTORE DUP1 SWAP3 SWAP2 SWAP1 DUP2 DUP2 MSTORE PUSH1 0x20 ADD DUP3 DUP1 SLOAD PUSH2 0x5A0 SWAP1 PUSH2 0x1135 JUMP JUMPDEST DUP1 ISZERO PUSH2 0x5ED JUMPI DUP1 PUSH1 0x1F LT PUSH2 0x5C2 JUMPI PUSH2 0x100 DUP1 DUP4 SLOAD DIV MUL DUP4 MSTORE SWAP2 PUSH1 0x20 ADD SWAP2 PUSH2 0x5ED JUMP JUMPDEST DUP3 ADD SWAP2 SWAP1 PUSH1 0x0 MSTORE PUSH1 0x20 PUSH1 0x0 KECCAK256 SWAP1 JUMPDEST DUP2 SLOAD DUP2 MSTORE SWAP1 PUSH1 0x1 ADD SWAP1 PUSH1 0x20 ADD DUP1 DUP4 GT PUSH2 0x5D0 JUMPI DUP3 SWAP1 SUB PUSH1 0x1F AND DUP3 ADD SWAP2 JUMPDEST POP POP POP POP POP SWAP1 POP SWAP1 JUMP JUMPDEST PUSH1 0x0 DUP1 PUSH2 0x602 PUSH2 0x7AB JUMP JUMPDEST SWAP1 POP PUSH1 0x0 PUSH2 0x610 DUP3 DUP7 PUSH2 0x6A1 JUMP JUMPDEST SWAP1 POP DUP4 DUP2 LT ISZERO PUSH2 0x655 JUMPI PUSH1 0x40 MLOAD PUSH32 0x8C379A000000000000000000000000000000000000000000000000000000000 DUP2 MSTORE PUSH1 0x4 ADD PUSH2 0x64C SWAP1 PUSH2 0x12A7 JUMP JUMPDEST PUSH1 0x40 MLOAD DUP1 SWAP2 SUB SWAP1 REVERT JUMPDEST PUSH2 0x662 DUP3 DUP7 DUP7 DUP5 SUB PUSH2 0x7B3 JUMP JUMPDEST PUSH1 0x1 SWAP3 POP POP POP SWAP3 SWAP2 POP POP JUMP JUMPDEST PUSH1 0x0 DUP1 PUSH2 0x679 PUSH2 0x7AB JUMP JUMPDEST SWAP1 POP PUSH2 0x686 DUP2 DUP6 DUP6 PUSH2 0xA08 JUMP JUMPDEST PUSH1 0x1 SWAP2 POP POP SWAP3 SWAP2 POP POP JUMP JUMPDEST PUSH2 0x69C DUP4 DUP4 DUP4 PUSH2 0xA08 JUMP JUMPDEST POP POP POP JUMP JUMPDEST PUSH1 0x0 PUSH1 0x2 PUSH1 0x0 DUP5 PUSH20 0xFFFFFFFFFFFFFFFFFFFFFFFFFFFFFFFFFFFFFFFF AND PUSH20 0xFFFFFFFFFFFFFFFFFFFFFFFFFFFFFFFFFFFFFFFF AND DUP2 MSTORE PUSH1 0x20 ADD SWAP1 DUP2 MSTORE PUSH1 0x20 ADD PUSH1 0x0 KECCAK256 PUSH1 0x0 DUP4 PUSH20 0xFFFFFFFFFFFFFFFFFFFFFFFFFFFFFFFFFFFFFFFF AND PUSH20 0xFFFFFFFFFFFFFFFFFFFFFFFFFFFFFFFFFFFFFFFF AND DUP2 MSTORE PUSH1 0x20 ADD SWAP1 DUP2 MSTORE PUSH1 0x20 ADD PUSH1 0x0 KECCAK256 SLOAD SWAP1 POP SWAP3 SWAP2 POP POP JUMP JUMPDEST PUSH2 0x730 PUSH2 0xC81 JUMP JUMPDEST PUSH1 0x0 PUSH20 0xFFFFFFFFFFFFFFFFFFFFFFFFFFFFFFFFFFFFFFFF AND DUP2 PUSH20 0xFFFFFFFFFFFFFFFFFFFFFFFFFFFFFFFFFFFFFFFF AND SUB PUSH2 0x79F JUMPI PUSH1 0x40 MLOAD PUSH32 0x8C379A000000000000000000000000000000000000000000000000000000000 DUP2 MSTORE PUSH1 0x4 ADD PUSH2 0x796 SWAP1 PUSH2 0x1339 JUMP JUMPDEST PUSH1 0x40 MLOAD DUP1 SWAP2 SUB SWAP1 REVERT JUMPDEST PUSH2 0x7A8 DUP2 PUSH2 0xCFF JUMP JUMPDEST POP JUMP JUMPDEST PUSH1 0x0 CALLER SWAP1 POP SWAP1 JUMP JUMPDEST PUSH1 0x0 PUSH20 0xFFFFFFFFFFFFFFFFFFFFFFFFFFFFFFFFFFFFFFFF AND DUP4 PUSH20 0xFFFFFFFFFFFFFFFFFFFFFFFFFFFFFFFFFFFFFFFF AND SUB PUSH2 0x822 JUMPI PUSH1 0x40 MLOAD PUSH32 0x8C379A000000000000000000000000000000000000000000000000000000000 DUP2 MSTORE PUSH1 0x4 ADD PUSH2 0x819 SWAP1 PUSH2 0x13CB JUMP JUMPDEST PUSH1 0x40 MLOAD DUP1 SWAP2 SUB SWAP1 REVERT JUMPDEST PUSH1 0x0 PUSH20 0xFFFFFFFFFFFFFFFFFFFFFFFFFFFFFFFFFFFFFFFF AND DUP3 PUSH20 0xFFFFFFFFFFFFFFFFFFFFFFFFFFFFFFFFFFFFFFFF AND SUB PUSH2 0x891 JUMPI PUSH1 0x40 MLOAD PUSH32 0x8C379A000000000000000000000000000000000000000000000000000000000 DUP2 MSTORE PUSH1 0x4 ADD PUSH2 0x888 SWAP1 PUSH2 0x145D JUMP JUMPDEST PUSH1 0x40 MLOAD DUP1 SWAP2 SUB SWAP1 REVERT JUMPDEST DUP1 PUSH1 0x2 PUSH1 0x0 DUP6 PUSH20 0xFFFFFFFFFFFFFFFFFFFFFFFFFFFFFFFFFFFFFFFF AND PUSH20 0xFFFFFFFFFFFFFFFFFFFFFFFFFFFFFFFFFFFFFFFF AND DUP2 MSTORE PUSH1 0x20 ADD SWAP1 DUP2 MSTORE PUSH1 0x20 ADD PUSH1 0x0 KECCAK256 PUSH1 0x0 DUP5 PUSH20 0xFFFFFFFFFFFFFFFFFFFFFFFFFFFFFFFFFFFFFFFF AND PUSH20 0xFFFFFFFFFFFFFFFFFFFFFFFFFFFFFFFFFFFFFFFF AND DUP2 MSTORE PUSH1 0x20 ADD SWAP1 DUP2 MSTORE PUSH1 0x20 ADD PUSH1 0x0 KECCAK256 DUP2 SWAP1 SSTORE POP DUP2 PUSH20 0xFFFFFFFFFFFFFFFFFFFFFFFFFFFFFFFFFFFFFFFF AND DUP4 PUSH20 0xFFFFFFFFFFFFFFFFFFFFFFFFFFFFFFFFFFFFFFFF AND PUSH32 0x8C5BE1E5EBEC7D5BD14F71427D1E84F3DD0314C0F7B2291E5B200AC8C7C3B925 DUP4 PUSH1 0x40 MLOAD PUSH2 0x96F SWAP2 SWAP1 PUSH2 0xF9D JUMP JUMPDEST PUSH1 0x40 MLOAD DUP1 SWAP2 SUB SWAP1 LOG3 POP POP POP JUMP JUMPDEST PUSH1 0x0 PUSH2 0x988 DUP5 DUP5 PUSH2 0x6A1 JUMP JUMPDEST SWAP1 POP PUSH32 0xFFFFFFFFFFFFFFFFFFFFFFFFFFFFFFFFFFFFFFFFFFFFFFFFFFFFFFFFFFFFFFFF DUP2 EQ PUSH2 0xA02 JUMPI DUP2 DUP2 LT ISZERO PUSH2 0x9F4 JUMPI PUSH1 0x40 MLOAD PUSH32 0x8C379A000000000000000000000000000000000000000000000000000000000 DUP2 MSTORE PUSH1 0x4 ADD PUSH2 0x9EB SWAP1 PUSH2 0x14C9 JUMP JUMPDEST PUSH1 0x40 MLOAD DUP1 SWAP2 SUB SWAP1 REVERT JUMPDEST PUSH2 0xA01 DUP5 DUP5 DUP5 DUP5 SUB PUSH2 0x7B3 JUMP JUMPDEST JUMPDEST POP POP POP POP JUMP JUMPDEST PUSH1 0x0 PUSH20 0xFFFFFFFFFFFFFFFFFFFFFFFFFFFFFFFFFFFFFFFF AND DUP4 PUSH20 0xFFFFFFFFFFFFFFFFFFFFFFFFFFFFFFFFFFFFFFFF AND SUB PUSH2 0xA77 JUMPI PUSH1 0x40 MLOAD PUSH32 0x8C379A000000000000000000000000000000000000000000000000000000000 DUP2 MSTORE PUSH1 0x4 ADD PUSH2 0xA6E SWAP1 PUSH2 0x155B JUMP JUMPDEST PUSH1 0x40 MLOAD DUP1 SWAP2 SUB SWAP1 REVERT JUMPDEST PUSH1 0x0 PUSH20 0xFFFFFFFFFFFFFFFFFFFFFFFFFFFFFFFFFFFFFFFF AND DUP3 PUSH20 0xFFFFFFFFFFFFFFFFFFFFFFFFFFFFFFFFFFFFFFFF AND SUB PUSH2 0xAE6 JUMPI PUSH1 0x40 MLOAD PUSH32 0x8C379A000000000000000000000000000000000000000000000000000000000 DUP2 MSTORE PUSH1 0x4 ADD PUSH2 0xADD SWAP1 PUSH2 0x15ED JUMP JUMPDEST PUSH1 0x40 MLOAD DUP1 SWAP2 SUB SWAP1 REVERT JUMPDEST PUSH2 0xAF1 DUP4 DUP4 DUP4 PUSH2 0xDC3 JUMP JUMPDEST PUSH1 0x0 PUSH1 0x1 PUSH1 0x0 DUP6 PUSH20 0xFFFFFFFFFFFFFFFFFFFFFFFFFFFFFFFFFFFFFFFF AND PUSH20 0xFFFFFFFFFFFFFFFFFFFFFFFFFFFFFFFFFFFFFFFF AND DUP2 MSTORE PUSH1 0x20 ADD SWAP1 DUP2 MSTORE PUSH1 0x20 ADD PUSH1 0x0 KECCAK256 SLOAD SWAP1 POP DUP2 DUP2 LT ISZERO PUSH2 0xB78 JUMPI PUSH1 0x40 MLOAD PUSH32 0x8C379A000000000000000000000000000000000000000000000000000000000 DUP2 MSTORE PUSH1 0x4 ADD PUSH2 0xB6F SWAP1 PUSH2 0x167F JUMP JUMPDEST PUSH1 0x40 MLOAD DUP1 SWAP2 SUB SWAP1 REVERT JUMPDEST DUP2 DUP2 SUB PUSH1 0x1 PUSH1 0x0 DUP7 PUSH20 0xFFFFFFFFFFFFFFFFFFFFFFFFFFFFFFFFFFFFFFFF AND PUSH20 0xFFFFFFFFFFFFFFFFFFFFFFFFFFFFFFFFFFFFFFFF AND DUP2 MSTORE PUSH1 0x20 ADD SWAP1 DUP2 MSTORE PUSH1 0x20 ADD PUSH1 0x0 KECCAK256 DUP2 SWAP1 SSTORE POP DUP2 PUSH1 0x1 PUSH1 0x0 DUP6 PUSH20 0xFFFFFFFFFFFFFFFFFFFFFFFFFFFFFFFFFFFFFFFF AND PUSH20 0xFFFFFFFFFFFFFFFFFFFFFFFFFFFFFFFFFFFFFFFF AND DUP2 MSTORE PUSH1 0x20 ADD SWAP1 DUP2 MSTORE PUSH1 0x20 ADD PUSH1 0x0 KECCAK256 PUSH1 0x0 DUP3 DUP3 SLOAD ADD SWAP3 POP POP DUP2 SWAP1 SSTORE POP DUP3 PUSH20 0xFFFFFFFFFFFFFFFFFFFFFFFFFFFFFFFFFFFFFFFF AND DUP5 PUSH20 0xFFFFFFFFFFFFFFFFFFFFFFFFFFFFFFFFFFFFFFFF AND PUSH32 0xDDF252AD1BE2C89B69C2B068FC378DAA952BA7F163C4A11628F55A4DF523B3EF DUP5 PUSH1 0x40 MLOAD PUSH2 0xC68 SWAP2 SWAP1 PUSH2 0xF9D JUMP JUMPDEST PUSH1 0x40 MLOAD DUP1 SWAP2 SUB SWAP1 LOG3 PUSH2 0xC7B DUP5 DUP5 DUP5 PUSH2 0xDC8 JUMP JUMPDEST POP POP POP POP JUMP JUMPDEST PUSH2 0xC89 PUSH2 0x7AB JUMP JUMPDEST PUSH20 0xFFFFFFFFFFFFFFFFFFFFFFFFFFFFFFFFFFFFFFFF AND PUSH2 0xCA7 PUSH2 0x53C JUMP JUMPDEST PUSH20 0xFFFFFFFFFFFFFFFFFFFFFFFFFFFFFFFFFFFFFFFF AND EQ PUSH2 0xCFD JUMPI PUSH1 0x40 MLOAD PUSH32 0x8C379A000000000000000000000000000000000000000000000000000000000 DUP2 MSTORE PUSH1 0x4 ADD PUSH2 0xCF4 SWAP1 PUSH2 0x16EB JUMP JUMPDEST PUSH1 0x40 MLOAD DUP1 SWAP2 SUB SWAP1 REVERT JUMPDEST JUMP JUMPDEST PUSH1 0x0 DUP1 PUSH1 0x0 SWAP1 SLOAD SWAP1 PUSH2 0x100 EXP SWAP1 DIV PUSH20 0xFFFFFFFFFFFFFFFFFFFFFFFFFFFFFFFFFFFFFFFF AND SWAP1 POP DUP2 PUSH1 0x0 DUP1 PUSH2 0x100 EXP DUP2 SLOAD DUP2 PUSH20 0xFFFFFFFFFFFFFFFFFFFFFFFFFFFFFFFFFFFFFFFF MUL NOT AND SWAP1 DUP4 PUSH20 0xFFFFFFFFFFFFFFFFFFFFFFFFFFFFFFFFFFFFFFFF AND MUL OR SWAP1 SSTORE POP DUP2 PUSH20 0xFFFFFFFFFFFFFFFFFFFFFFFFFFFFFFFFFFFFFFFF AND DUP2 PUSH20 0xFFFFFFFFFFFFFFFFFFFFFFFFFFFFFFFFFFFFFFFF AND PUSH32 0x8BE0079C531659141344CD1FD0A4F28419497F9722A3DAAFE3B4186F6B6457E0 PUSH1 0x40 MLOAD PUSH1 0x40 MLOAD DUP1 SWAP2 SUB SWAP1 LOG3 POP POP JUMP JUMPDEST POP POP POP JUMP JUMPDEST POP POP POP JUMP JUMPDEST PUSH1 0x0 DUP2 MLOAD SWAP1 POP SWAP2 SWAP1 POP JUMP JUMPDEST PUSH1 0x0 DUP3 DUP3 MSTORE PUSH1 0x20 DUP3 ADD SWAP1 POP SWAP3 SWAP2 POP POP JUMP JUMPDEST PUSH1 0x0 JUMPDEST DUP4 DUP2 LT ISZERO PUSH2 0xE07 JUMPI DUP1 DUP3 ADD MLOAD DUP2 DUP5 ADD MSTORE PUSH1 0x20 DUP2 ADD SWAP1 POP PUSH2 0xDEC JUMP JUMPDEST PUSH1 0x0 DUP5 DUP5 ADD MSTORE POP POP POP POP JUMP JUMPDEST PUSH1 0x0 PUSH1 0x1F NOT PUSH1 0x1F DUP4 ADD AND SWAP1 POP SWAP2 SWAP1 POP JUMP JUMPDEST PUSH1 0x0 PUSH2 0xE2F DUP3 PUSH2 0xDCD JUMP JUMPDEST PUSH2 0xE39 DUP2 DUP6 PUSH2 0xDD8 JUMP JUMPDEST SWAP4 POP PUSH2 0xE49 DUP2 DUP6 PUSH1 0x20 DUP7 ADD PUSH2 0xDE9 JUMP JUMPDEST PUSH2 0xE52 DUP2 PUSH2 0xE13 JUMP JUMPDEST DUP5 ADD SWAP2 POP POP SWAP3 SWAP2 POP POP JUMP JUMPDEST PUSH1 0x0 PUSH1 0x20 DUP3 ADD SWAP1 POP DUP2 DUP2 SUB PUSH1 0x0 DUP4 ADD MSTORE PUSH2 0xE77 DUP2 DUP5 PUSH2 0xE24 JUMP JUMPDEST SWAP1 POP SWAP3 SWAP2 POP POP JUMP JUMPDEST PUSH1 0x0 DUP1 REVERT JUMPDEST PUSH1 0x0 PUSH20 0xFFFFFFFFFFFFFFFFFFFFFFFFFFFFFFFFFFFFFFFF DUP3 AND SWAP1 POP SWAP2 SWAP1 POP JUMP JUMPDEST PUSH1 0x0 PUSH2 0xEAF DUP3 PUSH2 0xE84 JUMP JUMPDEST SWAP1 POP SWAP2 SWAP1 POP JUMP JUMPDEST PUSH2 0xEBF DUP2 PUSH2 0xEA4 JUMP JUMPDEST DUP2 EQ PUSH2 0xECA JUMPI PUSH1 0x0 DUP1 REVERT JUMPDEST POP JUMP JUMPDEST PUSH1 0x0 DUP2 CALLDATALOAD SWAP1 POP PUSH2 0xEDC DUP2 PUSH2 0xEB6 JUMP JUMPDEST SWAP3 SWAP2 POP POP JUMP JUMPDEST PUSH1 0x0 DUP2 SWAP1 POP SWAP2 SWAP1 POP JUMP JUMPDEST PUSH2 0xEF5 DUP2 PUSH2 0xEE2 JUMP JUMPDEST DUP2 EQ PUSH2 0xF00 JUMPI PUSH1 0x0 DUP1 REVERT JUMPDEST POP JUMP JUMPDEST PUSH1 0x0 DUP2 CALLDATALOAD SWAP1 POP PUSH2 0xF12 DUP2 PUSH2 0xEEC JUMP JUMPDEST SWAP3 SWAP2 POP POP JUMP JUMPDEST PUSH1 0x0 DUP1 PUSH1 0x40 DUP4 DUP6 SUB SLT ISZERO PUSH2 0xF2F JUMPI PUSH2 0xF2E PUSH2 0xE7F JUMP JUMPDEST JUMPDEST PUSH1 0x0 PUSH2 0xF3D DUP6 DUP3 DUP7 ADD PUSH2 0xECD JUMP JUMPDEST SWAP3 POP POP PUSH1 0x20 PUSH2 0xF4E DUP6 DUP3 DUP7 ADD PUSH2 0xF03 JUMP JUMPDEST SWAP2 POP POP SWAP3 POP SWAP3 SWAP1 POP JUMP JUMPDEST PUSH1 0x0 DUP2 ISZERO ISZERO SWAP1 POP SWAP2 SWAP1 POP JUMP JUMPDEST PUSH2 0xF6D DUP2 PUSH2 0xF58 JUMP JUMPDEST DUP3 MSTORE POP POP JUMP JUMPDEST PUSH1 0x0 PUSH1 0x20 DUP3 ADD SWAP1 POP PUSH2 0xF88 PUSH1 0x0 DUP4 ADD DUP5 PUSH2 0xF64 JUMP JUMPDEST SWAP3 SWAP2 POP POP JUMP JUMPDEST PUSH2 0xF97 DUP2 PUSH2 0xEE2 JUMP JUMPDEST DUP3 MSTORE POP POP JUMP JUMPDEST PUSH1 0x0 PUSH1 0x20 DUP3 ADD SWAP1 POP PUSH2 0xFB2 PUSH1 0x0 DUP4 ADD DUP5 PUSH2 0xF8E JUMP JUMPDEST SWAP3 SWAP2 POP POP JUMP JUMPDEST PUSH1 0x0 DUP1 PUSH1 0x0 PUSH1 0x60 DUP5 DUP7 SUB SLT ISZERO PUSH2 0xFD1 JUMPI PUSH2 0xFD0 PUSH2 0xE7F JUMP JUMPDEST JUMPDEST PUSH1 0x0 PUSH2 0xFDF DUP7 DUP3 DUP8 ADD PUSH2 0xECD JUMP JUMPDEST SWAP4 POP POP PUSH1 0x20 PUSH2 0xFF0 DUP7 DUP3 DUP8 ADD PUSH2 0xECD JUMP JUMPDEST SWAP3 POP POP PUSH1 0x40 PUSH2 0x1001 DUP7 DUP3 DUP8 ADD PUSH2 0xF03 JUMP JUMPDEST SWAP2 POP POP SWAP3 POP SWAP3 POP SWAP3 JUMP JUMPDEST PUSH1 0x0 PUSH1 0x20 DUP3 DUP5 SUB SLT ISZERO PUSH2 0x1021 JUMPI PUSH2 0x1020 PUSH2 0xE7F JUMP JUMPDEST JUMPDEST PUSH1 0x0 PUSH2 0x102F DUP5 DUP3 DUP6 ADD PUSH2 0xF03 JUMP JUMPDEST SWAP2 POP POP SWAP3 SWAP2 POP POP JUMP JUMPDEST PUSH1 0x0 PUSH1 0xFF DUP3 AND SWAP1 POP SWAP2 SWAP1 POP JUMP JUMPDEST PUSH2 0x104E DUP2 PUSH2 0x1038 JUMP JUMPDEST DUP3 MSTORE POP POP JUMP JUMPDEST PUSH1 0x0 PUSH1 0x20 DUP3 ADD SWAP1 POP PUSH2 0x1069 PUSH1 0x0 DUP4 ADD DUP5 PUSH2 0x1045 JUMP JUMPDEST SWAP3 SWAP2 POP POP JUMP JUMPDEST PUSH1 0x0 PUSH1 0x20 DUP3 DUP5 SUB SLT ISZERO PUSH2 0x1085 JUMPI PUSH2 0x1084 PUSH2 0xE7F JUMP JUMPDEST JUMPDEST PUSH1 0x0 PUSH2 0x1093 DUP5 DUP3 DUP6 ADD PUSH2 0xECD JUMP JUMPDEST SWAP2 POP POP SWAP3 SWAP2 POP POP JUMP JUMPDEST PUSH2 0x10A5 DUP2 PUSH2 0xEA4 JUMP JUMPDEST DUP3 MSTORE POP POP JUMP JUMPDEST PUSH1 0x0 PUSH1 0x20 DUP3 ADD SWAP1 POP PUSH2 0x10C0 PUSH1 0x0 DUP4 ADD DUP5 PUSH2 0x109C JUMP JUMPDEST SWAP3 SWAP2 POP POP JUMP JUMPDEST PUSH1 0x0 DUP1 PUSH1 0x40 DUP4 DUP6 SUB SLT ISZERO PUSH2 0x10DD JUMPI PUSH2 0x10DC PUSH2 0xE7F JUMP JUMPDEST JUMPDEST PUSH1 0x0 PUSH2 0x10EB DUP6 DUP3 DUP7 ADD PUSH2 0xECD JUMP JUMPDEST SWAP3 POP POP PUSH1 0x20 PUSH2 0x10FC DUP6 DUP3 DUP7 ADD PUSH2 0xECD JUMP JUMPDEST SWAP2 POP POP SWAP3 POP SWAP3 SWAP1 POP JUMP JUMPDEST PUSH32 0x4E487B7100000000000000000000000000000000000000000000000000000000 PUSH1 0x0 MSTORE PUSH1 0x22 PUSH1 0x4 MSTORE PUSH1 0x24 PUSH1 0x0 REVERT JUMPDEST PUSH1 0x0 PUSH1 0x2 DUP3 DIV SWAP1 POP PUSH1 0x1 DUP3 AND DUP1 PUSH2 0x114D JUMPI PUSH1 0x7F DUP3 AND SWAP2 POP JUMPDEST PUSH1 0x20 DUP3 LT DUP2 SUB PUSH2 0x1160 JUMPI PUSH2 0x115F PUSH2 0x1106 JUMP JUMPDEST JUMPDEST POP SWAP2 SWAP1 POP JUMP JUMPDEST PUSH32 0x706C6561736520636865636B207468697320616D6F756E740000000000000000 PUSH1 0x0 DUP3 ADD MSTORE POP JUMP JUMPDEST PUSH1 0x0 PUSH2 0x119C PUSH1 0x18 DUP4 PUSH2 0xDD8 JUMP JUMPDEST SWAP2 POP PUSH2 0x11A7 DUP3 PUSH2 0x1166 JUMP JUMPDEST PUSH1 0x20 DUP3 ADD SWAP1 POP SWAP2 SWAP1 POP JUMP JUMPDEST PUSH1 0x0 PUSH1 0x20 DUP3 ADD SWAP1 POP DUP2 DUP2 SUB PUSH1 0x0 DUP4 ADD MSTORE PUSH2 0x11CB DUP2 PUSH2 0x118F JUMP JUMPDEST SWAP1 POP SWAP2 SWAP1 POP JUMP JUMPDEST PUSH32 0x4E487B7100000000000000000000000000000000000000000000000000000000 PUSH1 0x0 MSTORE PUSH1 0x11 PUSH1 0x4 MSTORE PUSH1 0x24 PUSH1 0x0 REVERT JUMPDEST PUSH1 0x0 PUSH2 0x120C DUP3 PUSH2 0xEE2 JUMP JUMPDEST SWAP2 POP PUSH2 0x1217 DUP4 PUSH2 0xEE2 JUMP JUMPDEST SWAP3 POP DUP3 DUP3 ADD SWAP1 POP DUP1 DUP3 GT ISZERO PUSH2 0x122F JUMPI PUSH2 0x122E PUSH2 0x11D2 JUMP JUMPDEST JUMPDEST SWAP3 SWAP2 POP POP JUMP JUMPDEST PUSH32 0x45524332303A2064656372656173656420616C6C6F77616E63652062656C6F77 PUSH1 0x0 DUP3 ADD MSTORE PUSH32 0x207A65726F000000000000000000000000000000000000000000000000000000 PUSH1 0x20 DUP3 ADD MSTORE POP JUMP JUMPDEST PUSH1 0x0 PUSH2 0x1291 PUSH1 0x25 DUP4 PUSH2 0xDD8 JUMP JUMPDEST SWAP2 POP PUSH2 0x129C DUP3 PUSH2 0x1235 JUMP JUMPDEST PUSH1 0x40 DUP3 ADD SWAP1 POP SWAP2 SWAP1 POP JUMP JUMPDEST PUSH1 0x0 PUSH1 0x20 DUP3 ADD SWAP1 POP DUP2 DUP2 SUB PUSH1 0x0 DUP4 ADD MSTORE PUSH2 0x12C0 DUP2 PUSH2 0x1284 JUMP JUMPDEST SWAP1 POP SWAP2 SWAP1 POP JUMP JUMPDEST PUSH32 0x4F776E61626C653A206E6577206F776E657220697320746865207A65726F2061 PUSH1 0x0 DUP3 ADD MSTORE PUSH32 0x6464726573730000000000000000000000000000000000000000000000000000 PUSH1 0x20 DUP3 ADD MSTORE POP JUMP JUMPDEST PUSH1 0x0 PUSH2 0x1323 PUSH1 0x26 DUP4 PUSH2 0xDD8 JUMP JUMPDEST SWAP2 POP PUSH2 0x132E DUP3 PUSH2 0x12C7 JUMP JUMPDEST PUSH1 0x40 DUP3 ADD SWAP1 POP SWAP2 SWAP1 POP JUMP JUMPDEST PUSH1 0x0 PUSH1 0x20 DUP3 ADD SWAP1 POP DUP2 DUP2 SUB PUSH1 0x0 DUP4 ADD MSTORE PUSH2 0x1352 DUP2 PUSH2 0x1316 JUMP JUMPDEST SWAP1 POP SWAP2 SWAP1 POP JUMP JUMPDEST PUSH32 0x45524332303A20617070726F76652066726F6D20746865207A65726F20616464 PUSH1 0x0 DUP3 ADD MSTORE PUSH32 0x7265737300000000000000000000000000000000000000000000000000000000 PUSH1 0x20 DUP3 ADD MSTORE POP JUMP JUMPDEST PUSH1 0x0 PUSH2 0x13B5 PUSH1 0x24 DUP4 PUSH2 0xDD8 JUMP JUMPDEST SWAP2 POP PUSH2 0x13C0 DUP3 PUSH2 0x1359 JUMP JUMPDEST PUSH1 0x40 DUP3 ADD SWAP1 POP SWAP2 SWAP1 POP JUMP JUMPDEST PUSH1 0x0 PUSH1 0x20 DUP3 ADD SWAP1 POP DUP2 DUP2 SUB PUSH1 0x0 DUP4 ADD MSTORE PUSH2 0x13E4 DUP2 PUSH2 0x13A8 JUMP JUMPDEST SWAP1 POP SWAP2 SWAP1 POP JUMP JUMPDEST PUSH32 0x45524332303A20617070726F766520746F20746865207A65726F206164647265 PUSH1 0x0 DUP3 ADD MSTORE PUSH32 0x7373000000000000000000000000000000000000000000000000000000000000 PUSH1 0x20 DUP3 ADD MSTORE POP JUMP JUMPDEST PUSH1 0x0 PUSH2 0x1447 PUSH1 0x22 DUP4 PUSH2 0xDD8 JUMP JUMPDEST SWAP2 POP PUSH2 0x1452 DUP3 PUSH2 0x13EB JUMP JUMPDEST PUSH1 0x40 DUP3 ADD SWAP1 POP SWAP2 SWAP1 POP JUMP JUMPDEST PUSH1 0x0 PUSH1 0x20 DUP3 ADD SWAP1 POP DUP2 DUP2 SUB PUSH1 0x0 DUP4 ADD MSTORE PUSH2 0x1476 DUP2 PUSH2 0x143A JUMP JUMPDEST SWAP1 POP SWAP2 SWAP1 POP JUMP JUMPDEST PUSH32 0x45524332303A20696E73756666696369656E7420616C6C6F77616E6365000000 PUSH1 0x0 DUP3 ADD MSTORE POP JUMP JUMPDEST PUSH1 0x0 PUSH2 0x14B3 PUSH1 0x1D DUP4 PUSH2 0xDD8 JUMP JUMPDEST SWAP2 POP PUSH2 0x14BE DUP3 PUSH2 0x147D JUMP JUMPDEST PUSH1 0x20 DUP3 ADD SWAP1 POP SWAP2 SWAP1 POP JUMP JUMPDEST PUSH1 0x0 PUSH1 0x20 DUP3 ADD SWAP1 POP DUP2 DUP2 SUB PUSH1 0x0 DUP4 ADD MSTORE PUSH2 0x14E2 DUP2 PUSH2 0x14A6 JUMP JUMPDEST SWAP1 POP SWAP2 SWAP1 POP JUMP JUMPDEST PUSH32 0x45524332303A207472616E736665722066726F6D20746865207A65726F206164 PUSH1 0x0 DUP3 ADD MSTORE PUSH32 0x6472657373000000000000000000000000000000000000000000000000000000 PUSH1 0x20 DUP3 ADD MSTORE POP JUMP JUMPDEST PUSH1 0x0 PUSH2 0x1545 PUSH1 0x25 DUP4 PUSH2 0xDD8 JUMP JUMPDEST SWAP2 POP PUSH2 0x1550 DUP3 PUSH2 0x14E9 JUMP JUMPDEST PUSH1 0x40 DUP3 ADD SWAP1 POP SWAP2 SWAP1 POP JUMP JUMPDEST PUSH1 0x0 PUSH1 0x20 DUP3 ADD SWAP1 POP DUP2 DUP2 SUB PUSH1 0x0 DUP4 ADD MSTORE PUSH2 0x1574 DUP2 PUSH2 0x1538 JUMP JUMPDEST SWAP1 POP SWAP2 SWAP1 POP JUMP JUMPDEST PUSH32 0x45524332303A207472616E7366657220746F20746865207A65726F2061646472 PUSH1 0x0 DUP3 ADD MSTORE PUSH32 0x6573730000000000000000000000000000000000000000000000000000000000 PUSH1 0x20 DUP3 ADD MSTORE POP JUMP JUMPDEST PUSH1 0x0 PUSH2 0x15D7 PUSH1 0x23 DUP4 PUSH2 0xDD8 JUMP JUMPDEST SWAP2 POP PUSH2 0x15E2 DUP3 PUSH2 0x157B JUMP JUMPDEST PUSH1 0x40 DUP3 ADD SWAP1 POP SWAP2 SWAP1 POP JUMP JUMPDEST PUSH1 0x0 PUSH1 0x20 DUP3 ADD SWAP1 POP DUP2 DUP2 SUB PUSH1 0x0 DUP4 ADD MSTORE PUSH2 0x1606 DUP2 PUSH2 0x15CA JUMP JUMPDEST SWAP1 POP SWAP2 SWAP1 POP JUMP JUMPDEST PUSH32 0x45524332303A207472616E7366657220616D6F756E7420657863656564732062 PUSH1 0x0 DUP3 ADD MSTORE PUSH32 0x616C616E63650000000000000000000000000000000000000000000000000000 PUSH1 0x20 DUP3 ADD MSTORE POP JUMP JUMPDEST PUSH1 0x0 PUSH2 0x1669 PUSH1 0x26 DUP4 PUSH2 0xDD8 JUMP JUMPDEST SWAP2 POP PUSH2 0x1674 DUP3 PUSH2 0x160D JUMP JUMPDEST PUSH1 0x40 DUP3 ADD SWAP1 POP SWAP2 SWAP1 POP JUMP JUMPDEST PUSH1 0x0 PUSH1 0x20 DUP3 ADD SWAP1 POP DUP2 DUP2 SUB PUSH1 0x0 DUP4 ADD MSTORE PUSH2 0x1698 DUP2 PUSH2 0x165C JUMP JUMPDEST SWAP1 POP SWAP2 SWAP1 POP JUMP JUMPDEST PUSH32 0x4F776E61626C653A2063616C6C6572206973206E6F7420746865206F776E6572 PUSH1 0x0 DUP3 ADD MSTORE POP JUMP JUMPDEST PUSH1 0x0 PUSH2 0x16D5 PUSH1 0x20 DUP4 PUSH2 0xDD8 JUMP JUMPDEST SWAP2 POP PUSH2 0x16E0 DUP3 PUSH2 0x169F JUMP JUMPDEST PUSH1 0x20 DUP3 ADD SWAP1 POP SWAP2 SWAP1 POP JUMP JUMPDEST PUSH1 0x0 PUSH1 0x20 DUP3 ADD SWAP1 POP DUP2 DUP2 SUB PUSH1 0x0 DUP4 ADD MSTORE PUSH2 0x1704 DUP2 PUSH2 0x16C8 JUMP JUMPDEST SWAP1 POP SWAP2 SWAP1 POP JUMP INVALID LOG2 PUSH5 0x6970667358 0x22 SLT KECCAK256 SWAP16 PUSH9 0xE6079E366EA41BD11D 0xC DUP12 SWAP8 0xD3 PUSH1 0x14 BALANCE EXTCODEHASH 0xCB 0xAE 0xEC PUSH16 0x796380F9F55C77C74C64736F6C634300 ADDMOD GT STOP CALLER "
				},
				"gasEstimates": {
					"creation": {
						"codeDepositCost": "1190600",
						"executionCost": "infinite",
						"totalCost": "infinite"
					},
					"external": {
						"allowance(address,address)": "infinite",
						"approve(address,uint256)": "infinite",
						"balanceOf(address)": "2930",
						"decimals()": "388",
						"decreaseAllowance(address,uint256)": "infinite",
						"increaseAllowance(address,uint256)": "infinite",
						"name()": "infinite",
						"owner()": "2567",
						"renounceOwnership()": "30421",
						"symbol()": "infinite",
						"totalSupply()": "2505",
						"transfer(address,uint256)": "infinite",
						"transferFrom(address,address,uint256)": "infinite",
						"transferOwnership(address)": "30832",
						"transferPrice(address,address,uint256)": "infinite",
						"withdraw(uint256)": "infinite"
					}
				},
				"methodIdentifiers": {
					"allowance(address,address)": "dd62ed3e",
					"approve(address,uint256)": "095ea7b3",
					"balanceOf(address)": "70a08231",
					"decimals()": "313ce567",
					"decreaseAllowance(address,uint256)": "a457c2d7",
					"increaseAllowance(address,uint256)": "39509351",
					"name()": "06fdde03",
					"owner()": "8da5cb5b",
					"renounceOwnership()": "715018a6",
					"symbol()": "95d89b41",
					"totalSupply()": "18160ddd",
					"transfer(address,uint256)": "a9059cbb",
					"transferFrom(address,address,uint256)": "23b872dd",
					"transferOwnership(address)": "f2fde38b",
					"transferPrice(address,address,uint256)": "b45ee9ef",
					"withdraw(uint256)": "2e1a7d4d"
				}
			},
			"storageLayout": {
				"storage": [
					{
						"astId": 1017,
						"contract": "KAMIL SIR/PROJECT01/BUY-SELL/contracts/Token.sol:Token",
						"label": "_owner",
						"offset": 0,
						"slot": "0",
						"type": "t_address"
					},
					{
						"astId": 18,
						"contract": "KAMIL SIR/PROJECT01/BUY-SELL/contracts/Token.sol:Token",
						"label": "_balances",
						"offset": 0,
						"slot": "1",
						"type": "t_mapping(t_address,t_uint256)"
					},
					{
						"astId": 24,
						"contract": "KAMIL SIR/PROJECT01/BUY-SELL/contracts/Token.sol:Token",
						"label": "_allowances",
						"offset": 0,
						"slot": "2",
						"type": "t_mapping(t_address,t_mapping(t_address,t_uint256))"
					},
					{
						"astId": 26,
						"contract": "KAMIL SIR/PROJECT01/BUY-SELL/contracts/Token.sol:Token",
						"label": "_totalSupply",
						"offset": 0,
						"slot": "3",
						"type": "t_uint256"
					},
					{
						"astId": 28,
						"contract": "KAMIL SIR/PROJECT01/BUY-SELL/contracts/Token.sol:Token",
						"label": "_name",
						"offset": 0,
						"slot": "4",
						"type": "t_string_storage"
					},
					{
						"astId": 30,
						"contract": "KAMIL SIR/PROJECT01/BUY-SELL/contracts/Token.sol:Token",
						"label": "_symbol",
						"offset": 0,
						"slot": "5",
						"type": "t_string_storage"
					}
				],
				"types": {
					"t_address": {
						"encoding": "inplace",
						"label": "address",
						"numberOfBytes": "20"
					},
					"t_mapping(t_address,t_mapping(t_address,t_uint256))": {
						"encoding": "mapping",
						"key": "t_address",
						"label": "mapping(address => mapping(address => uint256))",
						"numberOfBytes": "32",
						"value": "t_mapping(t_address,t_uint256)"
					},
					"t_mapping(t_address,t_uint256)": {
						"encoding": "mapping",
						"key": "t_address",
						"label": "mapping(address => uint256)",
						"numberOfBytes": "32",
						"value": "t_uint256"
					},
					"t_string_storage": {
						"encoding": "bytes",
						"label": "string",
						"numberOfBytes": "32"
					},
					"t_uint256": {
						"encoding": "inplace",
						"label": "uint256",
						"numberOfBytes": "32"
					}
				}
			},
			"userdoc": {
				"kind": "user",
				"methods": {},
				"version": 1
			}
		}
	}
}