{
  "contractName": "coinstar",
  "abi": [
    {
      "anonymous": false,
      "inputs": [
        {
          "indexed": true,
          "internalType": "address",
          "name": "previousOwner",
          "type": "address"
        },
        {
          "indexed": true,
          "internalType": "address",
          "name": "newOwner",
          "type": "address"
        }
      ],
      "name": "OwnershipTransferred",
      "type": "event"
    },
    {
      "anonymous": false,
      "inputs": [
        {
          "indexed": true,
          "internalType": "address",
          "name": "buyer",
          "type": "address"
        },
        {
          "indexed": false,
          "internalType": "uint256",
          "name": "price",
          "type": "uint256"
        }
      ],
      "name": "Purchase",
      "type": "event"
    },
    {
      "inputs": [],
      "name": "InvestorId",
      "outputs": [
        {
          "internalType": "uint256",
          "name": "",
          "type": "uint256"
        }
      ],
      "stateMutability": "view",
      "type": "function"
    },
    {
      "inputs": [],
      "name": "MyToken",
      "outputs": [
        {
          "internalType": "contract Token",
          "name": "",
          "type": "address"
        }
      ],
      "stateMutability": "view",
      "type": "function"
    },
    {
      "inputs": [],
      "name": "buyPrice",
      "outputs": [
        {
          "internalType": "uint256",
          "name": "",
          "type": "uint256"
        }
      ],
      "stateMutability": "view",
      "type": "function"
    },
    {
      "inputs": [
        {
          "internalType": "uint256",
          "name": "",
          "type": "uint256"
        }
      ],
      "name": "investorAmount",
      "outputs": [
        {
          "internalType": "uint256",
          "name": "",
          "type": "uint256"
        }
      ],
      "stateMutability": "view",
      "type": "function"
    },
    {
      "inputs": [],
      "name": "owner",
      "outputs": [
        {
          "internalType": "address",
          "name": "",
          "type": "address"
        }
      ],
      "stateMutability": "view",
      "type": "function"
    },
    {
      "inputs": [],
      "name": "price",
      "outputs": [
        {
          "internalType": "uint256",
          "name": "",
          "type": "uint256"
        }
      ],
      "stateMutability": "view",
      "type": "function"
    },
    {
      "inputs": [],
      "name": "renounceOwnership",
      "outputs": [],
      "stateMutability": "nonpayable",
      "type": "function"
    },
    {
      "inputs": [],
      "name": "sellPrice",
      "outputs": [
        {
          "internalType": "uint256",
          "name": "",
          "type": "uint256"
        }
      ],
      "stateMutability": "view",
      "type": "function"
    },
    {
      "inputs": [],
      "name": "seller",
      "outputs": [
        {
          "internalType": "address",
          "name": "",
          "type": "address"
        }
      ],
      "stateMutability": "view",
      "type": "function"
    },
    {
      "inputs": [],
      "name": "tokenPrice",
      "outputs": [
        {
          "internalType": "uint256",
          "name": "",
          "type": "uint256"
        }
      ],
      "stateMutability": "view",
      "type": "function"
    },
    {
      "inputs": [
        {
          "internalType": "address",
          "name": "newOwner",
          "type": "address"
        }
      ],
      "name": "transferOwnership",
      "outputs": [],
      "stateMutability": "nonpayable",
      "type": "function"
    },
    {
      "inputs": [
        {
          "internalType": "contract Token",
          "name": "_myToken",
          "type": "address"
        }
      ],
      "name": "initialize",
      "outputs": [],
      "stateMutability": "nonpayable",
      "type": "function"
    },
    {
      "inputs": [
        {
          "internalType": "address",
          "name": "user",
          "type": "address"
        }
      ],
      "name": "getID",
      "outputs": [
        {
          "internalType": "uint256[]",
          "name": "",
          "type": "uint256[]"
        }
      ],
      "stateMutability": "view",
      "type": "function"
    },
    {
      "inputs": [],
      "name": "getRate",
      "outputs": [
        {
          "internalType": "uint256",
          "name": "",
          "type": "uint256"
        }
      ],
      "stateMutability": "view",
      "type": "function"
    },
    {
      "inputs": [
        {
          "internalType": "uint256",
          "name": "newSellPrice",
          "type": "uint256"
        },
        {
          "internalType": "uint256",
          "name": "newBuyPrice",
          "type": "uint256"
        }
      ],
      "name": "setPrices",
      "outputs": [],
      "stateMutability": "nonpayable",
      "type": "function"
    },
    {
      "inputs": [
        {
          "internalType": "uint256",
          "name": "token",
          "type": "uint256"
        }
      ],
      "name": "buy",
      "outputs": [],
      "stateMutability": "payable",
      "type": "function"
    },
    {
      "inputs": [
        {
          "internalType": "uint256",
          "name": "amount",
          "type": "uint256"
        },
        {
          "internalType": "uint256",
          "name": "id",
          "type": "uint256"
        }
      ],
      "name": "sell",
      "outputs": [],
      "stateMutability": "nonpayable",
      "type": "function"
    }
  ],
  "bytecode": "0x6080604052606460015534801561001557600080fd5b5061003261002761003760201b60201c565b61003f60201b60201c565b610103565b600033905090565b60008060009054906101000a900473ffffffffffffffffffffffffffffffffffffffff169050816000806101000a81548173ffffffffffffffffffffffffffffffffffffffff021916908373ffffffffffffffffffffffffffffffffffffffff1602179055508173ffffffffffffffffffffffffffffffffffffffff168173ffffffffffffffffffffffffffffffffffffffff167f8be0079c531659141344cd1fd0a4f28419497f9722a3daafe3b4186f6b6457e060405160405180910390a35050565b61117b806101126000396000f3fe6080604052600436106100fe5760003560e01c80638620410b11610095578063c4d66de811610064578063c4d66de814610303578063d79875eb1461032c578063d96a094a14610355578063f2fde38b14610371578063f9adf3ec1461039a576100fe565b80638620410b146102455780638da5cb5b1461027057806399f826a51461029b578063a035b1fe146102d8576100fe565b80634b750334116100d15780634b750334146101ad578063679aefce146101d8578063715018a6146102035780637ff9b5961461021a576100fe565b8063048cc0821461010357806305fefda71461012e57806308551a5314610157578063089327de14610182575b600080fd5b34801561010f57600080fd5b506101186103d7565b6040516101259190610b3f565b60405180910390f35b34801561013a57600080fd5b5061015560048036038101906101509190610b8b565b6103dd565b005b34801561016357600080fd5b5061016c6103f7565b6040516101799190610c0c565b60405180910390f35b34801561018e57600080fd5b5061019761041d565b6040516101a49190610c86565b60405180910390f35b3480156101b957600080fd5b506101c2610443565b6040516101cf9190610b3f565b60405180910390f35b3480156101e457600080fd5b506101ed610449565b6040516101fa9190610b3f565b60405180910390f35b34801561020f57600080fd5b50610218610453565b005b34801561022657600080fd5b5061022f610467565b60405161023c9190610b3f565b60405180910390f35b34801561025157600080fd5b5061025a61046d565b6040516102679190610b3f565b60405180910390f35b34801561027c57600080fd5b50610285610473565b6040516102929190610c0c565b60405180910390f35b3480156102a757600080fd5b506102c260048036038101906102bd9190610ccd565b61049c565b6040516102cf9190610db8565b60405180910390f35b3480156102e457600080fd5b506102ed610533565b6040516102fa9190610b3f565b60405180910390f35b34801561030f57600080fd5b5061032a60048036038101906103259190610e18565b610539565b005b34801561033857600080fd5b50610353600480360381019061034e9190610b8b565b610585565b005b61036f600480360381019061036a9190610e45565b61078a565b005b34801561037d57600080fd5b5061039860048036038101906103939190610ccd565b610941565b005b3480156103a657600080fd5b506103c160048036038101906103bc9190610e45565b6109c4565b6040516103ce9190610b3f565b60405180910390f35b60085481565b6103e56109dc565b81600481905550806005819055505050565b600960009054906101000a900473ffffffffffffffffffffffffffffffffffffffff1681565b600260009054906101000a900473ffffffffffffffffffffffffffffffffffffffff1681565b60045481565b6000600154905090565b61045b6109dc565b6104656000610a5a565b565b60015481565b60055481565b60008060009054906101000a900473ffffffffffffffffffffffffffffffffffffffff16905090565b6060600660008373ffffffffffffffffffffffffffffffffffffffff1673ffffffffffffffffffffffffffffffffffffffff16815260200190815260200160002080548060200260200160405190810160405280929190818152602001828054801561052757602002820191906000526020600020905b815481526020019060010190808311610513575b50505050509050919050565b600a5481565b6105416109dc565b80600260006101000a81548173ffffffffffffffffffffffffffffffffffffffff021916908373ffffffffffffffffffffffffffffffffffffffff16021790555050565b6001600760008381526020019081526020016000205410156105dc576040517f08c379a00000000000000000000000000000000000000000000000000000000081526004016105d390610ecf565b60405180910390fd5b81600360003373ffffffffffffffffffffffffffffffffffffffff1673ffffffffffffffffffffffffffffffffffffffff168152602001908152602001600020600082825461062b9190610f1e565b925050819055503373ffffffffffffffffffffffffffffffffffffffff166108fc600760008481526020019081526020016000205460015461066d9190610f1e565b846106789190610f52565b9081150290604051600060405180830381858888f193505050501580156106a3573d6000803e3d6000fd5b50600260009054906101000a900473ffffffffffffffffffffffffffffffffffffffff1673ffffffffffffffffffffffffffffffffffffffff1663b45ee9ef336106eb610473565b856040518463ffffffff1660e01b815260040161070a93929190610f94565b600060405180830381600087803b15801561072457600080fd5b505af1158015610738573d6000803e3d6000fd5b505050508160076000838152602001908152602001600020600082825461075f9190610f1e565b925050819055506001826107739190610f52565b6001546107809190610f1e565b6001819055505050565b6008600081548092919061079d90610fcb565b9190505550600660003373ffffffffffffffffffffffffffffffffffffffff1673ffffffffffffffffffffffffffffffffffffffff168152602001908152602001600020600854908060018154018082558091505060019003906000526020600020016000909190919091505580600360003373ffffffffffffffffffffffffffffffffffffffff1673ffffffffffffffffffffffffffffffffffffffff16815260200190815260200160002060008282546108599190611013565b92505081905550600260009054906101000a900473ffffffffffffffffffffffffffffffffffffffff1673ffffffffffffffffffffffffffffffffffffffff1663b45ee9ef6108a6610473565b33846040518463ffffffff1660e01b81526004016108c693929190610f94565b600060405180830381600087803b1580156108e057600080fd5b505af11580156108f4573d6000803e3d6000fd5b505050506001816109059190610f52565b6007600060085481526020019081526020016000208190555060018161092b9190610f52565b6001546109389190611013565b60018190555050565b6109496109dc565b600073ffffffffffffffffffffffffffffffffffffffff168173ffffffffffffffffffffffffffffffffffffffff16036109b8576040517f08c379a00000000000000000000000000000000000000000000000000000000081526004016109af906110b9565b60405180910390fd5b6109c181610a5a565b50565b60076020528060005260406000206000915090505481565b6109e4610b1e565b73ffffffffffffffffffffffffffffffffffffffff16610a02610473565b73ffffffffffffffffffffffffffffffffffffffff1614610a58576040517f08c379a0000000000000000000000000000000000000000000000000000000008152600401610a4f90611125565b60405180910390fd5b565b60008060009054906101000a900473ffffffffffffffffffffffffffffffffffffffff169050816000806101000a81548173ffffffffffffffffffffffffffffffffffffffff021916908373ffffffffffffffffffffffffffffffffffffffff1602179055508173ffffffffffffffffffffffffffffffffffffffff168173ffffffffffffffffffffffffffffffffffffffff167f8be0079c531659141344cd1fd0a4f28419497f9722a3daafe3b4186f6b6457e060405160405180910390a35050565b600033905090565b6000819050919050565b610b3981610b26565b82525050565b6000602082019050610b546000830184610b30565b92915050565b600080fd5b610b6881610b26565b8114610b7357600080fd5b50565b600081359050610b8581610b5f565b92915050565b60008060408385031215610ba257610ba1610b5a565b5b6000610bb085828601610b76565b9250506020610bc185828601610b76565b9150509250929050565b600073ffffffffffffffffffffffffffffffffffffffff82169050919050565b6000610bf682610bcb565b9050919050565b610c0681610beb565b82525050565b6000602082019050610c216000830184610bfd565b92915050565b6000819050919050565b6000610c4c610c47610c4284610bcb565b610c27565b610bcb565b9050919050565b6000610c5e82610c31565b9050919050565b6000610c7082610c53565b9050919050565b610c8081610c65565b82525050565b6000602082019050610c9b6000830184610c77565b92915050565b610caa81610beb565b8114610cb557600080fd5b50565b600081359050610cc781610ca1565b92915050565b600060208284031215610ce357610ce2610b5a565b5b6000610cf184828501610cb8565b91505092915050565b600081519050919050565b600082825260208201905092915050565b6000819050602082019050919050565b610d2f81610b26565b82525050565b6000610d418383610d26565b60208301905092915050565b6000602082019050919050565b6000610d6582610cfa565b610d6f8185610d05565b9350610d7a83610d16565b8060005b83811015610dab578151610d928882610d35565b9750610d9d83610d4d565b925050600181019050610d7e565b5085935050505092915050565b60006020820190508181036000830152610dd28184610d5a565b905092915050565b6000610de582610beb565b9050919050565b610df581610dda565b8114610e0057600080fd5b50565b600081359050610e1281610dec565b92915050565b600060208284031215610e2e57610e2d610b5a565b5b6000610e3c84828501610e03565b91505092915050565b600060208284031215610e5b57610e5a610b5a565b5b6000610e6984828501610b76565b91505092915050565b600082825260208201905092915050565b7f4e6f20746f6b656e206c65667420696e20757365722077616c6c657400000000600082015250565b6000610eb9601c83610e72565b9150610ec482610e83565b602082019050919050565b60006020820190508181036000830152610ee881610eac565b9050919050565b7f4e487b7100000000000000000000000000000000000000000000000000000000600052601160045260246000fd5b6000610f2982610b26565b9150610f3483610b26565b9250828203905081811115610f4c57610f4b610eef565b5b92915050565b6000610f5d82610b26565b9150610f6883610b26565b9250828202610f7681610b26565b91508282048414831517610f8d57610f8c610eef565b5b5092915050565b6000606082019050610fa96000830186610bfd565b610fb66020830185610bfd565b610fc36040830184610b30565b949350505050565b6000610fd682610b26565b91507fffffffffffffffffffffffffffffffffffffffffffffffffffffffffffffffff820361100857611007610eef565b5b600182019050919050565b600061101e82610b26565b915061102983610b26565b925082820190508082111561104157611040610eef565b5b92915050565b7f4f776e61626c653a206e6577206f776e657220697320746865207a65726f206160008201527f6464726573730000000000000000000000000000000000000000000000000000602082015250565b60006110a3602683610e72565b91506110ae82611047565b604082019050919050565b600060208201905081810360008301526110d281611096565b9050919050565b7f4f776e61626c653a2063616c6c6572206973206e6f7420746865206f776e6572600082015250565b600061110f602083610e72565b915061111a826110d9565b602082019050919050565b6000602082019050818103600083015261113e81611102565b905091905056fea26469706673582212209568eccc104678e845e5f3660be27bdfc0438b405a28c9ee1f811d356a57a77a64736f6c63430008110033",
  "immutableReferences": {},
  "source": "// SPDX-License-Identifier: MIT\r\npragma solidity ^0.8.17;\r\nimport \"./Token.sol\";\r\n\r\ncontract coinstar is Ownable {\r\n    // uint256 public minAmount;\r\n\r\n    uint256 public tokenPrice = 0.0000000000000001 ether;\r\n    Token public MyToken;\r\n\r\n    mapping(address => uint256) balances;\r\n    uint256 public sellPrice;\r\n    uint256 public buyPrice;\r\n\r\n    mapping(address => uint256[]) InvestorAddress;\r\n    mapping(uint256 => uint256) public investorAmount;\r\n    uint256 public InvestorId;\r\n\r\n    function initialize(Token _myToken) public onlyOwner {\r\n        MyToken = Token(_myToken);\r\n    }\r\n\r\n    address public seller;\r\n    uint256 public price;\r\n\r\n    event Purchase(address indexed buyer, uint256 price);\r\n\r\n    function getID(address user) public view returns (uint256[] memory) {\r\n        return InvestorAddress[user];\r\n    }\r\n\r\n    function getRate() public view returns (uint256) {\r\n        return tokenPrice;\r\n    }\r\n\r\n    function setPrices(uint256 newSellPrice, uint256 newBuyPrice)\r\n        public\r\n        onlyOwner\r\n    {\r\n        sellPrice = newSellPrice;\r\n        buyPrice = newBuyPrice;\r\n    }\r\n\r\n    function buy(uint256 token) public payable {\r\n        // require(msg.value >= token, \"insufficient funds\");\r\n        InvestorId++;\r\n        InvestorAddress[msg.sender].push(InvestorId);\r\n        balances[msg.sender] += token;\r\n        MyToken.transferPrice(owner(), msg.sender, token);\r\n        investorAmount[InvestorId] = (token * 1);\r\n        tokenPrice = tokenPrice + (token * 1);\r\n    }\r\n\r\n    function sell(uint256 amount, uint256 id) public {\r\n        require(investorAmount[id] >= 1, \"No token left in user wallet\");\r\n        balances[msg.sender] -= amount;\r\n        payable(msg.sender).transfer(\r\n            amount * (tokenPrice - investorAmount[id])\r\n        );\r\n        MyToken.transferPrice(msg.sender, owner(), amount);\r\n        investorAmount[id] -= amount;\r\n        tokenPrice = tokenPrice - (amount * (1));\r\n    }\r\n}\r\n",
  "sourcePath": "E:\\KAMIL SIR\\PROJECT01\\BUY-SELL\\contracts\\coinstar.sol",
  "compiler": {
    "name": "solc",
    "version": "0.8.17+commit.8df45f5f.Emscripten.clang"
  },
  "schemaVersion": "3.4.11",
  "updatedAt": "2023-02-27T07:28:30.716Z",
  "devdoc": {
    "kind": "dev",
    "methods": {
      "owner()": {
        "details": "Returns the address of the current owner."
      },
      "renounceOwnership()": {
        "details": "Leaves the contract without owner. It will not be possible to call `onlyOwner` functions anymore. Can only be called by the current owner. NOTE: Renouncing ownership will leave the contract without an owner, thereby removing any functionality that is only available to the owner."
      },
      "transferOwnership(address)": {
        "details": "Transfers ownership of the contract to a new account (`newOwner`). Can only be called by the current owner."
      }
    },
    "version": 1
  },
  "userdoc": {
    "kind": "user",
    "methods": {},
    "version": 1
  }
}