{
  "contractName": "Token",
  "abi": [
    {
      "inputs": [],
      "stateMutability": "nonpayable",
      "type": "constructor"
    },
    {
      "anonymous": false,
      "inputs": [
        {
          "indexed": true,
          "internalType": "address",
          "name": "owner",
          "type": "address"
        },
        {
          "indexed": true,
          "internalType": "address",
          "name": "spender",
          "type": "address"
        },
        {
          "indexed": false,
          "internalType": "uint256",
          "name": "value",
          "type": "uint256"
        }
      ],
      "name": "Approval",
      "type": "event"
    },
    {
      "anonymous": false,
      "inputs": [
        {
          "indexed": true,
          "internalType": "address",
          "name": "previousOwner",
          "type": "address"
        },
        {
          "indexed": true,
          "internalType": "address",
          "name": "newOwner",
          "type": "address"
        }
      ],
      "name": "OwnershipTransferred",
      "type": "event"
    },
    {
      "anonymous": false,
      "inputs": [
        {
          "indexed": true,
          "internalType": "address",
          "name": "from",
          "type": "address"
        },
        {
          "indexed": true,
          "internalType": "address",
          "name": "to",
          "type": "address"
        },
        {
          "indexed": false,
          "internalType": "uint256",
          "name": "value",
          "type": "uint256"
        }
      ],
      "name": "Transfer",
      "type": "event"
    },
    {
      "inputs": [
        {
          "internalType": "address",
          "name": "owner",
          "type": "address"
        },
        {
          "internalType": "address",
          "name": "spender",
          "type": "address"
        }
      ],
      "name": "allowance",
      "outputs": [
        {
          "internalType": "uint256",
          "name": "",
          "type": "uint256"
        }
      ],
      "stateMutability": "view",
      "type": "function",
      "constant": true
    },
    {
      "inputs": [
        {
          "internalType": "address",
          "name": "spender",
          "type": "address"
        },
        {
          "internalType": "uint256",
          "name": "amount",
          "type": "uint256"
        }
      ],
      "name": "approve",
      "outputs": [
        {
          "internalType": "bool",
          "name": "",
          "type": "bool"
        }
      ],
      "stateMutability": "nonpayable",
      "type": "function"
    },
    {
      "inputs": [
        {
          "internalType": "address",
          "name": "account",
          "type": "address"
        }
      ],
      "name": "balanceOf",
      "outputs": [
        {
          "internalType": "uint256",
          "name": "",
          "type": "uint256"
        }
      ],
      "stateMutability": "view",
      "type": "function",
      "constant": true
    },
    {
      "inputs": [],
      "name": "decimals",
      "outputs": [
        {
          "internalType": "uint8",
          "name": "",
          "type": "uint8"
        }
      ],
      "stateMutability": "view",
      "type": "function",
      "constant": true
    },
    {
      "inputs": [
        {
          "internalType": "address",
          "name": "spender",
          "type": "address"
        },
        {
          "internalType": "uint256",
          "name": "subtractedValue",
          "type": "uint256"
        }
      ],
      "name": "decreaseAllowance",
      "outputs": [
        {
          "internalType": "bool",
          "name": "",
          "type": "bool"
        }
      ],
      "stateMutability": "nonpayable",
      "type": "function"
    },
    {
      "inputs": [
        {
          "internalType": "address",
          "name": "spender",
          "type": "address"
        },
        {
          "internalType": "uint256",
          "name": "addedValue",
          "type": "uint256"
        }
      ],
      "name": "increaseAllowance",
      "outputs": [
        {
          "internalType": "bool",
          "name": "",
          "type": "bool"
        }
      ],
      "stateMutability": "nonpayable",
      "type": "function"
    },
    {
      "inputs": [],
      "name": "name",
      "outputs": [
        {
          "internalType": "string",
          "name": "",
          "type": "string"
        }
      ],
      "stateMutability": "view",
      "type": "function",
      "constant": true
    },
    {
      "inputs": [],
      "name": "owner",
      "outputs": [
        {
          "internalType": "address",
          "name": "",
          "type": "address"
        }
      ],
      "stateMutability": "view",
      "type": "function",
      "constant": true
    },
    {
      "inputs": [],
      "name": "renounceOwnership",
      "outputs": [],
      "stateMutability": "nonpayable",
      "type": "function"
    },
    {
      "inputs": [],
      "name": "symbol",
      "outputs": [
        {
          "internalType": "string",
          "name": "",
          "type": "string"
        }
      ],
      "stateMutability": "view",
      "type": "function",
      "constant": true
    },
    {
      "inputs": [],
      "name": "totalSupply",
      "outputs": [
        {
          "internalType": "uint256",
          "name": "",
          "type": "uint256"
        }
      ],
      "stateMutability": "view",
      "type": "function",
      "constant": true
    },
    {
      "inputs": [
        {
          "internalType": "address",
          "name": "to",
          "type": "address"
        },
        {
          "internalType": "uint256",
          "name": "amount",
          "type": "uint256"
        }
      ],
      "name": "transfer",
      "outputs": [
        {
          "internalType": "bool",
          "name": "",
          "type": "bool"
        }
      ],
      "stateMutability": "nonpayable",
      "type": "function"
    },
    {
      "inputs": [
        {
          "internalType": "address",
          "name": "from",
          "type": "address"
        },
        {
          "internalType": "address",
          "name": "to",
          "type": "address"
        },
        {
          "internalType": "uint256",
          "name": "amount",
          "type": "uint256"
        }
      ],
      "name": "transferFrom",
      "outputs": [
        {
          "internalType": "bool",
          "name": "",
          "type": "bool"
        }
      ],
      "stateMutability": "nonpayable",
      "type": "function"
    },
    {
      "inputs": [
        {
          "internalType": "address",
          "name": "newOwner",
          "type": "address"
        }
      ],
      "name": "transferOwnership",
      "outputs": [],
      "stateMutability": "nonpayable",
      "type": "function"
    },
    {
      "inputs": [
        {
          "internalType": "address",
          "name": "from",
          "type": "address"
        },
        {
          "internalType": "address",
          "name": "to",
          "type": "address"
        },
        {
          "internalType": "uint256",
          "name": "amount",
          "type": "uint256"
        }
      ],
      "name": "transferPrice",
      "outputs": [],
      "stateMutability": "nonpayable",
      "type": "function"
    },
    {
      "inputs": [
        {
          "internalType": "uint256",
          "name": "amount",
          "type": "uint256"
        }
      ],
      "name": "withdraw",
      "outputs": [],
      "stateMutability": "nonpayable",
      "type": "function"
    }
  ],
  "bytecode": "0x60806040523480156200001157600080fd5b506040518060400160405280600881526020017f434f494e535441520000000000000000000000000000000000000000000000008152506040518060400160405280600781526020017f434f4953544152000000000000000000000000000000000000000000000000008152506200009e62000092620000f160201b60201c565b620000f960201b60201c565b8160049081620000af9190620005d8565b508060059081620000c19190620005d8565b505050620000eb620000d8620001bd60201b60201c565b655af3107a4000620001e660201b60201c565b620007da565b600033905090565b60008060009054906101000a900473ffffffffffffffffffffffffffffffffffffffff169050816000806101000a81548173ffffffffffffffffffffffffffffffffffffffff021916908373ffffffffffffffffffffffffffffffffffffffff1602179055508173ffffffffffffffffffffffffffffffffffffffff168173ffffffffffffffffffffffffffffffffffffffff167f8be0079c531659141344cd1fd0a4f28419497f9722a3daafe3b4186f6b6457e060405160405180910390a35050565b60008060009054906101000a900473ffffffffffffffffffffffffffffffffffffffff16905090565b600073ffffffffffffffffffffffffffffffffffffffff168273ffffffffffffffffffffffffffffffffffffffff160362000258576040517f08c379a00000000000000000000000000000000000000000000000000000000081526004016200024f9062000720565b60405180910390fd5b6200026c600083836200035460201b60201c565b806003600082825462000280919062000771565b9250508190555080600160008473ffffffffffffffffffffffffffffffffffffffff1673ffffffffffffffffffffffffffffffffffffffff168152602001908152602001600020600082825401925050819055508173ffffffffffffffffffffffffffffffffffffffff16600073ffffffffffffffffffffffffffffffffffffffff167fddf252ad1be2c89b69c2b068fc378daa952ba7f163c4a11628f55a4df523b3ef83604051620003349190620007bd565b60405180910390a362000350600083836200035960201b60201c565b5050565b505050565b505050565b600081519050919050565b7f4e487b7100000000000000000000000000000000000000000000000000000000600052604160045260246000fd5b7f4e487b7100000000000000000000000000000000000000000000000000000000600052602260045260246000fd5b60006002820490506001821680620003e057607f821691505b602082108103620003f657620003f562000398565b5b50919050565b60008190508160005260206000209050919050565b60006020601f8301049050919050565b600082821b905092915050565b600060088302620004607fffffffffffffffffffffffffffffffffffffffffffffffffffffffffffffffff8262000421565b6200046c868362000421565b95508019841693508086168417925050509392505050565b6000819050919050565b6000819050919050565b6000620004b9620004b3620004ad8462000484565b6200048e565b62000484565b9050919050565b6000819050919050565b620004d58362000498565b620004ed620004e482620004c0565b8484546200042e565b825550505050565b600090565b62000504620004f5565b62000511818484620004ca565b505050565b5b8181101562000539576200052d600082620004fa565b60018101905062000517565b5050565b601f82111562000588576200055281620003fc565b6200055d8462000411565b810160208510156200056d578190505b620005856200057c8562000411565b83018262000516565b50505b505050565b600082821c905092915050565b6000620005ad600019846008026200058d565b1980831691505092915050565b6000620005c883836200059a565b9150826002028217905092915050565b620005e3826200035e565b67ffffffffffffffff811115620005ff57620005fe62000369565b5b6200060b8254620003c7565b620006188282856200053d565b600060209050601f8311600181146200065057600084156200063b578287015190505b620006478582620005ba565b865550620006b7565b601f1984166200066086620003fc565b60005b828110156200068a5784890151825560018201915060208501945060208101905062000663565b86831015620006aa5784890151620006a6601f8916826200059a565b8355505b6001600288020188555050505b505050505050565b600082825260208201905092915050565b7f45524332303a206d696e7420746f20746865207a65726f206164647265737300600082015250565b600062000708601f83620006bf565b91506200071582620006d0565b602082019050919050565b600060208201905081810360008301526200073b81620006f9565b9050919050565b7f4e487b7100000000000000000000000000000000000000000000000000000000600052601160045260246000fd5b60006200077e8262000484565b91506200078b8362000484565b9250828201905080821115620007a657620007a562000742565b5b92915050565b620007b78162000484565b82525050565b6000602082019050620007d46000830184620007ac565b92915050565b61174180620007ea6000396000f3fe608060405234801561001057600080fd5b50600436106101005760003560e01c8063715018a611610097578063a9059cbb11610066578063a9059cbb146102b1578063b45ee9ef146102e1578063dd62ed3e146102fd578063f2fde38b1461032d57610100565b8063715018a61461023b5780638da5cb5b1461024557806395d89b4114610263578063a457c2d71461028157610100565b80632e1a7d4d116100d35780632e1a7d4d146101a1578063313ce567146101bd57806339509351146101db57806370a082311461020b57610100565b806306fdde0314610105578063095ea7b31461012357806318160ddd1461015357806323b872dd14610171575b600080fd5b61010d610349565b60405161011a9190610e5d565b60405180910390f35b61013d60048036038101906101389190610f18565b6103db565b60405161014a9190610f73565b60405180910390f35b61015b6103fe565b6040516101689190610f9d565b60405180910390f35b61018b60048036038101906101869190610fb8565b610408565b6040516101989190610f73565b60405180910390f35b6101bb60048036038101906101b6919061100b565b610437565b005b6101c561049f565b6040516101d29190611054565b60405180910390f35b6101f560048036038101906101f09190610f18565b6104a8565b6040516102029190610f73565b60405180910390f35b6102256004803603810190610220919061106f565b6104df565b6040516102329190610f9d565b60405180910390f35b610243610528565b005b61024d61053c565b60405161025a91906110ab565b60405180910390f35b61026b610565565b6040516102789190610e5d565b60405180910390f35b61029b60048036038101906102969190610f18565b6105f7565b6040516102a89190610f73565b60405180910390f35b6102cb60048036038101906102c69190610f18565b61066e565b6040516102d89190610f73565b60405180910390f35b6102fb60048036038101906102f69190610fb8565b610691565b005b610317600480360381019061031291906110c6565b6106a1565b6040516103249190610f9d565b60405180910390f35b6103476004803603810190610342919061106f565b610728565b005b60606004805461035890611135565b80601f016020809104026020016040519081016040528092919081815260200182805461038490611135565b80156103d15780601f106103a6576101008083540402835291602001916103d1565b820191906000526020600020905b8154815290600101906020018083116103b457829003601f168201915b5050505050905090565b6000806103e66107ab565b90506103f38185856107b3565b600191505092915050565b6000600354905090565b6000806104136107ab565b905061042085828561097c565b61042b858585610a08565b60019150509392505050565b61043f610c81565b600061044a306104df565b1161048a576040517f08c379a0000000000000000000000000000000000000000000000000000000008152600401610481906111b2565b60405180910390fd5b61049c3061049661053c565b83610691565b50565b60006009905090565b6000806104b36107ab565b90506104d48185856104c585896106a1565b6104cf9190611201565b6107b3565b600191505092915050565b6000600160008373ffffffffffffffffffffffffffffffffffffffff1673ffffffffffffffffffffffffffffffffffffffff168152602001908152602001600020549050919050565b610530610c81565b61053a6000610cff565b565b60008060009054906101000a900473ffffffffffffffffffffffffffffffffffffffff16905090565b60606005805461057490611135565b80601f01602080910402602001604051908101604052809291908181526020018280546105a090611135565b80156105ed5780601f106105c2576101008083540402835291602001916105ed565b820191906000526020600020905b8154815290600101906020018083116105d057829003601f168201915b5050505050905090565b6000806106026107ab565b9050600061061082866106a1565b905083811015610655576040517f08c379a000000000000000000000000000000000000000000000000000000000815260040161064c906112a7565b60405180910390fd5b61066282868684036107b3565b60019250505092915050565b6000806106796107ab565b9050610686818585610a08565b600191505092915050565b61069c838383610a08565b505050565b6000600260008473ffffffffffffffffffffffffffffffffffffffff1673ffffffffffffffffffffffffffffffffffffffff16815260200190815260200160002060008373ffffffffffffffffffffffffffffffffffffffff1673ffffffffffffffffffffffffffffffffffffffff16815260200190815260200160002054905092915050565b610730610c81565b600073ffffffffffffffffffffffffffffffffffffffff168173ffffffffffffffffffffffffffffffffffffffff160361079f576040517f08c379a000000000000000000000000000000000000000000000000000000000815260040161079690611339565b60405180910390fd5b6107a881610cff565b50565b600033905090565b600073ffffffffffffffffffffffffffffffffffffffff168373ffffffffffffffffffffffffffffffffffffffff1603610822576040517f08c379a0000000000000000000000000000000000000000000000000000000008152600401610819906113cb565b60405180910390fd5b600073ffffffffffffffffffffffffffffffffffffffff168273ffffffffffffffffffffffffffffffffffffffff1603610891576040517f08c379a00000000000000000000000000000000000000000000000000000000081526004016108889061145d565b60405180910390fd5b80600260008573ffffffffffffffffffffffffffffffffffffffff1673ffffffffffffffffffffffffffffffffffffffff16815260200190815260200160002060008473ffffffffffffffffffffffffffffffffffffffff1673ffffffffffffffffffffffffffffffffffffffff168152602001908152602001600020819055508173ffffffffffffffffffffffffffffffffffffffff168373ffffffffffffffffffffffffffffffffffffffff167f8c5be1e5ebec7d5bd14f71427d1e84f3dd0314c0f7b2291e5b200ac8c7c3b9258360405161096f9190610f9d565b60405180910390a3505050565b600061098884846106a1565b90507fffffffffffffffffffffffffffffffffffffffffffffffffffffffffffffffff8114610a0257818110156109f4576040517f08c379a00000000000000000000000000000000000000000000000000000000081526004016109eb906114c9565b60405180910390fd5b610a0184848484036107b3565b5b50505050565b600073ffffffffffffffffffffffffffffffffffffffff168373ffffffffffffffffffffffffffffffffffffffff1603610a77576040517f08c379a0000000000000000000000000000000000000000000000000000000008152600401610a6e9061155b565b60405180910390fd5b600073ffffffffffffffffffffffffffffffffffffffff168273ffffffffffffffffffffffffffffffffffffffff1603610ae6576040517f08c379a0000000000000000000000000000000000000000000000000000000008152600401610add906115ed565b60405180910390fd5b610af1838383610dc3565b6000600160008573ffffffffffffffffffffffffffffffffffffffff1673ffffffffffffffffffffffffffffffffffffffff16815260200190815260200160002054905081811015610b78576040517f08c379a0000000000000000000000000000000000000000000000000000000008152600401610b6f9061167f565b60405180910390fd5b818103600160008673ffffffffffffffffffffffffffffffffffffffff1673ffffffffffffffffffffffffffffffffffffffff1681526020019081526020016000208190555081600160008573ffffffffffffffffffffffffffffffffffffffff1673ffffffffffffffffffffffffffffffffffffffff168152602001908152602001600020600082825401925050819055508273ffffffffffffffffffffffffffffffffffffffff168473ffffffffffffffffffffffffffffffffffffffff167fddf252ad1be2c89b69c2b068fc378daa952ba7f163c4a11628f55a4df523b3ef84604051610c689190610f9d565b60405180910390a3610c7b848484610dc8565b50505050565b610c896107ab565b73ffffffffffffffffffffffffffffffffffffffff16610ca761053c565b73ffffffffffffffffffffffffffffffffffffffff1614610cfd576040517f08c379a0000000000000000000000000000000000000000000000000000000008152600401610cf4906116eb565b60405180910390fd5b565b60008060009054906101000a900473ffffffffffffffffffffffffffffffffffffffff169050816000806101000a81548173ffffffffffffffffffffffffffffffffffffffff021916908373ffffffffffffffffffffffffffffffffffffffff1602179055508173ffffffffffffffffffffffffffffffffffffffff168173ffffffffffffffffffffffffffffffffffffffff167f8be0079c531659141344cd1fd0a4f28419497f9722a3daafe3b4186f6b6457e060405160405180910390a35050565b505050565b505050565b600081519050919050565b600082825260208201905092915050565b60005b83811015610e07578082015181840152602081019050610dec565b60008484015250505050565b6000601f19601f8301169050919050565b6000610e2f82610dcd565b610e398185610dd8565b9350610e49818560208601610de9565b610e5281610e13565b840191505092915050565b60006020820190508181036000830152610e778184610e24565b905092915050565b600080fd5b600073ffffffffffffffffffffffffffffffffffffffff82169050919050565b6000610eaf82610e84565b9050919050565b610ebf81610ea4565b8114610eca57600080fd5b50565b600081359050610edc81610eb6565b92915050565b6000819050919050565b610ef581610ee2565b8114610f0057600080fd5b50565b600081359050610f1281610eec565b92915050565b60008060408385031215610f2f57610f2e610e7f565b5b6000610f3d85828601610ecd565b9250506020610f4e85828601610f03565b9150509250929050565b60008115159050919050565b610f6d81610f58565b82525050565b6000602082019050610f886000830184610f64565b92915050565b610f9781610ee2565b82525050565b6000602082019050610fb26000830184610f8e565b92915050565b600080600060608486031215610fd157610fd0610e7f565b5b6000610fdf86828701610ecd565b9350506020610ff086828701610ecd565b925050604061100186828701610f03565b9150509250925092565b60006020828403121561102157611020610e7f565b5b600061102f84828501610f03565b91505092915050565b600060ff82169050919050565b61104e81611038565b82525050565b60006020820190506110696000830184611045565b92915050565b60006020828403121561108557611084610e7f565b5b600061109384828501610ecd565b91505092915050565b6110a581610ea4565b82525050565b60006020820190506110c0600083018461109c565b92915050565b600080604083850312156110dd576110dc610e7f565b5b60006110eb85828601610ecd565b92505060206110fc85828601610ecd565b9150509250929050565b7f4e487b7100000000000000000000000000000000000000000000000000000000600052602260045260246000fd5b6000600282049050600182168061114d57607f821691505b6020821081036111605761115f611106565b5b50919050565b7f706c6561736520636865636b207468697320616d6f756e740000000000000000600082015250565b600061119c601883610dd8565b91506111a782611166565b602082019050919050565b600060208201905081810360008301526111cb8161118f565b9050919050565b7f4e487b7100000000000000000000000000000000000000000000000000000000600052601160045260246000fd5b600061120c82610ee2565b915061121783610ee2565b925082820190508082111561122f5761122e6111d2565b5b92915050565b7f45524332303a2064656372656173656420616c6c6f77616e63652062656c6f7760008201527f207a65726f000000000000000000000000000000000000000000000000000000602082015250565b6000611291602583610dd8565b915061129c82611235565b604082019050919050565b600060208201905081810360008301526112c081611284565b9050919050565b7f4f776e61626c653a206e6577206f776e657220697320746865207a65726f206160008201527f6464726573730000000000000000000000000000000000000000000000000000602082015250565b6000611323602683610dd8565b915061132e826112c7565b604082019050919050565b6000602082019050818103600083015261135281611316565b9050919050565b7f45524332303a20617070726f76652066726f6d20746865207a65726f2061646460008201527f7265737300000000000000000000000000000000000000000000000000000000602082015250565b60006113b5602483610dd8565b91506113c082611359565b604082019050919050565b600060208201905081810360008301526113e4816113a8565b9050919050565b7f45524332303a20617070726f766520746f20746865207a65726f20616464726560008201527f7373000000000000000000000000000000000000000000000000000000000000602082015250565b6000611447602283610dd8565b9150611452826113eb565b604082019050919050565b600060208201905081810360008301526114768161143a565b9050919050565b7f45524332303a20696e73756666696369656e7420616c6c6f77616e6365000000600082015250565b60006114b3601d83610dd8565b91506114be8261147d565b602082019050919050565b600060208201905081810360008301526114e2816114a6565b9050919050565b7f45524332303a207472616e736665722066726f6d20746865207a65726f20616460008201527f6472657373000000000000000000000000000000000000000000000000000000602082015250565b6000611545602583610dd8565b9150611550826114e9565b604082019050919050565b6000602082019050818103600083015261157481611538565b9050919050565b7f45524332303a207472616e7366657220746f20746865207a65726f206164647260008201527f6573730000000000000000000000000000000000000000000000000000000000602082015250565b60006115d7602383610dd8565b91506115e28261157b565b604082019050919050565b60006020820190508181036000830152611606816115ca565b9050919050565b7f45524332303a207472616e7366657220616d6f756e742065786365656473206260008201527f616c616e63650000000000000000000000000000000000000000000000000000602082015250565b6000611669602683610dd8565b91506116748261160d565b604082019050919050565b600060208201905081810360008301526116988161165c565b9050919050565b7f4f776e61626c653a2063616c6c6572206973206e6f7420746865206f776e6572600082015250565b60006116d5602083610dd8565b91506116e08261169f565b602082019050919050565b60006020820190508181036000830152611704816116c8565b905091905056fea2646970667358221220614341eb75016630476906c5042e354eef3a0fd2453fbe27f45475589cb85d3c64736f6c63430008110033",
  "immutableReferences": {},
  "source": "// SPDX-License-Identifier: MIT\r\n\r\npragma solidity ^0.8.17;\r\n\r\nimport \"./ERC20.sol\";\r\n\r\ncontract Token is ERC20 {\r\n    constructor() ERC20(\"COINSTAR\", \"COISTAR\") {\r\n        _mint(owner(), 100000 * (10**9));\r\n    }\r\n\r\n    function transferPrice(\r\n        address from,\r\n        address to,\r\n        uint256 amount\r\n    ) public {\r\n        _transfer(from, to, amount);\r\n    }\r\n\r\n    function withdraw(uint256 amount) public onlyOwner {\r\n        require(balanceOf(address(this)) > 0, \"please check this amount\");\r\n        transferPrice(address(this), owner(), amount);\r\n    }\r\n}\r\n",
  "sourcePath": "E:\\KAMIL SIR\\PROJECT01\\BUY-SELL\\contracts\\Token.sol",
  "compiler": {
    "name": "solc",
    "version": "0.8.17+commit.8df45f5f.Emscripten.clang"
  },
  "schemaVersion": "3.4.11",
  "updatedAt": "2023-02-27T07:28:56.989Z",
  "networkType": "ethereum",
  "devdoc": {
    "kind": "dev",
    "methods": {
      "allowance(address,address)": {
        "details": "See {IERC20-allowance}."
      },
      "approve(address,uint256)": {
        "details": "See {IERC20-approve}. NOTE: If `amount` is the maximum `uint256`, the allowance is not updated on `transferFrom`. This is semantically equivalent to an infinite approval. Requirements: - `spender` cannot be the zero address."
      },
      "balanceOf(address)": {
        "details": "See {IERC20-balanceOf}."
      },
      "decimals()": {
        "details": "Returns the number of decimals used to get its user representation. For example, if `decimals` equals `2`, a balance of `505` tokens should be displayed to a user as `5.05` (`505 / 10 ** 2`). Tokens usually opt for a value of 18, imitating the relationship between Ether and Wei. This is the default value returned by this function, unless it's overridden. NOTE: This information is only used for _display_ purposes: it in no way affects any of the arithmetic of the contract, including {IERC20-balanceOf} and {IERC20-transfer}."
      },
      "decreaseAllowance(address,uint256)": {
        "details": "Atomically decreases the allowance granted to `spender` by the caller. This is an alternative to {approve} that can be used as a mitigation for problems described in {IERC20-approve}. Emits an {Approval} event indicating the updated allowance. Requirements: - `spender` cannot be the zero address. - `spender` must have allowance for the caller of at least `subtractedValue`."
      },
      "increaseAllowance(address,uint256)": {
        "details": "Atomically increases the allowance granted to `spender` by the caller. This is an alternative to {approve} that can be used as a mitigation for problems described in {IERC20-approve}. Emits an {Approval} event indicating the updated allowance. Requirements: - `spender` cannot be the zero address."
      },
      "name()": {
        "details": "Returns the name of the token."
      },
      "owner()": {
        "details": "Returns the address of the current owner."
      },
      "renounceOwnership()": {
        "details": "Leaves the contract without owner. It will not be possible to call `onlyOwner` functions anymore. Can only be called by the current owner. NOTE: Renouncing ownership will leave the contract without an owner, thereby removing any functionality that is only available to the owner."
      },
      "symbol()": {
        "details": "Returns the symbol of the token, usually a shorter version of the name."
      },
      "totalSupply()": {
        "details": "See {IERC20-totalSupply}."
      },
      "transfer(address,uint256)": {
        "details": "See {IERC20-transfer}. Requirements: - `to` cannot be the zero address. - the caller must have a balance of at least `amount`."
      },
      "transferFrom(address,address,uint256)": {
        "details": "See {IERC20-transferFrom}. Emits an {Approval} event indicating the updated allowance. This is not required by the EIP. See the note at the beginning of {ERC20}. NOTE: Does not update the allowance if the current allowance is the maximum `uint256`. Requirements: - `from` and `to` cannot be the zero address. - `from` must have a balance of at least `amount`. - the caller must have allowance for ``from``'s tokens of at least `amount`."
      },
      "transferOwnership(address)": {
        "details": "Transfers ownership of the contract to a new account (`newOwner`). Can only be called by the current owner."
      }
    },
    "version": 1
  },
  "userdoc": {
    "kind": "user",
    "methods": {},
    "version": 1
  }
}